:020000040800F2
:10000000300F0020D1010008E73B0008173100083D
:10001000E53B00086D080008594E0008000000008C
:100020000000000000000000000000007D47000804
:10003000290B00080000000083440008D547000891
:10004000EB010008EB010008EB010008EB010008E0
:10005000EB010008EB010008EB010008EB010008D0
:10006000EB010008EB010008EB010008EB010008C0
:10007000EB010008EB010008EB010008EB010008B0
:10008000EB010008EB010008EB010008EB010008A0
:10009000EB010008EB010008EB010008EB01000890
:1000A000EB010008EB010008EB010008EB01000880
:1000B000EB0100085548000861480008EB01000802
:1000C000EB010008EB010008EB010008EB01000860
:1000D000EB010008414E0008EB0100084D4E0008FE
:1000E0002B0B0008EB010008EB01000800F002F800
:1000F00000F05FF80AA090E8000C82448344AAF163
:100100000107DA4501D100F054F8AFF2090EBAE860
:100110000F0013F0010F18BFFB1A43F0010318473B
:1001200030B9000050B900000A444FF0000C10F83C
:10013000013B13F0070408BF10F8014B1D1108BF65
:1001400010F8015B641E05D010F8016B641E01F805
:10015000016BF9D113F0080F1EBF10F8014BAD1C55
:100160000C1B09D16D1E58BF01F801CBFAD505E073
:1001700014F8016B01F8016B6D1EF9D59142D6D3CD
:10018000704700000023002400250026103A28BFF5
:1001900078C1FBD8520728BF30C148BF0B607047F9
:1001A000642900F09980002070471FB51FBD10B56D
:1001B00010BD00F05FFA1146FFF7F7FF06F086FA70
:1001C00000F07DFA03B4FFF7F2FF03BC04F05CFF1C
:1001D0000948804709480047FEE7FEE7FEE7FEE7DB
:1001E000FEE7FEE7FEE7FEE7FEE7FEE70448054917
:1001F000054A064B7047000051480008ED00000812
:1002000030090020300F0020300B0020300B002080
:1002100010B54C1084EA530404D54042C1F10001EA
:1002200038BF491E1B4204D55242C3F1000338BFF8
:100230005B1E00F00DF914F0804F04D04042C1F174
:10024000000138BF491E14F0004F04D05242C3F1E0
:10025000000338BF5B1E10BD0FB4044910B503AADC
:10026000029800F0D1F910BC5DF814FB6400002086
:100270002DE9F0410E460446002020622046E16848
:10028000884730B3252805D0D4E901219047206A5A
:10029000401CF2E7E168204600278847050018D097
:1002A000A5F14100192802D820354FF400673246E5
:1002B000294620462760FFF773FF40B1012804D08C
:1002C000F61D26F007060836D8E7361DD6E728467D
:1002D000DAE7206ABDE8F0812DE9F0410646002406
:1002E00010687529314616A510D0AFF3008000289C
:1002F00002DA404213A507E031688A0701D512A54A
:1003000002E0490704D511A5012401E0AFF3008004
:1003100000210A2206F1240709E0B0FBF2FCB0FB41
:10032000F2F302FB1C00303078541846491C0028B8
:10033000F3D123462A463046BDE8F04100F00AB921
:10034000000000002D0000002B0000002000000035
:1003500040EA010310B59B070FD1042A0DD310C842
:1003600008C9121F9C42F8D020BA19BA884201D994
:10037000012010BD4FF0FF3010BD1AB1D30703D0DC
:10038000521C07E0002010BD10F8013B11F8014B92
:100390001B1B07D110F8013B11F8014B1B1B01D1AE
:1003A000921EF1D1184610BD02F0FF0343EA03226A
:1003B00042EA024200F002B84FF000020429C0F005
:1003C000128010F0030C00F01B80CCF1040CBCF187
:1003D000020F18BF00F8012BA8BF20F8022BA1EBD9
:1003E0000C0100F00DB85FEAC17C24BF00F8012BBE
:1003F00000F8012B48BF00F8012B70474FF00002B6
:1004000000B5134694469646203922BFA0E80C500A
:10041000A0E80C50B1F12001BFF4F7AF090728BFE5
:10042000A0E80C5048BF0CC05DF804EB890028BF61
:1004300040F8042B08BF704748BF20F8022B11F08A
:10044000804F18BF00F8012B704770477047704706
:1004500053EA020C00F069802DE9F04B4FF00006E2
:10046000002B1FBFB3FA83F503FA05F424FA05F64F
:100470005E4012BF1643B2FA82F502FA05F4C5F1E6
:1004800020051EBF22FA05FC44EA0C04203556EA7A
:10049000044C4FEA144418BF641C4FF000084FF09E
:1004A0000009904271EB030C39D3002919BFB1FA4E
:1004B00081F701FA07F6B0FA80F700FA07F6C7F1FC
:1004C00020071EBF20FA07FC46EA0C062037B6FBC1
:1004D000F4FCA7EB0507103F07F01F0BCBF120063C
:1004E0000CFA0BFB2CFA06F644BFB3460026202F6D
:1004F000A4BF5E464FF0000B5BEA060C08BF4FF04E
:10050000010B19EB0B09ABFB027C48EB0608C01B87
:1005100006FB02CC0BFB03CC71EB0C01C1E70B46D5
:10052000024641464846BDE8F08B13B54FF0000047
:100530004FF00001AFF30080BDE81C40704710B5DC
:1005400000F074F8006810BD10B5044600F06EF8B5
:10055000046010BD2DE9F0470D46994692460446C9
:1005600000F124080168880604D5E06921F0100133
:10057000216000E00120A84201DD471B00E00027C8
:10058000A1697A1902EB0900081AA0612078C00657
:1005900002D42046AFF30080002608E0D4E9012110
:1005A0001AF806009047206A401C761C20624E45CF
:1005B000F4DB2078C0060AD52046AFF3008006E0C1
:1005C000D4E9012130209047206A401C2062381E67
:1005D000A7F10107F4DC07E0D4E9012118F80500D0
:1005E0009047206A401C2062281EA5F10105F3DC1B
:1005F0002046AFF300802078000602D50220BDE837
:10060000F0870120FBE70000074B70B50D467B44E7
:1006100000F015F80446284600F024F810B14FF019
:10062000FF3070BD204670BD035B0000004870477E
:10063000CC08002001694A1C02610878704700B5A7
:100640008FB0CDE901310021059105497944CDE90B
:10065000031011466846FFF70BFE0FB000BD000007
:10066000E5FFFFFF007B00F0800070470048704707
:10067000CC0800207546FFF7F9FFAE460500694635
:10068000534620F00700854618B020B5FFF7AEFDB1
:10069000BDE820404FF000064FF000074FF0000883
:1006A0004FF0000B21F00701AC46ACE8C009ACE804
:1006B000C009ACE8C009ACE8C0098D46704710B568
:1006C0000446AFF300802046BDE81040FFF77ABD36
:1006D00070B5044600688168C943C90717D18168AD
:1006E00021F00101816001F0EBF805460AE000BF4E
:1006F00001F0E6F8401B022804D920688068C04356
:10070000C00706D020688068C043C007F0D0002032
:1007100070BDA06A40F01000A062E06A40F00100E5
:10072000E062012070BD0000F8B500260446009686
:1007300000688168C943C9072DD0816841F0010173
:100740008160164816490068B0FBF1F000E0401ED9
:1007500000900028FBD101F0B3F8054616E000BF79
:1007600001F0AEF8401B022810D920688068C04311
:10077000C0070BD0A06A40F01000A062E06A40F011
:100780000100E06284F824600120F8BD20688068E0
:10079000C043C007E4D10020F8BD00007400002071
:1007A00040420F002DE9F047824627480024254E9D
:1007B00000788846012804D024480078012803D016
:1007C00004E04FF0824401E04FF04144204D2046C8
:1007D000E969894608F00EFC0746314608F034FB0B
:1007E000494608F09FF9E861384608F0C5FA06F076
:1007F000C3FD08F0FDFA1749884200DAEC6116489B
:100800000168504608F0ECFBE96908F08BF91349E0
:10081000054688F00040096808F016FB104908F00A
:10082000E9F9044610480F49006808F0E3F9294641
:1008300008F00AFB214608F0DDFBBDE8F04708F0B0
:100840009BBA0000BC74933D2800002029000020C2
:100850006C010020CDCCCC3D040000201400002011
:100860000000C8420000C8C210000020FEE70000DF
:100870002DE9F0410D4C0A4607460B4E1046216803
:1008800008F0E2FAE16A08F04DF90146084808F07C
:10089000DBFA05463146384608F0D6FA294608F014
:1008A00041F9E062BDE8F0810AD7A33C8C0000204A
:1008B00048E17A3F2DE9F0410D4C0A4607460B4EC0
:1008C0001046216808F0C0FAA16D08F02BF9014626
:1008D000084808F0B9FA05463146384608F0B4FA37
:1008E000294608F01FF9A065BDE8F0810AD7A33CAE
:1008F0008C00002048E17A3FF8B5374F00260120F0
:100900000096387002466B467521682005F058FE47
:1009100032A0FFF7A1FC9DF8000068280CD0BFF3BF
:100920004F8F37480168374A01F4E0611143016095
:10093000BFF34F8F00BFFDE705F0DAFF002848D175
:10094000782006F093FC10B924A0FFF785FC7820EE
:1009500005F000FF10B92CA0FFF77EFCC82006F0C0
:1009600045FC10B932A0FFF777FC05F06FF810B91D
:1009700039A0FFF771FC4548044605F083FE0546A3
:10098000E01C05F07FFE45EAC005A01D05F07AFEDB
:1009900045EA801080B205F019FA10B93CA0FFF7C3
:1009A0005BFC40F2731004F029FF10B942A0FFF77E
:1009B00053FCC82005F072F910B949A0FFF74CFCB0
:1009C00007F0CCF9012006F037FB10B94DA0FFF776
:1009D00043FC3E70F8BD0000030000206D70755FA1
:1009E0007365745F73656E736F7220636F6D706C87
:1009F000657465202E2E2E2E2E2E0D0A000000006E
:100A00000CED00E00400FA056D70755F636F6E66B3
:100A100069677572655F6669666F20636F6D706C7C
:100A2000657465202E2E2E2E2E2E0D0A000000003D
:100A30006D70755F7365745F73616D706C655F7207
:100A400061746520636F6D706C657465202E2E2E49
:100A50002E2E2E0D0A000000646D705F6C6F6164B5
:100A60005F6D6F74696F6E5F6472697665725F66E1
:100A700069726D7761726520636F6D706C65746506
:100A8000202E2E2E2E2E2E0D0A000000600100209A
:100A9000646D705F7365745F6F7269656E746174A5
:100AA000696F6E20636F6D706C657465202E2E2EDD
:100AB0002E2E2E0D0A000000646D705F656E61625F
:100AC0006C655F6665617475726520636F6D706CCF
:100AD000657465202E2E2E2E2E2E0D0A000000008D
:100AE000646D705F7365745F6669666F5F72617471
:100AF0006520636F6D706C657465202E2E2E2E2E12
:100B00002E0D0A006D70755F7365745F646D705FA4
:100B1000737461746520636F6D706C657465202EED
:100B20002E2E2E2E2E0D0A0070474FF4805000F00E
:100B3000BDBD72B6FEE7000010B5094800F0FCFB31
:100B40001E21074800F05AFB054800F097FA80057F
:100B500003D5034800F094FA84B2204610BD00008B
:100B6000B00100202DE9FC5F044603F069FD8E49C9
:100B7000DFF838828E4F0860012C7DD04421D020D0
:100B800002F0CAFA04464321D02002F0C5FA04EB71
:100B9000002008F045F906464621D02002F0BCFAB4
:100BA00004464521D02002F0B7FA04EB002008F0FB
:100BB00037F900904821D02002F0AEFA04464721D0
:100BC000D02002F0A9FA04EB002008F029F905462C
:100BD0003C21D02002F0A0FA04463B21D02002F0B4
:100BE0009BFA04EB002008F01BF983463E21D0203D
:100BF00002F092FA04463D21D02002F08DFA04EB77
:100C0000002008F00DF982464021D02002F084FA3D
:100C100004463F21D02002F07FFA04EB002008F0C8
:100C2000FFF84FF08E4904464E4505DD4FF08F41E9
:100C3000304608F0DFF906460098484504DD4FF0DD
:100C40008F4108F0D7F900904D4505DD4FF08F41F9
:100C5000284608F0CFF905465846CB4504DD4FF04D
:100C60008F4108F0C7F983465046CA4506DD4FF06C
:100C70008F4108F0BFF900E058E082464C4505DDA1
:100C80004FF08F41204608F0B5F9044686F0004148
:100C90002046C8F8001007F019FF804689465046E4
:100CA00007F014FF42464B4604F078FCDFF804A13D
:100CB0000022534607F0FAFB3F4A404B07F0CCF9BD
:100CC00007F0DCF80190584607F000FF42464B461B
:100CD00004F064FC0022534607F0E8FB364A374B29
:100CE00007F0BAF907F0CAF88246304607F0EEFE80
:100CF000DFF8CC804FF066363246434607F0ACF959
:100D000007F0BCF88146009807F0E0FE3246434603
:100D100007F0A2F907F0B2F806462A48DFF8A880E3
:100D2000007802281DD0032827D035E003F0AAFB65
:100D30002648274C39680160B4F9000008F058F8DB
:100D4000C8F80000B4F9040008F052F8214908601E
:100D50002148B0F9040008F04BF820490860BDE8CC
:100D6000FC9F4946019802F083FB80F00040386008
:100D70003146504602F02AFC0AE049460198FFF746
:100D800077FD80F00040386031465046FFF792FD15
:100D900080F00041C8F800100C48396801600D4827
:100DA00005600E480460DAE73C000020480000209F
:100DB0004C01002000806640F1D4C853FB2109405B
:100DC00066663040000000204801002044000020FA
:100DD000540100204C0000205A0100205C0000203B
:100DE0002DE9F05F8B4607F0FAFA274C00222346E4
:100DF00007F05CFB6FF001052A4608F0A2F9234ECC
:100E00000022334607F028F9214F00223B4607F025
:100E100023F907F033F807F059FEDFF87880DFF8A0
:100E200078A04246534607F041FBDFF8709000225D
:100E30004B4607F03BFB07F021F81949086058467C
:100E400007F0CDFA0022234607F030FB2A4608F0CF
:100E500078F90022334607F0FFF800223B4607F0FE
:100E6000FBF807F00BF807F031FE4246534607F057
:100E70001DFB00224B4607F019FB06F0FFFF094956
:100E80000860BDE8F09F00000000694000003E409F
:100E900000407F40F1D4C853FB21094000C05040BE
:100EA0003400002038000020F8B5002504460095E5
:100EB00090F8240001280BD0012084F8240020465B
:100EC000FFF706FC2046FFF72FFC060002D050E09B
:100ED0000220F8BDA06A20F4885040F00200A06211
:100EE000022000F08FFD25490968B1FBF0F04000B9
:100EF00000E0401E00900028FBD12068816841F08E
:100F00000801816000F0DCFC074608E000F0D8FC36
:100F1000C01B0A2803D920688068000715D4206800
:100F200080680007F2D42068816841F00401816084
:100F300000F0C6FC074612E000F0C2FCC01B0A2805
:100F40000DD920688068400709D5A06A20F002000A
:100F500040F01000A06284F824500120F8BD206801
:100F600080684007E8D4A06A20F0020040F0010049
:100F7000A06284F824503046F8BD000074000020C0
:100F8000F8B50024009490F824202546012A12D0B8
:100F9000012280F824204A681F23072A0DD2066800
:100FA000776B521E02EB820293409F430B68934083
:100FB0001F43776319E00220F8BD06680D2A0AD2A4
:100FC000376BD21F02EB820293409F430B68934022
:100FD0001F43376309E0F76A0D3A02EB8202934040
:100FE0009F430B6893401F43F7620A680723066814
:100FF0000A2A0AD3F7680A3A02EB420293409F4357
:101000008B6893401F43F76008E0376902EB4202A8
:1010100093409F438B6893401F4337610A68102AAF
:1010200001D0112A20D1124B02689A4217D193683D
:101030001B0219D4936843F40003936009681029D4
:1010400012D10C490C4A0968B1FBF2F101EB8101A4
:10105000490000E0491E00910029FBD104E0816AAB
:1010600041F020018162012480F824502046F8BD1F
:10107000002401407400002040420F00806A704745
:101080000068C06C704700002DE9F0414FF0000788
:1010900004003D467ED0A06A002628B9E66284F8A6
:1010A0002460204600F07EF82046FFF711FBA16A7D
:1010B000C90600D420B1A06A40F01000A06269E027
:1010C000A16A21F4885141F00201A1626268E169DC
:1010D000237B0A4347EA43010A43A1684FF4807720
:1010E000B94209D0012907D05FF0000194F814C07B
:1010F000BCF1010F02D00AE03946F7E7F3B1A36A69
:1011000043F02003A362E36A43F00103E362236830
:10111000D3F804C02CF4694C4CEA010CC3F804C0A9
:1011200021688B68DFF870C003EA0C0313438B60FF
:10113000A168B9420BD0012909D00CE0DFF85CC0EE
:10114000A3690CEB43330B4343F40061DFE7218ACF
:101150000D05A5F580152168CB6A23F470032B4398
:10116000CB62216889680E4B1940914208D1E66232
:10117000A16A21F0020141F00101A162BDE8F08104
:10118000A06A20F0020040F01000A062E06A40F087
:101190000100E0620120F1E7FDF7E1FF00E0FFFF61
:1011A000FE0E1FFF00B585B0002100910191029154
:1011B000039100680E49884218D10E48816941F4B4
:1011C00000718161816901F400710491816941F0CC
:1011D000080181618069694600F0080004900120DF
:1011E000009003200190044800F06CFA05B000BDA7
:1011F0000024014000100240000C01402DE9F8439A
:1012000000270D460446009700F05AFB80462068F0
:101210008168C90508D5A06A40F02000A06284F862
:1012200024700120BDE8F8834168C90503D4C06A71
:1012300010F4700F2AD0022000F0E4FB3B4909684B
:10124000B1FBF0F62068036939490B424FEA6101AE
:101250004FEAA1121FD1C3684FEA611C13EA0C0FB9
:1012600019D103690B4225D1C068104222D1142044
:1012700023E0681C0AD02DB100F022FBA0EB08008F
:10128000A84203D920680068800725D52068006837
:101290008007EED52DE003690B4202D1C1681142EF
:1012A00006D0026923490A4206D1C068084203D128
:1012B000542002E0292000E0FC204643009816E07C
:1012C000681C11D02DB100F0FBFAA0EB0800A84279
:1012D0000AD90098B04207D2A06A40F00400A06288
:1012E00084F8247003209DE70098401C0090B042D1
:1012F000E6D321686FF012000860A06A40F4007025
:10130000A06220688068C0F3424007280CD1207B8F
:1013100050B9A06A20F48070A062A06AC00403D40F
:10132000A06A40F00100A06200207BE7740000206A
:10133000244992244992240070B5044690F8240070
:1013400001280DD0012084F824002046FFF7ECF995
:1013500002004FF0000005D084F82400104670BD54
:10136000022070BDA16A40F20123994341F48071CB
:10137000A1621F4D23681F49AB4218D10E6816F4B5
:10138000702F14D0A66A46F48016A6620E68760501
:1013900005D5A66A26F4005646F48056A662A66ACB
:1013A000F6040AD5E66A26F00606E66206E0A66AB4
:1013B00026F48016A6625E68E9E7E06284F82400FD
:1013C0006FF00200186020688368C3F34243072B64
:1013D00005D1A84208D1096811F4702F04D08168A2
:1013E00041F480118160B9E7816841F4A001F9E717
:1013F000002801400424014010B590F8211000227B
:10140000022905D00421816380F82020012010BD2D
:1014100001680B6823F00E030B6001680B6823F072
:1014200001030B6090F84030C46B012101FA03F313
:10143000636080F8211080F82020104610BD000065
:1014400010B590F821100024022903D004218163F3
:1014500001243DE001680A6822F00E020A6001687A
:101460000A6822F001020A601A4A0168914201D119
:10147000012121E0174A1432914201D110211BE0D1
:10148000144A2832914201D1891515E0114A3C32A3
:10149000914201D189140FE00E4A5032914202D19B
:1014A0004FF4803108E00B4A6432914202D14FF48C
:1014B000801101E04FF08071064A083A5160012125
:1014C00080F82110002180F82010416B01B188477D
:1014D000204610BD0800024070B5044600F0F0F947
:1014E0000546601C02D004480078044400F0E8F986
:1014F000401BA042FAD370BD680000202DE9F041E6
:10150000B0F5805F7ED1574C2078B0B100202070BC
:1015100055480078FFF726FB544803F08BF8464205
:10152000534803F087F8074601463046FFF758FC5A
:1015300020780025012802D024E00120E7E7FFF70A
:10154000FBFA4FF4A571484306F060FF494A4A4B45
:1015500006F0ACFF6FF00B0207F0F3FD06F010FF92
:10156000014620616069401C6061A26964281144E1
:10157000A16107D191FBF0F007F03AFC3F49086008
:10158000A56165613E4C2078401C2070207864285D
:1015900002D102F0C9F825703A4801683A4800685B
:1015A000FFF700F904463946304603F057FC05467C
:1015B0003648006880F0004003F07AFA6219344B34
:1015C0001118344C101A19602060084605F0D4FE3A
:1015D0000146206805F0D0FE084400EBD0704010B2
:1015E00000EB4000C11700EB91702B4980102C4A92
:1015F0000D782A49012D07D10D78012D09D01578D4
:10160000012D00E02CE00AD0264D2D78012D20D0B0
:101610000BE01968014419602168081A04E0196890
:10162000091A19602168084420601F4D18686E422D
:101630002A46314602F01EFF18602A4631462068CD
:1016400002F018FF014620601868BDE8F04103F081
:1016500097B809780129E2D011780129D9D0E4E7B7
:10166000BDE8F0816C01002000000020C8020020CD
:1016700010030020713D0AD7A3F025404000002050
:101680006000002048000020440000204C000020A2
:101690002C00002030000020280000202A0000201C
:1016A0002B000020290000200CE5FFFF044910B5A5
:1016B0000A68024202D00860FFF720FF10BD000058
:1016C000140401402DE9F84FDFF8B8910024A9F186
:1016D000040B23460F2709F1040AABF1040EC9E0FD
:1016E0000125A5402A40AA427DD1674ED1F804C009
:1016F000ACEB0608B44532D014DCBCF1030F3AD091
:1017000009DCBCF1000F2AD0BCF1010F1CD0BCF1E8
:10171000020F31D11DE0BCF1110F17D0BCF1120F37
:101720002AD119E0B8F5881F19D006DCB8F5803F3A
:1017300015D0B8F5801F1FD111E0B8F5001F0ED0ED
:10174000B8F5041F18D10AE0CB6815E0CB681B1D63
:1017500012E0CB6808330FE0CB680C330CE08B68E9
:101760002BB1012B4FF0080303D0456104E00423A3
:1017700002E0056100E00023FF2A01D8064601E0EF
:1017800000F104064FEA840501D9A5F12005D6F839
:10179000008007FA05FC28EA0C0803FA05F548EA78
:1017A0000508C6F800804D68ED0062D5374DAE697A
:1017B00046F00106AE61AD6924F0030605F00105AF
:1017C0000095334D06EB050CDCF80850A607360FE4
:1017D00007FA06F825EA0805DFF8B880404503D186
:1017E0004FF0000817E044E0DFF8AC80404502D13C
:1017F0004FF001080FE0DFF8A480404502D14FF020
:10180000020808E0DFF89880404502D14FF0030855
:1018100001E04FF0040808FA06F848EA0508CCF899
:1018200008804D68D9F80060ED024D4601D5164399
:1018300000E096432E604D68DAF80060AD02554630
:1018400001D5164300E096432E604D68DBF800603A
:10185000AD035D4601D5164300E096432E604D680A
:10186000DEF80060ED03754601D5164300E09643AF
:101870002E60641C0D682A46E5407FF431AFBDE858
:10188000F88F000008040140000011100010024011
:101890000000014000080140000C01400010014020
:1018A00000140140C26821EA02030A4043EA0241EF
:1018B000016170470AB1016170470904FBE700004C
:1018C0000148806870470000680000200248816875
:1018D000027811448160704768000020074810B505
:1018E000016841F010010160032000F079F8002048
:1018F00000F006F800F024F8002010BD002002409F
:1019000070B50D4D04464FF47A712878B1FBF0F0B4
:101910000A490968B1FBF0F000F0E3FC48B9102C6B
:1019200007D200222146501E00F03AF800206C60D9
:1019300070BD012070BD0000680000207400002010
:101940000E4808B5816941F001018161816901F0AA
:1019500001010091C16941F08051C161C06900F08D
:1019600080500090052000F03BF80548416821F0C8
:10197000E06141F00071416008BD000000100240CC
:1019800000000140002809DB00F01F020121914006
:101990004009800000F1E020C0F80011704700000D
:1019A000F0B40E4B1B680C46C3F30223C3F10705CA
:1019B000042D00D90425191D072901D2002300E0B8
:1019C000DB1E012606FA05F1491E214099409E4082
:1019D000761E16403143F0BC03F0CEBA0CED00E0A9
:1019E000064900F0070208684FF6FF03184040EA76
:1019F0000220034A10430860704700000CED00E02D
:101A00000000FA0510B501460020234C012922D020
:101A1000022939D010291DD161682268D20119D557
:101A20001E48C1F38342C903805C0AD561681B4A22
:101A3000C1F34041921E515C194AB2FBF1F1484397
:101A400001E0184948436168490203D4400003217A
:101A5000B0FBF1F010BD226AC2F30121012903D1CC
:101A6000920701D5C80310BD022905D1626A920709
:101A700002D549F6404010BD0329FCD121688903F5
:101A8000F9D54FF2244010BD00F02AF96168C1F386
:101A90008131491C4900DBE7001002402E9200080A
:101AA00000127A0000093D002DE9F8430546007850
:101AB000354CC00754D0E0690026C00008D4E06966
:101AC00040F08050E061E069012600F08050009015
:101AD0002E480168C90512D40168804641F480711E
:101AE0000160FFF7EDFE074605E000BFFFF7E8FEE7
:101AF000C01B642823D8D8F80000C005F6D5206A9A
:101B000010F4407021D0A98801F4407181421CD0AA
:101B1000206A1F49012220F440700A6000220A60F6
:101B20002062C00711D0FFF7CBFE074641F288388C
:101B300008E000BFFFF7C4FEC11B414502D90320E6
:101B4000BDE8F883206A8007F4D5206A696820F42C
:101B50004070084320621EB1E06920F08050E061CF
:101B60002878800705D56068A96820F440400843BC
:101B700060602878C00605D56068E96820F48000B8
:101B8000084360600020DBE7001002400070004066
:101B9000400442422DE9F0470F46050061D0434E14
:101BA000306800F00700B84209D2306820F0070022
:101BB00038433060306800F00700B84251D12868DF
:101BC0003B4C810712D5400703D5606840F4E060C4
:101BD00060602878000703D5606840F4605060605A
:101BE0006068A96820F0F000084360602878C007AA
:101BF00028D06868012810D02168022810D08907F1
:101C000000292EDA616821F0030101436160FFF7CA
:101C100057FE804641F288390DE021688903EFE7DD
:101C20008901EDE7FFF74CFEA0EB0801494502D919
:101C30000320BDE8F0876068696800F00C00B0EB35
:101C4000810FEFD1306800F00700B8420BD930683F
:101C500020F0070038433060306800F00700B842D9
:101C600001D00120E5E72878400705D56068E968DC
:101C700020F4E060084360602878000706D56068BB
:101C8000296920F4605040EAC100606000F038F833
:101C90006168084AC1F30311515CC84006490860F5
:101CA00006480068FFF72CFE0020C2E70020024033
:101CB000001002403E920008740000206C000020DA
:101CC0000448054900684968044AC1F30221515C8F
:101CD000C840704774000020001002404E92000877
:101CE0000448054900684968044AC1F3C221515CAF
:101CF000C840704774000020001002404E92000857
:101D00000E4A51680E4801F00C03042B11D0082B29
:101D10000FD10C48C1F38343C903C05C0AD5516895
:101D2000084AC1F34041921E515C054A5043B0FB42
:101D3000F1F070470449484370470000001002402A
:101D400000127A001C92000800093D002DE9F84FAE
:101D5000040070D02078C04DC00749D06868C0F337
:101D60008100012807D06868C0F38100022809D1EA
:101D70006868C00306D52868800339D560680028E4
:101D8000E7D035E06068B0F5803F0BD010B1B0F51A
:101D9000A02F11D0286820F480302860286820F413
:101DA000802002E0286840F480302860606890B1AC
:101DB000FFF786FD06460AE0286840F48020286088
:101DC000F0E700BFFFF77CFD801B642873D828680C
:101DD0008003F7D50CE0FFF773FD064605E000BF72
:101DE000FFF76EFD801B6428F0D828688003F7D4C5
:101DF00020789A4E80074FF001094FF0000839D53E
:101E0000686810F00C0F07D06868C0F381000228E2
:101E100009D16868C00306D42868800714D52069F2
:101E2000012808D110E02069B0B1C6F80090FFF792
:101E300047FD074605E00AE1FFF742FDC01B022807
:101E4000C4D828688007F7D52868616920F0F800B1
:101E500040EAC10028600DE0C6F80080FFF730FDC1
:101E6000074604E0FFF72CFDC01B022823D8286892
:101E70008007F7D4207800072CD57948A169D9B11B
:101E8000C0F80090FFF71CFD074604E0FFF718FDBF
:101E9000C01B02280FD8686A8007F7D571484FF435
:101EA000FA510068B0FBF1F0009000BF0098411EAD
:101EB0000091FAD20EE080E0C0F80080FFF700FD4C
:101EC000074604E0FFF7FCFCC01B022875D8686ACF
:101ED0008007F7D42078400760D5E8690027C00064
:101EE00008D4E86940F08050E861E869012700F013
:101EF000805000905C480168C90513D4016883468E
:101F000041F480710160FFF7DBFC824606E000BF10
:101F1000FFF7D6FCA0EB0A0064284ED8DBF80000DF
:101F2000C005F5D5E06801280AD008B1052813D00E
:101F3000286A20F001002862286A20F0040002E0EC
:101F4000286A40F001002862E06841F2883B98B1BD
:101F5000FFF7B6FC82460BE0286A40F004002862D6
:101F6000EEE700BFFFF7ACFCA0EB0A0159455AD8D9
:101F7000286A8007F6D50CE0FFF7A2FC824605E050
:101F8000FFF79EFCA0EB0A0159454CD8286A800750
:101F9000F6D41FB1E86920F08050E861E06988B3A9
:101FA0006968C1F38101022944D00228C6F8608023
:101FB00004D0FFF785FC044638E034E0FFF780FCEE
:101FC000074604E0FFF77CFCC01B02282BD82868DA
:101FD0008001F7D4206AB0F5803F05D16868A16818
:101FE00020F4003008436860D4E9080108436968B8
:101FF00021F4741108436860C6F86090FFF760FC34
:10200000044606E025E000BFFFF75AFC001B02284B
:1020100009D828688001F7D51BE000BFFFF750FC06
:10202000001B022802D90320BDE8F88F2868800130
:10203000F4D40EE00128F7D06868226A00F48031F9
:10204000914204D1616A00F47010884201D00120ED
:10205000EAE70020E8E700000010024000004242EA
:1020600080044242740000200070004070B50400FB
:1020700009D0606A002540B125616561A56294F8C8
:10208000510040B10CE0012070BD6068B0F5827F66
:10209000F4D0E561F2E784F85050204600F040F8B3
:1020A000022084F851002068016821F0400101609D
:1020B000A088218900F4827001F404410843A189B9
:1020C00001F400610843217C01F002010843217DF5
:1020D00001F001010843218B01F400710843217FC5
:1020E00001F03801084394F8201001F08001084302
:1020F000218D01F40051084321680860A069042182
:1021000001EA1040216848602068C16921F400613B
:10211000C1616565012084F85100002070BD000098
:1021200000B585B0002100910191029103910068F2
:102130000F4988421AD10F48816941F48051816169
:10214000816901F480510491816941F00401816148
:102150008069694600F004000490A02000900220ED
:102160000190032003900448FFF7ACFA05B000BDCE
:102170000030014000100240000801402DE9F84FF6
:10218000984616468A460446FFF79AFB814694F81D
:10219000510001281ED1BAF1000F73D0002E71D06A
:1021A00094F85000012815D0012784F850700320BE
:1021B00084F8510000256565C4F830A0A686E6863F
:1021C000A563A587E58765642564A068B0F5004F21
:1021D00003D00CE00220BDE8F88F2068016821F0F0
:1021E000400101602068016841F48041016020687D
:1021F0000168490603D4016841F040010160E068CC
:10220000B0F5006F606803D048B3012E27D047E0D7
:1022100008B1012E1FD1206B21680088C86006E03C
:1022200020688168890709D5216B0988C160206B06
:10223000801C2063E08E401EE0860CE0FFF740FB30
:10224000A0EB0901414503D3B8F1FF3F03D035E0CE
:10225000B8F1000F32D0E08E0028E1D123E0206BEE
:1022600021680078087306E02068816889070AD52C
:10227000216B09780173206B401C2063E08E401EA7
:10228000E0860DE02BE0FFF71BFBA0EB09014145C9
:1022900003D3B8F1FF3F03D010E0B8F1000F0DD029
:1022A000E08E0028E0D14A464146204602F0F0F98F
:1022B00008B120206065A06830B109E084F8517051
:1022C00084F85050032086E72068C1688068009039
:1022D00084F8517004F8505F60680028F3D0012042
:1022E00079E710B5401EB0F1807F01D3012010BD09
:1022F0004FF0E02460610F21601702F03DFE0020E6
:10230000A06107202061002010BD7047704710B504
:1023100090F83C20012A22D0012280F83C20CA6893
:102320008C6822F4407222434C6822F4806222437B
:102330000C6822F4006222430C6922F4805222438A
:102340004C6922F400522243C969002322F48042DE
:102350000A4301684A6480F83C30002010BD022026
:1023600010BD000070B590F83C20012A26D0012451
:1023700080F83C40022280F83D2003685A689D683E
:1023800022F070060A6832435A600D4B02689A4286
:1023900008D0B2F1804F05D00A4B9A4202D00A4BC6
:1023A0009A4204D1496825F080031943916080F86E
:1023B0003D40002180F83C10084670BD022070BDF1
:1023C000002C0140000400400008004010B504004B
:1023D00003D094F83D0010B107E0012010BD0020AB
:1023E00084F83C00204600F01FF8022084F83D00ED
:1023F000211D206802F03AFA012084F8460084F892
:102400003E0084F83F0084F8400084F8410084F8DE
:10241000420084F8430084F8440084F8450084F8BE
:102420003D00002010BD000008B500680649884244
:1024300008D10648816941F400618161806900F436
:102440000060009008BD0000002C01400010024018
:1024500070B5044690F83C000025012817D00126ED
:1024600084F83C60022084F83D002068826822F0F5
:10247000770222F47F4282600868502838D00DDC51
:1024800020284FD005DC90B3102811D14AE002205B
:1024900070BD302846D040280AD13BE060282FD0BC
:1024A00070280DD0B0F5805F03D0B0F5005F12D07A
:1024B000012584F83D60002084F83C00284670BD6A
:1024C000CB68D1E90121206802F019FA20688168FF
:1024D00041F0770109E0CB68D1E90121206802F0E1
:1024E0000EFA2068816841F480418160E1E719E0DB
:1024F000CA684968206802F0B7FA5021206806E0EF
:10250000CA684968206802F0C0FA6021206802F0B9
:1025100000FACEE7CA684968206802F0A5FA4021AF
:102520002068F4E7226801461046F0E72DE9F04103
:102530000D46040003D094F83D0018B108E00120D6
:10254000BDE8F081002084F83C00204600F040F80F
:10255000022084F83D002068816844F2070291431C
:102560008160211D206802F081F9226890689169DC
:10257000166A2B68AF69034340F20330814341EA96
:102580000721A868EF6908434FF6FC418843E968D2
:1025900040EA0720014328692F6A000140EA07301A
:1025A000084369686D6926F0220646EA0515294345
:1025B00093602268906154F8460B0162012004F890
:1025C0001F09E0752076E0762077A0750020B7E738
:1025D00000B585B00021009101910291039102683C
:1025E0003249B2F1804F28D0314B32489A423CD127
:1025F000CA6942F00202CA61CA6902F00202049288
:102600008A6942F008028A61896901F0080104912F
:10261000302100916946FFF755F82748416821F4B9
:10262000406141F0E06141F400614160002201211C
:102630001D20FFF7B5F91D2035E0C86940F0010005
:10264000C861C86900F001000490886940F0040086
:1026500088618869694600F00400049003200090B6
:102660001648FFF72FF805B000BD154B9A42FAD176
:10267000CA6942F00402CA61CA6902F00402049203
:102680008A6942F008028A61896901F008010491AF
:10269000C02100916946FFF715F8002201211E2094
:1026A000FFF77EF91E20FFF76DF9DCE7001002400E
:1026B00000040040000C01400000014000080140FF
:1026C0000008004070B590F83E60044690F83F5016
:1026D00090F8423090F84320022021B104290ED016
:1026E000012E1BD114E0012E18D1012B16D184F834
:1026F0003E0084F8420001220021206820E0012DE4
:102700000CD1012A0AD184F83F0084F8430014E078
:10271000012D03D1012B01D1012A01D0012070BD6F
:1027200084F83E0084F83F0084F8420084F84300B7
:1027300001220021206802F0D5F80122042120683E
:1027400002F0D0F82068016841F00101016000202A
:1027500070BD70472DE9F04104460068C668056900
:102760004FF00007A90713D5B10711D5F91E016174
:1027700001202077206880698007204602D0FFF77B
:10278000E8FF04E000F0A4F8204600F036F92777CF
:10279000680716D5700714D521686FF0040008612A
:1027A000022020772068806910F4407F204602D004
:1027B000FFF7CFFF04E000F08BF8204600F01DF992
:1027C0002777280715D5300713D521686FF0080043
:1027D0000861042020772068C0698007204602D065
:1027E000FFF7B7FF04E000F073F8204600F005F9AA
:1027F0002777E80616D5F00614D521686FF010008B
:102800000861082020772068C06910F4407F2046C6
:1028100002D0FFF79EFF04E000F05AF8204600F0D7
:10282000ECF82777E80708D0F00706D021686FF0AA
:1028300001000861204600F02FF9280608D530066F
:1028400006D521686FF0800008612046FFF75DFD26
:10285000680608D5700606D521686FF0400008614B
:10286000204600F01AF9A8060AD5B00608D5216856
:102870006FF0200008612046BDE8F041FFF746BD3B
:10288000BDE8F08100B585B0002100910191029171
:10289000039100680B49884212D10B48816941F0CD
:1028A000040181618069694600F0040004904FF4DE
:1028B000106000900220019003900448FEF702FF90
:1028C00005B000BD002C014000100240000801408E
:1028D000704770B5044690F83C0000260D4601286C
:1028E0000FD0012084F83C006AB1042A1DD0082AC8
:1028F0002FD00C2A3FD00126002084F83C0030461F
:1029000070BD022070BD206802F00CF8206881695B
:1029100041F0080181612068816921F00401816131
:10292000206881692A69114311E0206802F022F8C9
:102930002068816941F4006181612068816921F426
:1029400080618161206881692A6941EA022181618F
:10295000D2E7206802F03AF82068C16941F0080126
:10296000C1612068C16921F00401C1612068C169A9
:102970002A69114311E0206802F054F82068C16907
:1029800041F40061C1612068C16921F48061C161C5
:102990002068C1692A6941EA0221C161ACE710B52A
:1029A000040003D094F83D0010B107E0012010BDF1
:1029B000002084F83C00204600F01EF8022084F835
:1029C0003D00211D206801F051FF012084F84600E0
:1029D00084F83E0084F83F0084F8400084F8410009
:1029E00084F8420084F8430084F8440084F84500E9
:1029F00084F83D00002010BD7047704710B50446B4
:102A0000022249B104290ED0082913D094F84100BC
:102A1000012816D0012010BD94F83E000128F9D1FC
:102A200084F83E200FE094F83F000128F2D184F8AA
:102A30003F2008E094F840000128EBD184F84020C2
:102A400001E084F841200122206801F04BFF0F498A
:102A50002068884203D1426C42F4004242642068FC
:102A6000884208D0B0F1804F05D00949884202D091
:102A70000849884204D1816801F00701062903D082
:102A8000016841F001010160002010BD002C0140EF
:102A900000040040000800407047704770477047CE
:102AA000F8B5016804460868CA684B6910F00F0F52
:102AB0004FF0000559D003F0010602F49077374338
:102AC00065D0C10705D0D10503D5616C41F0010186
:102AD0006164410705D5D90703D0616C41F002015B
:102AE0006164810705D5D90703D0616C41F0040109
:102AF0006164010707D502F02001314303D0616C06
:102B000041F008016164616C00293AD0800604D567
:102B1000900602D5204602F082F820684069616C78
:102B2000C0F38010090700D460B3204602F050F8CB
:102B300020684069400621D52068143050E8001F05
:102B400021F0400140E80012002AF5D1E06BA8B165
:102B50006D494163E06BFEF773FC002811D0E06B18
:102B6000416B01B0BDE8F040084783060FD59306DE
:102B70000DD52046BDE8F84002F051B82046FFF7D9
:102B80008EFFF8BD2046FFF78AFF6564F8BD266B0F
:102B90002023012E7CD1C6067AD5D60678D50868C2
:102BA0004868009048694FF00206400640D5E16B46
:102BB000086840680004000CE8D0A28D8242E5D984
:102BC000E085886920282DD020680C3050E8001F4F
:102BD00021F4807140E80012002AF5D120681430F9
:102BE00050E8001F21F0010140E80012002AF5D151
:102BF0002068143050E8001F21F0400140E8001226
:102C0000002AF5D184F84230256320680C3050E862
:102C1000001F21F0100140E80012002AF5D1E06BFE
:102C2000FEF7EAFB6663A08DE18D401A81B22AE0CF
:102C3000A08DE18D401A81B2E08D0028A6D0002938
:102C4000A4D022680C3252E8000F20F4907042E8C1
:102C50000007002FF5D12068143050E8002F22F033
:102C6000010240E80027002FF5D184F842302563A7
:102C700020680C3050E8002F22F0100240E80023BA
:102C8000002BF5D166632046FFF708FFF8BDFFE78C
:102C900005062BD5150629D594F841002128F5D134
:102CA000A068B0F5805F01D12069B0B1206A411CF5
:102CB0002162216800784860E08C401E0004000C0E
:102CC000E084E3D12068C16821F08001C160206800
:102CD000C16841F04001C160D8E7206A0088C0F3B4
:102CE00008004860206A801C2062E5E74006CDD5D8
:102CF0005006CBD5CA68204622F04002CA6084F84C
:102D0000413000F007FAC1E7C14B000870B504007C
:102D100004D094F84100002510B106E0012070BDF8
:102D200084F84050204600F023F8242084F8410025
:102D30002068C16821F40051C160204601F0D0FF35
:102D40002068016921F4904101612068416921F006
:102D50002A0141612068C16841F40051C160656485
:102D6000202084F8410084F842006563002070BD93
:102D700070B586B000240094019402940394036813
:102D80002E482D4E022103220515B34226D1836918
:102D900043F480438361836903F48043049383692C
:102DA00043F0040383618069254E00F00400049021
:102DB0000802CDE90001039269463046FEF782FC25
:102DC000CDE90054694630460294FEF77BFC0022B0
:102DD00001212520FEF7E4FD252028E0194EB3420D
:102DE00027D1C36943F48023C361C36903F48023FB
:102DF0000493836943F0080383618069CDE900513E
:102E000000F00800CDE903200F4D69462846FEF783
:102E100059FCE814CDE90004694628460294FEF7FF
:102E200051FC002201212720FEF7BAFD2720FEF7E2
:102E3000A9FD06B070BD000000380140001002403E
:102E40000008014000480040000C014090F842306A
:102E5000202B01D00220704721B11AB10023036357
:102E600001F09ABF012070472DE9F04700687049D2
:102E700088426FD16F48DFF8C0C1C51E0178A960D4
:102E80006E4A6F4B6F4E704F0120002429714FF036
:102E90000209592916D0582917D00A291BDD5A29A9
:102EA0002ED0412950D043292FD045292FD0472952
:102EB0004CD048294CD044294DD042293DD04629F8
:102EC0003ED004E08CF8009001E08CF80000147013
:102ED0001C7034703C700A2921DA5FEA010C0FD0B3
:102EE000012931D0032910D0052910D007292DD070
:102EF00002292DD004292ED006291ED008291FD042
:102F000014701C7005E03C7009E0147016E0147039
:102F100018703470F7E71C7014E034703870454A4C
:102F20004A4BD21E7B29527818D07D291BD02E788F
:102F3000012E14D0022E18D071E010701C70ECE736
:102F4000147018703070DEE71070DAE71470E2E782
:102F50001070E0E76AE014701870DEE7287099548A
:102F6000521C6A705BE085F80090D978502905D032
:102F7000587823284BD0AA70994629E03449087024
:102F800045E06978081A05F02AFA02460B46002047
:102F9000304904F0F7F90646A8780F4680464844C1
:102FA00010F8010C303805F01AFA32463B4605F0AD
:102FB0007DFA06460F46E86805F088FD32463B4636
:102FC00004F08EFF04F05AFFE860A8F10100A87039
:102FD000A8780428D5D299F801003038062816D2EE
:102FE000DFE800F00306090C0F121B49E8680DE04A
:102FF0001A49E8680AE01A49E86807E01949E868E8
:1030000004E01949E86801E01849E86808602C7094
:103010006C70AC7032210D48EC60FDF7CDF9BDE865
:10302000F047012203491248FFF710BFBDE8F087BF
:10303000004800407B000020010000202800002004
:10304000290000202A0000202B0000206808002012
:103050005800002000002440100000201400002030
:10306000180000201C000020200000202400002068
:10307000A00300202DE9F843044690F8410098464B
:1030800016460D46202802D00220BDE8F88385B1FF
:103090007EB100206064212084F84100FEF710FC1E
:1030A000A6848146E684A0682027B0F5805F02D020
:1030B00003E00120E9E7206910B12E4600250EE06B
:1030C00000260CE08021204601F081FEA8B9C6B19F
:1030D00016F8010B21684860E08C401EE084E08C0B
:1030E0004B464FF00002CDF800800028EAD14FF0A7
:1030F0004001204601F06BFE40B184F8417003208E
:10310000C3E735F8020BC0F30800E3E784F8417029
:103110000020BAE77047FEE770B50D46044600F0A0
:10312000C1F8204600F08EF800F004F9284600F0BF
:1031300089F800F0FFF800F0B5F8641CE0B200F088
:1031400081F800F0F7F8002000F046F8044600F09F
:10315000D1F8204670BD000070B50D4C0025C4F8B4
:10316000A0510C48016821F0F0010160016841F0B4
:1031700030010160C4F8A451012004F5D07402F0BC
:1031800005FB0120206002F001FB256070BD0000FE
:1031900000802142040C014070B50D4C0025C4F89C
:1031A000A0510C48016821F0F0010160016841F074
:1031B000300101600126C4F8A461304604F5D074E2
:1031C00002F0E4FA2660012002F0E0FA256070BD0A
:1031D00000802142040C01402DE9F0478146174848
:1031E0000024016821F0F0010160016841F08001D4
:1031F0000160134E254627464FF00108C6F8A0711E
:10320000022002F0C3FAC6F8A0816006040ED6F8C8
:10321000240108B1641CE4B2022002F0B7FA6D1C6C
:10322000EDB2082DEAD3B9F1000F02D0FFF794FFF9
:1032300001E0FFF7B1FF2046BDE8F087040C014034
:10324000008021422DE9F04106461448016821F032
:10325000F0010160016841F030010160104C00276D
:10326000C4F8A0713D464FF00108F009C4F8A4016C
:103270007006060E012002F089FAC4F8A081012030
:1032800002F084FAC4F8A071012002F07FFA6D1CEC
:10329000EDB2082DE9D3BDE8F0810000040C014037
:1032A0000080214270B51148016821F0F0010160F1
:1032B000016841F0300101600D4C0120C4F8A40107
:1032C000D4F8241149B1C4F8A00102F05FFA002536
:1032D000C4F8A451D4F8240108B1002070BD012025
:1032E00002F054FAC4F8A051012070BD040C014052
:1032F000008021420D4810B5016821F0F001016005
:10330000016841F030010160094C0020C4F8A001BF
:10331000C4F8A401012004F5D07402F037FA0120AA
:1033200020606060BDE8104002F030BA040C01403B
:103330000080214270B513480024016821F0F0019B
:103340000160016841F0800101600F4D0126C5F860
:10335000A461304602F01AFAC5F8A06107E0641CC7
:10336000E4B2322C03D9FFF7C5FF002070BD012065
:1033700002F00CFAD5F824010028F0D1C5F8A0011C
:10338000012070BD040C01400080214210B514469C
:10339000FFF7C2FE2070012010BDF8B515461C468F
:1033A0000E4607466A46FFF7F1FF01209DF8001020
:1033B000A8400CB1084301E021EA0000C2B28DF838
:1033C00000203146384600F02BF8F8BD2DE9F843CF
:1033D00014461D460F4680466A46089EFFF7D6FFF4
:1033E00000281BD0611CFF20C4F1080200FA01F183
:1033F0002A44521ED0400143C5F108008640F2B273
:10340000C4F10700C2409DF80000084010438DF849
:103410000000C2B23946404600F002F8BDE8F88329
:1034200007B502AB012200F001F80EBD2DE9F04115
:103430001E461546884607460024FFF733FF3846E8
:10344000FFF700FFFFF776FF4046FFF7FBFEFFF7B1
:1034500071FF06E0305DFFF7F5FEFFF76BFF641CC0
:10346000E4B2AC42F6D3FFF745FF0120BDE8F0819E
:103470002DE9F34F524D8DB00846A9684F4E089183
:1034800005F0B8FD2968009105F0DEFC696805F0DB
:1034900049FB05F15C04069067683046394605F043
:1034A000A9FDD4F80890494605F0A4FD45490860F7
:1034B000E268904682F00046434A4E60C1E90262EB
:1034C000009905F0C1FC216805F02CFB83463046CD
:1034D000009905F0B9FC0646394605F023FB824603
:1034E0003046494605F01EFB81463748009905F0F5
:1034F000ABFC414605F016FB804606990D9805F099
:1035000079FD039059464FF07E5005F09DFC06462C
:1035100049464FF07E5005F097FC049031464FF03D
:103520007E5005F091FC4FF07C5105F0FBFA074608
:103530000146304605F05EFB01903946049805F0DF
:1035400059FB009051464FF07E5005F07DFC074638
:103550003146019805F078FC594605F041FD2060A0
:103560003946019805F070FC514605F039FD606060
:103570003146009805F068FC494605F031FDA06031
:103580003946009805F060FC414605F029FDE060F1
:103590000399019805F058FC069905F0C3FA686094
:1035A00004460399009805F04FFC089905F0BAFA13
:1035B000A8600FB02046BDE8F08F00006F12833A7C
:1035C0008C0000209C080020A69B443B2DE9F34F73
:1035D000524D8DB00846696B4F4E089105F00AFDBB
:1035E0002968009105F030FC296B05F09BFA05F184
:1035F0006C04069067683046394605F0FBFCD4F849
:103600000890494605F0F6FC45490860E268904696
:1036100082F00046434A4E60C1E90262009905F01B
:1036200013FC216805F07EFA83463046009905F0C8
:103630000BFC0646394605F075FA82463046494687
:1036400005F070FA81463748009905F0FDFB4146C8
:1036500005F068FA804606990D9805F0CBFC0390BA
:1036600059464FF07E5005F0EFFB064649464FF0B5
:103670007E5005F0E9FB049031464FF07E5005F096
:10368000E3FB4FF07C5105F04DFA0746014630460A
:1036900005F0B0FA01903946049805F0ABFA0090B5
:1036A00051464FF07E5005F0CFFB0746314601985A
:1036B00005F0CAFB594605F093FC20603946019895
:1036C00005F0C2FB514605F08BFC60603146009866
:1036D00005F0BAFB494605F083FCA0603946009826
:1036E00005F0B2FB414605F07BFCE06003990198D0
:1036F00005F0AAFB069905F015FA2863044603991C
:10370000009805F0A1FB089905F00CFA68630FB06A
:103710002046BDE8F08F00006F12833A8C00002035
:10372000AC080020A69B443B4FF400510148FEF733
:10373000B9B800000010014010B5022000F011F8E7
:10374000032000F020F8002000F014F8002000F022
:103750002FF8002000F026F8BDE81040002000F00F
:103760001BB808B50323009002226B21D020FFF77D
:103770002DFE08BD08B50223009004221C21D02094
:10378000FFF724FE08BD08B50223009004221B2188
:10379000D020FFF71BFE08BD034601223721D020B1
:1037A000FFF7FBBD034605226A21D020FFF7F5BDD8
:1037B000034606226B21D020FFF7EFBD3EB5002463
:1037C00012480094019402940F49846001600473CC
:1037D0000475012505614FF460214460C161FDF766
:1037E00053FC08B1FDF7A5F90820CDE900056946AD
:1037F00002940648FDF7C4FB08B1FDF79AF90348A7
:10380000FDF752FB3EBD000000240140B001002046
:103810002DE9F04786B000243648009401940294C4
:103820000394816941F010018161816901F0100107
:103830000491816941F020018161816901F02001D9
:103840000491816941F004018161816901F0040101
:103850000491816941F0080181618069DFF89880F5
:1038600000F008004FF4005504900022294640461D
:10387000FEF720F8DFF884A000221C215046FEF756
:1038800019F8DFF87C904FF4734700223946484618
:10389000FEF710F80095022601250396CDE90154A4
:1038A00069464046FDF70EFF1C20CDE90005CDE935
:1038B000024669465046FDF705FF00970396CDE99D
:1038C000015469464846FDF7FDFE280300900D4867
:1038D000CDE9010469465046FDF7F4FE00220221BD
:1038E0002820FEF75DF82820FEF74CF806B0BDE86A
:1038F000F087000000100240001001400008014065
:10390000000C014000002110114810B50F49016062
:103910004FF4827141604FF4004181600021022226
:10392000C0E9031201224261520282610822C0E909
:103930000721416281620A21C162FEF797FB0028DC
:1039400003D0BDE81040FDF7F4B810BD00300140D1
:10395000E001002010B596B000240F94109411944B
:10396000129413941C2168461494FCF747FD2021FF
:1039700007A8FCF743FD2C482A49C0E9001441F68A
:103980001F41C0E9024180210461C0E90541FEF701
:103990001DFD08B1FDF7CDF84FF480500F900FA931
:1039A0002148FEF755FD08B1FDF7C3F81E48FEF7A4
:1039B000F6FF08B1FDF7BDF8139413A91A48149443
:1039C000FEF7D0FC08B1FDF7B4F86020CDE90004A3
:1039D00002940394049405940022694612480694C4
:1039E000FEF777FF08B1FDF7A4F80C2269460E48F0
:1039F000FEF76FFF08B1FDF79CF80794089409944F
:103A00004FF400500A94CDE90B4007A906480E94E4
:103A1000FEF77DFC08B1FDF78CF80348FEF732FF96
:103A200016B010BD002C01403802002010B58CB03B
:103A300024216846FCF7E2FC0024144809944FF066
:103A400080410A9401600121C0E901140A22C0E901
:103A500003248461CDE90014CDE902140494CDE976
:103A60000541079469460894FEF760FD08B1FDF72B
:103A700060F8099409A905480A94FEF773FC002828
:103A800001D0FDF756F80CB010BD000080020020F8
:103A900010B58CB024216846FCF7B0FC0024164811
:103AA000099414490A94C0E900144FF6FF71C0E963
:103AB0000241046184610320CDE900040120CDE9C5
:103AC00002040494CDE90540079469460A48089425
:103AD000FEF72CFD08B1FDF72CF8099409A906485A
:103AE0000A94FEF73FFC002801D0FDF722F80CB045
:103AF00010BD000000040040C802002010B58CB0CA
:103B000024216846FCF77AFC0024164809941449DD
:103B10000A94C0E900144FF6FF71C0E90241046144
:103B200084610320CDE900040120CDE9020404945E
:103B3000CDE90540079469460A480894FEF7F6FC6B
:103B400008B1FCF7F6FF099409A906480A94FEF7A4
:103B500009FC002801D0FCF7ECFF0CB010BD000000
:103B600000080040100300200C4810B50A4901600D
:103B70004FF4E1314160002181600C22C160C0E955
:103B800004128161C161FFF7C1F8002803D0BDE8CC
:103B90001040FCF7CEBF10BD003801405803002094
:103BA0000E4810B50C4901604FF4165141600021D8
:103BB00081600C22C160C0E904128161C161FFF71C
:103BC000A5F808B1FCF7B5FFBDE810400122044993
:103BD0000248FFF73BB9000000480040A003002066
:103BE0007B000020FEE7FEE730B40021084B0A46C8
:103BF0005FF0000003EBC004401CC0B26254802898
:103C0000F8D3491CC9B20829F2D330BC00F09EB8E1
:103C1000E803002030B5CC0801F0070301259D40E2
:103C2000EBB2064D05EBC005C808285C0AB1184385
:103C300002E063EA0000C043285530BDE8030020DD
:103C400010B5414C002208212046FDF733FEC82064
:103C5000FDF742FC012208212046FDF72BFE002142
:103C6000AE2000F0B9F90021084600F0B5F90021B6
:103C7000102000F0B1F90021402000F0ADF9002142
:103C8000812000F0A9F90021CF2000F0A5F9002142
:103C9000A12000F0A1F90021C82000F09DF9002129
:103CA000A62000F099F90021A82000F095F9002144
:103CB0003F2000F091F90021D32000F08DF9002180
:103CC000084600F089F90021D52000F085F900218F
:103CD000802000F081F90021D92000F07DF9002139
:103CE000F12000F079F90021DA2000F075F90021C7
:103CF000122000F071F90021DB2000F06DF90021A5
:103D0000402000F069F90021202000F065F9002131
:103D1000022000F061F900218D2000F05DF9002102
:103D2000142000F059F90021A42000F055F90021D9
:103D3000A62000F051F9FFF757FF0021BDE8104021
:103D4000AF2000F049B900000008014070B5114EE5
:103D5000002400BF04F1B000C0B2002100F03CF923
:103D60000021084600F038F90021102000F034F955
:103D70005FF0000506EBC5000121005D00F02CF9A5
:103D80006D1CEDB2802DF5D3641CE4B2082CE1D398
:103D900070BD0000E80300202DE9FC4F1C460E46D4
:103DA00082468B460190082B0DD0600700D0012081
:103DB00000EBD40061084843C0B28146203AD0B23B
:103DC000009000204BE00620F7E7082C13D00C2CC5
:103DD00018D0102C1BD0182C44D10098234900EB8C
:103DE000C00000BF01EB8001002711F80850E80770
:103DF00012D00B9A13E000981D4900EB400001EB34
:103E00004001F1E700981B4900EB4000EAE71A493E
:103E1000009801EB0011E7E70B9828B30022314628
:103E20005046FFF7F7FE761C7F1C6D08FFB2F6B216
:103E3000082FDCD30AF1010000F0FF0A082C0AD099
:103E40000199AAEB0100B0EB540F04D10BF108006B
:103E50008A4600F0FF0B08F101005E46C0B28046C2
:103E60004845B2D3BDE8FC8F0122D8E7E29E0008A6
:103E7000569200087E940008F29800082DE9F84F49
:103E80001F460A9D14468A4606464FF0010812F165
:103E9000FF4F0BD32B462D223046CDF80080FFF785
:103EA0007BFF06EB550084F00044C6B2204604F0C8
:103EB00063FF814604F09CFF214605F091F8154907
:103EC00004F0C2FF04F002FE0022134B04F008F8D5
:103ED00004F056FA04463B464A46514630460095A1
:103EE00000F01CF8CDF800804FEA550808FB076089
:103EF000C0B22B462E225146FFF74EFF7F1C08FB17
:103F00000760C0B2022322465146009500F006F831
:103F1000BDE8F88F0000C8420000E03F2DE9FF4FE8
:103F200081B00027DDF838901D46934682463C4616
:103F30004FF001084FEA59062BE0281B401E0A22C9
:103F4000C1B2012000E05043491EC9B2FBD2BBFB05
:103F5000F0F00A21B0FBF1F201FB120027B9691E53
:103F60008C4201DA48B101273030C2B206FB04A00E
:103F7000C0B24B46CDF8008006E006FB04A0C0B2FC
:103F80004B462022CDF800800299FFF705FF641C04
:103F9000E4B2AC42D1D305B0BDE8F08F2DE9F841D1
:103FA0001E46154688460446079F0BE033464146A9
:103FB00020460097FFF7F0FE082E0AD004EB5600CB
:103FC000C4B26D1C2A78A2F120005E28EED9BDE8AB
:103FD000F881A41DE4B2F4E713B50F4C09B1012236
:103FE00000E0002204212046FDF764FC002210219D
:103FF0002046FDF75FFC6423012269460748FEF76F
:10400000BDF8012210212046FDF754FC01220421B5
:104010002046FDF74FFC1CBD00080140E0010020D8
:10402000F8B5DB4D0124287818B1012801D0022809
:1040300017D1D8480078012804D0022806D00328D8
:1040400008D00EE00C23D4A2009406E00C23D3A2E7
:10405000009402E00C23D3A2009400210846FFF74D
:104060009DFF2878032803D0042801D005280BD110
:10407000CD484FF00C0300780094012811D0CBA25A
:1040800000210846FFF78AFF287802280BD0012874
:104090000DD080B1032812D0042814D0052816D0E2
:1040A0001CE0C4A2ECE70C23C4A2009412E00C2391
:1040B000C5A200940EE00C23C6A200940AE00C23D3
:1040C000C7A2009406E00C23C8A2009402E00C23CF
:1040D000C9A2009400213C20FFF760FF0C23C9A275
:1040E0000A2100200094FFF759FF0C23C7A20A21E0
:1040F00030200094FFF752FFC7480C250095026856
:1041000003230A213020FFF7B9FE0C23C3A2142198
:1041100000200094FFF742FFC24FC34E3868B04200
:1041200009D30C23C1A214212A200094FFF736FFE3
:104130003868B04206D20C23BDA214212A20009474
:10414000FFF72CFF386804F017FE03F015F902465C
:104150000423142132200095FFF7E0FEB5480095B6
:1041600005230088142182B25220FFF7D7FE0C23CA
:10417000B1A2142172200094FFF710FF0C23AFA20C
:104180001E2100200094FFF709FFAD4F386800287A
:1041900013DA0C23A5A21E2110200094FFF7FEFEC7
:1041A000386803F0E9F8024604231E211A2000951E
:1041B000FFF7B4FE3868002810DB0C239CA21E21F8
:1041C00010200094FFF7EAFE386803F0D5F80246A5
:1041D00004231E211A200095FFF7A0FE994F38688E
:1041E000B04209D30C2391A21E213C200094FFF77A
:1041F000D5FE3868B04206D20C238DA21E213C2089
:104200000094FFF7CBFE386804F0B6FD03F0B4F875
:10421000024604231E2144200095FFF77FFE0C2355
:1042200089A21E2160200094FFF7B8FE0C2388A20B
:10423000282100200094FFF7B1FE864F386800283F
:1042400013DA0C2379A2282110200094FFF7A6FE90
:10425000386803F091F80246042328211A200095BB
:10426000FFF75CFE3868002810DB0C2370A22821C1
:1042700010200094FFF792FE386803F07DF80246A4
:10428000042328211A200095FFF748FE724F386852
:10429000B04209D30C2365A228213C200094FFF7EB
:1042A0007DFE3868B04206D20C2361A228213C2052
:1042B0000094FFF773FE386804F05EFD03F05CF8CD
:1042C00002460423282144200095FFF727FE0C23F3
:1042D0005DA2282160200094FFF760FE0C235FA2FE
:1042E000322100200094FFF759FE0C235CA23221FA
:1042F0001E200094FFF752FE0C2358A232214020CA
:104300000094FFF74BFE574E306804F051FD80B229
:104310006421B0FBF1F20223322113200095FFF754
:10432000FDFD306804F044FD80B20A27B0FBF7F0D1
:10433000B0FBF7F107FB1102012332212A2000957F
:10434000FFF7ECFD306804F033FD80B2B0FBF7F10D
:1043500007FB11023221012308460095FFF7DEFD1D
:10436000414D287840B10C2340A232215F200094B7
:10437000FFF714FE287830B90C233DA232215F20CC
:104380000094FFF70BFEBDE8F840FFF7DFBC00002C
:104390000800002000000020444D50004B616C6D6F
:1043A000616E000043204600500000204445464511
:1043B000415400005355434345530000555F466F39
:1043C0006C6C6F7700000000555F41766F69642068
:1043D000000000004E6F726D616C20200000000034
:1043E0004C445F41766F6964000000004C445F46B6
:1043F0006F6C6C6F770000004C445F53747261699E
:1044000067687400416E676C650000002020202002
:104410002020202000000000440000204779726F17
:104420007800000048000020000080802D0000007F
:104430002B0000000C0000206D6D00004C000000FF
:104440002C000020340000206D6D2F730000000050
:10445000520000003000002038000020560000000C
:104460002E00000040000020020000204F464600C1
:104470004F4E2000884200DD0846904200DA104688
:10448000704770472DE9F04F89B0684C07A8CDE917
:10449000004004F1260106AB02AA881F01F0E0FAF1
:1044A0002088C0057ED5029804F0A2FC6FF01D069E
:1044B000314604F074FE80466060039804F098FC76
:1044C000314604F06CFE0746A060049804F090FCAE
:1044D000314604F064FE0546E060059804F088FC6F
:1044E000314604F05CFE064620610121404604F09E
:1044F00056FE294604F0A8FC05464FF040484146C8
:10450000384604F0A1FC314604F09EFC294604F034
:1045100009FB04F0DBFA00F0F9FDDFF814A14FF01D
:1045200066394A46534603F0C1FF03F0A7FC6061B9
:10453000E0680121054604F032FE8346294604F076
:1045400083FC0546A0684146064604F07DFC3146E2
:1045500004F07AFC294604F04DFD4FF07E5104F042
:10456000E1FA04F0B3FA07460D460121606804F051
:1045700016FE314604F068FC06465846216904F0F0
:1045800063FC314604F0CEFA04F0A0FA3A462B461A
:1045900001F004F84A46534603F088FF03F06EFC2E
:1045A000A06100E03FE021690191084604F04CFC65
:1045B000E16807460846009104F046FCA1680646FB
:1045C0008B46584604F040FC6168054688464046E4
:1045D00004F03AFC294604F0A5FA314604F00AFD3D
:1045E000394604F007FD04F071FA06460D464046D0
:1045F000019904F029FC07465846009904F024FC70
:10460000394604F08FFA012104F0C9FD04F05EFA86
:1046100032462B4600F0C2FF4A46534603F046FF9F
:1046200003F02CFCE06109B0BDE8F08F34010020FC
:1046300066A64C400168486A002200B24A62704790
:1046400010B54221D020FEF767FD04464121D0205D
:10465000FEF762FD04EB002004F0E2FBB0F18E4FA8
:1046600003DD4FF08F4104F0C5FC064904F0C2FAA7
:1046700004F02CFA044A054B03F032FCBDE810406C
:1046800003F0FCBB0000AA43A4703D0AD74342409C
:10469000F8B515460E460B4600920446012202214B
:1046A00000F010F840B933460022802120460095E2
:1046B00000F008F8002804D0606D40F0200060652C
:1046C0000320F8BD2DE9F8431E469146884604466E
:1046D000089DFDF7F5F8401B351AFDF7F1F8074680
:1046E00025480068C0F3CB30684338E0701C37D0F1
:1046F000FDF7E6F8C01BA84203D215B1009860B3DD
:104700002CE02068416821F0E00141606068B0F56C
:10471000827F0BD1A068B0F5004F02D0B0F5806F5A
:1047200004D12068016821F040010160A06AB0F561
:10473000005F09D12068016821F400510160206800
:10474000016841F400510160012084F8510000200B
:1047500084F850000320BDE8F8830025401E009037
:104760002068816838EA010004D000214945BDD1A4
:104770000020F0E70121F9E77400002070470000F5
:1047800030B500230124114A002804DDC2F8B841E5
:10479000C2F8BC3103E0C2F8B831C2F8BC4102F043
:1047A000EBFD0B4D2860002904DDC2F8B441C2F8CE
:1047B000B03103E0C2F8B431C2F8B041084602F0AB
:1047C000DBFD03490C31086030BD00000080214250
:1047D000342C0140FDF77AB830B593B028216846F3
:1047E000FBF70CFE14210AA8FBF708FE00250120A8
:1047F0000F9510951195010412958DE823000490F2
:104800004FF4E010CDE90810022407946846FDF744
:104810009DFA08B172B6FEE70AA90F2081E83100BF
:104820004FF48060CDE90D0502210AA8FDF7B2F929
:1048300008B172B6FEE74FF4004011900F940FA834
:10484000FDF732F9002801D072B6FEE713B030BD93
:10485000704700000148FDF77DBF0000C80200203E
:104860000148FDF777BF000010030020F0B5026893
:10487000194B1A4C1A4D4FF08047984205D0B84258
:1048800003D0A04201D0A84203D122F070064A68AA
:104890003243984205D0B84203D0A04201D0A8428A
:1048A00003D122F44074CA6822434C6922F080028A
:1048B000224302608A68C2620A688262984201D119
:1048C00009690163012141610169C90703D00169D7
:1048D00021F001010161F0BD002C01400004004005
:1048E0000008004010B501F01F030121046A99403F
:1048F0008C430462016A9A401143016210BD10B5F5
:10490000846842EA032224F47F440A4322438260FB
:1049100010BD826822F070020A4342F007018160F4
:104920007047000030B5036A026A22F00102026299
:104930004268846924F073050C682C4323F0020557
:104940008B682B430A4DA8420BD123F00805CB6896
:1049500022F440722B434D6923F0040315438A6906
:104960002A434260846149684163036230BD0000AC
:10497000002C014030B5026A036A23F01003036281
:10498000436884690D6824F4E64444EA05248D688C
:1049900022F0200242EA05120B4DA8420ED1CD684A
:1049A00022F0800242EA05124D6923F4406343EA93
:1049B00085038D6922F0400243EA850343608461E8
:1049C00049688163026230BD002C014030B5036A42
:1049D000026A22F4807202624268C46923F400739E
:1049E00024F073050C682C438D6843EA05230C4DB5
:1049F000A8420ED1CD6823F4006343EA05234D6934
:104A000022F4405242EA05128D6923F4806342EA9F
:104A100005124260C4614968C163036230BD000091
:104A2000002C014030B5046A026A22F4805202620E
:104A30004268C3690D6823F4E64343EA05238D68A1
:104A400024F4005444EA0534064DA84204D14D69CB
:104A500022F4804242EA85124260C36149680164DF
:104A6000046230BD002C014010B5036A046A24F0D2
:104A700001040462846924F0F00444EA021423F07F
:104A80000A020A438461026210BD10B5036A046A17
:104A900024F010040462846923F0A00324F4704419
:104AA00044EA023243EA01118261016210BD000052
:104AB0002DE9F04107462648284C06682548256C14
:104AC00003782548012B027825480178254800788D
:104AD00001D101B920B1244B1B78012B06D007E08E
:104AE000104604F09DF9014628460EE001B930B1A8
:104AF0000022A263012927D0012825D008E0104612
:104B000004F08EF9014685F0004004F073F8A063CC
:104B10000021384604F098F9144F394604F06AF839
:104B200005463146A06B04F08FF9394604F062F86F
:104B3000294603F0F7FF0E49096803F0F3FFE0632D
:104B4000BDE8F04104F018B90A480168E1E7000047
:104B5000200000202A000020010000206C0100201D
:104B600028000020290000202B0000200000C8425F
:104B700054000020240000200D4A904209D80D4A1C
:104B8000904206DC0C480078012802D0B1F57A7F0B
:104B90000BDA0A4A01200021C2F8B811C2F8BC1190
:104BA000C2F8B411C2F8B01170470020704700007D
:104BB000000020C2000020420200002000802142AC
:104BC00010B5406A0021C185C184FDF768FF10BDA2
:104BD00001680C3151E8002F22F4907241E8002363
:104BE000002BF5D10168143151E8002F22F00102A9
:104BF00041E80023002BF5D1016B012909D101689F
:104C00000C3151E8002F22F0100241E80023002B64
:104C1000F5D1202180F8421000210163704708B5CA
:104C200090F84210222901D0022008BD82684FF47A
:104C300080539A4201D1016921B1816A9A421BD005
:104C40004AB10AE00268816A5268C2F308020A8027
:104C5000816A891C08E0026972B10268526802F038
:104C60007F020A70816A491C8162C18D491E090454
:104C7000090CC18503D01BE002685268F1E70168A6
:104C8000CA6822F02002CA600168CA6822F48072F1
:104C9000CA6001684A6922F001024A61202180F855
:104CA000421000214163026B012A03D0FEF7DCF8B9
:104CB000002008BD016301680C3151E8002F22F08B
:104CC000100241E80023002BF5D101680A68D206E2
:104CD00002D50A6849680091818DFDF7DFFEE7E79C
:104CE00070B5044600680169E26821F4405111433F
:104CF00001612169A0680843616908432168CA68A5
:104D000041F20C639A430243CA6020684169A26978
:104D100021F44071114341611E492068884202D14B
:104D2000FCF7DEFF01E0FCF7CBFF00EBC00101EB7D
:104D30000012606864218000B2FBF0F3B3FBF1F372
:104D40006FF018067343B2FBF0F5B2FBF0F605EB1B
:104D50008305322303EB0515B5FBF1F5B6FBF1F640
:104D600005F0F00505EB0615B2FBF0F6B2FBF0F02E
:104D7000B0FBF1F06FF01802504306EB800003EB3C
:104D80000010B0FBF1F0216800F00F0028448860AB
:104D900070BD00000038014081628285C28500211B
:104DA0004164222180F84210016921B10168CA687A
:104DB00042F48072CA6001684A6942F001024A61A5
:104DC0000068C16841F02001C160002070472DE9F2
:104DD000F843984617460D460446089E24E0701C8A
:104DE00022D0FCF76DFDA0EB0800B0421AD8CEB17E
:104DF0002068C168490717D5802D15D0402D13D0E4
:104E00000168C94309070FD4016800254068009074
:104E10002046FFF7DDFE0820606484F84050012042
:104E2000BDE8F8830320FBE72068006835EA00004E
:104E300004D00020B842D2D00020F1E70120F9E7E9
:104E40000148FDF72DBE0000580300200148FDF782
:104E500027BE0000A0030020FEE700002DE9F0417E
:104E600008442D4C404203F0C3FF05466062A06A2F
:104E700003F02CFE294A2A4B03F018FB02F0FEFF38
:104E80000746284603F022FE264A274B03F00EFB76
:104E900005460E46384603F019FE2A46334603F00F
:104EA0001FF802F0EBFF05460146A062206B03F0FD
:104EB00039FE1E492063884202DC1D49884200D920
:104EC00021631C480168206B03F0BEFF1A4903F000
:104ED00091FE064619480168284603F0B5FF1849B7
:104EE00003F088FE314604F085F82062154800681A
:104EF00003F042FF014614480068FFF73DFE012819
:104F000003D012480078012801D100202063206AD4
:104F1000BDE8F04103F030BF6C01002085EB51B8D3
:104F20001E85EB3FEC51B81E85EBC13F00401C468F
:104F300000401CC61C0000200000C84218000020D1
:104F40000000C8C2400000204400002002000020F1
:104F5000490050EAC12018BF04204A0D18BF40F094
:104F6000010040F2FF72B2EB515F08BF40F0020057
:104F7000012808BF052070470907090E002804DB37
:104F800000F1E02080F80014704700F00F0000F1FD
:104F9000E02080F8141D70472DE9F0414F1E00EB12
:104FA000C7010446D1E9000115461E4637F0060246
:104FB0000DD02A46334603F079FA7F1E04EBC7036F
:104FC000D3E9002302F08CFF37F00602F1D1022F63
:104FD00025D0042F13D0062F18BFBDE8F0812A4634
:104FE000334603F063FAD4E90A2302F079FF2A4634
:104FF000334603F05BFAD4E9082302F071FF2A4636
:10500000334603F053FAD4E9062302F069FF2A4637
:10501000334603F04BFAD4E9042302F061FF2A4639
:10502000334603F043FAD4E9022302F059FF2A463B
:10503000334603F03BFAD4E90023BDE8F04102F027
:105040004FBF0000002213461046014903F004B888
:105050000000F03F012204F074B802F041BF0022CA
:1050600013461046114602F0F7BF40F2013200200D
:105070004FF0E04104F065B8024A0020110704F047
:1050800060B8000001FDFFFF704700002DE9FE4FF2
:1050900007460E460025684601F048F800246FF0E8
:1050A0000F0AE8464FF0010957F8240056F824107B
:1050B000401A00D5404203F09BFE514604F06FF8C1
:1050C00058F8241011F0FF4F0BD003F093FD4FF070
:1050D0007E5103F08FFF0A4920F00040884205DC32
:1050E00007E0084908440849884202D309FA04F055
:1050F0000543641C032CD7DB2846BDE8FE8F000067
:10510000295C0F3E666666C19A99D9002DE9F04D7B
:105110008D4F21F0004A86B005460C46BA452ADB81
:10512000AAEB070028430AD08848824501DC1AD13F
:10513000CDB106B02846BDE8F04DFFF78BBF844ADD
:10514000844B284603F0B2F907460E46824A834B49
:105150002846214603F0AAF906B03A463346BDE890
:10516000F04D02F0BDBE0120FBF7EEF906B0BDE840
:10517000F04DFFF774BF7A48824542DABAF1795FA1
:105180000BDA2846FFF7E4FE042808BFFFF774FF98
:10519000284606B02146BDE8F08D2A460B4610464B
:1051A00003F084F9834602466E480E460B460621FC
:1051B0007844FFF7F1FE5A46334603F077F980460C
:1051C00069488A465A46334604217844FFF7E4FE8C
:1051D0005A46334603F06AF900223B4602F080FE4D
:1051E00002460B464046514602F036FF2A46234609
:1051F00003F05CF906B02A462346BDE8F04D02F004
:105200006FBE284624F0004100223D463B4603F095
:1052100081FA4FF0FF3203F094FF064602465348EE
:105220000F460B4606217844FFF7B6FE32463B4652
:1052300003F03CF9CDE900014D4832463B460421DC
:105240007844FFF7A9FE32463B4603F02FF90022CF
:105250002B4602F045FE834602913046394602F065
:10526000E7FD804643480D46504517DCDDE9000167
:105270005A46029B02F0F0FE42462B4603F016F916
:1052800042462B4602F02CFE012203F05AFF304A20
:10529000304B03F031FB304A304B4CE04FF0000A0A
:1052A00052460B46404602F01BFECDE90310524623
:1052B0002B461046194603F0F9F832463B4603F0F8
:1052C00029FADDE9033202F0C7FE06460F46DDE9A2
:1052D00000015A46029B02F0BFFE83460091012264
:1052E0003046394603F02DFF194A1A4B03F012FAE3
:1052F00006460F4601224046294603F022FF5A4641
:10530000009B03F0D3F832463B4603F0F5FA06461D
:105310000F4601225046294603F013FF0E4DDFF8D9
:1053200058802A46434603F0F5F932463B4603F0DF
:10533000F1F92A46434603F0EDF9002CD8BF81F07D
:10534000004106B0BDE8F08D0000F03F0000F07FA6
:10535000075C143326A6913C182D4454FB21F93FD9
:105360000000E03FD4660000EA6600005E660000D0
:10537000746600003333EF3FFB21E93F2DE9F84F1E
:1053800004460D4621F0004000917349814211DC32
:105390007249884201DC06D12CB120462946BDE87D
:1053A000F84FFFF757BE6E48002DCCBF6D496E49D0
:1053B000BDE8F88F6D49814211DD6D498142D8BF4A
:1053C0004FF0FF366DDD20462946FFF7C1FD04286A
:1053D00008BFFFF751FE20462946BDE8F88F654912
:1053E000654F25F00045814233DD6449814219DD76
:1053F000002632464FF080432046294602F070FDD9
:1054000080468A4601222046294603F09AFE002261
:105410003B4603F071FA4246534602F01DFE044635
:105420000D463EE001260022BA463B46204629466C
:1054300002F056FD80460F4600225346204629467C
:1054400003F05AFA42463B4602F006FE04460D4679
:1054500027E04B4981421BDDDFF828A1022600220C
:1054600053462046294603F021F800223B4602F02D
:1054700037FD80460F46002253462046294603F05A
:105480003BFA42463B4602F0E7FD04460D4608E083
:10549000032622462B4600203B4902F0DDFD044650
:1054A0000D4622462B461046194602F0FFFF8B465A
:1054B000824602460B4602F0F9FF07460246334891
:1054C00088460B4606217844FFF766FD52465B4648
:1054D00002F0ECFF82462E488B463A4643460521B1
:1054E0007844FFF759FD3A46434602F0DFFF024693
:1054F0000B46002E504659460CDA02F0F1FC2246CB
:105500002B4602F0D3FF01B022462B46BDE8F04FF8
:1055100003F000B902F0E4FC22462B4602F0C6FF7D
:105520001C4A7A4402EBC603D3E9002303F0E4F9F2
:1055300022462B4603F0E0F9174A7A4402EBC603F1
:10554000D3E9002303F0E6F8009A002AB8BF81F0FF
:105550000041BDE8F88F0000000010440000F07F1B
:10556000182D4454FB21F93FFB21F9BF0000DC3F1B
:105570000000203E0000F33F0000F03F0000E63F47
:10558000008003400000F83F0000F0BFFE64000010
:10559000BC6400005A640000226400002DE9F04D54
:1055A0009446CCF1000423F000464CEA0404594F21
:1055B00046EAD4749A46884621F00042BC4206D896
:1055C000454240EA050442EAD474BC4204D9BDE82D
:1055D000F04D6246FFF741BDAAF14055A5F17F6548
:1055E00055EA0C040BD0022404EAAA744A4DDFF8F1
:1055F0002CE144EAD87452EA000B04D00CE0BDE878
:10560000F04DFFF7BBBE002C14BF012CBDE8F08DA0
:10561000022C30D0032C32D056EA0C0B0AD0BE42FA
:1056200020D1BA4209D126F0804622F0804233468A
:10563000114617E000291ADB25E0DFF8E4B0FB444F
:10564000002C04BFDBE90001BDE8F08D012C02BF96
:10565000DBE9000181F00041BDE8F08D022C0AD0A9
:10566000032C0CD0BA4212D1B8F1000F0BDA2A4841
:105670002C49BDE8F08D28462B49BDE8F08D284621
:105680007146BDE8F08D24482849BDE8F08D921B95
:1056900012153C2AC4BF204F244E10DCBAF1000F73
:1056A000BEBF12F13C0F00273E4608DB624602F007
:1056B000D3FC21F00041FFF761FE07460E4694B18E
:1056C000012C08BF86F000460DD0194A194B022C58
:1056D0003846314615D003F00FF92A46BDE8F04DA3
:1056E000114B03F009B9002213463846314602F047
:1056F0000BFE04BF0220FAF727FF38463146BDE80B
:10570000F08D03F0F9F82A46BDE8F04D064B03F0A2
:1057100001B800000000F07F182D4454FB2109C09F
:10572000B6630000FB21F9BFFB210940FB21F93FD3
:10573000075C143326A6A13C4FF0E020016921F05C
:105740000401016103480921017042F228314180BE
:1057500070470000880000200B49498848434FF0FB
:10576000E021486100228A61086940F00100086177
:105770000869C30701D0C003FAD5086920F0010009
:1057800008618A6170470000880000200B49097891
:1057900048434FF0E021486100228A61086940F0E7
:1057A000010008610869C30701D0C003FAD5086980
:1057B00020F0010008618A61704700008800002025
:1057C00008B560B120208DF8000028208DF8010078
:1057D00030208DF8020038208DF8030004E0A32269
:1057E00004216846FAF7E0FD6A46042140F69E204F
:1057F00001F098FD01F05EFA08BD00003EB50446D8
:1058000002208DF80000CA208DF80100E3208DF8F9
:10581000020009208DF803006A460421682001F087
:1058200081FDA3208DF80000610609D5C0218DF807
:105830000110C8218DF80210C2218DF8031005E077
:105840008DF801008DF802008DF8030014F4C07F7C
:1058500009D0C4218DF80410CC218DF80510C62183
:105860008DF8061005E08DF804008DF805008DF820
:1058700006008DF808008DF807008DF809006A46CB
:105880000A2140F6A72001F04DFDA0074FF0D805F2
:1058900003D020208DF8000001E08DF800506A460A
:1058A000012140F6B62001F03DFDA00601D5012002
:1058B00000E0002000F08EF814F4C07F1ED0E00558
:1058C0000AD5B2208DF800008B208DF80100B6209B
:1058D0008DF802009B2009E0B0208DF800008020A8
:1058E0008DF80100B4208DF8020090208DF803009F
:1058F0006A46042140F6A22001F014FDE1074FF4AE
:105900000B6022D0F8218DF800106A46012101F0C9
:1059100009FDFA21072000F049FB072000F014FBE5
:10592000012000F031FB642000F0D4FB4FF4FA704A
:1059300000F0E0FBC821254800F0CEFA282000F056
:10594000E3FA0A2000F0F0FA05E08DF800506A460C
:10595000012101F0E7FCA00703D5D9208DF8000054
:1059600001E08DF800506A46012140F23D7001F0DF
:10597000D9FC600701D5012000E0002000F048F8C4
:10598000E00601D5012000E00020FFF719FF104DCF
:1059900044F00800688101F08DF90020A8736006CA
:1059A00001D50620A87314F4C07F02D0A87B801D07
:1059B000A87314F0140F02D0A87B1030A873A007AE
:1059C00002D0A87B001DA87300203EBD09E3CA02D7
:1059D000BC0800200EB54FF4976310B106A107C9AB
:1059E00001E008A207CA8DE807006A4609211846A7
:1059F00001F098FC0EBD0000B8AAB38DB4980D3527
:105A00005D000000B8AAAAAAB088C3C5C7000000FC
:105A100008B560B1C0208DF80000C2208DF80100EB
:105A2000C4208DF80200C6208DF8030004E08B220C
:105A300004216846FAF7B8FC6A46042140F698202B
:105A400001F070FC01F036F908BD0000C8234FF4E6
:105A50008062024940F6F63001F00EB890AC0008C2
:105A60002DE9FF4F89B01746DDE916520024544E48
:105A7000884681462C80A246B07B694601F0A8F892
:105A80004FF0FF3B18B158460DB0BDE8F08F70895C
:105A900010F0140F4CD0BDF800109DF8022049BA48
:105AA000090441EA02239DF803100B433B60BDF853
:105AB00004109DF8062049BA090441EA02229DF823
:105AC00007101B140A437A60BDF808109DF80A40BD
:105AD00049BA090441EA04219DF80B4012142143FC
