:020000040800F2
:10000000180F0020D10100081B3800085B2D0008E4
:100010001938000801080008214500080000000008
:10002000000000000000000000000000553E000835
:10003000BD0A000800000000433B0008AD3E000878
:10004000EB010008EB010008EB010008EB010008E0
:10005000EB010008EB010008EB010008EB010008D0
:10006000EB010008EB010008EB010008EB010008C0
:10007000EB010008EB010008EB010008EB010008B0
:10008000EB010008EB010008EB010008EB010008A0
:10009000EB010008EB010008EB010008EB01000890
:1000A000EB010008EB010008EB010008EB01000880
:1000B000EB0100082D3F0008393F0008EB01000864
:1000C000EB010008EB010008EB010008EB01000860
:1000D000EB01000809450008EB0100081545000880
:1000E000BF0A0008EB010008EB01000800F002F86D
:1000F00000F05FF80AA090E8000C82448344AAF163
:100100000107DA4501D100F054F8AFF2090EBAE860
:100110000F0013F0010F18BFFB1A43F0010318473B
:10012000B0B00000D0B000000A444FF0000C10F84E
:10013000013B13F0070408BF10F8014B1D1108BF65
:1001400010F8015B641E05D010F8016B641E01F805
:10015000016BF9D113F0080F1EBF10F8014BAD1C55
:100160000C1B09D16D1E58BF01F801CBFAD505E073
:1001700014F8016B01F8016B6D1EF9D59142D6D3CD
:10018000704700000023002400250026103A28BFF5
:1001900078C1FBD8520728BF30C148BF0B607047F9
:1001A000642900F09980002070471FB51FBD10B56D
:1001B00010BD00F05FFA1146FFF7F7FF05F060FE93
:1001C00000F07DFA03B4FFF7F2FF03BC04F036FB46
:1001D0000948804709480047FEE7FEE7FEE7FEE7DB
:1001E000FEE7FEE7FEE7FEE7FEE7FEE70448054917
:1001F000054A064B70470000293F0008ED00000843
:1002000018090020180F0020180B0020180B0020E0
:1002100010B54C1084EA530404D54042C1F10001EA
:1002200038BF491E1B4204D55242C3F1000338BFF8
:100230005B1E00F00DF914F0804F04D04042C1F174
:10024000000138BF491E14F0004F04D05242C3F1E0
:10025000000338BF5B1E10BD0FB4044910B503AADC
:10026000029800F0D1F910BC5DF814FB5800002092
:100270002DE9F0410E460446002020622046E16848
:10028000884730B3252805D0D4E901219047206A5A
:10029000401CF2E7E168204600278847050018D097
:1002A000A5F14100192802D820354FF400673246E5
:1002B000294620462760FFF773FF40B1012804D08C
:1002C000F61D26F007060836D8E7361DD6E728467D
:1002D000DAE7206ABDE8F0812DE9F0410646002406
:1002E00010687529314616A510D0AFF3008000289C
:1002F00002DA404213A507E031688A0701D512A54A
:1003000002E0490704D511A5012401E0AFF3008004
:1003100000210A2206F1240709E0B0FBF2FCB0FB41
:10032000F2F302FB1C00303078541846491C0028B8
:10033000F3D123462A463046BDE8F04100F00AB921
:10034000000000002D0000002B0000002000000035
:1003500040EA010310B59B070FD1042A0DD310C842
:1003600008C9121F9C42F8D020BA19BA884201D994
:10037000012010BD4FF0FF3010BD1AB1D30703D0DC
:10038000521C07E0002010BD10F8013B11F8014B92
:100390001B1B07D110F8013B11F8014B1B1B01D1AE
:1003A000921EF1D1184610BD02F0FF0343EA03226A
:1003B00042EA024200F002B84FF000020429C0F005
:1003C000128010F0030C00F01B80CCF1040CBCF187
:1003D000020F18BF00F8012BA8BF20F8022BA1EBD9
:1003E0000C0100F00DB85FEAC17C24BF00F8012BBE
:1003F00000F8012B48BF00F8012B70474FF00002B6
:1004000000B5134694469646203922BFA0E80C500A
:10041000A0E80C50B1F12001BFF4F7AF090728BFE5
:10042000A0E80C5048BF0CC05DF804EB890028BF61
:1004300040F8042B08BF704748BF20F8022B11F08A
:10044000804F18BF00F8012B704770477047704706
:1004500053EA020C00F069802DE9F04B4FF00006E2
:10046000002B1FBFB3FA83F503FA05F424FA05F64F
:100470005E4012BF1643B2FA82F502FA05F4C5F1E6
:1004800020051EBF22FA05FC44EA0C04203556EA7A
:10049000044C4FEA144418BF641C4FF000084FF09E
:1004A0000009904271EB030C39D3002919BFB1FA4E
:1004B00081F701FA07F6B0FA80F700FA07F6C7F1FC
:1004C00020071EBF20FA07FC46EA0C062037B6FBC1
:1004D000F4FCA7EB0507103F07F01F0BCBF120063C
:1004E0000CFA0BFB2CFA06F644BFB3460026202F6D
:1004F000A4BF5E464FF0000B5BEA060C08BF4FF04E
:10050000010B19EB0B09ABFB027C48EB0608C01B87
:1005100006FB02CC0BFB03CC71EB0C01C1E70B46D5
:10052000024641464846BDE8F08B13B54FF0000047
:100530004FF00001AFF30080BDE81C40704710B5DC
:1005400000F074F8006810BD10B5044600F06EF8B5
:10055000046010BD2DE9F0470D46994692460446C9
:1005600000F124080168880604D5E06921F0100133
:10057000216000E00120A84201DD471B00E00027C8
:10058000A1697A1902EB0900081AA0612078C00657
:1005900002D42046AFF30080002608E0D4E9012110
:1005A0001AF806009047206A401C761C20624E45CF
:1005B000F4DB2078C0060AD52046AFF3008006E0C1
:1005C000D4E9012130209047206A401C2062381E67
:1005D000A7F10107F4DC07E0D4E9012118F80500D0
:1005E0009047206A401C2062281EA5F10105F3DC1B
:1005F0002046AFF300802078000602D50220BDE837
:10060000F0870120FBE70000074B70B50D467B44E7
:1006100000F015F80446284600F024F810B14FF019
:10062000FF3070BD204670BDB752000000487047D3
:10063000B808002001694A1C02610878704700B5BB
:100640008FB0CDE901310021059105497944CDE90B
:10065000031011466846FFF70BFE0FB000BD000007
:10066000E5FFFFFF007B00F0800070470048704707
:10067000B80800207546FFF7F9FFAE460500694649
:10068000534620F00700854618B020B5FFF7AEFDB1
:10069000BDE820404FF000064FF000074FF0000883
:1006A0004FF0000B21F00701AC46ACE8C009ACE804
:1006B000C009ACE8C009ACE8C0098D46704710B568
:1006C0000446AFF300802046BDE81040FFF77ABD36
:1006D00070B5044600688168C943C90717D18168AD
:1006E00021F00101816000F00FFF05460AE000BF24
:1006F00000F00AFF401B022804D920688068C0432C
:10070000C00706D020688068C043C007F0D0002032
:1007100070BDA06A40F01000A062E06A40F00100E5
:10072000E062012070BD0000F8B500260446009686
:1007300000688168C943C9072DD0816841F0010173
:100740008160164816490068B0FBF1F000E0401ED9
:1007500000900028FBD100F0D7FE054616E000BF50
:1007600000F0D2FE401B022810D920688068C043E8
:10077000C0070BD0A06A40F01000A062E06A40F011
:100780000100E06284F824600120F8BD20688068E0
:10079000C043C007E4D10020F8BD0000680000207D
:1007A00040420F0070B5044610480D46006807F03F
:1007B000DDFE214607F0DCFF0D49044685F00040D0
:1007C000096807F0FFFE0B4907F0D2FD05460B480C
:1007D0000949006807F0CCFD214607F0F3FE2946E1
:1007E00007F0C6FFBDE8704007F084BE340000206B
:1007F0000C0000200000C8420000C8C20800002011
:10080000FEE700002DE9F0410D4C0A4607460B4E6D
:100810001046216807F0D6FEE16A07F041FD014667
:10082000084807F0CFFE05463146384607F0CAFEB5
:10083000294607F035FDE062BDE8F0810AD7A33C08
:100840008000002048E17A3F2DE9F0410D4C0A4636
:1008500007460B4E1046216807F0B4FEA16D07F065
:100860001FFD0146084807F0ADFE054631463846F3
:1008700007F0A8FE294607F013FDA065BDE8F0814A
:100880000AD7A33C8000002048E17A3FF8B5374FF3
:10089000002601200096387002466B4675216820BC
:1008A00005F068FA32A0FFF7D7FC9DF80000682831
:1008B0000CD0BFF34F8F37480168374A01F4E0612D
:1008C00011430160BFF34F8F00BFFDE705F010FC3F
:1008D000002848D1782006F0C9F810B924A0FFF705
:1008E000BBFC782005F036FB10B92CA0FFF7B4FC58
:1008F000C82006F07BF810B932A0FFF7ADFC04F079
:100900007FFC10B939A0FFF7A7FC4548044605F065
:1009100093FA0546E01C05F08FFA45EAC005A01DD4
:1009200005F08AFA45EA801080B204F029FE10B979
:100930003CA0FFF791FC40F2731004F039FB10B9B2
:1009400042A0FFF789FCC82004F082FD10B949A03D
:10095000FFF782FC06F002FE012005F06DFF10B9E2
:100960004DA0FFF779FC3E70F8BD000003000020A9
:100970006D70755F7365745F73656E736F722063FE
:100980006F6D706C657465202E2E2E2E2E2E0D0A26
:10099000000000000CED00E00400FA056D70755FCA
:1009A000636F6E6669677572655F6669666F2063FF
:1009B0006F6D706C657465202E2E2E2E2E2E0D0AF6
:1009C000000000006D70755F7365745F73616D701A
:1009D0006C655F7261746520636F6D706C657465C2
:1009E000202E2E2E2E2E2E0D0A000000646D705F1C
:1009F0006C6F61645F6D6F74696F6E5F647269764E
:100A000065725F6669726D7761726520636F6D7084
:100A10006C657465202E2E2E2E2E2E0D0A000000E1
:100A200054010020646D705F7365745F6F72696557
:100A30006E746174696F6E20636F6D706C65746540
:100A4000202E2E2E2E2E2E0D0A000000646D705FBB
:100A5000656E61626C655F66656174757265206361
:100A60006F6D706C657465202E2E2E2E2E2E0D0A45
:100A700000000000646D705F7365745F6669666F87
:100A80005F7261746520636F6D706C657465202E94
:100A90002E2E2E2E2E0D0A006D70755F7365745FFD
:100AA000646D705F737461746520636F6D706C65E5
:100AB0007465202E2E2E2E2E2E0D0A0070474FF418
:100AC000805000F01FBC72B6FEE700002DE9FC5F0D
:100AD000044603F021F98E49DFF838828E4F086012
:100AE000012C7DD04421D02002F038F90446432166
:100AF000D02002F033F904EB002007F04FFD06464A
:100B00004621D02002F02AF904464521D02002F0E7
:100B100025F904EB002007F041FD00904821D0208A
:100B200002F01CF904464721D02002F017F904EB2B
:100B3000002007F033FD05463C21D02002F00EF9DD
:100B400004463B21D02002F009F904EB002007F015
:100B500025FD83463E21D02002F000F904463D21C8
:100B6000D02002F0FBF804EB002007F017FD8246CE
:100B70004021D02002F0F2F804463F21D02002F0BC
:100B8000EDF804EB002007F009FD4FF08E49044614
:100B90004E4505DD4FF08F41304607F0E9FD064632
:100BA0000098484504DD4FF08F4107F0E1FD0090CB
:100BB0004D4505DD4FF08F41284607F0D9FD05462C
:100BC0005846CB4504DD4FF08F4107F0D1FD8346F9
:100BD0005046CA4506DD4FF08F4107F0C9FD00E0E1
:100BE00058E082464C4505DD4FF08F41204607F026
:100BF000BFFD044686F000412046C8F8001007F00B
:100C000023FB80468946504607F01EFB42464B4672
:100C100004F09EF8DFF804A10022534607F004F820
:100C20003F4A404B06F018FE06F028FD019058465A
:100C300007F00AFB42464B4604F08AF8002253466E
:100C400006F0F2FF364A374B06F006FE06F016FDB8
:100C50008246304607F0F8FADFF8CC804FF066366F
:100C60003246434606F0F8FD06F008FD814600983E
:100C700007F0EAFA3246434606F0EEFD06F0FEFCC7
:100C800006462A48DFF8A880007802281DD00328ED
:100C900027D035E002F056FF2648274C396801601E
:100CA000B4F9000007F062FCC8F80000B4F90400D1
:100CB00007F05CFC214908602148B0F9040007F006
:100CC00055FC20490860BDE8FC9F4946019802F0A8
:100CD000F1F980F0004038603146504602F098FA51
:100CE0000AE049460198FFF78DFD80F0004038602A
:100CF00031465046FFF7A8FD80F00041C8F80010CB
:100D00000C48396801600D4805600E480460DAE758
:100D10002C0000203C0000204001002000806640A4
:100D2000F1D4C853FB210940666630400000002022
:100D30003C01002038000020480100204000002035
:100D40004E010020540000202DE9F35F06F018FF4B
:100D5000264D00222B4606F067FF6FF00106324653
:100D600007F0ADFD224F00223B4606F075FDDFF88F
:100D700084800022434606F06FFD06F07FFC07F0FA
:100D800063FADFF87490DFF874B04A465B4606F009
:100D90004BFFDFF86CA00022534606F045FF06F03B
:100DA0006DFC184C6063019806F0EAFE00222B46A9
:100DB00006F03AFF324607F082FD00223B4606F07D
:100DC0004BFD0022434606F047FD06F057FC07F0B6
:100DD0003BFA4A465B4606F027FF0022534606F0E0
:100DE00023FF06F04BFCA063BDE8FC9F00006940B8
:100DF00000003E4000407F40F1D4C853FB21094031
:100E000000C0504060010020F8B500250446009560
:100E100090F8240001280BD0012084F824002046FB
:100E2000FFF756FC2046FFF77FFC060002D050E09B
:100E30000220F8BDA06A20F4885040F00200A062B1
:100E4000022000F003FC25490968B1FBF0F04000E6
:100E500000E0401E00900028FBD12068816841F02E
:100E60000801816000F050FB074608E000F04CFBF1
:100E7000C01B0A2803D920688068000715D42068A1
:100E800080680007F2D42068816841F00401816025
:100E900000F03AFB074612E000F036FBC01B0A28C0
:100EA0000DD920688068400709D5A06A20F00200AB
:100EB00040F01000A06284F824500120F8BD2068A2
:100EC00080684007E8D4A06A20F0020040F00100EA
:100ED000A06284F824503046F8BD0000680000206D
:100EE000F8B50024009490F824202546012A12D059
:100EF000012280F824204A681F23072A0DD20668A1
:100F0000776B521E02EB820293409F430B68934023
:100F10001F43776319E00220F8BD06680D2A0AD244
:100F2000376BD21F02EB820293409F430B689340C2
:100F30001F43376309E0F76A0D3A02EB82029340E0
:100F40009F430B6893401F43F7620A6807230668B4
:100F50000A2A0AD3F7680A3A02EB420293409F43F7
:100F60008B6893401F43F76008E0376902EB420249
:100F700093409F438B6893401F4337610A68102A50
:100F800001D0112A20D1124B02689A4217D19368DE
:100F90001B0219D4936843F4000393600968102975
:100FA00012D10C490C4A0968B1FBF2F101EB810145
:100FB000490000E0491E00910029FBD104E0816A4C
:100FC00041F020018162012480F824502046F8BDC0
:100FD000002401406800002040420F002DE9F0414C
:100FE0004FF0000704003D467ED0A06A002628B9D5
:100FF000E66284F82460204600F07EF82046FFF781
:1010000067FBA16AC90600D420B1A06A40F01000B5
:10101000A06269E0A16A21F4885141F00201A16255
:101020006268E169237B0A4347EA43010A43A168F6
:101030004FF48077B94209D0012907D05FF0000151
:1010400094F814C0BCF1010F02D00AE03946F7E76A
:10105000F3B1A36A43F02003A362E36A43F0010300
:10106000E3622368D3F804C02CF4694C4CEA010C09
:10107000C3F804C021688B68DFF870C003EA0C0372
:1010800013438B60A168B9420BD0012909D00CE051
:10109000DFF85CC0A3690CEB43330B4343F40061FE
:1010A000DFE7218A0D05A5F580152168CB6A23F4B9
:1010B00070032B43CB62216889680E4B1940914223
:1010C00008D1E662A16A21F0020141F00101A162AA
:1010D000BDE8F081A06A20F0020040F01000A0629C
:1010E000E06A40F00100E0620120F1E7FDF7E1FF76
:1010F00000E0FFFFFE0E1FFF00B585B0002100914C
:1011000001910291039100680E49884218D10E485E
:10111000816941F400718161816901F40071049178
:10112000816941F0080181618069694600F0080029
:1011300004900120009003200190044800F0EEF894
:1011400005B000BD0024014000100240000C014029
:1011500010B590F821100022022905D004218163E6
:1011600080F82020012010BD01680B6823F00E03D9
:101170000B6001680B6823F001030B6090F84030AE
:10118000C46B012101FA03F3636080F8211080F839
:101190002020104610BD000010B590F8211000244A
:1011A000022903D00421816301243DE001680A681B
:1011B00022F00E020A6001680A6822F001020A6049
:1011C0001A4A0168914201D1012121E0174A1432E3
:1011D000914201D110211BE0144A2832914201D1E1
:1011E000891515E0114A3C32914201D189140FE072
:1011F0000E4A5032914202D14FF4803108E00B4A3E
:101200006432914202D14FF4801101E04FF08071BD
:10121000064A083A5160012180F82110002180F827
:101220002010416B01B18847204610BD08000240E4
:1012300070B5044600F068F90546601C02D0044809
:101240000078044400F060F9401BA042FAD370BD5E
:101250005C00002070B5B0F5805F41D12148017875
:10126000E1B30021017020480078FFF72FFC032034
:1012700002F040FD4642042002F03CFD05460146D6
:101280003046FFF761FD1948016819480068FFF70B
:1012900089FA04462946304603F044F905461548C4
:1012A000006802F071FF621901465018124B134C8E
:1012B000134D511A18606E4221602A46314602F0E1
:1012C00039FC18602A463146206802F033FC01469A
:1012D00020601868BDE8704002F0BEBD0121C1E782
:1012E00070BD000060010020000000203C000020D4
:1012F00038000020400000202400002028000020AA
:101300000CE5FFFF044910B50A68024202D00860EC
:10131000FFF7A0FF10BD0000140401402DE9F84FB5
:10132000DFF8B8910024A9F1040B23460F2709F137
:10133000040AABF1040EC9E00125A5402A40AA42E7
:101340007DD1674ED1F804C0ACEB0608B44532D06D
:1013500014DCBCF1030F3AD009DCBCF1000F2AD039
:10136000BCF1010F1CD0BCF1020F31D11DE0BCF16A
:10137000110F17D0BCF1120F2AD119E0B8F5881F50
:1013800019D006DCB8F5803F15D0B8F5801F1FD105
:1013900011E0B8F5001F0ED0B8F5041F18D10AE00F
:1013A000CB6815E0CB681B1D12E0CB6808330FE05B
:1013B000CB680C330CE08B682BB1012B4FF008038A
:1013C00003D0456104E0042302E0056100E000234E
:1013D000FF2A01D8064601E000F104064FEA840521
:1013E00001D9A5F12005D6F8008007FA05FC28EA06
:1013F0000C0803FA05F548EA0508C6F800804D68B0
:10140000ED0062D5374DAE6946F00106AE61AD69BB
:1014100024F0030605F001050095334D06EB050C9D
:10142000DCF80850A607360F07FA06F825EA080583
:10143000DFF8B880404503D14FF0000817E044E0E2
:10144000DFF8AC80404502D14FF001080FE0DFF833
:10145000A480404502D14FF0020808E0DFF89880F0
:10146000404502D14FF0030801E04FF0040808FAAC
:1014700006F848EA0508CCF808804D68D9F80060FD
:10148000ED024D4601D5164300E096432E604D68AF
:10149000DAF80060AD02554601D5164300E09643E8
:1014A0002E604D68DBF80060AD035D4601D5164344
:1014B00000E096432E604D68DEF80060ED0375464F
:1014C00001D5164300E096432E60641C0D682A4641
:1014D000E5407FF431AFBDE8F88F0000080401401B
:1014E00000001110001002400000014000080140FF
:1014F000000C014000100140001401400AB10161DC
:1015000070470904FBE7000001488068704700004D
:101510005C000020024881680278114481607047B5
:101520005C000020074810B5016841F0100101601F
:10153000032000F079F8002000F006F800F024F80D
:10154000002010BD0020024070B50D4D04464FF440
:101550007A712878B1FBF0F00A490968B1FBF0F024
:1015600000F0E3FC48B9102C07D200222146501E9F
:1015700000F03AF800206C6070BD012070BD0000E2
:101580005C000020680000200E4808B5816941F029
:1015900001018161816901F001010091C16941F09E
:1015A0008051C161C06900F080500090052000F0BA
:1015B0003BF80548416821F0E06141F0007141606D
:1015C00008BD00000010024000000140002809DBB7
:1015D00000F01F02012191404009800000F1E0204D
:1015E000C0F8001170470000F0B40E4B1B680C46A9
:1015F000C3F30223C3F10705042D00D90425191DE7
:10160000072901D2002300E0DB1E012606FA05F1BE
:10161000491E214099409E40761E16403143F0BC41
:1016200003F084B80CED00E0064900F007020868FA
:101630004FF6FF03184040EA0220034A10430860B7
:10164000704700000CED00E00000FA0510B50146FF
:101650000020234C012922D0022939D010291DD184
:1016600061682268D20119D51E48C1F38342C903BB
:10167000805C0AD561681B4AC1F34041921E515CEF
:10168000194AB2FBF1F1484301E018494843616847
:10169000490203D440000321B0FBF1F010BD226ADF
:1016A000C2F30121012903D1920701D5C80310BD5E
:1016B000022905D1626A920702D549F6404010BD61
:1016C0000329FCD121688903F9D54FF2244010BDCC
:1016D00000F02AF96168C1F38131491C4900DBE758
:1016E00000100240AA89000800127A0000093D009B
:1016F0002DE9F84305460078354CC00754D0E06921
:101700000026C00008D4E06940F08050E061E06944
:10171000012600F0805000902E480168C90512D4BF
:101720000168804641F480710160FFF7EDFE0746D5
:1017300005E000BFFFF7E8FEC01B642823D8D8F8F7
:101740000000C005F6D5206A10F4407021D0A988A9
:1017500001F4407181421CD0206A1F49012220F40B
:1017600040700A6000220A602062C00711D0FFF7B3
:10177000CBFE074641F2883808E000BFFFF7C4FE01
:10178000C11B414502D90320BDE8F883206A8007C8
:10179000F4D5206A696820F44070084320621EB1C5
:1017A000E06920F08050E0612878800705D5606806
:1017B000A96820F44040084360602878C00605D539
:1017C0006068E96820F48000084360600020DBE77F
:1017D0000010024000700040400442422DE9F047F2
:1017E0000F46050061D0434E306800F00700B84254
:1017F00009D2306820F0070038433060306800F0CC
:101800000700B84251D128683B4C810712D54007E8
:1018100003D5606840F4E06060602878000703D575
:10182000606840F4605060606068A96820F0F00073
:10183000084360602878C00728D06868012810D065
:101840002168022810D0890700292EDA616821F06A
:10185000030101436160FFF757FE804641F288397A
:101860000DE021688903EFE78901EDE7FFF74CFE02
:10187000A0EB0801494502D90320BDE8F087606864
:10188000696800F00C00B0EB810FEFD1306800F018
:101890000700B8420BD9306820F0070038433060A9
:1018A000306800F00700B84201D00120E5E7287851
:1018B000400705D56068E96820F4E060084360608F
:1018C0002878000706D56068296920F4605040EA4E
:1018D000C100606000F038F86168084AC1F3031184
:1018E000515CC8400649086006480068FFF72CFEB6
:1018F0000020C2E70020024000100240BA89000820
:10190000680000206000002004480549006849681C
:10191000044AC1F30221515CC840704768000020AE
:1019200000100240CA890008044805490068496857
:10193000044AC1F3C221515CC840704768000020CE
:1019400000100240CA8900080E4A51680E4801F092
:101950000C03042B11D0082B0FD10C48C1F3834387
:10196000C903C05C0AD55168084AC1F34041921EC0
:10197000515C054A5043B0FBF1F0704704494843BD
:10198000704700000010024000127A009889000899
:1019900000093D002DE9F84F040070D02078C04DBB
:1019A000C00749D06868C0F38100012807D0686883
:1019B000C0F38100022809D16868C00306D52868F1
:1019C000800339D560680028E7D035E06068B0F55D
:1019D000803F0BD010B1B0F5A02F11D0286820F4B3
:1019E00080302860286820F4802002E0286840F4D5
:1019F00080302860606890B1FFF786FD06460AE0F7
:101A0000286840F480202860F0E700BFFFF77CFDE5
:101A1000801B642873D828688003F7D50CE0FFF793
:101A200073FD064605E000BFFFF76EFD801B6428CE
:101A3000F0D828688003F7D420789A4E80074FF0BA
:101A400001094FF0000839D5686810F00C0F07D075
:101A50006868C0F38100022809D16868C00306D411
:101A60002868800714D52069012808D110E0206972
:101A7000B0B1C6F80090FFF747FD074605E00AE160
:101A8000FFF742FDC01B0228C4D828688007F7D59D
:101A90002868616920F0F80040EAC10028600DE084
:101AA000C6F80080FFF730FD074604E0FFF72CFD85
:101AB000C01B022823D828688007F7D420780007A5
:101AC0002CD57948A169D9B1C0F80090FFF71CFD69
:101AD000074604E0FFF718FDC01B02280FD8686A0C
:101AE0008007F7D571484FF4FA510068B0FBF1F068
:101AF000009000BF0098411E0091FAD20EE080E0F5
:101B0000C0F80080FFF700FD074604E0FFF7FCFC8B
:101B1000C01B022875D8686A8007F7D42078400770
:101B200060D5E8690027C00008D4E86940F080501B
:101B3000E861E869012700F0805000905C48016886
:101B4000C90513D40168834641F480710160FFF731
:101B5000DBFC824606E000BFFFF7D6FCA0EB0A00E4
:101B600064284ED8DBF80000C005F5D5E0680128F0
:101B70000AD008B1052813D0286A20F00100286295
:101B8000286A20F0040002E0286A40F00100286280
:101B9000E06841F2883B98B1FFF7B6FC82460BE063
:101BA000286A40F004002862EEE700BFFFF7ACFCB3
:101BB000A0EB0A0159455AD8286A8007F6D50CE0EF
:101BC000FFF7A2FC824605E0FFF79EFCA0EB0A01AE
:101BD00059454CD8286A8007F6D41FB1E86920F02F
:101BE0008050E861E06988B36968C1F38101022926
:101BF00044D00228C6F8608004D0FFF785FC044674
:101C000038E034E0FFF780FC074604E0FFF77CFC97
:101C1000C01B02282BD828688001F7D4206AB0F5B1
:101C2000803F05D16868A16820F4003008436860EF
:101C3000D4E908010843696821F474110843686015
:101C4000C6F86090FFF760FC044606E025E000BFA0
:101C5000FFF75AFC001B022809D828688001F7D535
:101C60001BE000BFFFF750FC001B022802D9032035
:101C7000BDE8F88F28688001F4D40EE00128F7D081
:101C80006868226A00F48031914204D1616A00F4EC
:101C90007010884201D00120EAE70020E8E7000048
:101CA00000100240000042428004424268000020CE
:101CB0000070004070B5040009D0606A002540B192
:101CC00025616561A56294F8510040B10CE00120E6
:101CD00070BD6068B0F5827FF4D0E561F2E784F80A
:101CE0005050204600F040F8022084F8510020684F
:101CF000016821F040010160A088218900F4827010
:101D000001F404410843A18901F400610843217CE6
:101D100001F002010843217D01F001010843218BFC
:101D200001F400710843217F01F03801084394F861
:101D3000201001F080010843218D01F40051084377
:101D400021680860A069042101EA10402168486008
:101D50002068C16921F40061C1616565012084F8D2
:101D60005100002070BD000000B585B00021009139
:101D700001910291039100680F4988421AD10F48DE
:101D8000816941F480518161816901F4805104913C
:101D9000816941F0040181618069694600F00400B5
:101DA0000490A0200090022001900320039004489A
:101DB000FFF7B4FA05B000BD00300140001002404A
:101DC000000801402DE9F84F984616468A46044619
:101DD000FFF79AFB814694F8510001281ED1BAF111
:101DE000000F73D0002E71D094F85000012815D048
:101DF000012784F85070032084F8510000256565A0
:101E0000C4F830A0A686E686A563A587E587656445
:101E10002564A068B0F5004F03D00CE00220BDE8B7
:101E2000F88F2068016821F0400101602068016896
:101E300041F48041016020680168490603D40168CB
:101E400041F040010160E068B0F5006F606803D0C8
:101E500048B3012E27D047E008B1012E1FD1206BD7
:101E600021680088C86006E020688168890709D574
:101E7000216B0988C160206B801C2063E08E401EAE
:101E8000E0860CE0FFF740FBA0EB0901414503D3DE
:101E9000B8F1FF3F03D035E0B8F1000F32D0E08E4B
:101EA0000028E1D123E0206B21680078087306E068
:101EB0002068816889070AD5216B09780173206B36
:101EC000401C2063E08E401EE0860DE02BE0FFF713
:101ED0001BFBA0EB0901414503D3B8F1FF3F03D041
:101EE00010E0B8F1000F0DD0E08E0028E0D14A4696
:101EF0004146204601F038FF08B120206065A06807
:101F000030B109E084F8517084F85050032086E71E
:101F10002068C1688068009084F8517004F8505FB0
:101F200060680028F3D0012079E710B5401EB0F1B9
:101F3000807F01D3012010BD4FF0E02460610F21AC
:101F4000601702F0F3FB0020A06107202061002051
:101F500010BD7047704710B590F83C20012A22D080
:101F6000012280F83C20CA688C6822F44072224327
:101F70004C6822F4806222430C6822F400622243FF
:101F80000C6922F4805222434C6922F4005222430D
:101F9000C969002322F480420A4301684A6480F838
:101FA0003C30002010BD022010BD000070B590F83C
:101FB0003C20012A26D0012480F83C40022280F8EF
:101FC0003D2003685A689D6822F070060A68324313
:101FD0005A600D4B02689A4208D0B2F1804F05D08A
:101FE0000A4B9A4202D00A4B9A4204D1496825F022
:101FF00080031943916080F83D40002180F83C1037
:10200000084670BD022070BD002C01400004004055
:102010000008004010B5040003D094F83D0010B152
:1020200007E0012010BD002084F83C00204600F0AD
:102030001FF8022084F83D00211D206801F082FF76
:10204000012084F8460084F83E0084F83F0084F8BC
:10205000400084F8410084F8420084F8430084F88A
:10206000440084F8450084F83D00002010BD0000C5
:1020700008B500680649884208D10648816941F4DC
:1020800000618161806900F40060009008BD00007B
:10209000002C01400010024070B5044690F83C004E
:1020A0000025012817D0012684F83C60022084F81E
:1020B0003D002068826822F0770222F47F4282602D
:1020C0000868502838D00DDC20284FD005DC90B3AC
:1020D000102811D14AE0022070BD302846D0402897
:1020E0000AD13BE060282FD070280DD0B0F5805F7A
:1020F00003D0B0F5005F12D0012584F83D600020C8
:1021000084F83C00284670BDCB68D1E901212068E5
:1021100001F061FF2068816841F0770109E0CB6838
:10212000D1E90121206801F056FF2068816841F45F
:1021300080418160E1E719E0CA684968206801F0E0
:10214000FFFF5021206806E0CA684968206802F055
:1021500008F86021206801F048FFCEE7CA684968A6
:10216000206801F0EDFF40212068F4E72268014675
:102170001046F0E72DE9F0410D46040003D094F835
:102180003D0018B108E00120BDE8F081002084F88E
:102190003C00204600F040F8022084F83D00206812
:1021A000816844F2070291438160211D206801F09B
:1021B000C9FE226890689169166A2B68AF6903436B
:1021C00040F20330814341EA0721A868EF690843E0
:1021D0004FF6FC418843E96840EA0720014328693B
:1021E0002F6A000140EA0730084369686D6926F0EC
:1021F000220646EA0515294393602268906154F847
:10220000460B0162012004F81F09E0752076E07694
:102210002077A0750020B7E700B585B000210091B8
:1022200001910291039102683249B2F1804F28D0A6
:10223000314B32489A423CD1CA6942F00202CA612B
:10224000CA6902F0020204928A6942F008028A61B5
:10225000896901F008010491302100916946FFF776
:102260005DF82748416821F4406141F0E06141F4A4
:1022700000614160002201211D20FFF7B5F91D20FA
:1022800035E0C86940F00100C861C86900F001008C
:102290000490886940F0040088618869694600F00C
:1022A00004000490032000901648FFF737F805B0AB
:1022B00000BD154B9A42FAD1CA6942F00402CA61C4
:1022C000CA6902F0040204928A6942F008028A6133
:1022D000896901F008010491C02100916946FFF766
:1022E0001DF8002201211E20FFF77EF91E20FFF7B6
:1022F0006DF9DCE70010024000040040000C0140D2
:1023000000000140000801400008004070B590F84E
:102310003E60044690F83F5090F8423090F84320D9
:10232000022021B104290ED0012E1BD114E0012E70
:1023300018D1012B16D184F83E0084F84200012206
:102340000021206820E0012D0CD1012A0AD184F857
:102350003F0084F8430014E0012D03D1012B01D18B
:10236000012A01D0012070BD84F83E0084F83F00AE
:1023700084F8420084F8430001220021206801F023
:102380001DFE01220421206801F018FE206801686A
:1023900041F001010160002070BD70472DE9F0415E
:1023A00004460068C66805694FF00007A90713D501
:1023B000B10711D5F91E01610120207720688069DD
:1023C0008007204602D0FFF7E8FF04E000F0A4F801
:1023D000204600F036F92777680716D5700714D520
:1023E00021686FF00400086102202077206880696E
:1023F00010F4407F204602D0FFF7CFFF04E000F04A
:102400008BF8204600F01DF92777280715D53007EF
:1024100013D521686FF00800086104202077206838
:10242000C0698007204602D0FFF7B7FF04E000F044
:1024300073F8204600F005F92777E80616D5F00670
:1024400014D521686FF010000861082020772068FB
:10245000C06910F4407F204602D0FFF79EFF04E0E1
:1024600000F05AF8204600F0ECF82777E80708D08B
:10247000F00706D021686FF001000861204600F0E7
:102480002FF9280608D5300606D521686FF08000A0
:1024900008612046FFF75DFD680608D5700606D581
:1024A00021686FF040000861204600F01AF9A80684
:1024B0000AD5B00608D521686FF0200008612046D3
:1024C000BDE8F041FFF746BDBDE8F08100B585B03D
:1024D0000021009101910291039100680B4988420B
:1024E00012D10B48816941F004018161806969461C
:1024F00000F0040004904FF410600090022001905E
:1025000003900448FEF70AFF05B000BD002C01400F
:102510000010024000080140704770B5044690F872
:102520003C0000260D4601280FD0012084F83C0015
:102530006AB1042A1DD0082A2FD00C2A3FD00126C8
:10254000002084F83C00304670BD022070BD206839
:1025500001F054FD2068816941F008018161206823
:10256000816921F004018161206881692A69114330
:1025700011E0206801F06AFD2068816941F4006182
:1025800081612068816921F48061816120688169AD
:102590002A6941EA02218161D2E7206801F082FDC7
:1025A0002068C16941F00801C1612068C16921F05A
:1025B0000401C1612068C1692A69114311E02068E2
:1025C00001F09CFD2068C16941F40061C16120688F
:1025D000C16921F48061C1612068C1692A6941EA49
:1025E0000221C161ACE710B5040003D094F83D00AE
:1025F00010B107E0012010BD002084F83C00204607
:1026000000F01EF8022084F83D00211D206801F032
:1026100099FC012084F8460084F83E0084F83F00CD
:1026200084F8400084F8410084F8420084F84300B4
:1026300084F8440084F8450084F83D00002010BD73
:102640007047704710B50446022249B104290ED0E4
:10265000082913D094F84100012816D0012010BD9C
:1026600094F83E000128F9D184F83E200FE094F858
:102670003F000128F2D184F83F2008E094F84000A0
:102680000128EBD184F8402001E084F841200122A8
:10269000206801F093FC0F492068884203D1426C06
:1026A00042F4004242642068884208D0B0F1804F72
:1026B00005D00949884202D00849884204D181687E
:1026C00001F00701062903D0016841F00101016012
:1026D000002010BD002C0140000400400008004014
:1026E0007047704770477047F8B50168044608683E
:1026F000CA684B6910F00F0F4FF0000559D003F076
:10270000010602F49077374365D0C10705D0D105A3
:1027100003D5616C41F001016164410705D5D9071A
:1027200003D0616C41F002016164810705D5D907CE
:1027300003D0616C41F004016164010707D502F028
:102740002001314303D0616C41F008016164616C88
:1027500000293AD0800604D5900602D5204601F023
:10276000C2FD20684069616CC0F38010090700D485
:1027700060B3204601F090FD20684069400621D5F5
:102780002068143050E8001F21F0400140E800129A
:10279000002AF5D1E06BA8B16D494163E06BFEF70B
:1027A000FBFC002811D0E06B416B01B0BDE8F040AC
:1027B000084783060FD593060DD52046BDE8F8409F
:1027C00001F091BD2046FFF78EFFF8BD2046FFF7D0
:1027D0008AFF6564F8BD266B2023012E7CD1C606D6
:1027E0007AD5D60678D508684868009048694FF0D1
:1027F0000206400640D5E16B086840680004000C02
:10280000E8D0A28D8242E5D9E085886920282DD0C4
:1028100020680C3050E8001F21F4807140E800125D
:10282000002AF5D12068143050E8001F21F0010182
:1028300040E80012002AF5D12068143050E8001F4B
:1028400021F0400140E80012002AF5D184F842301E
:10285000256320680C3050E8001F21F0100140E88B
:102860000012002AF5D1E06BFEF772FC6663A08DC2
:10287000E18D401A81B22AE0A08DE18D401A81B22B
:10288000E08D0028A6D00029A4D022680C3252E89E
:10289000000F20F4907042E80007002FF5D1206867
:1028A000143050E8002F22F0010240E80027002FEA
:1028B000F5D184F84230256320680C3050E8002FB1
:1028C00022F0100240E80023002BF5D16663204679
:1028D000FFF708FFF8BDFFE705062BD5150629D53C
:1028E00094F841002128F5D1A068B0F5805F01D1AE
:1028F0002069B0B1206A411C2162216800784860DB
:10290000E08C401E0004000CE084E3D12068C16824
:1029100021F08001C1602068C16841F04001C160C0
:10292000D8E7206A0088C0F308004860206A801C4D
:102930002062E5E74006CDD55006CBD5CA682046D3
:1029400022F04002CA6084F8413000F005FAC1E785
:102950008942000870B5040004D094F841000025B5
:1029600010B106E0012070BD84F84050204600F010
:1029700023F8242084F841002068C16821F4005124
:10298000C160204601F010FD2068016921F49041EA
:1029900001612068416921F02A0141612068C16814
:1029A00041F40051C1606564202084F8410084F83E
:1029B00042006563002070BD70B586B000240094AD
:1029C00001940294039403682E482D4E02210322A1
:1029D0000515B34226D1836943F48043836183693B
:1029E00003F480430493836943F0040383618069A3
:1029F000254E00F0040004900802CDE90001039286
:102A000069463046FEF78AFCCDE9005469463046F7
:102A10000294FEF783FC002201212520FEF7E4FD4D
:102A2000252028E0194EB34227D1C36943F48023FF
:102A3000C361C36903F480230493836943F00803EB
:102A400083618069CDE9005100F00800CDE90320E1
:102A50000F4D69462846FEF761FCE814CDE90004F5
:102A6000694628460294FEF759FC002201212720DE
:102A7000FEF7BAFD2720FEF7A9FD06B070BD0000E5
:102A800000380140001002400008014000480040AA
:102A9000000C014090F84230202B01D002207047FA
:102AA00021B11AB10023036301F0DABC01207047A1
:102AB0002DE9F04700686F49884270D16E486E4D2D
:102AC000DFF8B8C10078ED1E6D49A8606D4A6E4B05
:102AD0006E4E0127002428714FF00209592816D0A4
:102AE000582817D00A281BDD5A282ED041283ED05E
:102AF00045282FD0422831D043282FD044282DD02C
:102B0000462830D047282ED048282CD004E08CF816
:102B1000009001E08CF800700C7014701C70347020
:102B20000A282ADA5FEA000C0FD001281FD00528F6
:102B300010D002281DD003281BD0042819D0062845
:102B400029D0072827D0082825D00C70147003E05E
:102B5000347012E00C7017701C70F9E70C70147070
:102B60001C703770DCE70C7014701F70D7E70F70A3
:102B7000ECE70C7014701C7037703F49444AC91E52
:102B80007B2849780CD07D280FD02B78012B08D0DA
:102B9000022B0CD065E00C7014701F70D8E767E052
:102BA0002F705054491C69705BE085F80090D07814
:102BB000502805D0507823284BD0A970914629E0A1
:102BC0003448077045E06978081A04F0D9FF0246D6
:102BD0000B460020304903F0D5FF0646A8780F4683
:102BE0008046484410F8010C303804F0C9FF3246E2
:102BF0003B4605F019F806460F46E86805F024FB49
:102C000032463B4604F06CFD04F038FDE860A8F164
:102C10000100A870A8780428D5D299F801003038AE
:102C2000062816D2DFE800F00306090C0F121B4934
:102C3000E8680DE01A49E8680AE01A49E86807E020
:102C40001949E86804E01949E86801E01849E868AA
:102C500008602C706C70AC7032210D48EC60FDF790
:102C6000ABFBBDE8F047012203491248FFF712BF52
:102C7000BDE8F087004800406F0000200100002000
:102C8000200000202100002022000020230000203E
:102C900054080020500000200000244008000020BC
:102CA0000C0000201000002014000020180000205C
:102CB0001C0000208C0300202DE9F843044690F806
:102CC0004100984616460D46202802D00220BDE855
:102CD000F88385B17EB100206064212084F8410032
:102CE000FEF712FCA6848146E684A0682027B0F592
:102CF000805F02D003E00120E9E7206910B12E4691
:102D000000250EE000260CE08021204601F0C3FBE8
:102D1000A8B9C6B116F8010B21684860E08C401EC6
:102D2000E084E08C4B464FF00002CDF80080002894
:102D3000EAD14FF04001204601F0ADFB40B184F8EC
:102D400041700320C3E735F8020BC0F30800E3E746
:102D500084F841700020BAE77047FEE770B50D4671
:102D6000044600F0C1F8204600F08EF800F004F9A7
:102D7000284600F089F800F0FFF800F0B5F8641C70
:102D8000E0B200F081F800F0F7F8002000F046F81B
:102D9000044600F0D1F8204670BD000070B50D4C1F
:102DA0000025C4F8A0510C48016821F0F001016031
:102DB000016841F030010160C4F8A451012004F51C
:102DC000D07402F0BDF80120206002F0B9F825604F
:102DD00070BD000000802142040C014070B50D4C14
:102DE0000025C4F8A0510C48016821F0F0010160F1
:102DF000016841F0300101600126C4F8A461304649
:102E000004F5D07402F09CF82660012002F098F8D6
:102E1000256070BD00802142040C01402DE9F0477F
:102E2000814617480024016821F0F0010160016823
:102E300041F080010160134E254627464FF00108FE
:102E4000C6F8A071022002F07BF8C6F8A0816006E7
:102E5000040ED6F8240108B1641CE4B2022002F08A
:102E60006FF86D1CEDB2082DEAD3B9F1000F02D056
:102E7000FFF794FF01E0FFF7B1FF2046BDE8F087C0
:102E8000040C0140008021422DE9F041064614481F
:102E9000016821F0F0010160016841F0300101603A
:102EA000104C0027C4F8A0713D464FF00108F0090E
:102EB000C4F8A4017006060E012002F041F8C4F81F
:102EC000A081012002F03CF8C4F8A071012002F0BA
:102ED00037F86D1CEDB2082DE9D3BDE8F081000094
:102EE000040C01400080214270B51148016821F0B6
:102EF000F0010160016841F0300101600D4C0120DA
:102F0000C4F8A401D4F8241149B1C4F8A00102F016
:102F100017F80025C4F8A451D4F8240108B1002002
:102F200070BD012002F00CF8C4F8A051012070BD62
:102F3000040C0140008021420D4810B5016821F0C9
:102F4000F0010160016841F030010160094C00208E
:102F5000C4F8A001C4F8A401012004F5D07401F064
:102F6000EFFF012020606060BDE8104001F0E8BF85
:102F7000040C01400080214270B513480024016810
:102F800021F0F0010160016841F0800101600F4D06
:102F90000126C5F8A461304601F0D2FFC5F8A06152
:102FA00007E0641CE4B2322C03D9FFF7C5FF002010
:102FB00070BD012001F0C4FFD5F824010028F0D134
:102FC000C5F8A001012070BD040C01400080214221
:102FD00010B51446FFF7C2FE2070012010BDF8B5F1
:102FE00015461C460E4607466A46FFF7F1FF0120CC
:102FF0009DF80010A8400CB1084301E021EA000050
:10300000C2B28DF800203146384600F02BF8F8BDEA
:103010002DE9F84314461D460F4680466A46089E31
:10302000FFF7D6FF00281BD0611CFF20C4F1080267
:1030300000FA01F12A44521ED0400143C5F10800B4
:103040008640F2B2C4F10700C2409DF8000008407B
:1030500010438DF80000C2B23946404600F002F835
:10306000BDE8F88307B502AB012200F001F80EBD00
:103070002DE9F0411E461546884607460024FFF715
:1030800033FF3846FFF700FFFFF776FF4046FFF7B4
:10309000FBFEFFF771FF06E0305DFFF7F5FEFFF77F
:1030A0006BFF641CE4B2AC42F6D3FFF745FF01208E
:1030B000BDE8F0812DE9F34F524D8DB00846A96867
:1030C0004F4E089105F054FB2968009105F07AFAFB
:1030D000696805F0E5F805F15C040690676830461C
:1030E000394605F045FBD4F80890494605F040FB09
:1030F00045490860E268904682F00046434A4E60C7
:10310000C1E90262009905F05DFA216805F0C8F88E
:1031100083463046009905F055FA0646394605F0D3
:10312000BFF882463046494605F0BAF8814637482E
:10313000009905F047FA414605F0B2F88046069935
:103140000D9805F015FB039059464FF07E5005F0A1
:1031500039FA064649464FF07E5005F033FA04909E
:1031600031464FF07E5005F02DFA4FF07C5105F0BE
:1031700097F807460146304605F0FAF801903946BF
:10318000049805F0F5F8009051464FF07E5005F098
:1031900019FA07463146019805F014FA594605F028
:1031A000DDFA20603946019805F00CFA514605F029
:1031B000D5FA60603146009805F004FA494605F0FA
:1031C000CDFAA0603946009805F0FCF9414605F0BB
:1031D000C5FAE0600399019805F0F4F9069905F045
:1031E0005FF8686004460399009805F0EBF90899C8
:1031F00005F056F8A8600FB02046BDE8F08F00003B
:103200006F12833A8000002088080020A69B443B70
:103210002DE9F34F524D8DB00846696B4F4E089122
:1032200005F0A6FA2968009105F0CCF9296B05F0A4
:1032300037F805F16C04069067683046394605F0AA
:1032400097FAD4F80890494605F092FA4549086083
:10325000E268904682F00046434A4E60C1E902624D
:10326000009905F0AFF9216805F01AF88346304659
:10327000009905F0A7F90646394605F011F882468F
:103280003046494605F00CF881463748009905F06C
:1032900099F9414605F004F8804606990D9805F025
:1032A00067FA039059464FF07E5005F08BF90646B9
:1032B00049464FF07E5005F085F9049031464FF0B5
:1032C0007E5005F07FF94FF07C5104F0E9FF07468E
:1032D0000146304605F04CF801903946049805F057
:1032E00047F8009051464FF07E5005F06BF90746C5
:1032F0003146019805F066F9594605F02FFA20602D
:103300003946019805F05EF9514605F027FA6060EC
:103310003146009805F056F9494605F01FFAA060BD
:103320003946009805F04EF9414605F017FAE0607D
:103330000399019805F046F9069904F0B1FF286356
:1033400004460399009805F03DF9089904F0A8FF98
:1033500068630FB02046BDE8F08F00006F12833A1B
:103360008000002098080020A69B443B10B5022056
:1033700000F011F8032000F020F8002000F014F80D
:10338000002000F02FF8002000F026F8BDE81040E3
:10339000002000F01BB808B50323009002226B2127
:1033A000D020FFF735FE08BD08B5022300900422A7
:1033B0001C21D020FFF72CFE08BD08B50223009089
:1033C00004221B21D020FFF723FE08BD0346012263
:1033D0003721D020FFF703BE034605226A21D02003
:1033E000FFF7FDBD034606226B21D020FFF7F7BD96
:1033F0003EB5002412480094019402940F49846061
:10340000016004730475012505614FF46021446077
:10341000C161FDF7E3FD08B1FDF755FB0820CDE9DB
:103420000005694602940648FDF75AFD08B1FDF70C
:103430004AFB0348FDF7E8FC3EBD000000240140C4
:103440009C0100202DE9F04786B000243648009406
:10345000019402940394816941F0100181618169B2
:1034600001F010010491816941F0200181618169BD
:1034700001F020010491816941F0040181618169B9
:1034800001F004010491816941F0080181618069C2
:10349000DFF8988000F008004FF4005504900022F7
:1034A00029464046FEF72AF8DFF884A000221C21B6
:1034B0005046FEF723F8DFF87C904FF47347002264
:1034C00039464846FEF71AF800950226012503966C
:1034D000CDE9015469464046FDF720FF1C20CDE9A7
:1034E0000005CDE9024669465046FDF717FF0097F3
:1034F0000396CDE9015469464846FDF70FFF2803BE
:1035000000900D48CDE9010469465046FDF706FFDD
:10351000002202212820FEF767F82820FEF756F83F
:1035200006B0BDE8F0870000001002400010014026
:1035300000080140000C014000002110114810B5A6
:103540000F4901604FF4827141604FF40041816086
:1035500000210222C0E9031201224261520282616B
:103560000822C0E90721416281620A21C162FEF797
:10357000A1FB002803D0BDE81040FDF7A4BA10BDA0
:1035800000300140CC01002010B596B000240F940B
:1035900010941194129413941C2168461494FCF70F
:1035A0002DFF202107A8FCF729FF2C482A49C0E954
:1035B000001441F61F41C0E9024180210461C0E9C5
:1035C0000541FEF727FD08B1FDF77DFA4FF4805065
:1035D0000F900FA92148FEF75FFD08B1FDF773FAC0
:1035E0001E48FFF700F808B1FDF76DFA139413A910
:1035F0001A481494FEF7DAFC08B1FDF764FA60206B
:10360000CDE90004029403940494059400226946D1
:1036100012480694FEF781FF08B1FDF754FA0C2218
:1036200069460E48FEF779FF08B1FDF74CFA07949A
:10363000089409944FF400500A94CDE90B4007A96F
:1036400006480E94FEF787FC08B1FDF73CFA0348E4
:10365000FEF73CFF16B010BD002C014024020020F4
:1036600010B58CB024216846FCF7C8FE002414482D
:1036700009944FF080410A9401600121C0E90114CE
:103680000A22C0E903248461CDE90014CDE90214C3
:103690000494CDE90541079469460894FEF76AFD54
:1036A00008B1FDF710FA099409A905480A94FEF734
:1036B0007DFC002801D0FDF706FA0CB010BD00001B
:1036C0006C02002010B58CB024216846FCF796FEF1
:1036D00000241648099414490A94C0E900144FF6CE
:1036E000FF71C0E90241046184610320CDE9000457
:1036F0000120CDE902040494CDE905400794694610
:103700000A480894FEF736FD08B1FDF7DCF9099484
:1037100009A906480A94FEF749FC002801D0FDF7E4
:10372000D2F90CB010BD000000040040B40200202B
:1037300010B58CB024216846FCF760FE00241648C2
:10374000099414490A94C0E900144FF6FF71C0E9C6
:103750000241046184610320CDE900040120CDE928
:1037600002040494CDE90540079469460A48089488
:10377000FEF700FD08B1FDF7A6F9099409A906486E
:103780000A94FEF713FC002801D0FDF79CF90CB059
:1037900010BD000000080040FC0200200C4810B5DD
:1037A0000A4901604FF4E1314160002181600C223F
:1037B000C160C0E904128161C161FFF7CBF8002844
:1037C00003D0BDE81040FDF77EB910BD00380140C0
:1037D000440300200E4810B50C4901604FF4165107
:1037E0004160002181600C22C160C0E90412816146
:1037F000C161FFF7AFF808B1FDF765F9BDE810400A
:10380000012204490248FFF745B900000048004082
:103810008C0300206F000020FEE7FEE730B400219B
:10382000084B0A465FF0000003EBC004401CC0B226
:1038300062548028F8D3491CC9B20829F2D330BC9D
:1038400000F09EB8D403002030B5CC0801F0070387
:1038500001259D40EBB2064D05EBC005C808285C6C
:103860000AB1184302E063EA0000C043285530BDA6
:10387000D403002010B5414C002208212046FDF75A
:103880003DFEC820FDF7D4FC012208212046FDF7AB
:1038900035FE0021AE2000F029F90021084600F095
:1038A00025F90021102000F021F90021402000F02E
:1038B0001DF90021812000F019F90021CF2000F02E
:1038C00015F90021A12000F011F90021C82000F015
:1038D0000DF90021A62000F009F90021A82000F030
:1038E00005F900213F2000F001F90021D32000F06C
:1038F000FDF80021084600F0F9F80021D52000F07D
:10390000F5F80021802000F0F1F80021D92000F026
:10391000EDF80021F12000F0E9F80021DA2000F0B4
:10392000E5F80021122000F0E1F80021DB2000F092
:10393000DDF80021402000F0D9F80021202000F01F
:10394000D5F80021022000F0D1F800218D2000F0F0
:10395000CDF80021142000F0C9F80021A42000F0C7
:10396000C5F80021A62000F0C1F8FFF757FF00219D
:10397000BDE81040AF2000F0B9B8000000080140D9
:1039800070B5114E002400BF04F1B000C0B2002198
:1039900000F0ACF80021084600F0A8F80021102043
:1039A00000F0A4F85FF0000506EBC5000121005D02
:1039B00000F09CF86D1CEDB2802DF5D3641CE4B2D0
:1039C000082CE1D370BD0000D40300202DE9FC4F8A
:1039D0001C460E4682468B460190082B0DD0600790
:1039E00000D0012000EBD40061084843C0B28146FA
:1039F000203AD0B2009000204BE00620F7E7082CD8
:103A000013D00C2C18D0102C1BD0182C44D100989B
:103A1000234900EBC00000BF01EB8001002711F833
:103A20000850E80712D00B9A13E000981D4900EBEC
:103A3000400001EB4001F1E700981B4900EB40001A
:103A4000EAE71A49009801EB0011E7E70B9828B361
:103A5000002231465046FFF7F7FE761C7F1C6D08AA
:103A6000FFB2F6B2082FDCD30AF1010000F0FF0A22
:103A7000082C0AD00199AAEB0100B0EB540F04D135
:103A80000BF108008A4600F0FF0B08F101005E46CA
:103A9000C0B280464845B2D3BDE8FC8F0122D8E7CA
:103AA0005E960008D2890008FA8B00086E90000824
:103AB0002DE9F8411E46154688460446079F0BE04F
:103AC0003346414620460097FFF780FF082E0AD074
:103AD00004EB5600C4B26D1C2A78A2F120005E28C7
:103AE000EED9BDE8F881A41DE4B2F4E713B50F4C9C
:103AF00009B1012200E0002204212046FDF7FEFC6E
:103B0000002210212046FDF7F9FC642301226946BA
:103B10000748FEF757F9012210212046FDF7EEFC79
:103B2000012204212046FDF7E9FC1CBD00080140EC
:103B3000CC010020884200DD0846904200DA1046A1
:103B4000704770472DE9F04F89B0684C07A8CDE960
:103B5000004004F1260106AB02AA881F01F05AFBBF
:103B60002088C0057ED5029804F000FD6FF01D0688
:103B7000314604F0D2FE80466060039804F0F6FC03
:103B8000314604F0CAFE0746A060049804F0EEFC3B
:103B9000314604F0C2FE0546E060059804F0E6FCFC
:103BA000314604F0BAFE064620610121404604F089
:103BB000B4FE294604F006FD05464FF04048414654
:103BC000384604F0FFFC314604F0FCFC294604F0C2
:103BD00067FB04F039FB00F073FEDFF814A14FF02F
:103BE00066394A46534604F01FF803F047FD60610A
:103BF000E0680121054604F090FE8346294604F062
:103C0000E1FC0546A0684146064604F0DBFC31466F
:103C100004F0D8FC294604F0ABFD4FF07E5104F0CF
:103C20003FFB04F011FB07460D460121606804F0DC
:103C300074FE314604F0C6FC06465846216904F07D
:103C4000C1FC314604F02CFB04F0FEFA3A462B4648
:103C500001F07EF84A46534603F0E6FF03F00EFDFE
:103C6000A06100E03FE021690191084604F0AAFC50
:103C7000E16807460846009104F0A4FCA1680646E6
:103C80008B46584604F09EFC6168054688464046CF
:103C900004F098FC294604F003FB314604F068FD6B
:103CA000394604F065FD04F0CFFA06460D4640465D
:103CB000019904F087FC07465846009904F082FCFD
:103CC000394604F0EDFA012104F027FE04F0BCFAB5
:103CD00032462B4601F03CF84A46534603F0A4FF17
:103CE00003F0CCFCE06109B0BDE8F08F28010020B2
:103CF00066A64C400021032803D0042803D00020EE
:103D00007047034A00E0034A1068116000B2704730
:103D1000240400402408004010B54221D020FFF7C1
:103D20001DF804464121D020FFF718F804EB0020CD
:103D300004F034FCB0F18E4F03DD4FF08F4104F0FE
:103D400017FD064904F014FB04F07EFA044A054B03
:103D500003F0C6FCBDE8104003F090BC0000AA438D
:103D6000A4703D0AD7434240F8B515460E460B46AF
:103D7000009204460122022100F010F840B93346B7
:103D8000002280212046009500F008F8002804D089
:103D9000606D40F0200060650320F8BD2DE9F84318
:103DA0001E46914688460446089DFDF7ADFB401B24
:103DB000351AFDF7A9FB074625480068C0F3CB304C
:103DC000684338E0701C37D0FDF79EFBC01BA8424B
:103DD00003D215B1009860B32CE02068416821F04F
:103DE000E00141606068B0F5827F0BD1A068B0F55A
:103DF000004F02D0B0F5806F04D12068016821F037
:103E000040010160A06AB0F5005F09D12068016837
:103E100021F4005101602068016841F40051016003
:103E2000012084F85100002084F850000320BDE8F0
:103E3000F8830025401E00902068816838EA010060
:103E400004D000214945BDD10020F0E70121F9E768
:103E5000680000207047000030B500230124114A9B
:103E6000002804DDC2F8B841C2F8BC3103E0C2F852
:103E7000B831C2F8BC4102F07FFE0B4D286000292A
:103E800004DDC2F8B441C2F8B03103E0C2F8B43185
:103E9000C2F8B041084602F06FFE03490C310860D9
:103EA00030BD000000802142342C0140FDF732BBC0
:103EB00030B593B028216846FCF7A0FA14210AA86F
:103EC000FCF79CFA002501200F951095119501042F
:103ED00012958DE8230004904FF4E010CDE908100E
:103EE000022407946846FDF755FD08B172B6FEE757
:103EF0000AA90F2081E831004FF48060CDE90D055B
:103F000002210AA8FDF76AFC08B172B6FEE74FF479
:103F1000004011900F940FA8FDF7EAFB002801D094
:103F200072B6FEE713B030BD704700000148FEF7DF
:103F300035BA0000B40200200148FEF72FBA000095
:103F4000FC020020F0B50268194B1A4C1A4D4FF0D4
:103F50008047984205D0B84203D0A04201D0A84281
:103F600003D122F070064A683243984205D0B84225
:103F700003D0A04201D0A84203D122F44074CA6801
:103F800022434C6922F08002224302608A68C262A6
:103F90000A688262984201D1096901630121416185
:103FA0000169C90703D0016921F001010161F0BD78
:103FB000002C0140000400400008004010B501F052
:103FC0001F030121046A99408C430462016A9A40EC
:103FD0001143016210BD10B5846842EA032224F443
:103FE0007F440A432243826010BD826822F070023F
:103FF0000A4342F0070181607047000030B5036A50
:10400000026A22F0010202624268846924F07305A8
:104010000C682C4323F002058B682B430A4DA84201
:104020000BD123F00805CB6822F440722B434D6975
:1040300023F0040315438A692A4342608461496876
:104040004163036230BD0000002C014030B5026ABC
:10405000036A23F010030362436884690D6824F443
:10406000E64444EA05248D6822F0200242EA051263
:104070000B4DA8420ED1CD6822F0800242EA051213
:104080004D6923F4406343EA85038D6922F04002C1
:1040900043EA85034360846149688163026230BDFD
:1040A000002C014030B5036A026A22F48072026279
:1040B0004268C46923F4007324F073050C682C4330
:1040C0008D6843EA05230C4DA8420ED1CD6823F438
:1040D000006343EA05234D6922F4405242EA051287
:1040E0008D6923F4806342EA05124260C461496825
:1040F000C163036230BD0000002C014030B5046A8A
:10410000026A22F4805202624268C3690D6823F495
:10411000E64343EA05238D6824F4005444EA053459
:10412000064DA84204D14D6922F4804242EA85122C
:104130004260C36149680164046230BD002C0140E3
:1041400010B5036A046A24F001040462846924F04F
:10415000F00444EA021423F00A020A438461026272
:1041600010BD10B5036A046A24F010040462846967
:1041700023F0A00324F4704444EA023243EA01111C
:104180008261016210BD00002DE9F041074622481E
:10419000244C06682148256B0178214801290078C4
:1041A00029D02149097801292BD00020A0621F487D
:1041B000007801282CD01E480078012828D0002142
:1041C000384604F0FFF91B4F394604F0D1F8054694
:1041D0003146A06A04F0F6F9394604F0C9F82946D8
:1041E00004F05EF81449096804F05AF8E062BDE88A
:1041F000F04104F07FB904F0D1F9014685F00040A8
:1042000003E004F0CBF90146284604F0B1F8CDE70D
:104210000A480168D4E700001800002022000020AE
:104220000100002060010020230000202000002069
:10423000210000200000C842480000201C0000208F
:104240000D4A904209D80D4A904206DC0C4800788D
:10425000012802D0B1F57A7F0BDA0A4A0120002149
:10426000C2F8B811C2F8BC11C2F8B411C2F8B0114A
:104270007047002070470000000020C2000020426C
:10428000020000200080214210B5406A0021C18553
:10429000C184FEF728FA10BD01680C3151E8002FE7
:1042A00022F4907241E80023002BF5D1016814310B
:1042B00051E8002F22F0010241E80023002BF5D144
:1042C000016B012909D101680C3151E8002F22F05E
:1042D000100241E80023002BF5D1202180F8421084
:1042E00000210163704708B590F84210222901D0DF
:1042F000022008BD82684FF480539A4201D10169BF
:1043000021B1816A9A421BD04AB10AE00268816AEF
:104310005268C2F308020A80816A891C08E00269B7
:1043200072B10268526802F07F020A70816A491C09
:104330008162C18D491E0904090CC18503D01BE0AF
:1043400002685268F1E70168CA6822F02002CA6078
:104350000168CA6822F48072CA6001684A6922F062
:1043600001024A61202180F8421000214163026B62
:10437000012A03D0FEF79CFB002008BD0163016801
:104380000C3151E8002F22F0100241E80023002BED
:10439000F5D101680A68D20602D50A684968009119
:1043A000818DFEF79FF9E7E770B504460068016963
:1043B000E26821F44051114301612169A06808437A
:1043C000616908432168CA6841F20C639A43024359
:1043D000CA6020684169A26921F4407111434161BA
:1043E0001E492068884202D1FDF79EFA01E0FDF7E0
:1043F0008BFA00EBC00101EB0012606864218000C1
:10440000B2FBF0F3B3FBF1F36FF018067343B2FBAA
:10441000F0F5B2FBF0F605EB8305322303EB05154F
:10442000B5FBF1F5B6FBF1F605F0F00505EB061569
:10443000B2FBF0F6B2FBF0F0B0FBF1F06FF0180257
:10444000504306EB800003EB0010B0FBF1F0216855
:1044500000F00F002844886070BD00000038014063
:1044600081628285C28500214164222180F8421048
:10447000016921B10168CA6842F48072CA600168AA
:104480004A6942F001024A610068C16841F02001B6
:10449000C160002070472DE9F843984617460D4645
:1044A0000446089E24E0701C22D0FDF72DF8A0EBF6
:1044B0000800B0421AD8CEB12068C168490717D5A4
:1044C000802D15D0402D13D00168C94309070FD4A2
:1044D00001680025406800902046FFF7DDFE0820B7
:1044E000606484F840500120BDE8F8830320FBE7B6
:1044F0002068006835EA000004D00020B842D2D01D
:104500000020F1E70120F9E70148FEF7EDB80000CF
:10451000440300200148FEF7E7B800008C030020A8
:10452000FEE700002DE9F04781465C485C4C8A4676
:104530000078012820D05B48007801281CD05A4818
:1045400060625A4801785A4801290078804615D09F
:1045500058480078012816D0574800685849E0614B
:1045600056480D68574900780F78574902280E7849
:1045700013D0012833D035E05448E1E704F00EF8B9
:104580000146606A06E0404604F008F80146606AA9
:1045900080F0004003F0ECFEE0E7A5F1C900B0F5C3
:1045A000957F0BD8012F09D0012E07D0404603F08C
:1045B000F5FF0146606A03F0DBFEE061C82D11D211
:1045C000012F0FD0012E0DD0404603F0E7FF01462A
:1045D000606A80F0004003F0CBFEE06102E0B5F5D8
:1045E000E17FEDD309EB0A00404203F0BFFF05462F
:1045F0006061A06903F028FE354A364B03F014FBD6
:1046000003F03CF80746284603F01EFE324A334BBF
:1046100003F00AFB05460E46384603F015FE2A460F
:10462000334603F05DF803F029F805460146A06122
:10463000206A03F035FEE16903F032FE284920626A
:10464000884202DC2749884200D921622648016855
:10465000206A03F0B7FF254903F08AFE0646244886
:104660000168284603F0AEFF224903F081FE31467F
:1046700004F07EF820612048016820480068FFF7B8
:10468000DFFD012803D01E480078012801D1002059
:1046900020622069BDE8F04703F02CBF0500002030
:1046A0006001002006000020000048422000002099
:1046B0000100002021000020440000200400002010
:1046C0004C00002022000020230000200000F041C8
:1046D00085EB51B81E85EB3FEC51B81E85EBC13F11
:1046E00000401C4600401CC6140000200000C842C8
:1046F000100000200000C8C2300000203800002058
:1047000002000020490050EAC12018BF04204A0DD1
:1047100018BF40F0010040F2FF72B2EB515F08BFDA
:1047200040F00200012808BF052070470907090E64
:10473000002804DB00F1E02080F80014704700F04E
:104740000F0000F1E02080F8141D70472DE9F041C2
:104750004F1E00EBC7010446D1E9000115461E4675
:1047600037F006020DD02A46334603F05DFA7F1E6D
:1047700004EBC703D3E9002302F0B2FF37F00602CF
:10478000F1D1022F25D0042F13D0062F18BFBDE87A
:10479000F0812A46334603F047FAD4E90A2302F0AF
:1047A0009FFF2A46334603F03FFAD4E9082302F07C
:1047B00097FF2A46334603F037FAD4E9062302F07E
:1047C0008FFF2A46334603F02FFAD4E9042302F080
:1047D00087FF2A46334603F027FAD4E9022302F082
:1047E0007FFF2A46334603F01FFAD4E90023BDE8D1
:1047F000F04102F075BF0000002213461046014947
:1048000003F02AB80000F03F012204F058B802F08B
:1048100067BF002213461046114603F01DB840F250
:10482000013200204FF0E04104F049B8024A002074
:10483000110704F044B8000001FDFFFF70470000BD
:104840002DE9FE4F07460E460025684601F048F860
:1048500000246FF00F0AE8464FF0010957F82400D2
:1048600056F82410401A00D5404203F07FFE51460E
:1048700004F053F858F8241011F0FF4F0BD003F058
:1048800077FD4FF07E5103F073FF0A4920F000409E
:10489000884205DC07E0084908440849884202D3F9
:1048A00009FA04F00543641C032CD7DB2846BDE855
:1048B000FE8F0000295C0F3E666666C19A99D9009A
:1048C0002DE9F04D8D4F21F0004A86B005460C468B
:1048D000BA452ADBAAEB070028430AD0884882455C
:1048E00001DC1AD1CDB106B02846BDE8F04DFFF786
:1048F0008BBF844A844B284603F096F907460E4640
:10490000824A834B2846214603F08EF906B03A4688
:104910003346BDE8F04D02F0E3BE0120FBF714FE84
:1049200006B0BDE8F04DFFF774BF7A48824542DA21
:10493000BAF1795F0BDA2846FFF7E4FE042808BFD6
:10494000FFF774FF284606B02146BDE8F08D2A46E1
:104950000B46104603F068F9834602466E480E4641
:104960000B4606217844FFF7F1FE5A46334603F022
:104970005BF9804669488A465A46334604217844A2
:10498000FFF7E4FE5A46334603F04EF900223B4659
:1049900002F0A6FE02460B464046514602F05CFF7E
:1049A0002A46234603F040F906B02A462346BDE8CE
:1049B000F04D02F095BE284624F0004100223D460D
:1049C0003B4603F065FA4FF0FF3203F078FF0646EE
:1049D000024653480F460B4606217844FFF7B6FEC1
:1049E00032463B4603F020F9CDE900014D483246FE
:1049F0003B4604217844FFF7A9FE32463B4603F0CC
:104A000013F900222B4602F06BFE834602913046DA
:104A1000394602F00DFE804643480D46504517DCEE
:104A2000DDE900015A46029B02F016FF42462B4682
:104A300003F0FAF842462B4602F052FE012203F040
:104A40003EFF304A304B03F015FB304A304B4CE010
:104A50004FF0000A52460B46404602F041FECDE9B7
:104A6000031052462B461046194603F0DDF8324635
:104A70003B4603F00DFADDE9033202F0EDFE064697
:104A80000F46DDE900015A46029B02F0E5FE83462F
:104A9000009101223046394603F011FF194A1A4BA2
:104AA00003F0F6F906460F4601224046294603F078
:104AB00006FF5A46009B03F0B7F832463B4603F028
:104AC000D9FA06460F4601225046294603F0F7FE62
:104AD0000E4DDFF858802A46434603F0D9F9324696
:104AE0003B4603F0D5F92A46434603F0D1F9002CA2
:104AF000D8BF81F0004106B0BDE8F08D0000F03F66
:104B00000000F07F075C143326A6913C182D445416
:104B1000FB21F93F0000E03FA0660000B666000000
:104B20002A660000406600003333EF3FFB21E93F77
:104B30002DE9F84F04460D4621F0004000917349DD
:104B4000814211DC7249884201DC06D12CB1204639
:104B50002946BDE8F84FFFF757BE6E48002DCCBF81
:104B60006D496E49BDE8F88F6D49814211DD6D498F
:104B70008142D8BF4FF0FF366DDD20462946FFF752
:104B8000C1FD042808BFFFF751FE20462946BDE8B5
:104B9000F88F6549654F25F00045814233DD644952
:104BA000814219DD002632464FF0804320462946D7
:104BB00002F096FD80468A4601222046294603F0EF
:104BC0007EFE00223B4603F055FA4246534602F071
:104BD00043FE04460D463EE001260022BA463B460F
:104BE0002046294602F07CFD80460F4600225346AF
:104BF0002046294603F03EFA42463B4602F02CFE90
:104C000004460D4627E04B4981421BDDDFF828A111
:104C10000226002253462046294603F005F80022CA
:104C20003B4602F05DFD80460F460022534620467B
:104C3000294603F01FFA42463B4602F00DFE0446A9
:104C40000D4608E0032622462B4600203B4902F091
:104C500003FE04460D4622462B461046194602F036
:104C6000E3FF8B46824602460B4602F0DDFF074615
:104C70000246334888460B4606217844FFF766FD16
:104C800052465B4602F0D0FF82462E488B463A469B
:104C9000434605217844FFF759FD3A46434602F062
:104CA000C3FF02460B46002E504659460CDA02F06E
:104CB00017FD22462B4602F0B7FF01B022462B46D5
:104CC000BDE8F04F03F0E4B802F00AFD22462B469F
:104CD00002F0AAFF1C4A7A4402EBC603D3E9002380
:104CE00003F0C8F922462B4603F0C4F9174A7A4468
:104CF00002EBC603D3E9002303F0CAF8009A002AA6
:104D0000B8BF81F00041BDE8F88F000000001044FA
:104D10000000F07F182D4454FB21F93FFB21F9BF1F
:104D20000000DC3F0000203E0000F33F0000F03FA9
:104D30000000E63F008003400000F83F0000F0BFA5
:104D4000CA6400008864000026640000EE6300006E
:104D50002DE9F04D9446CCF1000423F000464CEAD6
:104D60000404594F46EAD4749A46884621F000421A
:104D7000BC4206D8454240EA050442EAD474BC422B
:104D800004D9BDE8F04D6246FFF741BDAAF1405598
:104D9000A5F17F6555EA0C040BD0022404EAAA743D
:104DA0004A4DDFF82CE144EAD87452EA000B04D0F3
:104DB0000CE0BDE8F04DFFF7BBBE002C14BF012C8A
:104DC000BDE8F08D022C30D0032C32D056EA0C0B0B
:104DD0000AD0BE4220D1BA4209D126F0804622F044
:104DE00080423346114617E000291ADB25E0DFF840
:104DF000E4B0FB44002C04BFDBE90001BDE8F08D0A
:104E0000012C02BFDBE9000181F00041BDE8F08D1B
:104E1000022C0AD0032C0CD0BA4212D1B8F1000FE8
:104E20000BDA2A482C49BDE8F08D28462B49BDE80D
:104E3000F08D28467146BDE8F08D24482849BDE82C
:104E4000F08D921B12153C2AC4BF204F244E10DC5B
:104E5000BAF1000FBEBF12F13C0F00273E4608DB3F
:104E6000624602F0F9FC21F00041FFF761FE0746BF
:104E70000E4694B1012C08BF86F000460DD0194AA9
:104E8000194B022C3846314615D003F0F3F82A4668
:104E9000BDE8F04D114B03F0EDB800221346384643
:104EA000314602F031FE04BF0220FBF74DFB3846CD
:104EB0003146BDE8F08D03F0DDF82A46BDE8F04D3F
:104EC000064B02F0E5BF00000000F07F182D4454AF
:104ED000FB2109C082630000FB21F9BFFB210940CF
:104EE000FB21F93F075C143326A6A13C4FF0E020DC
:104EF000016921F00401016103480921017042F2B6
:104F000028314180704700007C0000200B4949880F
:104F100048434FF0E021486100228A61086940F06F
:104F2000010008610869C30701D0C003FAD5086908
:104F300020F0010008618A61704700007C000020B9
:104F40000B49097848434FF0E021486100228A610B
:104F5000086940F0010008610869C30701D0C00377
:104F6000FAD5086920F0010008618A6170470000E5
:104F70007C00002008B560B120208DF800002820BA
:104F80008DF8010030208DF8020038208DF80300E4
:104F900004E0A32204216846FBF706FA6A460421CE
:104FA00040F69E2001F0BEFD01F084FA08BD00002D
:104FB0003EB5044602208DF80000CA208DF801009D
:104FC000E3208DF8020009208DF803006A460421D1
:104FD000682001F0A7FDA3208DF80000610609D527
:104FE000C0218DF80110C8218DF80210C2218DF862
:104FF000031005E08DF801008DF802008DF8030024
:1050000014F4C07F09D0C4218DF80410CC218DF890
:105010000510C6218DF8061005E08DF804008DF806
:1050200005008DF806008DF808008DF807008DF852
:1050300009006A460A2140F6A72001F073FDA00787
:105040004FF0D80503D020208DF8000001E08DF846
:1050500000506A46012140F6B62001F063FDA0062B
:1050600001D5012000E0002000F08EF814F4C07F8C
:105070001ED0E0050AD5B2208DF800008B208DF8F7
:105080000100B6208DF802009B2009E0B0208DF8C9
:10509000000080208DF80100B4208DF802009020DF
:1050A0008DF803006A46042140F6A22001F03AFD83
:1050B000E1074FF40B6022D0F8218DF800106A460A
:1050C000012101F02FFDFA21072000F049FB072004
:1050D00000F014FB012000F031FB642000F0D4FB51
:1050E0004FF4FA7000F0E0FBC821254800F0CEFA3A
:1050F000282000F0E3FA0A2000F0F0FA05E08DF82D
:1051000000506A46012101F00DFDA00703D5D9200A
:105110008DF8000001E08DF800506A46012140F250
:105120003D7001F0FFFC600701D5012000E0002088
:1051300000F048F8E00601D5012000E00020FFF76C
:1051400019FF104D44F00800688101F0B3F9002008
:10515000A873600601D50620A87314F4C07F02D09E
:10516000A87B801DA87314F0140F02D0A87B103008
:10517000A873A00702D0A87B001DA87300203EBD25
:1051800009E3CA02A80800200EB54FF4976310B1D6
:1051900006A107C901E008A207CA8DE807006A4610
:1051A0000921184601F0BEFC0EBD0000B8AAB38D5F
:1051B000B4980D355D000000B8AAAAAAB088C3C58E
:1051C000C700000008B560B1C0208DF80000C22003
:1051D0008DF80100C4208DF80200C6208DF8030070
:1051E00004E08B2204216846FBF7DEF86A460421BE
:1051F00040F6982001F096FC01F05CF908BD000033
:10520000C8234FF48062024940F6F63001F034B80A
:105210000CA400082DE9FF4F89B01746DDE91652AE
:105220000024544E884681462C80A246B07B6946B5
:1052300001F0CEF84FF0FF3B18B158460DB0BDE875
:10524000F08F708910F0140F4CD0BDF800109DF84D
:10525000022049BA090441EA02239DF803100B43D6
:105260003B60BDF804109DF8062049BA090441EAE4
:1052700002229DF807101B140A437A60BDF808103B
:105280009DF80A4049BA090441EA04219DF80B40FF
:1052900012142143B960BDF80C409DF80EC064BAE9
:1052A000240444EA0C2C9DF80F4009144CEA040C29
:1052B000C7F80CC04FEA2C475B43494302FB02325C
:1052C00007FB071111441024A1F17061B1F1007FB7
:1052D00004D901F0EFF8A5F800A0AEE7298841F461
:1052E000807129804206694611D50A19A41D1388C8
:1052F0005BBAA8F8003053885BBAA8F802309288ED
:1053000052BAA8F804202A8842F008022A8010F431
:10531000C07F11D00A19A41D13885BBAA9F8003008
:1053200053885BBAA9F80230928852BAA9F80420CF
:105330002A8842F070022A80800716D00C44E07858
:1053400000F0C00500F03F016078C00706D0C80833
:1053500001F007013268491C02B1904760780007EC
:1053600003D5716809B1A80988470C9801F008FCB9
:10537000002063E7A80800202DE9FF41044603A8A8
:1053800000F030FEBDF80C00410CC3032F4800892B
:1053900000F0030254F82250420700D56D42C0F3DA
:1053A000C102860654F8222000D55242C0F381166D
:1053B000C00554F8264000D56442A5FB0367E817F2
:1053C00000FB037005FB0100850045EA9670A2FB17
:1053D0000367D51705FB037502FB0152950045EAEB
:1053E0009672A4FB0367E51705FB037304FB013109
:1053F0008B0043EA9671030E8DF80030030C8DF894
:105400000130030A8DF802308DF80300100E8DF87C
:105410000400100C8DF80500100A8DF80600080E27
:105420008DF80800080C8DF80900080A8DF80A00AC
:105430008DF807208DF80B106A460C214FF425706B
:1054400001F070FB04B0BDE8F0810000A808002066
:1054500030B5044613A285B007CA8DE807004FF0A7
:10546000FF35C82C16D8C820B0FBF4F1491E080A35
:105470008DF80C008DF80D1003AA022140F21620C1
:1054800001F050FB30B96A460C2140F6C12001F012
:1054900049FB10B1284605B030BD05488481002085
:1054A000F9E70000FEF2ABC4AAF1DFDFBBAFDFDF3C
:1054B000A8080020F8B53049098901F0030250F826
:1054C00022404A0700D56442C1F3C1028B0650F85E
:1054D000222000D55242C1F3811350F82330C80571
:1054E00000D55B42254984FB0140850045EA947064
:1054F00082FB0142A40F44EA820483FB0121950F41
:1055000045EA8105010E8DF80010010C8DF801109F
:10551000010A8DF802108DF803006A4604214FF449
:10552000747001F0FFFA4FF0FF3688B9200E8DF845
:105530000000200C8DF80100200A8DF802008DF883
:1055400003406A4604214FF4757001F0EBFA08B18C
:105550003046F8BD280E8DF80000280C8DF80100AB
:10556000280A8DF802008DF803506A4604214FF492
:10557000767001F0D7FAF8BDA808002009E3CA0246
:105580002DE9FF4104463CA004F0030300680290AB
:105590003AA0006803903AA006683AA0056802A8FD
:1055A000C15C8DF80010C4F3C101425C8DF801208C
:1055B000C4F38112805C8DF8020003A8C35C8DF8EF
:1055C0000430415C8DF80510805C8DF806006A4659
:1055D000032140F2264001F0A5FA4FF0FF37E0BB6F
:1055E00001AA032140F22A4001F09CFAA8BBCDE9B0
:1055F000006560070BD59DF8000040F001008DF8B4
:1056000000009DF8040040F001008DF80400A006A1
:105610000BD59DF8010040F001008DF801009DF8C8
:10562000050040F001008DF80500E0050BD59DF860
:10563000020040F001008DF802009DF8060040F0E5
:1056400001008DF806006A4603214FF4886001F0DE
:1056500069FA10B901AA032100E004E040F23140E8
:1056600001F060FA18B1384604B0BDE8F081064890
:1056700004810020F8E700004CCD6C000CC92C0020
:105680003656760026466600A80800204FF47A7247
:1056900090FBF2F008B54843010E8DF80010010CA4
:1056A0008DF80110010A8DF802108DF803006A468A
:1056B00004214FF4AE7001F035FA08BD0521B0FBAE
:1056C000F1F008B5010A8DF800108DF801006A4666
:1056D00002214FF4AD7001F025FA08BD0521B0FBA1
:1056E000F1F008B5010A8DF800108DF801006A4646
:1056F00002214FF4AC7001F015FA08BD08B5002185
:105700008DF80010C10702D030218DF800108107FC
:1057100005D59DF8001041F00C018DF800104007F0
:1057200005D59DF8000040F003008DF800006A46A2
:1057300001214FF4A47001F0F5F908BD08B560B17E
:10574000042800D90420401E8DF800006A4601217B
:1057500040F24F1001F0E6F908BD0120F3E7000028
:105760002DE9FC41054640074FF0FF367CD0B1F5EE
:10577000C86F79D8084602F011FF3E4902F0F8FDE3
:10578000074601A800F010FC9DF80400022806D08E
:1057900004280DD008282ED0102865D134E00E2121
:1057A000384603F0BAF802F0C1FE84B2324907E08D
:1057B0000D21384603F0B1F802F0B8FE2F4984B24B
:1057C000384602F0FFFE02F0B1FE210A8DF800100B
:1057D00080B28DF80140010A8DF802108DF80300A7
:1057E000E8076C4620D0224602214FF4EA7001F00F
:1057F00099F9C8BB11E00C21384603F08EF802F08D
:1058000095FE84B21E49DBE70B21384603F085F88C
:1058100002F08CFE84B21B49D2E7A21C02214FF495
:10582000927001F07FF9F8B9A8070DD56A460221F8
:105830004FF4EC7001F076F9B0B9A21C02214FF4DC
:10584000947001F06FF978B9680710D56A460221A3
:105850004FF4EE7001F066F930B9A21C02214FF44A
:10586000967001F05FF910B13046BDE8FC81002070
:10587000FBE7000000004843000040460000C04530
:10588000000040450000C0440521B0FBF1F008B520
:10589000010A8DF800108DF801006A4602214FF4CC
:1058A000EF7001F03FF908BD0521B0FBF1F008B53C
:1058B000010A8DF800108DF801006A4602214FF4AC
:1058C000ED7001F02FF908BD13B54FF6FF730122FB
:1058D00069460248FDF7F0F900981CBD440300201A
:1058E0002DE9FE430646264801AB042240680D21FF
:1058F000007800F03FFA10B10720BDE8FE839DF864
:1059000004101C2000EAD1029DF80710DFF8749003
:10591000C1F301131A438DF800209DF80520C1F34F
:10592000810300EAD2021A438DF801209DF8062077
:1059300001F0030100EAD20008430024124F8DF861
:105940000200A0466D46285D10B146F824900AE09A
:1059500046F824800DE000BF56F82400394602F0D6
:1059600031FE46F82400285D401E10F0FF00285547
:10597000F2D1641CE4B2032CE5D30020BDE70000A3
:10598000FC0000207B14AE3E1D5A843F2DE9FE4FE3
:1059900005460120C14E8DF800004FF000088DF83B
:1059A000018030680C461746817C70686B46022285
:1059B000007800F017FA4FF0FF3A00287AD1C8209B
:1059C000FFF7A4FA8DF8008030686B460122C17B96
:1059D0007068007800F006FA0028EFD130686B4656
:1059E000012241797068007800F0FCF90028E5D1C7
:1059F00030686B460122817C7068007800F0F2F913
:105A00000028DBD130686B460122C17D70680078C8
:105A100000F0E8F90028D1D130686B460122017905
:105A20007068007800F0DEF90028C7D14FF00C094B
:105A30008DF8009030686B4601220179706800781B
:105A400000F0D0F9002835D10F20FFF75FFAB06AD7
:105A50006B460122407A8DF80000306881787068CA
:105A6000007800F0BFF9002824D1B06A6B4601220B
:105A7000007A8DF80000306841787068007800F096
:105A8000B1F9002873D1B06A807A0FB140F0E0001C
:105A90008DF8000030686B460122817970680078CB
:105AA00000F0A0F9002862D12FB1B06AC07A40F0AE
:105AB000E00001E04AE018208DF8000030686B46F5
:105AC0000122C1797068007800F08CF9F0BB17B141
:105AD000C820FFF71BFA40208DF8000030686B46A5
