:020000040800F2
:10000000A00E0020D1010008BF300008EF26000834
:10001000BD3000082D0700085D3C0008000000000E
:10002000000000000000000000000000AD350008E6
:10003000E9090008000000009B32000805360008AE
:10004000EB010008EB010008EB010008EB010008E0
:10005000EB010008EB010008EB010008EB010008D0
:10006000EB010008EB010008EB010008EB010008C0
:10007000EB010008EB010008EB010008EB010008B0
:10008000EB010008EB010008EB010008EB010008A0
:10009000EB010008EB010008EB010008EB01000890
:1000A000EB010008EB010008EB010008EB01000880
:1000B000EB0100086936000875360008EB010008FE
:1000C000EB010008EB010008EB010008EB01000860
:1000D000EB010008453C0008EB010008513C00081A
:1000E000EB090008EB010008EB01000800F002F842
:1000F00000F05FF80AA090E8000C82448344AAF163
:100100000107DA4501D100F054F8AFF2090EBAE860
:100110000F0013F0010F18BFFB1A43F0010318473B
:10012000688D0000888D00000A444FF0000C10F824
:10013000013B13F0070408BF10F8014B1D1108BF65
:1001400010F8015B641E05D010F8016B641E01F805
:10015000016BF9D113F0080F1EBF10F8014BAD1C55
:100160000C1B09D16D1E58BF01F801CBFAD505E073
:1001700014F8016B01F8016B6D1EF9D59142D6D3CD
:10018000704700000023002400250026103A28BFF5
:1001900078C1FBD8520728BF30C148BF0B607047F9
:1001A000642900F09980002070471FB51FBD10B56D
:1001B00010BD00F05FFA1146FFF7F7FF05F0FEF9FA
:1001C00000F07DFA03B4FFF7F2FF03BC03F0D4FEA6
:1001D0000948804709480047FEE7FEE7FEE7FEE7DB
:1001E000FEE7FEE7FEE7FEE7FEE7FEE70448054917
:1001F000054A064B7047000067360008ED0000080E
:10020000A0080020A00E0020A00A0020A00A0020C4
:1002100010B54C1084EA530404D54042C1F10001EA
:1002200038BF491E1B4204D55242C3F1000338BFF8
:100230005B1E00F00DF914F0804F04D04042C1F174
:10024000000138BF491E14F0004F04D05242C3F1E0
:10025000000338BF5B1E10BD0FB4044910B503AADC
:10026000029800F0D1F910BC5DF814FB5800002092
:100270002DE9F0410E460446002020622046E16848
:10028000884730B3252805D0D4E901219047206A5A
:10029000401CF2E7E168204600278847050018D097
:1002A000A5F14100192802D820354FF400673246E5
:1002B000294620462760FFF773FF40B1012804D08C
:1002C000F61D26F007060836D8E7361DD6E728467D
:1002D000DAE7206ABDE8F0812DE9F0410646002406
:1002E00010687529314616A510D0AFF3008000289C
:1002F00002DA404213A507E031688A0701D512A54A
:1003000002E0490704D511A5012401E0AFF3008004
:1003100000210A2206F1240709E0B0FBF2FCB0FB41
:10032000F2F302FB1C00303078541846491C0028B8
:10033000F3D123462A463046BDE8F04100F00AB921
:10034000000000002D0000002B0000002000000035
:1003500040EA010310B59B070FD1042A0DD310C842
:1003600008C9121F9C42F8D020BA19BA884201D994
:10037000012010BD4FF0FF3010BD1AB1D30703D0DC
:10038000521C07E0002010BD10F8013B11F8014B92
:100390001B1B07D110F8013B11F8014B1B1B01D1AE
:1003A000921EF1D1184610BD02F0FF0343EA03226A
:1003B00042EA024200F002B84FF000020429C0F005
:1003C000128010F0030C00F01B80CCF1040CBCF187
:1003D000020F18BF00F8012BA8BF20F8022BA1EBD9
:1003E0000C0100F00DB85FEAC17C24BF00F8012BBE
:1003F00000F8012B48BF00F8012B70474FF00002B6
:1004000000B5134694469646203922BFA0E80C500A
:10041000A0E80C50B1F12001BFF4F7AF090728BFE5
:10042000A0E80C5048BF0CC05DF804EB890028BF61
:1004300040F8042B08BF704748BF20F8022B11F08A
:10044000804F18BF00F8012B704770477047704706
:1004500053EA020C00F069802DE9F04B4FF00006E2
:10046000002B1FBFB3FA83F503FA05F424FA05F64F
:100470005E4012BF1643B2FA82F502FA05F4C5F1E6
:1004800020051EBF22FA05FC44EA0C04203556EA7A
:10049000044C4FEA144418BF641C4FF000084FF09E
:1004A0000009904271EB030C39D3002919BFB1FA4E
:1004B00081F701FA07F6B0FA80F700FA07F6C7F1FC
:1004C00020071EBF20FA07FC46EA0C062037B6FBC1
:1004D000F4FCA7EB0507103F07F01F0BCBF120063C
:1004E0000CFA0BFB2CFA06F644BFB3460026202F6D
:1004F000A4BF5E464FF0000B5BEA060C08BF4FF04E
:10050000010B19EB0B09ABFB027C48EB0608C01B87
:1005100006FB02CC0BFB03CC71EB0C01C1E70B46D5
:10052000024641464846BDE8F08B13B54FF0000047
:100530004FF00001AFF30080BDE81C40704710B5DC
:1005400000F074F8006810BD10B5044600F06EF8B5
:10055000046010BD2DE9F0470D46994692460446C9
:1005600000F124080168880604D5E06921F0100133
:10057000216000E00120A84201DD471B00E00027C8
:10058000A1697A1902EB0900081AA0612078C00657
:1005900002D42046AFF30080002608E0D4E9012110
:1005A0001AF806009047206A401C761C20624E45CF
:1005B000F4DB2078C0060AD52046AFF3008006E0C1
:1005C000D4E9012130209047206A401C2062381E67
:1005D000A7F10107F4DC07E0D4E9012118F80500D0
:1005E0009047206A401C2062281EA5F10105F3DC1B
:1005F0002046AFF300802078000602D50220BDE837
:10060000F0870120FBE70000074B70B50D467B44E7
:1006100000F015F80446284600F024F810B14FF019
:10062000FF3070BD204670BDF349000000487047A0
:100630004008002001694A1C02610878704700B533
:100640008FB0CDE901310021059105497944CDE90B
:10065000031011466846FFF70BFE0FB000BD000007
:10066000E5FFFFFF007B00F0800070470048704707
:10067000400800207546FFF7F9FFAE4605006946C1
:10068000534620F00700854618B020B5FFF7AEFDB1
:10069000BDE820404FF000064FF000074FF0000883
:1006A0004FF0000B21F00701AC46ACE8C009ACE804
:1006B000C009ACE8C009ACE8C0098D46704710B568
:1006C0000446AFF300802046BDE81040FFF77ABD36
:1006D00070B5044610480D46006807F0A3FA21469D
:1006E00007F0A2FB0D49044685F00040096807F0B9
:1006F000C5FA0B4907F098F905460B480949006807
:1007000007F092F9214607F0B9FA294607F08CFB69
:10071000BDE8704007F04ABA340000200C00002009
:100720000000C8420000C8C208000020FEE7000028
:100730002DE9F0410D4C0A4607460B4E1046216844
:1007400007F09CFAE16A07F007F90146084807F04C
:1007500095FA05463146384607F090FA294607F0E3
:10076000FBF8E062BDE8F0810AD7A33C80000020DE
:1007700048E17A3F2DE9F0410D4C0A4607460B4E01
:100780001046216807F07AFAA16D07F0E5F80146F6
:10079000084807F073FA05463146384607F06EFA06
:1007A000294607F0D9F8A065BDE8F0810AD7A33C37
:1007B0008000002048E17A3FF8B5374F002601203D
:1007C0000096387002466B467521682004F070FE72
:1007D00032A0FFF741FD9DF8000068280CD0BFF360
:1007E0004F8F37480168374A01F4E06111430160D7
:1007F000BFF34F8F00BFFDE704F0D6FF002848D1BC
:10080000782005F08FFC10B924A0FFF725FD782093
:1008100004F0FCFE10B92CA0FFF71EFDC82005F067
:1008200041FC10B932A0FFF717FD04F087F810B9AA
:1008300039A0FFF711FD4548044604F09BFE05462C
:10084000E01C04F097FE45EAC005A01D04F092FEEE
:1008500045EA801080B204F031FA10B93CA0FFF7ED
:10086000FBFC40F2731003F041FF10B942A0FFF708
:10087000F3FCC82004F08AF910B949A0FFF7ECFC9A
:1008800006F0C8F9012005F033FB10B94DA0FFF7C1
:10089000E3FC3E70F8BD0000030000206D70755F42
:1008A0007365745F73656E736F7220636F6D706CC8
:1008B000657465202E2E2E2E2E2E0D0A00000000AF
:1008C0000CED00E00400FA056D70755F636F6E66F5
:1008D00069677572655F6669666F20636F6D706CBE
:1008E000657465202E2E2E2E2E2E0D0A000000007F
:1008F0006D70755F7365745F73616D706C655F7249
:1009000061746520636F6D706C657465202E2E2E8A
:100910002E2E2E0D0A000000646D705F6C6F6164F6
:100920005F6D6F74696F6E5F6472697665725F6622
:1009300069726D7761726520636F6D706C65746547
:10094000202E2E2E2E2E2E0D0A00000054010020E7
:10095000646D705F7365745F6F7269656E746174E6
:10096000696F6E20636F6D706C657465202E2E2E1E
:100970002E2E2E0D0A000000646D705F656E6162A0
:100980006C655F6665617475726520636F6D706C10
:10099000657465202E2E2E2E2E2E0D0A00000000CE
:1009A000646D705F7365745F6669666F5F726174B2
:1009B0006520636F6D706C657465202E2E2E2E2E53
:1009C0002E0D0A006D70755F7365745F646D705FE6
:1009D000737461746520636F6D706C657465202E2F
:1009E0002E2E2E2E2E0D0A0070474FF4805000F050
:1009F0007DBA72B6FEE700002DE9FC5F044602F006
:100A000037FD8E49DFF838828E4F0860012C7DD08B
:100A10004421D02001F06CFE04464321D02001F097
:100A200067FE04EB002007F015F906464621D020AA
:100A300001F05EFE04464521D02001F059FE04EB92
:100A4000002007F007F900904821D02001F050FE67
:100A500004464721D02001F04BFE04EB002007F0B4
:100A6000F9F805463C21D02001F042FE04463B2126
:100A7000D02001F03DFE04EB002007F0EBF88346A8
:100A80003E21D02001F034FE04463D21D02001F06B
:100A90002FFE04EB002007F0DDF882464021D02035
:100AA00001F026FE04463F21D02001F021FE04EB98
:100AB000002007F0CFF84FF08E4904464E4505DD83
:100AC0004FF08F41304607F0AFF906460098484591
:100AD00004DD4FF08F4107F0A7F900904D4505DD8B
:100AE0004FF08F41284607F09FF905465846CB4501
:100AF00004DD4FF08F4107F097F983465046CA4511
:100B000006DD4FF08F4107F08FF900E058E0824694
:100B10004C4505DD4FF08F41204607F085F904462E
:100B200086F000412046C8F8001006F0E9FE804635
:100B30008946504606F0E4FE42464B4603F0A6FCCA
:100B4000DFF804A10022534606F0CAFB3F4A404B9F
:100B500006F0DEF906F0EEF80190584606F0D0FEF9
:100B600042464B4603F092FC0022534606F0B8FB87
:100B7000364A374B06F0CCF906F0DCF882463046B0
:100B800006F0BEFEDFF8CC804FF0663632464346B4
:100B900006F0BEF906F0CEF88146009806F0B0FEE9
:100BA0003246434606F0B4F906F0C4F806462A4831
:100BB000DFF8A880007802281DD0032827D035E070
:100BC00002F06CFB2648274C39680160B4F900003C
:100BD00007F028F8C8F80000B4F9040007F022F87C
:100BE000214908602148B0F9040007F01BF82049AA
:100BF0000860BDE8FC9F4946019801F025FF80F0A0
:100C0000004038603146504601F0CCFF0AE04946CA
:100C10000198FFF78DFD80F0004038603146504666
:100C2000FFF7A8FD80F00041C8F800100C483968B3
:100C300001600D4805600E480460DAE72C000020D2
:100C40003C0000204001002000806640F1D4C853E1
:100C5000FB21094066663040000000203C01002076
:100C60003800002048010020400000204E010020F4
:100C7000540000202DE9F35F06F0DEFA264D002235
:100C80002B4606F02DFB6FF00106324607F073F994
:100C9000224F00223B4606F03BF9DFF88480002219
:100CA000434606F035F906F045F806F029FEDFF870
:100CB0007490DFF874B04A465B4606F011FBDFF82B
:100CC0006CA00022534606F00BFB06F033F8184CDC
:100CD0006063019806F0B0FA00222B4606F000FB94
:100CE000324607F048F900223B4606F011F900228F
:100CF000434606F00DF906F01DF806F001FE4A46DF
:100D00005B4606F0EDFA0022534606F0E9FA06F0DB
:100D100011F8A063BDE8FC9F0000694000003E4060
:100D200000407F40F1D4C853FB21094000C050402F
:100D30006001002010B590F821100022022905D092
:100D40000421816380F82020012010BD01680B6818
:100D500023F00E030B6001680B6823F001030B60A6
:100D600090F84030C46B012101FA03F3636080F80E
:100D7000211080F82020104610BD000010B590F81A
:100D800021100024022903D00421816301243DE0C5
:100D900001680A6822F00E020A6001680A6822F0FF
:100DA00001020A601A4A0168914201D1012121E041
:100DB000174A1432914201D110211BE0144A283203
:100DC000914201D1891515E0114A3C32914201D17D
:100DD00089140FE00E4A5032914202D14FF4803113
:100DE00008E00B4A6432914202D14FF4801101E0D5
:100DF0004FF08071064A083A5160012180F82110B5
:100E0000002180F82010416B01B18847204610BDB9
:100E10000800024070B5044600F06AF90546601CFF
:100E200002D004480078044400F062F9401BA0425C
:100E3000FAD370BD5C0000202DE9F041B0F5805F71
:100E400041D122480178E1B30021017020480078A7
:100E5000FFF7D2FD032002F0F9FA4642042002F027
:100E6000F5FA444221463046FFF704FF194801686D
:100E700019480068FFF72CFC05462146304602F071
:100E8000EFFE04461548006802F01CFD29190D18F4
:100E9000134B144C144E081A1D60774220603246E2
:100EA0003946284602F0F2F9186032463946206881
:100EB00002F0ECF9014620601868BDE8F04102F04C
:100EC00077BB0121C1E7BDE8F0810000600100208F
:100ED000000000203C0000203800002040000020DE
:100EE00024000020280000200CE5FFFF044910B575
:100EF0000A68024202D00860FFF79EFF10BD0000A2
:100F0000140401402DE9F84FDFF8B8910024A9F14D
:100F1000040B23460F2709F1040AABF1040EC9E0C4
:100F20000125A5402A40AA427DD1674ED1F804C0D0
:100F3000ACEB0608B44532D014DCBCF1030F3AD058
:100F400009DCBCF1000F2AD0BCF1010F1CD0BCF1B0
:100F5000020F31D11DE0BCF1110F17D0BCF1120FFF
:100F60002AD119E0B8F5881F19D006DCB8F5803F02
:100F700015D0B8F5801F1FD111E0B8F5001F0ED0B5
:100F8000B8F5041F18D10AE0CB6815E0CB681B1D2B
:100F900012E0CB6808330FE0CB680C330CE08B68B1
:100FA0002BB1012B4FF0080303D0456104E004236B
:100FB00002E0056100E00023FF2A01D8064601E0B7
:100FC00000F104064FEA840501D9A5F12005D6F801
:100FD000008007FA05FC28EA0C0803FA05F548EA40
:100FE0000508C6F800804D68ED0062D5374DAE6942
:100FF00046F00106AE61AD6924F0030605F0010577
:101000000095334D06EB050CDCF80850A607360FAB
:1010100007FA06F825EA0805DFF8B880404503D14D
:101020004FF0000817E044E0DFF8AC80404502D103
:101030004FF001080FE0DFF8A480404502D14FF0E7
:10104000020808E0DFF89880404502D14FF003081D
:1010500001E04FF0040808FA06F848EA0508CCF861
:1010600008804D68D9F80060ED024D4601D5164361
:1010700000E096432E604D68DAF80060AD025546F8
:1010800001D5164300E096432E604D68DBF8006002
:10109000AD035D4601D5164300E096432E604D68D2
:1010A000DEF80060ED03754601D5164300E0964377
:1010B0002E60641C0D682A46E5407FF431AFBDE820
:1010C000F88F0000080401400000111000100240D9
:1010D0000000014000080140000C014000100140E8
:1010E000001401400AB1016170470904FBE70000E8
:1010F00001488068704700005C0000200248816859
:1011000002781144816070475C000020074810B5E8
:10111000016841F010010160032000F079F800201F
:1011200000F006F800F024F8002010BD0020024076
:1011300070B50D4D04464FF47A712878B1FBF0F08C
:101140000A490968B1FBF0F000F01BFC48B9102C0B
:1011500007D200222146501E00F03AF800206C60B1
:1011600070BD012070BD00005C0000206800002000
:101170000E4808B5816941F001018161816901F082
:1011800001010091C16941F08051C161C06900F065
:1011900080500090052000F03BF80548416821F0A0
:1011A000E06141F00071416008BD000000100240A4
:1011B00000000140002809DB00F01F0201219140DE
:1011C0004009800000F1E020C0F8001170470000E5
:1011D000F0B40E4B1B680C46C3F30223C3F10705A2
:1011E000042D00D90425191D072901D2002300E090
:1011F000DB1E012606FA05F1491E214099409E405A
:10120000761E16403143F0BC02F02EBE0CED00E01D
:10121000064900F0070208684FF6FF03184040EA4D
:101220000220034A10430860704700000CED00E004
:101230000000FA052DE9F0470F46050061D0434E46
:10124000306800F00700B84209D2306820F007008B
:1012500038433060306800F00700B84251D1286848
:101260003B4C810712D5400703D5606840F4E0602D
:1012700060602878000703D5606840F460506060C3
:101280006068A96820F0F000084360602878C00713
:1012900028D06868012810D02168022810D089075A
:1012A00000292EDA616821F0030101436160FFF734
:1012B0001FFF804641F288390DE021688903EFE77E
:1012C0008901EDE7FFF714FFA0EB0801494502D9BA
:1012D0000320BDE8F0876068696800F00C00B0EB9F
:1012E000810FEFD1306800F00700B8420BD93068A9
:1012F00020F0070038433060306800F00700B84243
:1013000001D00120E5E72878400705D56068E96845
:1013100020F4E060084360602878000706D5606824
:10132000296920F4605040EAC100606000F038F89C
:101330006168084AC1F30311515CC840064908605E
:1013400006480068FFF7F4FE0020C2E700200240D4
:10135000001002406080000868000020600000204B
:101360000448054900684968044AC1F30221515CF8
:10137000C8407047680000200010024070800008DC
:101380000448054900684968044AC1F3C221515C18
:10139000C8407047680000200010024070800008BC
:1013A0000E4A51680E4801F00C03042B11D0082B93
:1013B0000FD10C48C1F38343C903C05C0AD55168FF
:1013C000084AC1F34041921E515C054A5043B0FBAC
:1013D000F1F0704704494843704700000010024094
:1013E00000127A005080000800093D002DE9F84FF6
:1013F000040070D02078C04DC00749D06868C0F3A1
:101400008100012807D06868C0F38100022809D153
:101410006868C00306D52868800339D5606800284D
:10142000E7D035E06068B0F5803F0BD010B1B0F583
:10143000A02F11D0286820F480302860286820F47C
:10144000802002E0286840F480302860606890B115
:10145000FFF74EFE06460AE0286840F48020286028
:10146000F0E700BFFFF744FE801B642873D82868AC
:101470008003F7D50CE0FFF73BFE064605E000BF12
:10148000FFF736FE801B6428F0D828688003F7D465
:1014900020789A4E80074FF001094FF0000839D5A7
:1014A000686810F00C0F07D06868C0F3810002284C
:1014B00009D16868C00306D42868800714D520695C
:1014C000012808D110E02069B0B1C6F80090FFF7FC
:1014D0000FFE074605E00AE1FFF70AFEC01B0228DF
:1014E000C4D828688007F7D52868616920F0F8001B
:1014F00040EAC10028600DE0C6F80080FFF7F8FD63
:10150000074604E0FFF7F4FDC01B022823D8286833
:101510008007F7D4207800072CD57948A169D9B184
:10152000C0F80090FFF7E4FD074604E0FFF7E0FD98
:10153000C01B02280FD8686A8007F7D571484FF49E
:10154000FA510068B0FBF1F0009000BF0098411E16
:101550000091FAD20EE080E0C0F80080FFF7C8FDED
:10156000074604E0FFF7C4FDC01B022875D8686A6F
:101570008007F7D42078400760D5E8690027C000CD
:1015800008D4E86940F08050E861E869012700F07C
:10159000805000905C480168C90513D401688346F7
:1015A00041F480710160FFF7A3FD824606E000BFB1
:1015B000FFF79EFDA0EB0A0064284ED8DBF8000080
:1015C000C005F5D5E06801280AD008B1052813D078
:1015D000286A20F001002862286A20F0040002E056
:1015E000286A40F001002862E06841F2883B98B127
:1015F000FFF77EFD82460BE0286A40F00400286277
:10160000EEE700BFFFF774FDA0EB0A0159455AD879
:10161000286A8007F6D50CE0FFF76AFD824605E0F0
:10162000FFF766FDA0EB0A0159454CD8286A8007F0
:10163000F6D41FB1E86920F08050E861E06988B312
:101640006968C1F38101022944D00228C6F860808C
:1016500004D0FFF74DFD044638E034E0FFF748FDC5
:10166000074604E0FFF744FDC01B02282BD828687A
:101670008001F7D4206AB0F5803F05D16868A16881
:1016800020F4003008436860D4E908010843696821
:1016900021F4741108436860C6F86090FFF728FDD4
:1016A000044606E025E000BFFFF722FD001B0228EC
:1016B00009D828688001F7D51BE000BFFFF718FDA7
:1016C000001B022802D90320BDE8F88F286880019A
:1016D000F4D40EE00128F7D06868226A00F4803163
:1016E000914204D1616A00F47010884201D0012057
:1016F000EAE70020E8E70000001002400000424254
:1017000080044242680000200070004070B5040070
:1017100009D0606A002540B125616561A56294F831
:10172000510040B10CE0012070BD6068B0F5827FCF
:10173000F4D0E561F2E784F85050204600F040F81C
:10174000022084F851002068016821F04001016006
:10175000A088218900F4827001F404410843A18922
:1017600001F400610843217C01F002010843217D5E
:1017700001F001010843218B01F400710843217F2E
:1017800001F03801084394F8201001F0800108436B
:10179000218D01F40051084321680860A0690421EB
:1017A00001EA1040216848602068C16921F40061A5
:1017B000C1616565012084F85100002070BD000002
:1017C00000B585B00021009101910291039100685C
:1017D0000F4988421AD10F48816941F480518161D3
:1017E000816901F480510491816941F004018161B2
:1017F0008069694600F004000490A0200090022057
:101800000190032003900448FFF77CFB05B000BD66
:101810000030014000100240000801402DE9F84F5F
:10182000984616468A460446FFF762FC814694F8BD
:10183000510001281ED1BAF1000F73D0002E71D0D3
:1018400094F85000012815D0012784F85070032027
:1018500084F8510000256565C4F830A0A686E686A8
:10186000A563A587E58765642564A068B0F5004F8A
:1018700003D00CE00220BDE8F88F2068016821F059
:10188000400101602068016841F4804101602068E6
:101890000168490603D4016841F040010160E06835
:1018A000B0F5006F606803D048B3012E27D047E041
:1018B00008B1012E1FD1206B21680088C86006E0A6
:1018C00020688168890709D5216B0988C160206B70
:1018D000801C2063E08E401EE0860CE0FFF708FCD1
:1018E000A0EB0901414503D3B8F1FF3F03D035E038
:1018F000B8F1000F32D0E08E0028E1D123E0206B58
:1019000021680078087306E02068816889070AD595
:10191000216B09780173206B401C2063E08E401E10
:10192000E0860DE02BE0FFF7E3FBA0EB090141456A
:1019300003D3B8F1FF3F03D010E0B8F1000F0DD092
:10194000E08E0028E0D14A464146204601F0B8FD2D
:1019500008B120206065A06830B109E084F85170BA
:1019600084F85050032086E72068C16880680090A2
:1019700084F8517004F8505F60680028F3D00120AB
:1019800079E710B5401EB0F1807F01D3012010BD72
:101990004FF0E02460610F21601702F065FA00202B
:1019A000A06107202061002010BD7047704710B56E
:1019B00090F83C20012A22D0012280F83C20CA68FD
:1019C0008C6822F4407222434C6822F480622243E5
:1019D0000C6822F4006222430C6922F480522243F4
:1019E0004C6922F400522243C969002322F4804248
:1019F0000A4301684A6480F83C30002010BD022090
:101A000010BD000070B590F83C20012A26D00124BA
:101A100080F83C40022280F83D2003685A689D68A7
:101A200022F070060A6832435A600D4B02689A42EF
:101A300008D0B2F1804F05D00A4B9A4202D00A4B2F
:101A40009A4204D1496825F080031943916080F8D7
:101A50003D40002180F83C10084670BD022070BD5A
:101A6000002C0140000400400008004010B50400B4
:101A700003D094F83D0010B107E0012010BD002014
:101A800084F83C00204600F01FF8022084F83D0056
:101A9000211D206801F0F4FD012084F8460084F83F
:101AA0003E0084F83F0084F8400084F8410084F848
:101AB000420084F8430084F8440084F8450084F828
:101AC0003D00002010BD000008B5006806498842AE
:101AD00008D10648816941F400618161806900F4A0
:101AE0000060009008BD0000002C01400010024082
:101AF00070B5044690F83C000025012817D0012657
:101B000084F83C60022084F83D002068826822F05E
:101B1000770222F47F4282600868502838D00DDCBA
:101B200020284FD005DC90B3102811D14AE00220C4
:101B300070BD302846D040280AD13BE060282FD025
:101B400070280DD0B0F5805F03D0B0F5005F12D0E3
:101B5000012584F83D60002084F83C00284670BDD3
:101B6000CB68D1E90121206801F0D3FD20688168AC
:101B700041F0770109E0CB68D1E90121206801F04B
:101B8000C8FD2068816841F480418160E1E719E087
:101B9000CA684968206801F071FE5021206806E09B
:101BA000CA684968206801F07AFE6021206801F067
:101BB000BAFDCEE7CA684968206801F05FFE40219F
:101BC0002068F4E7226801461046F0E72DE9F0416D
:101BD0000D46040003D094F83D0018B108E0012040
:101BE000BDE8F081002084F83C00204600F040F879
:101BF000022084F83D002068816844F20702914386
:101C00008160211D206801F03BFD22689068916988
:101C1000166A2B68AF69034340F20330814341EAFF
:101C20000721A868EF6908434FF6FC418843E9683B
:101C300040EA0720014328692F6A000140EA073083
:101C4000084369686D6926F0220646EA05152943AE
:101C500093602268906154F8460B0162012004F8F9
:101C60001F09E0752076E0762077A0750020B7E7A1
:101C700000B585B000210091019102910391264B9E
:101C80000268264926489A4224D1CA6942F00202D3
:101C9000CA61CA6902F0020204928A6942F008022B
:101CA0008A61896901F00801049130210091694637
:101CB000FFF728F91B48416821F4406141F0E061D9
:101CC00041F400614160002201211D20FFF780FAEC
:101CD0001D201DE0144B9A421CD1CA6942F0040237
:101CE000CA61CA6902F0040204928A6942F00802D9
:101CF0008A61896901F008010491C0210091694657
:101D0000FFF700F9002201211E20FFF761FA1E20D3
:101D1000FFF750FA05B000BD00040040001002407B
:101D2000000C0140000001400008004070472DE910
:101D3000F04104460068C66805694FF00007A9072E
:101D400013D5B10711D5F91E016101202077206854
:101D500080698007204602D0FFF7E8FF04E000F02A
:101D6000A5F8204600F037F92777680716D57007E1
:101D700014D521686FF004000861022020772068E4
:101D8000806910F4407F204602D0FFF7CFFF04E0C7
:101D900000F08CF8204600F01EF92777280715D5AB
:101DA000300713D521686FF0080008610420207700
:101DB0002068C0698007204602D0FFF7B7FF04E023
:101DC00000F074F8204600F006F92777E80616D5EB
:101DD000F00614D521686FF0100008610820207704
:101DE0002068C06910F4407F204602D0FFF79EFFB4
:101DF00004E000F05BF8204600F0EDF82777E807F4
:101E000008D0F00706D021686FF001000861204675
:101E100000F030F9280608D5300606D521686FF0A5
:101E2000800008612046FFF7C0FD680608D57006EF
:101E300006D521686FF040000861204600F01BF9CC
:101E4000A8060AD5B00608D521686FF02000086101
:101E50002046BDE8F041FFF7A9BDBDE8F0810000D4
:101E600000B585B0002100910191029103910068B5
:101E70000B49884212D10B48816941F0040181610C
:101E80008069694600F0040004904FF410600090EF
:101E90000220019003900448FFF734F805B000BD1C
:101EA000002C01400010024000080140704770B54E
:101EB000044690F83C0000260D4601280FD0012072
:101EC00084F83C006AB1042A1DD0082A2FD00C2ABD
:101ED0003FD00126002084F83C00304670BD02202F
:101EE00070BD206801F028FC2068816941F008017C
:101EF00081612068816921F0040181612068816924
:101F00002A69114311E0206801F03EFC20688169D4
:101F100041F4006181612068816921F480618161FF
:101F2000206881692A6941EA02218161D2E720683B
:101F300001F056FC2068C16941F00801C1612068C8
:101F4000C16921F00401C1612068C1692A69114396
:101F500011E0206801F070FC2068C16941F4006163
:101F6000C1612068C16921F48061C1612068C169D3
:101F70002A6941EA0221C161ACE710B5040003D02F
:101F800094F83D0010B107E0012010BD002084F856
:101F90003C00204600F01EF8022084F83D00211D80
:101FA000206801F06DFB012084F8460084F83E00B3
:101FB00084F83F0084F8400084F8410084F842002F
:101FC00084F8430084F8440084F8450084F83D0018
:101FD000002010BD7047704710B50446022249B179
:101FE00004290ED0082913D094F84100012816D0F6
:101FF000012010BD94F83E000128F9D184F83E205C
:102000000FE094F83F000128F2D184F83F2008E067
:1020100094F840000128EBD184F8402001E084F8D6
:1020200041200122206801F067FB0F4920688842A7
:1020300003D1426C42F4004242642068884208D0D6
:10204000B0F1804F05D00949884202D00849884242
:1020500004D1816801F00701062903D0016841F02D
:1020600001010160002010BD002C0140000400406F
:10207000000800407047704770477047F8B5016826
:1020800004460868CA684B6910F00F0F4FF000054E
:1020900059D003F0010602F49077374365D0C107A9
:1020A00005D0D10503D5616C41F0010161644107A0
:1020B00005D5D90703D0616C41F002016164810745
:1020C00005D5D90703D0616C41F0040161640107B3
:1020D00007D502F02001314303D0616C41F00801C3
:1020E0006164616C00293AD0800604D5900602D55F
:1020F000204601F096FC20684069616CC0F38010B6
:10210000090700D460B3204601F064FC20684069F0
:10211000400621D52068143050E8001F21F040010E
:1021200040E80012002AF5D1E06BA8B16D49416387
:10213000E06BFEF723FE002811D0E06B416B01B08D
:10214000BDE8F040084783060FD593060DD520461D
:10215000BDE8F84001F065BC2046FFF78EFFF8BDF2
:102160002046FFF78AFF6564F8BD266B2023012E09
:102170007CD1C6067AD5D60678D50868486800901E
:1021800048694FF00206400640D5E16B0868406898
:102190000004000CE8D0A28D8242E5D9E085886970
:1021A00020282DD020680C3050E8001F21F48071C9
:1021B00040E80012002AF5D12068143050E8001FD2
:1021C00021F0010140E80012002AF5D12068143006
:1021D00050E8001F21F0400140E80012002AF5D12C
:1021E00084F84230256320680C3050E8001F21F04D
:1021F000100140E80012002AF5D1E06BFEF79AFDCD
:102200006663A08DE18D401A81B22AE0A08DE18D38
:10221000401A81B2E08D0028A6D00029A4D02268FF
:102220000C3252E8000F20F4907042E80007002FB3
:10223000F5D12068143050E8002F22F0010240E868
:102240000027002FF5D184F84230256320680C3038
:1022500050E8002F22F0100240E80023002BF5D1B7
:1022600066632046FFF708FFF8BDFFE705062BD59C
:10227000150629D594F841002128F5D1A068B0F5BC
:10228000805F01D12069B0B1206A411C21622168C0
:1022900000784860E08C401E0004000CE084E3D12C
:1022A0002068C16821F08001C1602068C16841F0E8
:1022B0004001C160D8E7206A0088C0F30800486088
:1022C000206A801C2062E5E74006CDD55006CBD5BC
:1022D000CA68204622F04002CA6084F8413000F00B
:1022E00005FAC1E7C539000870B5040004D094F8B8
:1022F0004100002510B106E0012070BD84F8405077
:10230000204600F023F8242084F841002068C168AA
:1023100021F40051C160204601F0E4FB206801690E
:1023200021F4904101612068416921F02A01416155
:102330002068C16841F40051C1606564202084F8C0
:10234000410084F842006563002070BD70B586B01E
:102350000024009401940294039403682E482D4EA7
:10236000022103220515B34226D1836943F4804339
:102370008361836903F480430493836943F0040316
:1023800083618069254E00F0040004900802CDE9C5
:102390000001039269463046FEF7B4FDCDE90054D2
:1023A000694630460294FEF7ADFD0022012125204A
:1023B000FEF70EFF252028E0194EB34227D1C3694E
:1023C00043F48023C361C36903F4802304938369C6
:1023D00043F0080383618069CDE9005100F00800F3
:1023E000CDE903200F4D69462846FEF78BFDE81422
:1023F000CDE90004694628460294FEF783FD0022D9
:1024000001212720FEF7E4FE2720FEF7D3FE06B0C9
:1024100070BD00000038014000100240000801407B
:1024200000480040000C014090F84230202B01D0C1
:102430000220704721B11AB10023036301F0AEBB43
:10244000012070472DE9F04700686F49884270D13C
:102450006E486E4DDFF8B8C10078ED1E6D49A8607A
:102460006D4A6E4B6E4E0127002428714FF0020911
:10247000592816D0582817D00A281BDD5A282ED0E4
:1024800041283ED045282FD0422831D043282FD094
:1024900044282DD0462830D047282ED048282CD08C
:1024A00004E08CF8009001E08CF800700C7014705F
:1024B0001C7034700A282ADA5FEA000C0FD0012859
:1024C0001FD0052810D002281DD003281BD00428B7
:1024D00019D0062829D0072827D0082825D00C7025
:1024E000147003E0347012E00C7017701C70F9E780
:1024F0000C7014701C703770DCE70C7014701F7057
:10250000D7E70F70ECE70C7014701C7037703F4900
:10251000444AC91E7B2849780CD07D280FD02B78DF
:10252000012B08D0022B0CD065E00C7014701F70CA
:10253000D8E767E02F705054491C69705BE085F85C
:102540000090D078502805D0507823284BD0A9701F
:10255000914629E03448077045E06978081A04F08C
:102560006BFE02460B460020304903F067FE06462C
:10257000A8780F468046484410F8010C303804F023
:102580005BFE32463B4604F0ABFE06460F46E8686B
:1025900005F0B6F932463B4604F0FEFB04F0CAFBF8
:1025A000E860A8F10100A870A8780428D5D299F8AD
:1025B00001003038062816D2DFE800F00306090CC7
:1025C0000F121B49E8680DE01A49E8680AE01A4949
:1025D000E86807E01949E86804E01949E86801E09B
:1025E0001849E86808602C706C70AC7032210D4896
:1025F000EC60FDF7E1FEBDE8F04701220349124817
:10260000FFF712BFBDE8F087004800406F000020D0
:1026100001000020200000202100002022000020D6
:1026200023000020DC070020500000200000244090
:10263000080000200C0000201000002014000020E2
:10264000180000201C000020140300202DE9F8438E
:10265000044690F84100984616460D46202802D0C0
:102660000220BDE8F88385B17EB10020606421209E
:1026700084F84100FEF73CFDA6848146E684A0680C
:102680002027B0F5805F02D003E00120E9E7206950
:1026900010B12E4600250EE000260CE080212046D9
:1026A00001F097FAA8B9C6B116F8010B2168486085
:1026B000E08C401EE084E08C4B464FF00002CDF8E9
:1026C00000800028EAD14FF04001204601F081FA55
:1026D00040B184F841700320C3E735F8020BC0F322
:1026E0000800E3E784F841700020BAE77047FEE78E
:1026F00070B50D46044600F0C1F8204600F08EF893
:1027000000F004F9284600F089F800F0FFF800F026
:10271000B5F8641CE0B200F081F800F0F7F8002092
:1027200000F046F8044600F0D1F8204670BD0000E5
:1027300070B50D4C0025C4F8A0510C48016821F07B
:10274000F0010160016841F030010160C4F8A4515A
:10275000012004F5D07401F091FF0120206001F008
:102760008DFF256070BD000000802142040C0140F7
:1027700070B50D4C0025C4F8A0510C48016821F03B
:10278000F0010160016841F0300101600126C4F8E8
:10279000A461304604F5D07401F070FF266001207A
:1027A00001F06CFF256070BD00802142040C0140E7
:1027B0002DE9F047814617480024016821F0F00117
:1027C0000160016841F080010160134E25462746F3
:1027D0004FF00108C6F8A071022001F04FFFC6F8C3
:1027E000A0816006040ED6F8240108B1641CE4B28E
:1027F000022001F043FF6D1CEDB2082DEAD3B9F1C0
:10280000000F02D0FFF794FF01E0FFF7B1FF204671
:10281000BDE8F087040C0140008021422DE9F04121
:1028200006461448016821F0F0010160016841F09A
:1028300030010160104C0027C4F8A0713D464FF0F4
:102840000108F009C4F8A4017006060E012001F089
:1028500015FFC4F8A081012001F010FFC4F8A07199
:10286000012001F00BFF6D1CEDB2082DE9D3BDE88E
:10287000F0810000040C01400080214270B5114835
:10288000016821F0F0010160016841F03001016050
:102890000D4C0120C4F8A401D4F8241149B1C4F8A6
:1028A000A00101F0EBFE0025C4F8A451D4F82401E6
:1028B00008B1002070BD012001F0E0FEC4F8A05175
:1028C000012070BD040C0140008021420D4810B56C
:1028D000016821F0F0010160016841F03001016000
:1028E000094C0020C4F8A001C4F8A401012004F59B
:1028F000D07401F0C3FE012020606060BDE810408C
:1029000001F0BCBE040C01400080214270B51348A8
:102910000024016821F0F0010160016841F08001AC
:1029200001600F4D0126C5F8A461304601F0A6FEF6
:10293000C5F8A06107E0641CE4B2322C03D9FFF7AC
:10294000C5FF002070BD012001F098FED5F82401DC
:102950000028F0D1C5F8A001012070BD040C014091
:102960000080214210B51446FFF7C2FE20700120FE
:1029700010BDF8B515461C460E4607466A46FFF7D9
:10298000F1FF01209DF80010A8400CB1084301E0C0
:1029900021EA0000C2B28DF800203146384600F02E
:1029A0002BF8F8BD2DE9F84314461D460F46804626
:1029B0006A46089EFFF7D6FF00281BD0611CFF2047
:1029C000C4F1080200FA01F12A44521ED04001432A
:1029D000C5F108008640F2B2C4F10700C2409DF87C
:1029E0000000084010438DF80000C2B2394640464E
:1029F00000F002F8BDE8F88307B502AB012200F051
:102A000001F80EBD2DE9F0411E46154688460746E1
:102A10000024FFF733FF3846FFF700FFFFF776FF8C
:102A20004046FFF7FBFEFFF771FF06E0305DFFF762
:102A3000F5FEFFF76BFF641CE4B2AC42F6D3FFF780
:102A400045FF0120BDE8F0812DE9F34F524D8DB0D7
:102A50000846A9684F4E089105F0E6F929680091EB
:102A600005F00CF9696804F077FF05F15C04069045
:102A700067683046394605F0D7F9D4F808904946DA
:102A800005F0D2F945490860E268904682F00046B8
:102A9000434A4E60C1E90262009905F0EFF82168EF
:102AA00004F05AFF83463046009905F0E7F80646E1
:102AB000394604F051FF82463046494604F04CFF47
:102AC00081463748009905F0D9F8414604F044FFA3
:102AD000804606990D9805F0A7F9039059464FF0E6
:102AE0007E5005F0CBF8064649464FF07E5005F083
:102AF000C5F8049031464FF07E5005F0BFF84FF016
:102B00007C5104F029FF07460146304604F08CFF53
:102B100001903946049804F087FF009051464FF029
:102B20007E5005F0ABF807463146019805F0A6F84F
:102B3000594605F06FF920603946019805F09EF876
:102B4000514605F067F960603146009805F096F847
:102B5000494605F05FF9A0603946009805F08EF807
:102B6000414605F057F9E0600399019805F086F8B1
:102B7000069904F0F1FE686004460399009805F098
:102B80007DF8089904F0E8FEA8600FB02046BDE883
:102B9000F08F00006F12833A8000002010080020A0
:102BA000A69B443B2DE9F34F524D8DB00846696B0F
:102BB0004F4E089105F038F92968009105F05EF84C
:102BC000296B04F0C9FE05F16C0406906768304675
:102BD000394605F029F9D4F80890494605F024F95A
:102BE00045490860E268904682F00046434A4E60DC
:102BF000C1E90262009905F041F8216804F0ACFED9
:102C000083463046009905F039F80646394604F007
:102C1000A3FE82463046494604F09EFE8146374870
:102C2000009905F02BF8414604F096FE804606997F
:102C30000D9805F0F9F8039059464FF07E5005F0D5
:102C40001DF8064649464FF07E5005F017F80490EF
:102C500031464FF07E5005F011F84FF07C5104F0F2
:102C60007BFE07460146304604F0DEFE0190394601
:102C7000049804F0D9FE009051464FF07E5004F0C5
:102C8000FDFF07463146019804F0F8FF594605F06C
:102C9000C1F820603946019804F0F0FF514605F074
:102CA000B9F860603146009804F0E8FF494605F045
:102CB000B1F8A0603946009804F0E0FF414605F005
:102CC000A9F8E0600399019804F0D8FF069904F090
:102CD00043FE286304460399009804F0CFFF089947
:102CE00004F03AFE68630FB02046BDE8F08F0000A4
:102CF0006F12833A8000002020080020A69B443BEE
:102D000010B5022000F011F8032000F020F8002098
:102D100000F014F8002000F02FF8002000F026F852
:102D2000BDE81040002000F01BB808B50323009058
:102D300002226B21D020FFF735FE08BD08B5022323
:102D4000009004221C21D020FFF72CFE08BD08B5FE
:102D50000223009004221B21D020FFF723FE08BD90
:102D6000034601223721D020FFF703BE0346052288
:102D70006A21D020FFF7FDBD034606226B21D0203B
:102D8000FFF7F7BD2DE9F04385B0002429480094F2
:102D9000019402940394816941F020018161816969
:102DA00001F020010491816941F004018161816990
:102DB00001F004010491816941F008018161806999
:102DC000DFF8749000F00800049000221C214846AF
:102DD000FEF788F9DFF864804FF473470022394624
:102DE0004046FEF77FF91C2001250226CDE90005AB
:102DF000CDE9024669464846FEF784F800970396F7
:102E0000CDE9015469464046FEF77CF8280300905E
:102E10000B48CDE9010469464846FEF773F80022E5
:102E200002212820FEF7D4F92820FEF7C3F905B0C7
:102E3000BDE8F0830010024000080140000C014092
:102E400000002110114810B50F4901604FF4827144
:102E500041604FF40041816000210222C0E9031269
:102E600001224261520282610822C0E907214162C7
:102E700081620A21C162FEF749FC002803D0BDE847
:102E80001040FDF7B6BD10BD003001409C01002090
:102E900010B596B000240F941094119412941394CA
:102EA0001C2168461494FDF7A9FA202107A8FDF714
:102EB000A5FA2C482A49C0E9001441F61F41C0E98F
:102EC000024180210461C0E90541FEF7CFFD08B150
:102ED000FDF78FFD4FF480500F900FA92148FEF7AA
:102EE00007FE08B1FDF785FD1E48FFF746F808B15B
:102EF000FDF77FFD139413A91A481494FEF782FD81
:102F000008B1FDF776FD6020CDE90004029403943A
:102F1000049405940022694612480694FEF7C7FF00
:102F200008B1FDF766FD0C2269460E48FEF7BFFFAB
:102F300008B1FDF75EFD0794089409944FF4005022
:102F40000A94CDE90B4007A906480E94FEF72FFD21
:102F500008B1FDF74EFD0348FEF782FF16B010BD25
:102F6000002C0140F401002010B58CB024216846EB
:102F7000FDF744FA00241648099414490A94C0E95C
:102F800000144FF6FF71C0E902410461846103201F
:102F9000CDE900040120CDE902040494CDE9054007
:102FA000079469460A480894FEF710FE08B1FDF739
:102FB00020FD099409A906480A94FEF723FD00287C
:102FC00001D0FDF716FD0CB010BD0000000400405C
:102FD0003C02002010B58CB024216846FDF70EFAA3
:102FE00000241648099414490A94C0E900144FF6C5
:102FF000FF71C0E90241046184610320CDE900044E
:103000000120CDE902040494CDE905400794694606
:103010000A480894FEF7DAFD08B1FDF7EAFC0994C6
:1030200009A906480A94FEF7EDFC002801D0FDF737
:10303000E0FC0CB010BD000000080040840200203D
:103040000C4810B50A4901604FF4E131416000219C
:1030500081600C22C160C0E904128161C161FFF787
:1030600043F9002803D0BDE81040FDF7C2BC10BDF5
:1030700000380140CC0200200E4810B50C49016018
:103080004FF416514160002181600C22C160C0E9FB
:1030900004128161C161FFF727F908B1FDF7A9FCAE
:1030A000BDE81040012204490248FFF7BDB9000005
:1030B00000480040140300206F000020FEE7FEE7F8
:1030C00030B40021084B0A465FF0000003EBC00457
:1030D000401CC0B262548028F8D3491CC9B20829E8
:1030E000F2D330BC00F088B85C03002010B5414C2E
:1030F000002208212046FDF7F5FFC820FDF78AFED3
:10310000012208212046FDF7EDFF0021AE2000F04E
:1031100099F80021084600F095F80021102000F0F1
:1031200091F80021402000F08DF80021812000F06E
:1031300089F80021CF2000F085F80021A12000F0BF
:1031400081F80021C82000F07DF80021A62000F0C1
:1031500079F80021A82000F075F800213F2000F048
:1031600071F80021D32000F06DF80021084600F02E
:1031700069F80021D52000F065F80021802000F0DA
:1031800061F80021D92000F05DF80021F12000F065
:1031900059F80021DA2000F055F80021122000F043
:1031A00051F80021DB2000F04DF80021402000F014
:1031B00049F80021202000F045F80021022000F00D
:1031C00041F800218D2000F03DF80021142000F08E
:1031D00039F80021A42000F035F80021A62000F0E5
:1031E00031F8FFF76DFF0021BDE81040AF2000F07F
:1031F00029B800000008014070B5114E002400BF3E
:1032000004F1B000C0B2002100F01CF80021084613
:1032100000F018F80021102000F014F85FF000050D
:1032200006EBC5000121005D00F00CF86D1CEDB24D
:10323000802DF5D3641CE4B2082CE1D370BD0000EE
:103240005C03002013B50F4C09B1012200E00022FD
:1032500004212046FDF746FF002210212046FDF7FD
:1032600041FF6423012269460748FEF7D7FA01228D
:1032700010212046FDF736FF012204212046FDF7EC
:1032800031FF1CBD000801409C010020884200DD88
:103290000846904200DA1046704770472DE9F04F1B
:1032A00089B0684C07A8CDE9004004F1260106ABBF
:1032B00002AA881F01F04CFB2088C0057ED5029829
:1032C00004F0B0FC6FF01D06314604F082FE80462B
:1032D0006060039804F0A6FC314604F07AFE0746CD
:1032E000A060049804F09EFC314604F072FE05468E
:1032F000E060059804F096FC314604F06AFE06464C
:1033000020610121404604F064FE294604F0B6FC29
:1033100005464FF040484146384604F0AFFC314680
:1033200004F0ACFC294604F017FB04F0E9FA00F0C5
:1033300065FEDFF814A14FF066394A46534603F0A4
:10334000CFFF03F0F7FC6061E0680121054604F05F
:1033500040FE8346294604F091FC0546A06841469C
:10336000064604F08BFC314604F088FC294604F044
:103370005BFD4FF07E5104F0EFFA04F0C1FA07460E
:103380000D460121606804F024FE314604F076FC0D
:1033900006465846216904F071FC314604F0DCFA17
:1033A00004F0AEFA3A462B4601F070F84A4653460E
:1033B00003F096FF03F0BEFCA06100E03FE021694E
:1033C0000191084604F05AFCE1680746084600915E
:1033D00004F054FCA16806468B46584604F04EFCA7
:1033E000616805468846404604F048FC294604F0DA
:1033F000B3FA314604F018FD394604F015FD04F027
:103400007FFA06460D464046019904F037FC074610
:103410005846009904F032FC394604F09DFA012127
:1034200004F0D7FD04F06CFA32462B4601F02EF87A
:103430004A46534603F054FF03F07CFCE06109B0B8
:10344000BDE8F08F2801002066A64C40002103282B
:1034500003D0042803D000207047034A00E0034A49
:103460001068116000B27047240400402408004036
:1034700010B54221D020FFF73BF904464121D0206E
:10348000FFF736F904EB002004F0E4FBB0F18E4FB7
:1034900003DD4FF08F4104F0C7FC064904F0C4FA85
:1034A00004F02EFA044A054B03F076FCBDE8104008
:1034B00003F040BC0000AA43A4703D0AD743424039
:1034C000F8B515460E460B4600920446012202212D
:1034D00000F010F840B933460022802120460095C4
:1034E00000F008F8002804D0606D40F0200060650E
:1034F0000320F8BD2DE9F8431E4691468846044650
:10350000089DFDF7F5FD401B351AFDF7F1FD074657
:1035100025480068C0F3CB30684338E0701C37D0D2
:10352000FDF7E6FDC01BA84203D215B1009860B3B9
:103530002CE02068416821F0E00141606068B0F54E
:10354000827F0BD1A068B0F5004F02D0B0F5806F3C
:1035500004D12068016821F040010160A06AB0F543
:10356000005F09D12068016821F4005101602068E2
:10357000016841F400510160012084F851000020ED
:1035800084F850000320BDE8F8830025401E009019
:103590002068816838EA010004D000214945BDD186
:1035A0000020F0E70121F9E76800002070470000E3
:1035B00030B500230124114A002804DDC2F8B841C7
:1035C000C2F8BC3103E0C2F8B831C2F8BC4102F025
:1035D0002FFE0B4D2860002904DDC2F8B441C2F86B
:1035E000B03103E0C2F8B431C2F8B041084602F08D
:1035F0001FFE03490C31086030BD000000802142ED
:10360000342C0140FDF77ABD30B58FB028216846D3
:10361000FCF7F4FE14210AA8FCF7F0FE01210804CF
:10362000CDE900100024029402250491CDE9075051
:103630004FF4E01009906846FDF7D8FE08B172B665
:10364000FEE70F20CDE90A054FF48060CDE90C407C
:1036500002210AA80E94FDF7EDFD002801D072B6F4
:10366000FEE70FB030BD70470148FEF760BB0000B9
:103670003C0200200148FEF75ABB000084020020F3
:10368000F0B50268194B1A4C1A4D4FF0804798421A
:1036900005D0B84203D0A04201D0A84203D122F005
:1036A00070064A683243984205D0B84203D0A0421F
:1036B00001D0A84203D122F44074CA6822434C6965
:1036C00022F08002224302608A68C2620A68826233
:1036D000984201D109690163012141610169C9076A
:1036E00003D0016921F001010161F0BD002C01400E
:1036F000000400400008004010B501F01F03012144
:10370000046A99408C430462016A9A401143016241
:1037100010BD10B5846842EA032224F47F440A43B2
:103720002243826010BD826822F070020A4342F098
:10373000070181607047000030B5036A026A22F019
:10374000010202624268846924F073050C682C430C
:1037500023F002058B682B430A4DA8420BD123F0BE
:103760000805CB6822F440722B434D6923F0040313
:1037700015438A692A434260846149684163036250
:1037800030BD0000002C014030B5026A036A23F00E
:1037900010030362436884690D6824F4E64444EA34
:1037A00005248D6822F0200242EA05120B4DA84242
:1037B0000ED1CD6822F0800242EA05124D6923F451
:1037C000406343EA85038D6922F0400243EA8503A2
:1037D0004360846149688163026230BD002C01400E
:1037E00030B5036A026A22F4807202624268C469D8
:1037F00023F4007324F073050C682C438D6843EAAE
:1038000005230C4DA8420ED1CD6823F4006343EA92
:1038100005234D6922F4405242EA05128D6923F4D2
:10382000806342EA05124260C4614968C163036271
:1038300030BD0000002C014030B5046A026A22F459
:10384000805202624268C3690D6823F4E64343EA8A
:1038500005238D6824F4005444EA0534064DA8423B
:1038600004D14D6922F4804242EA85124260C3616C
:1038700049680164046230BD002C014010B5036A40
:10388000046A24F001040462846924F0F00444EA28
:10389000021423F00A020A438461026210BD10B5CB
:1038A000036A046A24F010040462846923F0A0030C
:1038B00024F4704444EA023243EA01118261016255
:1038C00010BD00002DE9F04107462248244C06684F
:1038D0002148256B017821480129007829D0214908
:1038E000097801292BD00020A0621F480078012808
:1038F0002CD01E480078012828D00021384604F03A
:10390000BDF91B4F394604F08FF805463146A06AD1
:1039100004F0B4F9394604F087F8294604F01CF89D
:103920001449096804F018F8E062BDE8F04104F0B9
:103930003DB904F08FF9014685F0004003E004F042
:1039400089F90146284604F06FF8CDE70A48016876
:10395000D4E7000018000020220000200100002011
:103960006001002023000020200000202100002012
:103970000000C842480000201C0000200D4A904270
:1039800009D80D4A904206DC0C480078012802D084
:10399000B1F57A7F0BDA0A4A01200021C2F8B8118A
:1039A000C2F8BC11C2F8B411C2F8B01170470020BF
:1039B00070470000000020C20000204202000020EA
:1039C0000080214210B5406A0021C185C184FEF704
:1039D00054FB10BD01680C3151E8002F22F49072A5
:1039E00041E80023002BF5D10168143151E8002F84
:1039F00022F0010241E80023002BF5D1016B0129DF
:103A000009D101680C3151E8002F22F0100241E881
:103A10000023002BF5D1202180F842100021016302
:103A2000704708B590F84210222901D0022008BD45
:103A300082684FF480539A4201D1016921B1816AB1
:103A40009A421BD04AB10AE00268816A5268C2F306
:103A500008020A80816A891C08E0026972B1026862
:103A6000526802F07F020A70816A491C8162C18D2E
:103A7000491E0904090CC18503D01BE00268526885
:103A8000F1E70168CA6822F02002CA600168CA68CA
:103A900022F48072CA6001684A6922F001024A6118
:103AA000202180F8421000214163026B012A03D0DB
:103AB000FEF7C8FC002008BD016301680C3151E825
:103AC000002F22F0100241E80023002BF5D10168FD
:103AD0000A68D20602D50A6849680091818DFEF70E
:103AE000CBFAE7E770B5044600680169E26821F4A3
:103AF0004051114301612169A0680843616908438D
:103B00002168CA6841F20C639A430243CA60206884
:103B10004169A26921F44071114341611E49206845
:103B2000884202D1FDF72CFC01E0FDF719FC00EB07
:103B3000C00101EB0012606864218000B2FBF0F369
:103B4000B3FBF1F36FF018067343B2FBF0F5B2FB71
:103B5000F0F605EB8305322303EB0515B5FBF1F514
:103B6000B6FBF1F605F0F00505EB0615B2FBF0F635
:103B7000B2FBF0F0B0FBF1F06FF01802504306EB2F
:103B8000800003EB0010B0FBF1F0216800F00F00A3
:103B90002844886070BD0000003801408162828541
:103BA000C28500214164222180F84210016921B1BF
:103BB0000168CA6842F48072CA6001684A6942F0CA
:103BC00001024A610068C16841F02001C160002023
:103BD00070472DE9F843984617460D460446089E5F
:103BE00024E0701C22D0FDF783FAA0EB0800B0425D
:103BF0001AD8CEB12068C168490717D5802D15D0D5
:103C0000402D13D00168C94309070FD4016800256E
:103C1000406800902046FFF7DDFE0820606484F8CD
:103C200040500120BDE8F8830320FBE720680068CE
:103C300035EA000004D00020B842D2D00020F1E7DD
:103C40000120F9E70148FEF719BA0000CC02002074
:103C50000148FEF713BA000014030020FEE700003D
:103C60002DE9F04781465C485C4C8A460078012883
:103C700020D05B48007801281CD05A4860625A481E
:103C800001785A4801290078804615D058480078B4
:103C9000012816D0574800685849E06156480D6819
:103CA000574900780F78574902280E7813D0012819
:103CB00033D035E05448E1E703F0CCFF0146606AB9
:103CC00006E0404603F0C6FF0146606A80F000400F
:103CD00003F0AAFEE0E7A5F1C900B0F5957F0BD887
:103CE000012F09D0012E07D0404603F0B3FF014653
:103CF000606A03F099FEE061C82D11D2012F0FD048
:103D0000012E0DD0404603F0A5FF0146606A80F009
:103D1000004003F089FEE06102E0B5F5E17FEDD3FC
:103D200009EB0A00404203F07DFF05466061A0698F
:103D300003F0E6FD354A364B03F0D2FA02F0FAFF03
:103D40000746284603F0DCFD324A334B03F0C8FA3D
:103D500005460E46384603F0D3FD2A46334603F0A7
:103D60001BF802F0E7FF05460146A061206A03F058
:103D7000F3FDE16903F0F0FD28492062884202DC8E
:103D80002749884200D9216226480168206A03F049
:103D900075FF254903F048FE064624480168284679
:103DA00003F06CFF224903F03FFE314604F03CF87B
:103DB00020612048016820480068FFF7DFFD0128E6
:103DC00003D01E480078012801D10020206220691C
:103DD000BDE8F04703F0EABE0500002060010020C6
:103DE00006000020000048422000002001000020C2
:103DF0002100002044000020040000204C0000208E
:103E000022000020230000200000F04185EB51B883
:103E10001E85EB3FEC51B81E85EBC13F00401C46B0
:103E200000401CC6140000200000C8421000002002
:103E30000000C8C23000002038000020020000202E
:103E4000490050EAC12018BF04204A0D18BF40F0B5
:103E5000010040F2FF72B2EB515F08BF40F0020078
:103E6000012808BF052070470907090E002804DB58
:103E700000F1E02080F80014704700F00F0000F11E
:103E8000E02080F8141D70472DE9F0414F1E00EB33
:103E9000C7010446D1E9000115461E4637F0060267
:103EA0000DD02A46334603F01BFA7F1E04EBC703EE
:103EB000D3E9002302F070FF37F00602F1D1022FA0
:103EC00025D0042F13D0062F18BFBDE8F0812A4655
:103ED000334603F005FAD4E90A2302F05DFF2A46CF
:103EE000334603F0FDF9D4E9082302F055FF2A46D2
:103EF000334603F0F5F9D4E9062302F04DFF2A46D4
:103F0000334603F0EDF9D4E9042302F045FF2A46D5
:103F1000334603F0E5F9D4E9022302F03DFF2A46D7
:103F2000334603F0DDF9D4E90023BDE8F04102F0A7
:103F300033BF0000002213461046014902F0E8BFDB
:103F40000000F03F012204F016B802F025BF002265
:103F500013461046114602F0DBBF40F2013200204A
:103F60004FF0E04104F007B8024A0020110704F0C6
:103F700002B8000001FDFFFF704700002DE9FE4F71
:103F800007460E460025684601F048F800246FF009
:103F90000F0AE8464FF0010957F8240056F824109C
:103FA000401A00D5404203F03DFE514604F011F89E
:103FB00058F8241011F0FF4F0BD003F035FD4FF0EF
:103FC0007E5103F031FF0A4920F00040884205DCB1
:103FD00007E0084908440849884202D309FA04F076
:103FE0000543641C032CD7DB2846BDE8FE8F000088
:103FF000295C0F3E666666C19A99D9002DE9F04D9D
:104000008D4F21F0004A86B005460C46BA452ADBA2
:10401000AAEB070028430AD08848824501DC1AD160
:10402000CDB106B02846BDE8F04DFFF78BBF844AFE
:10403000844B284603F054F907460E46824A834BC8
:104040002846214603F04CF906B03A463346BDE80F
:10405000F04D02F0A1BE0120FCF776FA06B0BDE8F3
:10406000F04DFFF774BF7A48824542DABAF1795FC2
:104070000BDA2846FFF7E4FE042808BFFFF774FFB9
:10408000284606B02146BDE8F08D2A460B4610466C
:1040900003F026F9834602466E480E460B4606217B
:1040A0007844FFF7F1FE5A46334603F019F980468B
:1040B00069488A465A46334604217844FFF7E4FEAD
:1040C0005A46334603F00CF900223B4602F064FEE8
:1040D00002460B464046514602F01AFF2A46234646
:1040E00003F0FEF806B02A462346BDE8F04D02F084
:1040F00053BE284624F0004100223D463B4603F0D3
:1041000023FA4FF0FF3203F036FF064602465348CB
:104110000F460B4606217844FFF7B6FE32463B4673
:1041200003F0DEF8CDE900014D4832463B4604215C
:104130007844FFF7A9FE32463B4603F0D1F800224F
:104140002B4602F029FE834602913046394602F0A2
:10415000CBFD804643480D46504517DCDDE90001A4
:104160005A46029B02F0D4FE42462B4603F0B8F8B2
:1041700042462B4602F010FE012203F0FCFE304ABC
:10418000304B03F0D3FA304A304B4CE04FF0000A8A
:1041900052460B46404602F0FFFDCDE90310524661
:1041A0002B461046194603F09BF832463B4603F077
:1041B000CBF9DDE9033202F0ABFE06460F46DDE93E
:1041C00000015A46029B02F0A3FE834600910122A1
:1041D0003046394603F0CFFE194A1A4B03F0B4F9C2
:1041E00006460F4601224046294603F0C4FE5A46C1
:1041F000009B03F075F832463B4603F097FA0646FB
:104200000F4601225046294603F0B5FE0E4DDFF859
:1042100058802A46434603F097F932463B4603F05E
:1042200093F92A46434603F08FF9002CD8BF81F05A
:10423000004106B0BDE8F08D0000F03F0000F07FC7
:10424000075C143326A6913C182D4454FB21F93FFA
:104250000000E03F1C4C0000324C0000A64B000068
:10426000BC4B00003333EF3FFB21E93F2DE9F84F12
:1042700004460D4621F0004000917349814211DC53
:104280007249884201DC06D12CB120462946BDE89E
:10429000F84FFFF757BE6E48002DCCBF6D496E49F1
:1042A000BDE8F88F6D49814211DD6D498142D8BF6B
:1042B0004FF0FF366DDD20462946FFF7C1FD04288B
:1042C00008BFFFF751FE20462946BDE8F88F654933
:1042D000654F25F00045814233DD6449814219DD97
:1042E000002632464FF080432046294602F054FD16
:1042F00080468A4601222046294603F03CFE0022E1
:104300003B4603F013FA4246534602F001FE0446D0
:104310000D463EE001260022BA463B46204629468D
:1043200002F03AFD80460F460022534620462946B9
:1043300003F0FCF942463B4602F0EAFD04460D4616
:1043400027E04B4981421BDDDFF828A1022600222D
:1043500053462046294602F0C3FF00223B4602F0A6
:104360001BFD80460F46002253462046294603F097
:10437000DDF942463B4602F0CBFD04460D4608E01F
:10438000032622462B4600203B4902F0C1FD04468D
:104390000D4622462B461046194602F0A1FF8B46D9
:1043A000824602460B4602F09BFF07460246334810
:1043B00088460B4606217844FFF766FD52465B4669
:1043C00002F08EFF82462E488B463A464346052130
:1043D0007844FFF759FD3A46434602F081FF024612
:1043E0000B46002E504659460CDA02F0D5FC224608
:1043F0002B4602F075FF01B022462B46BDE8F04F78
:1044000003F0A2B802F0C8FC22462B4602F068FF77
:104410001C4A7A4402EBC603D3E9002303F086F971
:1044200022462B4603F082F9174A7A4402EBC60370
:10443000D3E9002303F088F8009A002AB8BF81F07E
:104440000041BDE8F88F0000000010440000F07F3C
:10445000182D4454FB21F93FFB21F9BF0000DC3F3C
:104460000000203E0000F33F0000F03F0000E63F68
:10447000008003400000F83F0000F0BF464A000003
:10448000044A0000A24900006A4900002DE9F04DED
:104490009446CCF1000423F000464CEA0404594F42
:1044A00046EAD4749A46884621F00042BC4206D8B7
:1044B000454240EA050442EAD474BC4204D9BDE84E
:1044C000F04D6246FFF741BDAAF14055A5F17F6569
:1044D00055EA0C040BD0022404EAAA744A4DDFF812
:1044E0002CE144EAD87452EA000B04D00CE0BDE899
:1044F000F04DFFF7BBBE002C14BF012CBDE8F08DC2
:10450000022C30D0032C32D056EA0C0B0AD0BE421B
:1045100020D1BA4209D126F0804622F080423346AB
:10452000114617E000291ADB25E0DFF8E4B0FB4470
:10453000002C04BFDBE90001BDE8F08D012C02BFB7
:10454000DBE9000181F00041BDE8F08D022C0AD0CA
:10455000032C0CD0BA4212D1B8F1000F0BDA2A4862
:104560002C49BDE8F08D28462B49BDE8F08D284642
:104570007146BDE8F08D24482849BDE8F08D921BB6
:1045800012153C2AC4BF204F244E10DCBAF1000F94
:10459000BEBF12F13C0F00273E4608DB624602F028
:1045A000B7FC21F00041FFF761FE07460E4694B1CB
:1045B000012C08BF86F000460DD0194A194B022C79
:1045C0003846314615D003F0B1F82A46BDE8F04D23
:1045D000114B03F0ABB8002213463846314602F0C7
:1045E000EFFD04BF0220FBF7AFFF38463146BDE8C0
:1045F000F08D03F09BF82A46BDE8F04D064B02F023
:10460000A3BF00000000F07F182D4454FB2109C017
:10461000FE480000FB21F9BFFB210940FB21F93FC7
:10462000075C143326A6A13C4FF0E020016921F07D
:104630000401016103480921017042F228314180DF
:10464000704700007C0000200B49498848434FF028
:10465000E021486100228A61086940F00100086198
:104660000869C30701D0C003FAD5086920F001002A
:1046700008618A61704700007C0000200B490978BE
:1046800048434FF0E021486100228A61086940F008
:10469000010008610869C30701D0C003FAD50869A1
:1046A00020F0010008618A61704700007C00002052
:1046B00008B560B120208DF8000028208DF8010099
:1046C00030208DF8020038208DF8030004E0A3228A
:1046D00004216846FBF768FE6A46042140F69E20E6
:1046E00001F07CFD01F042FA08BD00003EB5044631
:1046F00002208DF80000CA208DF80100E3208DF81B
:10470000020009208DF803006A460421682001F0A8
:1047100065FDA3208DF80000610609D5C0218DF844
:104720000110C8218DF80210C2218DF8031005E098
:104730008DF801008DF802008DF8030014F4C07F9D
:1047400009D0C4218DF80410CC218DF80510C621A4
:104750008DF8061005E08DF804008DF805008DF841
:1047600006008DF808008DF807008DF809006A46EC
:104770000A2140F6A72001F031FDA0074FF0D8052F
:1047800003D020208DF8000001E08DF800506A462B
:10479000012140F6B62001F021FDA00601D501203F
:1047A00000E0002000F08EF814F4C07F1ED0E00579
:1047B0000AD5B2208DF800008B208DF80100B620BC
:1047C0008DF802009B2009E0B0208DF800008020C9
:1047D0008DF80100B4208DF8020090208DF80300C0
:1047E0006A46042140F6A22001F0F8FCE1074FF4EC
:1047F0000B6022D0F8218DF800106A46012101F0EB
:10480000EDFCFA21072000F049FB072000F014FB23
:10481000012000F031FB642000F0D4FB4FF4FA706B
:1048200000F0E0FBC821254800F0CEFA282000F077
:10483000E3FA0A2000F0F0FA05E08DF800506A462D
:10484000012101F0CBFCA00703D5D9208DF8000091
:1048500001E08DF800506A46012140F23D7001F000
:10486000BDFC600701D5012000E0002000F048F801
:10487000E00601D5012000E00020FFF719FF104DF0
:1048800044F00800688101F071F90020A873600607
:1048900001D50620A87314F4C07F02D0A87B801D28
:1048A000A87314F0140F02D0A87B1030A873A007CF
:1048B00002D0A87B001DA87300203EBD09E3CA02F8
:1048C000300800200EB54FF4976310B106A107C958
:1048D00001E008A207CA8DE807006A4609211846C8
:1048E00001F07CFC0EBD0000B8AAB38DB4980D3564
:1048F0005D000000B8AAAAAAB088C3C5C70000001E
:1049000008B560B1C0208DF80000C2208DF801000C
:10491000C4208DF80200C6208DF8030004E08B222D
:1049200004216846FBF740FD6A46042140F69820C2
:1049300001F054FC01F01AF908BD0000C8234FF43F
:104940008062024940F6F63000F0F2BFC8800008ED
:104950002DE9FF4F89B01746DDE916520024544E69
:10496000884681462C80A246B07B694601F08CF8CF
:104970004FF0FF3B18B158460DB0BDE8F08F70897D
:1049800010F0140F4CD0BDF800109DF8022049BA69
:10499000090441EA02239DF803100B433B60BDF874
:1049A00004109DF8062049BA090441EA02229DF844
:1049B00007101B140A437A60BDF808109DF80A40DE
:1049C00049BA090441EA04219DF80B40121421431D
:1049D000B960BDF80C409DF80EC064BA240444EAE6
:1049E0000C2C9DF80F4009144CEA040CC7F80CC0BD
:1049F0004FEA2C475B43494302FB023207FB071196
:104A000011441024A1F17061B1F1007F04D901F0CB
:104A1000ADF8A5F800A0AEE7298841F4807129809F
:104A20004206694611D50A19A41D13885BBAA8F875
:104A3000003053885BBAA8F80230928852BAA8F8BE
:104A400004202A8842F008022A8010F4C07F11D086
:104A50000A19A41D13885BBAA9F8003053885BBA01
:104A6000A9F80230928852BAA9F804202A8842F0A4
:104A700070022A80800716D00C44E07800F0C00550
:104A800000F03F016078C00706D0C80801F00701B8
:104A90003268491C02B190476078000703D57168FD
:104AA00009B1A80988470C9801F0C6FB002063E70C
:104AB000300800202DE9FF41044603A800F0EEFD78
:104AC000BDF80C00410CC3032F48008900F003021D
:104AD00054F82250420700D56D42C0F3C102860649
:104AE00054F8222000D55242C0F38116C00554F874
:104AF000264000D56442A5FB0367E81700FB03705E
:104B000005FB0100850045EA9670A2FB0367D517F7
:104B100005FB037502FB0152950045EA9672A4FB62
:104B20000367E51705FB037304FB01318B0043EAC0
:104B30009671030E8DF80030030C8DF80130030AD6
:104B40008DF802308DF80300100E8DF80400100C63
:104B50008DF80500100A8DF80600080E8DF8080083
:104B6000080C8DF80900080A8DF80A008DF8072056
:104B70008DF80B106A460C214FF4257001F02EFBC6
:104B800004B0BDE8F08100003008002030B50446D4
:104B900013A285B007CA8DE807004FF0FF35C82C77
:104BA00016D8C820B0FBF4F1491E080A8DF80C0095
:104BB0008DF80D1003AA022140F2162001F00EFB21
:104BC00030B96A460C2140F6C12001F007FB10B154
:104BD000284605B030BD054884810020F9E7000073
:104BE000FEF2ABC4AAF1DFDFBBAFDFDF300800208D
:104BF000F8B53049098901F0030250F822404A070C
:104C000000D56442C1F3C1028B0650F8222000D5C2
:104C10005242C1F3811350F82330C80500D55B42DE
:104C2000254984FB0140850045EA947082FB0142DE
:104C3000A40F44EA820483FB0121950F45EA810514
:104C4000010E8DF80010010C8DF80110010A8DF88D
:104C500002108DF803006A4604214FF4747001F0CD
:104C6000BDFA4FF0FF3688B9200E8DF80000200CF9
:104C70008DF80100200A8DF802008DF803406A4685
:104C800004214FF4757001F0A9FA08B13046F8BD5F
:104C9000280E8DF80000280C8DF80100280A8DF8E8
:104CA00002008DF803506A4604214FF4767001F03B
:104CB00095FAF8BD3008002009E3CA022DE9FF414A
:104CC00004463CA004F00303006802903AA0006888
:104CD00003903AA006683AA0056802A8C15C8DF866
:104CE0000010C4F3C101425C8DF80120C4F38112AD
:104CF000805C8DF8020003A8C35C8DF80430415C31
:104D00008DF80510805C8DF806006A46032140F29C
:104D1000264001F063FA4FF0FF37E0BB01AA032100
:104D200040F22A4001F05AFAA8BBCDE900656007BD
:104D30000BD59DF8000040F001008DF800009DF8B3
:104D4000040040F001008DF80400A0060BD59DF88A
:104D5000010040F001008DF801009DF8050040F0D1
:104D600001008DF80500E0050BD59DF8020040F02C
:104D700001008DF802009DF8060040F001008DF85A
:104D800006006A4603214FF4886001F027FA10B943
:104D900001AA032100E004E040F2314001F01EFAD4
:104DA00018B1384604B0BDE8F081064804810020FF
:104DB000F8E700004CCD6C000CC92C00365676008C
:104DC00026466600300800204FF47A7290FBF2F01D
:104DD00008B54843010E8DF80010010C8DF8011044
:104DE000010A8DF802108DF803006A4604214FF481
:104DF000AE7001F0F3F908BD0521B0FBF1F008B584
:104E0000010A8DF800108DF801006A4602214FF466
:104E1000AD7001F0E3F908BD0521B0FBF1F008B574
:104E2000010A8DF800108DF801006A4602214FF446
:104E3000AC7001F0D3F908BD08B500218DF8001061
:104E4000C10702D030218DF80010810705D59DF8EB
:104E5000001041F00C018DF80010400705D59DF8B9
:104E6000000040F003008DF800006A4601214FF475
:104E7000A47001F0B3F908BD08B560B1042800D9E9
:104E80000420401E8DF800006A46012140F24F10B8
:104E900001F0A4F908BD0120F3E700002DE9FC4171
:104EA000054640074FF0FF367CD0B1F5C86F79D882
:104EB000084602F0CFFE3E4902F0B6FD074601A8C3
:104EC00000F0CEFB9DF80400022806D004280DD087
:104ED00008282ED0102865D134E00E21384603F082
:104EE00078F802F07FFE84B2324907E00D2138469F
:104EF00003F06FF802F076FE2F4984B2384602F0D4
:104F0000BDFE02F06FFE210A8DF8001080B28DF810
:104F10000140010A8DF802108DF80300E8076C4685
:104F200020D0224602214FF4EA7001F057F9C8BBA5
:104F300011E00C21384603F04CF802F053FE84B225
:104F40001E49DBE70B21384603F043F802F04AFE26
:104F500084B21B49D2E7A21C02214FF4927001F0E7
:104F60003DF9F8B9A8070DD56A4602214FF4EC7057
:104F700001F034F9B0B9A21C02214FF4947001F091
:104F80002DF978B9680710D56A4602214FF4EE7002
:104F900001F024F930B9A21C02214FF4967001F0FF
:104FA0001DF910B13046BDE8FC810020FBE7000090
:104FB00000004843000040460000C0450000404556
:104FC0000000C0440521B0FBF1F008B5010A8DF8DE
:104FD00000108DF801006A4602214FF4EF7001F0D5
:104FE000FDF808BD0521B0FBF1F008B5010A8DF808
:104FF00000108DF801006A4602214FF4ED7001F0B7
:10500000EDF808BD13B54FF6FF730122694602485B
:10501000FDF71CFB00981CBDCC0200202DE9FE43CF
:105020000646264801AB042240680D21007800F0B6
:105030003FFA10B10720BDE8FE839DF804101C2044
:1050400000EAD1029DF80710DFF87490C1F3011354
:105050001A438DF800209DF80520C1F3810300EA72
:10506000D2021A438DF801209DF8062001F00301B9
:1050700000EAD20008430024124F8DF80200A04637
:105080006D46285D10B146F824900AE046F8248069
:105090000DE000BF56F82400394602F0EFFD46F857
:1050A0002400285D401E10F0FF002855F2D1641C3A
:1050B000E4B2032CE5D30020BDE70000FC00002093
:1050C0007B14AE3E1D5A843F2DE9FE4F054601205C
:1050D000C14E8DF800004FF000088DF80180306857
:1050E0000C461746817C70686B460222007800F0FF
:1050F00017FA4FF0FF3A00287AD1C820FFF7A4FA38
:105100008DF8008030686B460122C17B70680078A2
:1051100000F006FA0028EFD130686B460122417991
:105120007068007800F0FCF90028E5D130686B4623
:105130000122817C7068007800F0F2F90028DBD150
:1051400030686B460122C17D7068007800F0E8F994
:105150000028D1D130686B4601220179706800784F
:1051600000F0DEF90028C7D14FF00C098DF800904F
:1051700030686B46012201797068007800F0D0F940
:10518000002835D10F20FFF75FFAB06A6B46012285
:10519000407A8DF80000306881787068007800F0FF
:1051A000BFF9002824D1B06A6B460122007A8DF83D
:1051B0000000306841787068007800F0B1F900288C
:1051C00073D1B06A807A0FB140F0E0008DF8000032
:1051D00030686B46012281797068007800F0A0F990
:1051E000002862D12FB1B06AC07A40F0E00001E03F
:1051F0004AE018208DF8000030686B460122C17922
:105200007068007800F08CF9F0BB17B1C820FFF788
:105210001BFA40208DF8000030686B4601220179AE
:105220007068007800F07CF970BB78208DF8000081
:1052300030686B46012241797068007800F070F99F
:1052400010BB3220FFF700FA8DF800803068474627
:105250006B46417970680122007800F061F998B9D5
:1052600031687068B046897A00786B46022200F097
:105270001FF948B9BDF80000AF6040BAB0FBF9F0C3
:105280006F60C6B22F6000E00FE0A7606760276024
:10529000002739E0D8F80010D8F804006B46C97A26
:1052A00000780C2200F004F910B15046BDE8FE8FE2
:1052B000BDF80000236840BA00B2BDF80210BDF886
:1052C00004201844206049BA606809B2084460604C
:1052D00052BAA06812B21044A060BDF806002B6854
:1052E00040BA01B2BDF80800BDF80A20194429608F
:1052F00040BA696800B20844686052BAA86812B23D
:1053000010447F1CFFB2A860B742C3D32868832231
:10531000C117090441EA104100040023FAF778FF9D
:1053200032460023FAF774FF286068688322C117A9
:10533000090441EA104100040023FAF769FF3246EC
:105340000023FAF765FF6860A8688322C117090483
:1053500041EA104100040023FAF75AFF32460023C5
:10536000FAF756FFA86020684FF40065C1170904DA
:1053700041EA104100042A460023FAF749FF324669
:105380000023FAF745FF206060682A46C117090428
:1053900041EA104100040023FAF73AFF32460023A5
:1053A000FAF736FF6060A0682A46C117090441EA8F
:1053B000104100040023FAF72BFF32460023FAF7CE
:1053C00027FFA060002802DDA0F5803001E000F595
:1053D0008030A060002069E7FC0000202DE9F84F34
:1053E00081462E488846002540686B460322007897
:1053F0000D2100F05DF810B10720BDE8F88F9DF891
:105400000000002400F01F008DF800009DF801004E
:105410006FF00F0B00F01F008DF801009DF80200E7
:105420006E4600F01F008DF802004FF0010A00BF29
:1054300059F8241058F82400081A00D5404202F008
:10544000F1FB594602F0C5FD0746305DC0B1144876
:1054500002E0144902F012FC315D491E11F0FF0117
:105460003155F6D10146384602F0DEFA4FF07E5152
:1054700002F0DAFC0C4920F00040884205DC07E02D
:105480000A483844B0F1D97F02D90AFA04F005433A
:10549000641C032CCCDB2846AFE70000FC00002096
:1054A0000000C84154E3853F295C0F3E0000E0BE88
:1054B0002DE9F0411D4614460F460646FDF7DEF97C
:1054C000B0B17006000EFDF7A9F9FDF71FFA90B113
:1054D0003846FDF7A3F9FDF719FAFDF7CFF90120DA
:1054E00000EB4600C0B2FDF799F9FDF70FFA0FE0A7
:1054F0000120BDE8F081FDF7E9F9F9E7012C0DD0B5
:105500005FF00100FDF754F9641E05F8010BE4B2E9
:10551000002CF3D1FDF7DAF90020EAE70020F1E7EB
:105520002DE9F0411E4615460F460446FDF7A6F943
:1055300068B16006000EFDF771F9FDF7E7F948B1B3
:105540003846FDF76BF9FDF7E1F900240CE0012086
:10555000BDE8F081FDF7BAF9F9E7305DFDF75EF9D6
:10556000FDF7D4F910B1641CAC42F6DBFDF7AEF9DF
:105570000020EDE790F90010002902DD4FF0000057
:10558000704702DA4FF00400704790F901100029CB
:1055900002DD4FF00100704702DA4FF0050070475E
:1055A00090F90200002802DD4FF00200704702DA95
:1055B0004FF0060070474FF007007047FBF7A6FD5D
:1055C000FEF722F8FDF7DEFBFDF73CFCFDF738FDAA
:1055D000FDF75EFCFDF7C8FCFDF7FCFCFDF74CFD9C
:1055E000FDF784FDFDF76CFDFFF71EF8FDF788FB66
:1055F000FBF7E2F800210448FCF7EEFC0C2102481E
:10560000FCF7EAFCFEE70000F40100202DE9F04180
:10561000124C20F00101002594F8240010B1002064
:10562000BDE8F081A07A4FF0FF3668B10840277CD2
:105630002074884200D0354641B1012001F028FB9A
:1056400000F094FA38B127743046E9E7207D00B1C4
:10565000012001F01DFB2846E2E70000FC000020CD
:105660000D494A7A42B1012A08D0022A0FD0032AF2
:105670000FD04FF0FF307047022200E0042202708A
:10568000C97C11B11106C90D0170002070470822B4
:10569000F5E71022F3E70000FC0000200F494A7AEA
:1056A00042B1012A09D0022A11D0032A12D04FF0A8
:1056B000FF3070474FF4804201E041F69C72028057
:1056C000C97C11B1C2F34E010180002070474FF434
:1056D0008052F4E74FF40062F1E70000FC00002084
:1056E0000B49097A39B1012907D002290AD00329C7
:1056F0000BD0002103E0FA2101E04FF4FA710180A0
:10570000002070474FF47A71F9E74FF4FA61F6E739
:10571000FC0000200A49097A41B1012908D0022978
:105720000AD003290AD04FF0FF307047054900E046
:1057300005490160002070470449FAE70449F8E789
:10574000FC00002000000343000083423333034287
:10575000333383410C49C97A072913D2DFE801F0BA
:105760001204060A0C0E1000BC2100E06221018028
:10577000002070472A21FAE71421F8E70A21F6E70A
:105780000521F4E70021F2E7FC000020054991F82B
:10579000242012B14FF0FF307047C98901800020EA
:1057A00070470000FC0000202DE9FC414C4C80209B
:1057B0008DF8000020686B460122817C60680078CB
:1057C000FFF7AEFE4FF0FF37002832D16420FEF71E
:1057D0003BFF00258DF8005020686B460122817C3C
:1057E00060680078FFF79CFE002870D120686B4647
:1057F0000622817D60680078FFF75AFE002866D196
:105800009DF805009DF80310C007400F01F001014D
:1058100040EA41019DF801004FF0010600F001004F
:10582000014309D0012905D0022915D02DA0FAF78E
:1058300013FD4CE0E67410E020686B460122C1784D
:1058400060680078FFF734FE40BB9DF8000010F060
:105850000F0020D0042822D0E574FF2004F80A0F9E
:105860004FF6FF7104F8020C04F8010C6070A1807F
:10587000A0712072A67026766576E572A572E56045
:1058800025616561A576E576A5834FF4FA6000F0A1
:105890006BFB18B907E01D48FAF7DEFC17E01CA007
:1058A000FAF7DAFCC6E7022000F080FA78B92A207D
:1058B00000F0C2FB58B9322000F0F4FB38B90020E8
:1058C000FFF7A4FE18B9002000F0A4FA10B1384682
:1058D000BDE8FC81002000F025FC0020F8E7000076
:1058E000FC000020556E737570706F7274656420D3
:1058F000736F6674776172652070726F647563741C
:10590000207265762025642E0A000000388E00087B
:1059100048616C662073656E736974697669747921
:10592000207061727420666F756E642E0D0A00001F
:105930002DE9FF4FDFF89480064685B098F82500E2
:1059400015460F464FF0FF39B0BBAFB3002420E03F
:10595000301B102800DD102080B283463A19014622
:105960009246204600F03AFC30BB6A465946204633
:1059700000F0D2F800BB50465A466946FAF7E8FCF8
:1059800020B16FF0010009B0BDE8F08F04EB0B000F
:1059900084B2B442DCD3280A8DF810008DF811507F
:1059A000D8F80000444604AB817ED8F804000222F7
:1059B0000078FFF7B5FD08B14846E4E7012084F818
:1059C00025000898E0840020DDE70000FC000020AE
:1059D0002DE9F84305464FF0FF39282844D807271A
:1059E000284C00267DB1012000F0F4FA20208DF82B
:1059F00000004FF00108012D17D0052D18D88DF8A3
:105A0000018005201FE0002000F0E4FA8DF800601E
:105A10008DF8017020686B460222817C60680078F6
:105A2000FFF77EFD00BB267529E08DF80160E8E7F1
:105A3000142D04D802208DF801000A2003E0032071
:105A40008DF80100142000F0F7FA9DF801006B4674
:105A500007EB80108DF8010020680222817C6068CD
:105A60000078FFF75DFD10B14846BDE8F8830820D7
:105A7000A072267384F814800020FFF7C7FD002071
:105A8000F3E70000FC0000202DE9F843214C064616
:105A9000174694F8240089464FF0FF3890B3A07A57
:105AA00080B320686B460222817A60680078FFF735
:105AB000FFFC38BBBDF8000045BAB54202D2002059
:105AC00038701FE060684188B5EB510F11D921682B
:105AD00000786B46497C0122FFF7EAFC90B99DF8FB
