:020000040800F2
:10000000C00C0020A9010008673200089D2A0008E2
:100010006532000875150008E53900080000000089
:10002000000000000000000000000000253700086C
:100030003118000800000000353400082737000898
:10004000C3010008C3010008C3010008C301000880
:10005000C3010008C3010008C3010008C301000870
:10006000C3010008C3010008C3010008C301000860
:10007000C3010008C3010008C3010008C301000850
:10008000C3010008C3010008C3010008C301000840
:10009000C3010008C3010008C3010008C301000830
:1000A000C3010008C3010008C3010008C301000820
:1000B000C3010008C3010008C3010008C301000810
:1000C000C3010008C3010008C3010008C301000800
:1000D000C3010008D9390008C3010008C3010008A2
:1000E000C3010008C3010008C301000800F002F8C2
:1000F00000F04AF80AA090E8000C82448344AAF178
:100100000107DA4501D100F03FF8AFF2090EBAE875
:100110000F0013F0010F18BFFB1A43F0010318473B
:100120007C7E00009C7E0000103A24BF78C878C115
:10013000FAD8520724BF30C830C144BF04680C60ED
:10014000704700000023002400250026103A28BF35
:1001500078C1FBD8520728BF30C148BF0B60704739
:10016000662906F02E87642900F06E800020704713
:100170001FB500F0A9FC04000020002105F0A6FE38
:10018000E0601FBD10B510BD00F0BEFD1146FFF7C9
:10019000EFFF04F0DDFF00F0DCFD03B4FFF7F2FF3A
:1001A00003BC03F0B4FC000009488047094800473D
:1001B000FEE7FEE7FEE7FEE7FEE7FEE7FEE7FEE717
:1001C000FEE7FEE704480549054A064B7047000074
:1001D00089370008ED000008C0060020C00C002090
:1001E000C0080020C008002010B54C1084EA530459
:1001F00004D54042C1F1000138BF491E1B4204D55D
:100200005242C3F1000338BF5B1E00F03EF914F008
:10021000804F04D04042C1F1000138BF491E14F0A4
:10022000004F04D05242C3F1000338BF5B1E10BD23
:100230000FB4044910B503AA029800F011FC10BCD9
:100240005DF814FB180000202DE9F041064600245B
:1002500010687529314616A510D0AFF3008000282C
:1002600002DA404213A507E031688A0701D512A5DA
:1002700002E0490704D511A5012401E0AFF3008095
:1002800000210A2206F1240709E0B0FBF2FCB0FBD2
:10029000F2F302FB1C00303078541846491C002849
:1002A000F3D123462A463046BDE8F04100F06FB94D
:1002B000000000002D0000002B00000020000000C6
:1002C0002DE9F0474FF0000A89460446C0F820A007
:1002D0002046E1688847002876D0252806D0D4E952
:1002E00001219047206A401C2062F1E7E168204626
:1002F00000258847C4F81CA006460027C4F818A0AB
:100300002A2E09D0304603F0FBFB38B304EB8708F4
:10031000303EC8F8186019E059F8041B204604EB79
:1003200087029161E1688847012F064618D1E0698C
:10033000002820DA25F020051DE0D8F8180000EB91
:10034000800006EB40003038C8F818002046E1680D
:100350008847064603F0D4FB0028EED1012F0AD0CF
:100360002E2E08D12046E16888477F1C0646022FC2
:1003700045F02005C4DBA069002803DA404245F0BF
:100380000105A061E80701D025F01005B6B1A6F17E
:100390004100192802D8203645F400654A46314606
:1003A000204625604D46FFF7DBFE58B1012806D0F8
:1003B000ED1D25F0070000F1080989E704E005F1CB
:1003C000040985E730468AE7206ABDE8F08740EAFD
:1003D000010310B59B070FD1042A0DD310C808C91B
:1003E000121F9C42F8D020BA19BA884201D90120C4
:1003F00010BD4FF0FF3010BD1AB1D30703D0521C0F
:1004000007E0002010BD10F8013B11F8014B1B1B49
:1004100007D110F8013B11F8014B1B1B01D1921EB3
:10042000F1D1184610BD02F0FF0343EA032242EA6D
:10043000024200F029BB4FF0000200B5134694467B
:100440009646203922BFA0E80C50A0E80C50B1F12C
:100450002001BFF4F7AF090728BFA0E80C5048BF40
:100460000CC05DF804EB890028BF40F8042B08BFDE
:10047000704748BF20F8022B11F0804F18BF00F8DA
:10048000012B704770477047704753EA020C00F029
:1004900069802DE9F04B4FF00006002B1FBFB3FA27
:1004A00083F503FA05F424FA05F65E4012BF1643FD
:1004B000B2FA82F502FA05F4C5F120051EBF22FA50
:1004C00005FC44EA0C04203556EA044C4FEA144477
:1004D00018BF641C4FF000084FF00009904271EB08
:1004E000030C39D3002919BFB1FA81F701FA07F6D5
:1004F000B0FA80F700FA07F6C7F120071EBF20FA0E
:1005000007FC46EA0C062037B6FBF4FCA7EB050710
:10051000103F07F01F0BCBF120060CFA0BFB2CFA57
:1005200006F644BFB3460026202FA4BF5E464FF018
:10053000000B5BEA060C08BF4FF0010B19EB0B092F
:10054000ABFB027C48EB0608C01B06FB02CC0BFB96
:1005500003CC71EB0C01C1E70B460246414648460D
:10056000BDE8F08B13B54FF000004FF00001AFF382
:100570000080BDE81C40704710B500F0A9FA006883
:1005800010BD10B5044600F0A3FA046010BD2DE9BB
:10059000F0470D4699469246044600F1240801684A
:1005A000880604D5E06921F01001216000E00120F7
:1005B000A84201DD471B00E00027A1697A1902EB80
:1005C0000900081AA0612078C00602D42046AFF3C3
:1005D0000080002608E0D4E901211AF806009047BF
:1005E000206A401C761C20624E45F4DB2078C00651
:1005F0000AD52046AFF3008006E0D4E9012130207F
:100600009047206A401C2062381EA7F10107F4DCE5
:1006100007E0D4E9012118F805009047206A401C42
:100620002062281EA5F10105F3DC2046AFF300800F
:100630002078000602D50220BDE8F0870120FBE704
:1006400070472DE9FF4F0C461E464FF0FF378BB029
:10065000D2E90001DDF860800A908A46C1F30A55AC
:1006600005B93D46002108464FF00000BAF1000FE1
:1006700000F4400005DA00EB80004FF4400101EA8D
:1006800050004FEA9059B9F1010F00DDB9460A98C0
:1006900050EA4A000ED044F61050A5F2FF3545430B
:1006A0002F14B8F1000F1ED07542291E1EDDC9F1AE
:1006B00000021CE0B8F1010F4FF0000001D0302122
:1006C00003E0F24305E02154401CB042FBDB30461E
:1006D0000022002121540B99C1F80880C1E90020B3
:1006E0000FB0BDE8F08FBD1B6D1CDEE74A4600DA97
:1006F000694206A800F08EFA06AB93E8070003AB48
:1007000083E8070050460A9900F06CFB8DE807006B
:10071000A0F500501F3800900398002D0ADD42F22A
:100720001F014A460844002303A90390684600F0CD
:10073000D5FD09E0A0F500504A461F38002303A963
:100740000390684600F0DFFD8DE807000004000C10
:1007500003D04FF0FF30410800E01046B8F1000F21
:1007600003D00022009215461EE0751E05D400F04D
:10077000B3F9303262556D1EF9D5B34601220843F4
:1007800002D000227F1C04E02078302801D1002212
:100790007F1E002A099784D01DE0112D07DA00F092
:1007A0009BF9303262556D1C50EA0102F5D10843C5
:1007B00002D00098C8B10EE00021681E05E0235C5D
:1007C000625C63542254401E491C8142F7DBAB46F5
:1007D000A81B401E0990002004F80B000B98099AF2
:1007E000C0F80880C0E9002B7AE711264FF0000816
:1007F00057E72DE9F04F88460446D21D22F0070145
:1008000091B0D1E90001CDE90A0103F0ECF802460C
:100810000B98C00F01D02D2007E02068810701D57B
:100820002B2002E0202101EAC000032A099001D018
:10083000072A05DB03464146204600F0ABF90BE1F1
:100840002078800601D5E06900E00620B8F1650F48
:10085000814606D0B8F1660F18D0B8F1670F70D195
:1008600031E00020B9F1110F009001DB112301E00C
:1008700009F101030AAA01A90CA8FFF7E2FEDDE9CC
:100880000C70002609F10105834647E001204B4624
:1008900000904FF000470AAA01A90CA8FFF7D1FE6B
:1008A000DDE90DB00C995D46002610B909F1010093
:1008B0000D18B9EB050003D4C0F1FF3609F10105AD
:1008C000A5EB09002BE0B9F1010F01DA4FF00109A6
:1008D0000020B9F1110F0090484601DD112300E01E
:1008E00003460AAA01A90CA8FFF7ABFEDDE90C70CC
:1008F0004D4600268346207800070AD4AB4500DA2F
:100900005D4601A8012D04DD411911F8011C3029B3
:1009100007D04F4502DA17F1040F04DA01208246AE
:100920000FE06D1EEEE7002F02DCED1B3E4403E0FE
:10093000781CA84200DD7D1CB81B00F1010A4FF0B5
:1009400000472078000703D4AA4501DB4FF0FF3AA7
:100950000021B7F1004F0DF143088DF8431024D06A
:1009600002202B23002F01DA7F422D230A21021EB1
:10097000A0F1010000DC5FB197FBF1FC97FBF1F205
:1009800001FB1C7C17460CF1300C08F801CDEEE79A
:10099000A8F1010003702188090501D5452100E077
:1009A0006521A0F1010800F8011C09980FA9A1EB2D
:1009B0000807FF1D00B10120411901EBEA70A16990
:1009C0003844081A401EA0612078C00602D4204690
:1009D000AFF30080099828B1D4E901219047206A3B
:1009E000401C20622078C00622D52046AFF300804C
:1009F0001EE0002E04DBB34502DD01A8805D00E0AF
:100A00003020D4E901219047206A401C2062761CE6
:100A1000AAF101005FEA000A0AD100F055F8C068A7
:100A20000168405CD4E901219047206A401C2062A3
:100A3000281EA5F10105DCDC07E0D4E9012118F846
:100A4000010B9047206A401C2062381EA7F1010765
:100A5000F3DC2046AFF30080032011B041E6000034
:100A6000074B70B50D467B4400F081F804462846DC
:100A700000F042F910B14FF0FF3070BD204670BD5C
:100A80002F4100004FF000020429C0F0128010F046
:100A9000030C3FF4D2ACCCF1040CBCF1020F18BF34
:100AA00000F8012BA8BF20F8022BA1EB0C01FFF7E7
:100AB000C4BC5FEAC17C24BF00F8012B00F8012B05
:100AC00048BF00F8012B704700487047800600209F
:100AD000004870476006002030B5B0F10A024FEAC6
:100AE000900E71F100034EEA817EB0EB0E0061EBD7
:100AF00091014FEA101E4EEA017E10EB0E0041EB11
:100B000011114FEA102E4EEA016E10EB0E0041EB70
:100B100011214FEA104E4EEA014E10EB0E0041EB50
:100B20001141401841F100014FEAD00040EA417004
:100B30004FEAD10110EB80054FEA810444EA90743A
:100B400044EB01046D1944EB0404521BA3414FF024
:100B5000000348BF0A3200D530BD401C41F10001FE
:100B600030BD000001694A1C02610878704700B579
:100B70008FB0CDE901310021059105497944CDE9D6
:100B8000031011466846FFF79BFB0FB000BD000045
:100B9000E5FFFFFF2DE9F0411F46044603260168EB
:100BA000072A01F4006004DB08B116A505E016A5CC
:100BB00003E008B115A500E015A521F010002060A4
:100BC000A069C01EA0610FB1401EA0612046AFF316
:100BD00000804FB1D4E9012138469047206A401C7B
:100BE0002062C01C206206E0206AFAE7D4E90121F5
:100BF00015F8010B9047761EF8D22046AFF300801F
:100C0000BDE8F0814E414E006E616E00494E4600D7
:100C1000696E66002DE9F047814616468AB0354870
:100C200078440DC88DE80D0032487844801C03AC30
:100C30000DC884E80D0041F69B300844372190FB35
:100C4000F1F290FBF1F5A5F1800501FB12041B3CCC
:100C500002D56442012000E00020DFF898A0804621
:100C60000027FA44AAF1BE0A0EE0E0070AD0324695
:100C7000684607EB470101230AEB810100F043FBC3
:100C80008DE8070064107F1C002CEED1194F7F44C3
:100C9000AE3F19E0E80715D007EB04100DF1180A74
:100CA00090E80E008AE80E00C068F04201D1981961
:100CB00008903246012306A903A800F024FB03ABE9
:100CC00083E807006D10641C002DE3D14FF0010391
:100CD00032466946B8F1000F03A802D000F0FEFAD0
:100CE00001E000F010FBC9E90001C9F808200AB0D2
:100CF000BDE8F087C0720000007B00F08000704704
:100D000000487047600600207546FFF7F9FFAE46C1
:100D100005006946534620F00700854618B020B507
:100D2000FFF750FABDE820404FF000064FF00007F3
:100D30004FF000084FF0000B21F00701AC46ACE883
:100D4000C009ACE8C009ACE8C009ACE8C0098D46F0
:100D5000704710B50446AFF300802046BDE8104050
:100D6000FFF71BBA4FF0013C50F8042B51F8043B3D
:100D70009A4221D1A2EB0C03934313EACC1317D16F
:100D800050F8042B51F8043B9A4215D1A2EB0C0306
:100D9000934313EACC130BD150F8042B51F8043BC6
:100DA0009A4209D1A2EB0C03934313EACC13DBD094
:100DB0004FF00000704700BFD01A01BAB1FA81F1BC
:100DC00001F0180122FA01F0CB40C1F12001DBB2A1
:100DD000C0B2C01A2CFA01F3D11A914311EAC3111F
:100DE000E6D170475FEA400C08BF91F0000F4FEA70
:100DF0008C234FEAC12243EA51514FEA1C5018BFDD
:100E000000F5F0404FEA300018BF41F000415FEAC2
:100E10006C5C00F02980BCF1FF3F08BF40F08040CF
:100E20007047130C06BF12044FF0100C4FF0000C6B
:100E3000130E04BF12020CF1080C130F04BF1201B1
:100E40000CF1040C930F04BF92000CF1020CD30FB1
:100E500004BF52000CF1010C11464FF00002A0F14A
:100E60001F00A0EB0C00704711F0004F08BF704747
:100E700031F000413FF4D5AF0B0C06BF09044FF031
:100E8000100C4FF0000C0B0E04BF09020CF1080C03
:100E90000B0F04BF09010CF1040C8B0F04BF890078
:100EA0000CF1020CCB0F04BF49000CF1010CCCF18A
:100EB0002003A0EB0C0022FA03F302FA0CF241EA41
:100EC000030100F10100704720F07F4C80EA03002D
:100ED00023F07F47ACEB070303F57C5300F00040A1
:100EE00003F1FF032DE980494FEA154B09B44FEA9E
:100EF000144325EA0B4E24EA03480FF2042606EBBE
:100F0000132749083E785FEA320203FB0667C7F5FC
:100F1000000707FB06F64FEA54374FEAD64606F1BC
:100F2000020607FB066CCCF1005C4FEA1C472CEA7A
:100F3000074C07FB06F40CFB06F504EB15464FEADD
:100F4000961634BF00204FF000404FEAD13706FB21
:100F500007FC4FEA1C4C0CFB0BF7D21B03FB0CF7F6
:100F600061EB07010CFB0EF7B0EB074072EB174289
:100F70000CFB08F734BFA2EB0742B2EB074261EB70
:100F800017414FEA0C444FEA910706FB07FC4FEA72
:100F90001C4C0CFB0BF7B0EBC74072EB573203FB5A
:100FA0000CF734BFA2EBC742B2EBC74261EB57313B
:100FB0000CFB0EF7B0EBC70072EB57720CFB08F797
:100FC00034BFA2EBC702B2EBC70261EB5771039FBC
:100FD0004FEA816141EA921104EBCC044FEAD13728
:100FE0004FEA826206FB07FC42EA90124FEA8060F9
:100FF0004FEA1C4C0CFB0BF7D21B03FB0CF761EB0D
:1010000007010CFB0EF7B0EB074072EB17420CFB2D
:1010100008F734BFA2EB0742B2EB074261EB17417E
:101020004FEA8C554FEA910704EB9C2406FB07FC22
:101030004FEA1C4C0CFB0BF7B0EBC74072EB57327E
:1010400003FB0CF734BFA2EBC742B2EBC74261EB24
:1010500057310CFB0EF7B0EBC70072EB57720CFB6D
:1010600008F734BFA2EBC702B2EBC70261EB5771BE
:1010700015EB4C254FEA816141EA92114FEA8262F9
:101080004FEAD13742EA901206FB07FC44F1000414
:101090004FEA80604FEA1C4C0CFB0BF7D21B03FBA2
:1010A0000CF761EB07010CFB0EF7B0EB074072EB9E
:1010B00017420CFB08F734BFA2EB0742B2EB074222
:1010C00061EB174115EB1C154FEA813141EA924162
:1010D0004FEA823242EA90424FEA80304FEA0C7681
:1010E00044F1000448EA03434EEA0B484FF0000E77
:1010F000B2EB080C71EB030724BF624639464EEB96
:101100000E0E4FF0000B0018524149414BEB0B0BF8
:10111000B2EB080C71EB03077BF1000B24BF6246B6
:1011200039464EEB0E0E4FF0000B0018524149416C
:101130004BEB0B0BB2EB080C71EB03077BF1000BD5
:1011400024BF624639464EEB0E0E51EA020718BF25
:1011500046F0010616EB0E7655F1000254F100013F
:1011600003D5BDE88901BDE80088BDE88901BDE877
:101170000048B619524141EB0101A3F10103704748
:1011800080807F7E7D7C7B7A7978777676757473C4
:10119000727171706F6E6E6D6C6C6B6A6A69686883
:1011A000676666656464636362616160605F5F5E19
:1011B0005E5D5D5C5C5B5B5A5A595958585757568F
:1011C00056555555545453535252525151505050F4
:1011D0004F4F4F4E4E4D4D4D4C4C4C4B4B4B4A4A46
:1011E0004A4949494848484747474746464645458A
:1011F00045444444444343434342424242414141C3
:10120000002B9C4630D477002BD01CB54FEA370713
:1012100003B44FF010004FF01001BAF1000F06D0E8
:10122000BCF1000FDCBF40F0080040F008014FF0B7
:1012300000000FBCBDE810400BF1010BBBF1010F2A
:1012400008BF5FEA170722BF12F1010211F1010185
:101250004FF0004143F1000300F0004043EA00007A
:101260007047F9D35708D0E746EA064613F1400F16
:101270004FEA16461FDD13F1200FDFBF16430A4663
:10128000002120335B42BED0C3F1200746EA064668
:1012900002FA07F74FEA164646EA0706C3F12007A7
:1012A00022FA03F201FA07F721FA03F14FF00003E3
:1012B00042EA0702A7E746EA020646EA06464FEA7E
:1012C000164646EA0106BCBF46EA0646360C4FF013
:1012D00000034FF000024FF0000194E72DE9804C2D
:1012E0009A46934670B491E8380007C831EA400C3A
:1012F00048BF34EA430C03D5FFF7E6FDFFF780FF54
:10130000F0BCBDE8008C2DE9804C9A46934670B441
:1013100091E8380007C810F0804F08BF13F0804FE5
:1013200003D100F005F8FFF76BFFF0BCBDE8008CBF
:1013300020F07F4780EA030023F07F4C07EB0C038B
:10134000A3F57C5300F00040A3F1FE0392F0000FE0
:1013500000F0B38095F0000F00F077802DE901498F
:101360004FEA11404FEA144621EA004800FB06FC10
:1013700024EA064708FB06F607FB08F800FB07F718
:1013800018EB06484CEB164C4FEA124B18EB07488B
:101390004FEA15464CEB174022EA0B4E0BFB06FCBE
:1013A00025EA06470EFB06F607FB0EFE0BFB07F7CA
:1013B0001EEB064E4CEB164C4FF000061EEB074E94
:1013C0004CEB174B18EB0B0840F1000018EB0E0B21
:1013D00058EB000840F100008F1A4FF000013CBFAD
:1013E000C943661B14BFB5EB040C00213CBFC943C5
:1013F000F61B4FEA17444EEA8E0E27EA04454FEAE1
:101400001C4704FB07622CEA074C05FB07F70CFBA3
:1014100005F604FB0CFC16EB074642EB174216EBF5
:101420000C4642EB1C421BEB060658EB0202414104
:1014300046EA9E0601D5BDE80189B619524141EB45
:101440000101A3F10103BDE801894FEA14454FEA08
:10145000114724EA054621EA074C05FB07F406FB81
:1014600007F70CFB06F105FB0CFC11EB074144EB05
:1014700017444FEA124711EB0C4144EB1C4422EA9B
:10148000074C05FB07F206FB07F70CFB06F605FB0E
:101490000CFC16EB074642EB174216EB0C4642EBF0
:1014A0001C456A1854F1000148BF7047B6195241F3
:1014B00041EB0101A3F10103704795F0000F37D014
:1014C0004FEA11424FEA144721EA024624EA074C48
:1014D00002FB07F106FB07F70CFB06F402FB0CFC12
:1014E00014EB074441EB17414FEA154714EB0C444A
:1014F00041EB1C4125EA074C02FB07F506FB07F709
:101500000CFB06F602FB0CFC16EB074645EB1745F9
:1015100016EB0C4645EB1C42121951F1000148BF75
:101520007047B619524141EB0101A3F10103704725
:101530004FEA14454FEA114724EA054621EA074CD1
:1015400005FB07F106FB07F70CFB06F24FF0000660
:1015500005FB0CFC12EB074241EB174112EB0C426E
:1015600051EB1C4148BF7047921841EB0101A3F1B8
:1015700001037047FEE700002DE9F0410D4C0A46DB
:1015800007460B4E1046216805F0D0FBE16A05F0D6
:101590003BFA0146084805F0C9FB05463146384686
:1015A00005F0C4FB294605F02FFAE062BDE8F081A2
:1015B0000AD7A33C3000002048E17A3F2DE9F041F2
:1015C0000D4C0A4607460B4E1046216805F0AEFB4F
:1015D000A16D05F019FA0146084805F0A7FB05467C
:1015E0003146384605F0A2FB294605F00DFAA06504
:1015F000BDE8F0810AD7A33C3000002048E17A3FE3
:10160000F8B5374F002601200096387002466B4629
:101610007521682003F016FD32A0FEF709FE9DF843
:10162000000068280CD0BFF34F8F37480168374A55
:1016300001F4E06111430160BFF34F8F00BFFDE78C
:1016400003F070FE002848D1782004F029FB10B97F
:1016500024A0FEF7EDFD782003F096FD10B92CA034
:10166000FEF7E6FDC82004F0DBFA10B932A0FEF761
:10167000DFFD02F02DFF10B939A0FEF7D9FD454876
:10168000044603F041FD0546E01C03F03DFD45EA3C
:10169000C005A01D03F038FD45EA801080B203F0BC
:1016A000D7F810B93CA0FEF7C3FD40F2731002F06A
:1016B000E7FD10B942A0FEF7BBFDC82003F030F8EB
:1016C00010B949A0FEF7B4FD04F071FB012004F04D
:1016D000CDF910B94DA0FEF7ABFD3E70F8BD00008E
:1016E000010000206D70755F7365745F73656E73C4
:1016F0006F7220636F6D706C657465202E2E2E2EB8
:101700002E2E0D0A000000000CED00E00400FA058A
:101710006D70755F636F6E6669677572655F666928
:10172000666F20636F6D706C657465202E2E2E2E93
:101730002E2E0D0A000000006D70755F7365745FDA
:1017400073616D706C655F7261746520636F6D703D
:101750006C657465202E2E2E2E2E2E0D0A00000094
:10176000646D705F6C6F61645F6D6F74696F6E5FE5
:101770006472697665725F6669726D776172652001
:10178000636F6D706C657465202E2E2E2E2E2E0DBF
:101790000A00000004010020646D705F7365745FCF
:1017A0006F7269656E746174696F6E20636F6D70BE
:1017B0006C657465202E2E2E2E2E2E0D0A00000034
:1017C000646D705F656E61626C655F66656174759E
:1017D000726520636F6D706C657465202E2E2E2EE1
:1017E0002E2E0D0A00000000646D705F7365745F3B
:1017F0006669666F5F7261746520636F6D706C659A
:101800007465202E2E2E2E2E2E0D0A006D70755F03
:101810007365745F646D705F737461746520636F6A
:101820006D706C657465202E2E2E2E2E2E0D0A00E6
:10183000704772B6FEE700002DE9F04F89B005460B
:1018400001F0D2FEA249DFF88CA2A34CDFF88C8213
:10185000DFF88C920860012D7ED04421D02001F069
:101860001EF905464321D02001F019F905EB0020AF
:1018700005F048FA07464621D02001F010F9054648
:101880004521D02001F00BF905EB002005F03AFAD4
:1018900001904821D02001F002F905464721D020CF
:1018A00001F0FDF805EB002005F02CFA06463C217E
:1018B000D02001F0F4F805463B21D02001F0EFF8EC
:1018C00005EB002005F01EFA00903E21D02001F02B
:1018D000E6F805463D21D02001F0E1F805EB0020B7
:1018E00005F010FA02904021D02001F0D8F805460A
:1018F0003F21D02001F0D3F805EB002005F002FADB
:101900004FF08E4B05465F4505DD4FF08F41384661
:1019100005F0E2FA07460198584504DD4FF08F4183
:1019200005F0DAFA01905E4505DD4FF08F41304653
:1019300005F0D2FA06460098584504DD4FF08F4175
:1019400005F0CAFA00900298584504DD4FF08F4127
:1019500005F0C2FA029000E053E05D4505DD4FF06E
:101960008F41284605F0B8FA054687F00041284621
:10197000CAF8001005F01CF882468B46029805F064
:1019800017F852465B4602F04BFB0022554B04F021
:1019900035FD554A554B04F09DFB04F0ADFA02901D
:1019A000009805F005F852465B4602F039FB00222C
:1019B0004C4B04F023FD4C4A4C4B04F08BFB04F0E1
:1019C0009BFA0090384604F0F3FFDFF824A14FF0B3
:1019D00066373A46534604F07DFB04F08DFA8346A1
:1019E000019804F0E5FF3A46534604F073FB04F017
:1019F00083FA07463F48007802281DD0032827D0E5
:101A000034E001F019FD3C48334DA16920350160F7
:101A1000B5F9000005F05EF9CAF80000B5F9040058
:101A200005F058F9C8F80000A81DB0F9040005F049
:101A300051F9C9F8000020E05946029801F0DAF99E
:101A400080F00040A0613946009801F081FA0AE078
:101A500059460298FFF790FD80F00040A06139469A
:101A60000098FFF7ABFD80F0004060612248A1695B
:101A70000160C8F80060C9F800501548006804F01B
:101A800097FF06468B46D9F8000004F091FF814687
:101A90008A46D8F8000004F08BFF05460E488846B9
:101AA000406904F085FF04460B480F46806904F046
:101AB0007FFF0B46CDE9004702A9024681E82007D7
:101AC000CDE9066B0D48FEF7B3FB09B0BDE8F08F1A
:101AD000040000200C000020D8000020100000208E
:101AE0001400002000806640F1D4C853FB21094057
:101AF0006666304000000020080000204C7F00088F
:101B000010B590F821100022022905D0042181632C
:101B100080F82020012010BD01680B6823F00E031F
:101B20000B6001680B6823F001030B6090F84030F4
:101B3000C46B012101FA03F3636080F8211080F87F
:101B40002020104610BD000010B590F82110002490
:101B5000022903D00421816301243DE001680A6861
:101B600022F00E020A6001680A6822F001020A608F
:101B70001A4A0168914201D1012121E0174A143229
:101B8000914201D110211BE0144A2832914201D127
:101B9000891515E0114A3C32914201D189140FE0B8
:101BA0000E4A5032914202D14FF4803108E00B4A84
:101BB0006432914202D14FF4801101E04FF0807104
:101BC000064A083A5160012180F82110002180F86E
:101BD0002010416B01B18847204610BD080002402B
:101BE00070B5044600F004F90546601C02D00448B4
:101BF0000078044400F0FCF8401BA042FAD370BD0A
:101C00001C0000202DE9F84FDFF8B8910024A9F15D
:101C1000040B23460F2709F1040AABF1040EC9E0B7
:101C20000125A5402A40AA427DD1674ED1F804C0C3
:101C3000ACEB0608B44532D014DCBCF1030F3AD04B
:101C400009DCBCF1000F2AD0BCF1010F1CD0BCF1A3
:101C5000020F31D11DE0BCF1110F17D0BCF1120FF2
:101C60002AD119E0B8F5881F19D006DCB8F5803FF5
:101C700015D0B8F5801F1FD111E0B8F5001F0ED0A8
:101C8000B8F5041F18D10AE0CB6815E0CB681B1D1E
:101C900012E0CB6808330FE0CB680C330CE08B68A4
:101CA0002BB1012B4FF0080303D0456104E004235E
:101CB00002E0056100E00023FF2A01D8064601E0AA
:101CC00000F104064FEA840501D9A5F12005D6F8F4
:101CD000008007FA05FC28EA0C0803FA05F548EA33
:101CE0000508C6F800804D68ED0062D5374DAE6935
:101CF00046F00106AE61AD6924F0030605F001056A
:101D00000095334D06EB050CDCF80850A607360F9E
:101D100007FA06F825EA0805DFF8B880404503D140
:101D20004FF0000817E044E0DFF8AC80404502D1F6
:101D30004FF001080FE0DFF8A480404502D14FF0DA
:101D4000020808E0DFF89880404502D14FF0030810
:101D500001E04FF0040808FA06F848EA0508CCF854
:101D600008804D68D9F80060ED024D4601D5164354
:101D700000E096432E604D68DAF80060AD025546EB
:101D800001D5164300E096432E604D68DBF80060F5
:101D9000AD035D4601D5164300E096432E604D68C5
:101DA000DEF80060ED03754601D5164300E096436A
:101DB0002E60641C0D682A46E5407FF431AFBDE813
:101DC000F88F0000080401400000111000100240CC
:101DD0000000014000080140000C014000100140DB
:101DE000001401400AB1016170470904FBE70000DB
:101DF00001488068704700001C000020024881688C
:101E000002781144816070471C000020074810B51B
:101E1000016841F010010160032000F075F80F2007
:101E200000F006F800F024F8002010BD0020024069
:101E300070B50D4D04464FF47A712878B1FBF0F07F
:101E40000A490968B1FBF0F000F017FC48B9102C02
:101E500007D200222146501E00F036F800206C60A8
:101E600070BD012070BD00001C0000202800002073
:101E70000C4808B5816941F001018161816901F077
:101E800001010091C16941F08051C161C06900F058
:101E9000805000900448416821F0E06141F00071F9
:101EA000416008BD0010024000000140002809DB2D
:101EB00000F01F02012191404009800000F1E02064
:101EC000C0F8001170470000F0B40E4B1B680C46C0
:101ED000C3F30223C3F10705042D00D90425191DFE
:101EE000072901D2002300E0DB1E012606FA05F1D6
:101EF000491E214099409E40761E16403143F0BC59
:101F000001F085BD0CED00E0064900F0070208680D
:101F10004FF6FF03184040EA0220034A10430860CE
:101F2000704700000CED00E00000FA052DE9F047D5
:101F30000F46050061D0434E306800F00700B842FC
:101F400009D2306820F0070038433060306800F074
:101F50000700B84251D128683B4C810712D5400791
:101F600003D5606840F4E06060602878000703D51E
:101F7000606840F4605060606068A96820F0F0001C
:101F8000084360602878C00728D06868012810D00E
:101F90002168022810D0890700292EDA616821F013
:101FA000030101436160FFF723FF804641F2883956
:101FB0000DE021688903EFE78901EDE7FFF718FFDE
:101FC000A0EB0801494502D90320BDE8F08760680D
:101FD000696800F00C00B0EB810FEFD1306800F0C1
:101FE0000700B8420BD9306820F007003843306052
:101FF000306800F00700B84201D00120E5E72878FA
:10200000400705D56068E96820F4E0600843606037
:102010002878000706D56068296920F4605040EAF6
:10202000C100606000F038F86168084AC1F303112C
:10203000515CC8400649086006480068FFF7F8FE92
:102040000020C2E700200240001002401471000886
:102050002800002020000020044805490068496845
:10206000044AC1F30221515CC84070472800002097
:1020700000100240247100080448054900684968BE
:10208000044AC1F3C221515CC840704728000020B7
:1020900000100240247100080E4A51680E4801F0F9
:1020A0000C03042B11D0082B0FD10C48C1F3834330
:1020B000C903C05C0AD55168084AC1F34041921E69
:1020C000515C054A5043B0FBF1F070470449484366
:1020D000704700000010024000127A0004710008EE
:1020E00000093D002DE9F84F040070D02078C04D64
:1020F000C00749D06868C0F38100012807D068682C
:10210000C0F38100022809D16868C00306D5286899
:10211000800339D560680028E7D035E06068B0F505
:10212000803F0BD010B1B0F5A02F11D0286820F45B
:1021300080302860286820F4802002E0286840F47D
:1021400080302860606890B1FFF752FE06460AE0D2
:10215000286840F480202860F0E700BFFFF748FEC1
:10216000801B642873D828688003F7D50CE0FFF73C
:102170003FFE064605E000BFFFF73AFE801B6428DD
:10218000F0D828688003F7D420789A4E80074FF063
:1021900001094FF0000839D5686810F00C0F07D01E
:1021A0006868C0F38100022809D16868C00306D4BA
:1021B0002868800714D52069012808D110E020691B
:1021C000B0B1C6F80090FFF713FE074605E00AE13C
:1021D000FFF70EFEC01B0228C4D828688007F7D579
:1021E0002868616920F0F80040EAC10028600DE02D
:1021F000C6F80080FFF7FCFD074604E0FFF7F8FD96
:10220000C01B022823D828688007F7D4207800074D
:102210002CD57948A169D9B1C0F80090FFF7E8FD45
:10222000074604E0FFF7E4FDC01B02280FD8686AE8
:102230008007F7D571484FF4FA510068B0FBF1F010
:10224000009000BF0098411E0091FAD20EE080E09D
:10225000C0F80080FFF7CCFD074604E0FFF7C8FD9B
:10226000C01B022875D8686A8007F7D42078400719
:1022700060D5E8690027C00008D4E86940F08050C4
:10228000E861E869012700F0805000905C4801682F
:10229000C90513D40168834641F480710160FFF7DA
:1022A000A7FD824606E000BFFFF7A2FDA0EB0A00F3
:1022B00064284ED8DBF80000C005F5D5E068012899
:1022C0000AD008B1052813D0286A20F0010028623E
:1022D000286A20F0040002E0286A40F00100286229
:1022E000E06841F2883B98B1FFF782FD82460BE03F
:1022F000286A40F004002862EEE700BFFFF778FD8F
:10230000A0EB0A0159455AD8286A8007F6D50CE097
:10231000FFF76EFD824605E0FFF76AFDA0EB0A01BC
:1023200059454CD8286A8007F6D41FB1E86920F0D7
:102330008050E861E06988B36968C1F381010229CE
:1023400044D00228C6F8608004D0FFF751FD04464F
:1023500038E034E0FFF74CFD074604E0FFF748FDA6
:10236000C01B02282BD828688001F7D4206AB0F55A
:10237000803F05D16868A16820F400300843686098
:10238000D4E908010843696821F4741108436860BE
:10239000C6F86090FFF72CFD044606E025E000BF7C
:1023A000FFF726FD001B022809D828688001F7D511
:1023B0001BE000BFFFF71CFD001B022802D9032011
:1023C000BDE8F88F28688001F4D40EE00128F7D02A
:1023D0006868226A00F48031914204D1616A00F495
:1023E0007010884201D00120EAE70020E8E70000F1
:1023F00000100240000042428004424228000020B7
:102400000070004070B5040009D0606A002540B13A
:1024100025616561A56294F8510040B10CE001208E
:1024200070BD6068B0F5827FF4D0E561F2E784F8B2
:102430005050204600F040F8022084F851002068F7
:10244000016821F040010160A088218900F48270B8
:1024500001F404410843A18901F400610843217C8F
:1024600001F002010843217D01F001010843218BA5
:1024700001F400710843217F01F03801084394F80A
:10248000201001F080010843218D01F40051084320
:1024900021680860A069042101EA104021684860B1
:1024A0002068C16921F40061C1616565012084F87B
:1024B0005100002070BD000000B585B000210091E2
:1024C00001910291039100680F4988421AD10F4887
:1024D000816941F480518161816901F480510491E5
:1024E000816941F0040181618069694600F004005E
:1024F0000490A02000900220019003200390044843
:10250000FFF780FB05B000BD003001400010024025
:10251000000801402DE9F84F984616468A460446C1
:10252000FFF766FC814694F8510001281ED1BAF1EC
:10253000000F73D0002E71D094F85000012815D0F0
:10254000012784F85070032084F851000025656548
:10255000C4F830A0A686E686A563A587E5876564EE
:102560002564A068B0F5004F03D00CE00220BDE860
:10257000F88F2068016821F040010160206801683F
:1025800041F48041016020680168490603D4016874
:1025900041F040010160E068B0F5006F606803D071
:1025A00048B3012E27D047E008B1012E1FD1206B80
:1025B00021680088C86006E020688168890709D51D
:1025C000216B0988C160206B801C2063E08E401E57
:1025D000E0860CE0FFF70CFCA0EB0901414503D3BA
:1025E000B8F1FF3F03D035E0B8F1000F32D0E08EF4
:1025F0000028E1D123E0206B21680078087306E011
:102600002068816889070AD5216B09780173206BDE
:10261000401C2063E08E401EE0860DE02BE0FFF7BB
:10262000E7FBA0EB0901414503D3B8F1FF3F03D01D
:1026300010E0B8F1000F0DD0E08E0028E0D14A463E
:102640004146204600F0F8FF08B120206065A068F0
:1026500030B109E084F8517084F85050032086E7C7
:102660002068C1688068009084F8517004F8505F59
:1026700060680028F3D0012079E710B5401EB0F162
:10268000807F01D3012010BD4FF0E02460610F2155
:10269000601701F0BCF90020A06107202061002034
:1026A00010BD704770470000F8B50168044608681F
:1026B000CA684B6910F00F0F4FF0000559D003F0B6
:1026C000010602F49077374365D0C10705D0D105E4
:1026D00003D5616C41F001016164410705D5D9075B
:1026E00003D0616C41F002016164810705D5D9070F
:1026F00003D0616C41F004016164010707D502F069
:102700002001314303D0616C41F008016164616CC8
:1027100000293AD0800604D5900602D5204601F063
:1027200063F820684069616CC0F38010090700D429
:1027300060B3204601F031F820684069400621D599
:102740002068143050E8001F21F0400140E80012DA
:10275000002AF5D1E06BA8B16D494163E06BFFF74A
:10276000F3F9002811D0E06B416B01B0BDE8F040F7
:10277000084783060FD593060DD52046BDE8F840DF
:1027800001F032B82046FFF78DFFF8BD2046FFF775
:1027900089FF6564F8BD266B2023012E7CD1C60617
:1027A0007AD5D60678D508684868009048694FF011
:1027B0000206400640D5E16B086840680004000C42
:1027C000E8D0A28D8242E5D9E085886920282DD005
:1027D00020680C3050E8001F21F4807140E800129E
:1027E000002AF5D12068143050E8001F21F00101C3
:1027F00040E80012002AF5D12068143050E8001F8C
:1028000021F0400140E80012002AF5D184F842305E
:10281000256320680C3050E8001F21F0100140E8CB
:102820000012002AF5D1E06BFFF76AF96663A08D0C
:10283000E18D401A81B22AE0A08DE18D401A81B26B
:10284000E08D0028A6D00029A4D022680C3252E8DE
:10285000000F20F4907042E80007002FF5D12068A7
:10286000143050E8002F22F0010240E80027002F2A
:10287000F5D184F84230256320680C3050E8002FF1
:1028800022F0100240E80023002BF5D166632046B9
:10289000FFF707FFF8BDFFE705062BD5150629D57D
:1028A00094F841002128F5D1A068B0F5805F01D1EE
:1028B0002069B0B1206A411C21622168007848601B
:1028C000E08C401E0004000CE084E3D12068C16865
:1028D00021F08001C1602068C16841F04001C16001
:1028E000D8E7206A0088C0F308004860206A801C8E
:1028F0002062E5E74006CDD55006CBD5CA68204614
:1029000022F04002CA6084F8413000F0C6F8C1E706
:102910008B37000870B5040004D094F841000025FE
:1029200010B106E0012070BD84F84050204600F050
:1029300023F8242084F841002068C16821F4005164
:10294000C160204600F0B2FF2068016921F4904187
:1029500001612068416921F02A0141612068C16854
:1029600041F40051C1606564202084F8410084F87E
:1029700042006563002070BD30B585B0002400942E
:102980000194029403940068184988422CD1184895
:10299000816941F480418161816901F48041049140
:1029A000816941F0040181618069124D00F00400E9
:1029B00004904FF4007000900220019003200390D7
:1029C00069462846FFF71EF92815CDE90004694637
:1029D00028460294FFF716F9002211462520FFF73A
:1029E00073FA2520FFF762FA05B030BD00380140C8
:1029F000001002400008014070472DE9F8430446EA
:102A000090F84100984616460D46202802D0022034
:102A1000BDE8F88385B17EB100206064212084F890
:102A20004100FFF7E5F9A6848146E684A0682027E7
:102A3000B0F5805F02D003E00120E9E7206910B122
:102A40002E4600250EE000260CE08021204600F0F6
:102A500089FFA8B9C6B116F8010B21684860E08C5F
:102A6000401EE084E08C4B464FF00002CDF8008021
:102A70000028EAD14FF04001204600F073FF40B13A
:102A800084F841700320C3E735F8020BC0F3080057
:102A9000E3E784F841700020BAE77047FEE770B5BD
:102AA0000D46044600F0C0F8204600F08DF800F016
:102AB00003F9284600F088F800F0FEF800F0B4F8BA
:102AC000641CE0B200F080F800F0F6F8002000F09E
:102AD00045F8044600F0D0F8204670BD70B50D4CA6
:102AE0000025C4F8A0510C48016821F0F0010160F4
:102AF000016841F030010160C4F8A451012004F5DF
:102B0000D07401F085FB0120206001F081FB25607D
:102B100070BD000000802142040C014070B50D4CD6
:102B20000025C4F8A0510C48016821F0F0010160B3
:102B3000016841F0300101600126C4F8A46130460B
:102B400004F5D07401F064FB2660012001F060FB05
:102B5000256070BD00802142040C01402DE9F04742
:102B6000814617480024016821F0F00101600168E6
:102B700041F080010160134E254627464FF00108C1
:102B8000C6F8A071022001F043FBC6F8A0816006E0
:102B9000040ED6F8240108B1641CE4B2022001F04E
:102BA00037FB6D1CEDB2082DEAD3B9F1000F02D04E
:102BB000FFF794FF01E0FFF7B1FF2046BDE8F08783
:102BC000040C0140008021422DE9F04106461448E2
:102BD000016821F0F0010160016841F030010160FD
:102BE000104C0027C4F8A0713D464FF00108F009D1
:102BF000C4F8A4017006060E012001F009FBC4F818
:102C0000A081012001F004FBC4F8A071012001F0B3
:102C1000FFFA6D1CEDB2082DE9D3BDE8F08100008C
:102C2000040C01400080214270B51148016821F078
:102C3000F0010160016841F0300101600D4C01209C
:102C4000C4F8A401D4F8241149B1C4F8A00101F0DA
:102C5000DFFA0025C4F8A451D4F8240108B10020FB
:102C600070BD012001F0D4FAC4F8A051012070BD5C
:102C7000040C0140008021420D4810B5016821F08C
:102C8000F0010160016841F030010160094C002051
:102C9000C4F8A001C4F8A401012004F5D07401F027
:102CA000B7FA012020606060BDE8104001F0B0BAC2
:102CB000040C01400080214270B5134800240168D3
:102CC00021F0F0010160016841F0800101600F4DC9
:102CD0000126C5F8A461304601F09AFAC5F8A06152
:102CE00007E0641CE4B2322C03D9FFF7C5FF0020D3
:102CF00070BD012001F08CFAD5F824010028F0D134
:102D0000C5F8A001012070BD040C014000802142E3
:102D100010B51446FFF7C3FE2070012010BDF8B5B2
:102D200015461C460E4607466A46FFF7F1FF01208E
:102D30009DF80010A8400CB1084301E021EA000012
:102D4000C2B28DF800203146384600F02BF8F8BDAD
:102D50002DE9F84314461D460F4680466A46089EF4
:102D6000FFF7D6FF00281BD0611CFF20C4F108022A
:102D700000FA01F12A44521ED0400143C5F1080077
:102D80008640F2B2C4F10700C2409DF8000008403E
:102D900010438DF80000C2B23946404600F002F8F8
:102DA000BDE8F88307B502AB012200F001F80EBDC3
:102DB0002DE9F0411E461546884607460024FFF7D8
:102DC00033FF3846FFF700FFFFF776FF4046FFF777
:102DD000FBFEFFF771FF06E0305DFFF7F5FEFFF742
:102DE0006BFF641CE4B2AC42F6D3FFF745FF012051
:102DF000BDE8F0812DE9F34F524D8DB00846A9682A
:102E00004F4E089104F068F82968009103F08EFF96
:102E1000696803F0F9FD05F15C04069067683046C7
:102E2000394604F059F8D4F80890494604F054F8AB
:102E300045490860E268904682F00046434A4E6089
:102E4000C1E90262009903F071FF216803F0DCFD23
:102E500083463046009903F069FF0646394603F081
:102E6000D3FD82463046494603F0CEFD81463748C1
:102E7000009903F05BFF414603F0C6FD80460699CA
:102E80000D9804F029F8039059464FF07E5003F056
:102E90004DFF064649464FF07E5003F047FF049031
:102EA00031464FF07E5003F041FF4FF07C5103F06C
:102EB000ABFD07460146304603F00EFE0190394651
:102EC000049803F009FE009051464FF07E5003F045
:102ED0002DFF07463146019803F028FF594603F0BD
:102EE000F1FF20603946019803F020FF514603F0BE
:102EF000E9FF60603146009803F018FF494603F08F
:102F0000E1FFA0603946009803F010FF414603F04E
:102F1000D9FFE0600399019803F008FF069903F0D8
:102F200073FD686004460399009803F0FFFE08995A
:102F300003F06AFDA8600FB02046BDE8F08F0000E6
:102F40006F12833A3000002030060020A69B443BDD
:102F50002DE9F34F524D8DB00846696B4F4E0891E5
:102F600003F0BAFF2968009103F0E0FE296B03F03B
:102F70004BFD05F16C04069067683046394603F056
:102F8000ABFFD4F80890494603F0A6FF4549086016
:102F9000E268904682F00046434A4E60C1E9026210
:102FA000009903F0C3FE216803F02EFD83463046EE
:102FB000009903F0BBFE0646394603F025FD824624
:102FC0003046494603F020FD81463748009903F01A
:102FD000ADFE414603F018FD804606990D9803F0BA
:102FE0007BFF039059464FF07E5003F09FFE06464C
:102FF00049464FF07E5003F099FE049031464FF061
:103000007E5003F093FE4FF07C5103F0FDFC074629
:103010000146304603F060FD01903946049803F004
:103020005BFD009051464FF07E5003F07FFE074657
:103030003146019803F07AFE594603F043FF2060C1
:103040003946019803F072FE514603F03BFF606081
:103050003146009803F06AFE494603F033FFA06052
:103060003946009803F062FE414603F02BFFE06012
:103070000399019803F05AFE069903F0C5FC2863F2
:1030800004460399009803F051FE089903F0BCFC34
:1030900068630FB02046BDE8F08F00006F12833ADE
:1030A0003000002040060020A69B443B10B50220C3
:1030B00000F011F8032000F020F8002000F014F8D0
:1030C000002000F02FF8002000F026F8BDE81040A6
:1030D000002000F01BB808B50323009002226B21EA
:1030E000D020FFF735FE08BD08B50223009004226A
:1030F0001C21D020FFF72CFE08BD08B5022300904C
:1031000004221B21D020FFF723FE08BD0346012225
:103110003721D020FFF703BE034605226A21D020C5
:10312000FFF7FDBD034606226B21D020FFF7F7BD58
:103130002DE9F04385B000242548009401940294C1
:103140000394816941F020018161816901F02001CE
:103150000491816941F004018161816901F00401F8
:103160000491816941F0080181618069DFF8648020
:1031700000F00800049000221C214046FEF732FEB9
:10318000DFF854904FF44077002239464846FEF766
:1031900029FE1C2001250226CDE90005CDE90246C5
:1031A00069464046FEF72EFD280300900B48CDE906
:1031B000010469464046FEF725FD00970396CDE9D8
:1031C000015469464846FEF71DFD05B0BDE8F08391
:1031D0000010024000080140000C014000001110E6
:1031E000114810B50F4901604FF4827141604FF4EE
:1031F0000041816000210222C0E9031201224261E4
:10320000520282610822C0E90721416281620A21DB
:10321000C162FFF7F7F8002803D0BDE81040FEF7C1
:1032200008BB10BD00300140100100200C4810B553
:103230000A4901604FF4E1314160002181600C22B4
:10324000C160C0E904128161C161FFF763FB00281E
:1032500003D0BDE81040FEF7ECBA10BD00380140C5
:1032600068010020FEE7FEE730B40021084B0A4663
:103270005FF0000003EBC004401CC0B26254802821
:10328000F8D3491CC9B20829F2D330BC00F088B881
:10329000B001002010B5414C002208212046FEF765
:1032A000A1FDC820FEF79CFC012208212046FEF764
:1032B00099FD0021AE2000F099F80021084600F0A9
:1032C00095F80021102000F091F80021402000F036
:1032D0008DF80021812000F089F80021CF2000F036
:1032E00085F80021A12000F081F80021C82000F01D
:1032F0007DF80021A62000F079F80021A82000F038
:1033000075F800213F2000F071F80021D32000F073
:103310006DF80021084600F069F80021D52000F082
:1033200065F80021802000F061F80021D92000F02C
:103330005DF80021F12000F059F80021DA2000F0BA
:1033400055F80021122000F051F80021DB2000F098
:103350004DF80021402000F049F80021202000F025
:1033600045F80021022000F041F800218D2000F0F6
:103370003DF80021142000F039F80021A42000F0CD
:1033800035F80021A62000F031F8FFF76DFF00218D
:10339000BDE81040AF2000F029B80000000801404F
:1033A00070B5114E002400BF04F1B000C0B200217E
:1033B00000F01CF80021084600F018F80021102049
:1033C00000F014F85FF0000506EBC5000121005D78
:1033D00000F00CF86D1CEDB2802DF5D3641CE4B246
:1033E000082CE1D370BD0000B001002013B50F4CD4
:1033F00009B1012200E0002204212046FEF7F2FC80
:10340000002210212046FEF7EDFC642301226946CC
:103410000748FFF77FF8012210212046FEF7E2FC63
:10342000012204212046FEF7DDFC1CBD00080140FE
:1034300010010020704700002DE9F04F89B0684C62
:1034400007A8CDE9004004F1260106AB02AA881FB7
:1034500001F048F82088C0057ED5029803F03AFCB8
:103460006FF01D06314603F00EFE80466060039843
:1034700003F030FC314603F006FE0746A0600498D6
:1034800003F028FC314603F0FEFD0546E060059898
:1034900003F020FC314603F0F6FD064620610121D1
:1034A000404603F0F0FD294603F040FC05464FF08E
:1034B00040484146384603F039FC314603F036FCBB
:1034C000294603F0A1FA03F073FA00F061FBDFF87C
:1034D00014A14FF066394A46534602F08FFF02F0BE
:1034E0000BFD6061E0680121054603F0CCFD8346D9
:1034F000294603F01BFC0546A0684146064603F03A
:1035000015FC314603F012FC294603F0E5FC4FF0B0
:103510007E5103F079FA03F04BFA07460D4601217C
:10352000606803F0B0FD314603F000FC06465846E3
:10353000216903F0FBFB314603F066FA03F038FA29
:103540003A462B4600F06CFD4A46534602F056FFC1
:1035500002F0D2FCA06100E03FE021690191084641
:1035600003F0E4FBE16807460846009103F0DEFB48
:10357000A16806468B46584603F0D8FB61680546AD
:103580008846404603F0D2FB294603F03DFA314617
:1035900003F0A2FC394603F09FFC03F009FA06464B
:1035A0000D464046019903F0C1FB07465846009975
:1035B00003F0BCFB394603F027FA012103F063FD59
:1035C00003F0F6F932462B4600F02AFD4A465346F0
:1035D00002F014FF02F090FCE06109B0BDE8F08F4A
:1035E000D800002066A64C4010B54221D020FFF73D
:1035F00056FA04464121D020FFF751FA04EB00208F
:1036000003F080FBB0F18E4F03DD4FF08F4103F0EC
:1036100063FC064903F060FA03F0CAF9044A054B5B
:1036200002F09CFCBDE8104002F066BC0000AA431A
:10363000A4703D0AD7434240F8B515460E460B46E6
:10364000009204460122022100F010F840B93346EE
:10365000002280212046009500F008F8002804D0C0
:10366000606D40F0200060650320F8BD2DE9F8434F
:103670001E46914688460446089DFEF7B9FB401B4E
:10368000351AFEF7B5FB074625480068C0F3CB3076
:10369000684338E0701C37D0FEF7AAFBC01BA84275
:1036A00003D215B1009860B32CE02068416821F086
:1036B000E00141606068B0F5827F0BD1A068B0F591
:1036C000004F02D0B0F5806F04D12068016821F06E
:1036D00040010160A06AB0F5005F09D1206801686F
:1036E00021F4005101602068016841F4005101603B
:1036F000012084F85100002084F850000320BDE828
:10370000F8830025401E00902068816838EA010097
:1037100004D000214945BDD10020F0E70121F9E79F
:10372000280000207047FEF769BB30B58FB0282114
:103730006846FCF780FE14210AA8FCF77CFE0121F4
:103740000804CDE900100024029402250491CDE97B
:1037500007504FF4E01009906846FEF7C3FC08B12B
:1037600072B6FEE70F20CDE90A054FF48060CDE97F
:103770000C4002210AA80E94FEF7D8FB002801D0C5
:1037800072B6FEE70FB030BD704710B5406A002139
:10379000C185C184FEF786FF10BD01680C3151E878
:1037A000002F22F4907241E80023002BF5D101682C
:1037B000143151E8002F22F0010241E80023002BD0
:1037C000F5D1016B012909D101680C3151E8002FB5
:1037D00022F0100241E80023002BF5D1202180F8CF
:1037E000421000210163704708B590F84210222969
:1037F00001D0022008BD82684FF480539A4201D163
:10380000016921B1816A9A421BD04AB10AE002687B
:10381000816A5268C2F308020A80816A891C08E042
:10382000026972B10268526802F07F020A70816A0E
:10383000491C8162C18D491E0904090CC18503D050
:103840001BE002685268F1E70168CA6822F02002B2
:10385000CA600168CA6822F48072CA6001684A6955
:1038600022F001024A61202180F8421000214163C8
:10387000026B012A03D0FFF7BFF8002008BD0163E7
:1038800001680C3151E8002F22F0100241E80023BA
:10389000002BF5D101680A68D20602D50A6849688A
:1038A0000091818DFEF7FDFEE7E7000070B504464C
:1038B00000680169E26821F4405111430161216906
:1038C000A0680843616908432168CA6841F20C6333
:1038D0009A430243CA6020684169A26921F4407199
:1038E000114341611E492068884202D1FEF7C4FBA2
:1038F00001E0FEF7B1FB00EBC00101EB00126068D4
:1039000064218000B2FBF0F3B3FBF1F36FF0180613
:103910007343B2FBF0F5B2FBF0F605EB83053223FF
:1039200003EB0515B5FBF1F5B6FBF1F605F0F00577
:1039300005EB0615B2FBF0F6B2FBF0F0B0FBF1F0D0
:103940006FF01802504306EB800003EB0010B0FB51
:10395000F1F0216800F00F002844886070BD00007D
:10396000003801402DE9F843984617460D460446B5
:10397000089E24E0701C22D0FEF73AFAA0EB080063
:10398000B0421AD8CEB12068C168490717D5802D3A
:1039900015D0402D13D00168C94309070FD4016821
:1039A0000025406800902046FFF7F7FE082060647D
:1039B00084F840500120BDE8F8830320FBE720682D
:1039C000006835EA000004D00020B842D2D00020C0
:1039D000F1E70120F9E700000148FEF765BE0000AD
:1039E00068010020FEE7490050EAC12018BF04200A
:1039F0004A0D18BF40F0010040F2FF72B2EB515F78
:103A000008BF40F00200012808BF052070470907E1
:103A1000090E002804DB00F1E02080F80014704754
:103A200000F00F0000F1E02080F8141D70472DE930
:103A3000F0414F1E00EBC7010446D1E900011546D5
:103A40001E4637F006020DD02A46334602F0D6FC59
:103A50007F1E04EBC703D3E9002302F07FFA37F09F
:103A60000602F1D1022F25D0042F13D0062F18BF44
:103A7000BDE8F0812A46334602F0C0FCD4E90A23AF
:103A800002F06CFA2A46334602F0B8FCD4E9082367
:103A900002F064FA2A46334602F0B0FCD4E9062369
:103AA00002F05CFA2A46334602F0A8FCD4E904236B
:103AB00002F054FA2A46334602F0A0FCD4E902236D
:103AC00002F04CFA2A46334602F098FCD4E900236F
:103AD000BDE8F04102F042BA012203F0A6BA02F0BA
:103AE0003DBA002213461046114602F0F3BA000018
:103AF000024A0020110703F098BA000001FDFFFF01
:103B000030380A2801D201207047002070477047E2
:103B10002DE9FE4F07460E460025684601F048F89D
:103B200000246FF00F0AE8464FF0010957F824000F
:103B300056F82410401A00D5404203F0CBF8514605
:103B400003F0A1FA58F8241011F0FF4F0BD002F047
:103B5000C3FF4FF07E5103F0BFF90A4920F0004047
:103B6000884205DC07E0084908440849884202D336
:103B700009FA04F00543641C032CD7DB2846BDE892
:103B8000FE8F0000295C0F3E666666C19A99D900D7
:103B90002DE9F04D8D4F21F0004A86B005460C46C8
:103BA000BA452ADBAAEB070028430AD08848824599
:103BB00001DC1AD1CDB106B02846BDE8F04DFFF7C3
:103BC0008BBF844A844B284602F018FC07460E46F9
:103BD000824A834B2846214602F010FC06B03A4642
:103BE0003346BDE8F04D02F0B9B90120FCF7C9FC3D
:103BF00006B0BDE8F04DFFF774BF7A48824542DA5F
:103C0000BAF1795F0BDA2846FFF7EDFE042808BF0A
:103C1000FFF76EFF284606B02146BDE8F08D2A4624
:103C20000B46104602F0EAFB834602466E480E46FB
:103C30000B4606217844FFF7FAFE5A46334602F057
:103C4000DDFB804669488A465A463346042178445B
:103C5000FFF7EDFE5A46334602F0D0FB00223B460A
:103C600002F07CF902460B464046514602F032FA19
:103C70002A46234602F0C2FB06B02A462346BDE888
:103C8000F04D02F06BB9284624F0004100223D4679
:103C90003B4602F0B1FC4FF0FF3203F0C6F9064696
:103CA000024653480F460B4606217844FFF7BFFEF5
:103CB00032463B4602F0A2FBCDE900014D483246B8
:103CC0003B4604217844FFF7B2FE32463B4602F001
:103CD00095FB00222B4602F041F9834602913046C3
:103CE000394602F0CDF8804643480D46504517DC72
:103CF000DDE900015A46029B02F0ECF942462B46F0
:103D000002F07CFB42462B4602F028F9012203F028
:103D10008CF9304A304B02F061FD304A304B4CE0B8
:103D20004FF0000A52460B46404602F017F9CDE923
:103D3000031052462B461046194602F05FFB3246EE
:103D40003B4602F059FCDDE9033202F0C3F90646B6
:103D50000F46DDE900015A46029B02F0BBF983469B
:103D6000009101223046394603F05FF9194A1A4B97
:103D700002F042FC06460F4601224046294603F067
:103D800054F95A46009B02F039FB32463B4602F09A
:103D900025FD06460F4601225046294603F045F907
:103DA0000E4DDFF858802A46434602F025FC324685
:103DB0003B4602F021FC2A46434602F01DFC002C43
:103DC000D8BF81F0004106B0BDE8F08D0000F03FA3
:103DD0000000F07F075C143326A6913C182D445454
:103DE000FB21F93F0000E03F404100005641000048
:103DF000CA400000E04000003333EF3FFB21E93FC1
:103E00002DE9F84F04460D4621F00040009173491A
:103E1000814211DC7249884201DC06D12CB1204676
:103E20002946BDE8F84FFFF757BE6E48002DCCBFBE
:103E30006D496E49BDE8F88F6D49814211DD6D49CC
:103E40008142D8BF4FF0FF366DDD20462946FFF78F
:103E5000CAFD042808BFFFF74BFE20462946BDE8EF
:103E6000F88F6549654F25F00045814233DD64498F
:103E7000814219DD002632464FF080432046294614
:103E800002F06CF880468A4601222046294603F05B
:103E9000CCF800223B4602F0A1FC4246534602F019
:103EA00019F904460D463EE001260022BA463B467B
:103EB0002046294602F052F880460F46002253461B
:103EC0002046294602F08AFC42463B4602F002F9AF
:103ED00004460D4627E04B4981421BDDDFF828A14F
:103EE0000226002253462046294602F087FA002285
:103EF0003B4602F033F880460F46002253462046E8
:103F0000294602F06BFC42463B4602F0E3F80446C9
:103F10000D4608E0032622462B4600203B4902F0CE
:103F2000D9F804460D4622462B461046194602F0A3
:103F300065FA8B46824602460B4602F05FFA074658
:103F40000246334888460B4606217844FFF76FFD4A
:103F500052465B4602F052FA82462E488B463A465B
:103F6000434605217844FFF762FD3A46434602F096
:103F700045FA02460B46002E504659460CDA01F02F
:103F8000EDFF22462B4602F039FA01B022462B46BD
:103F9000BDE8F04F02F030BB01F0E0FF22462B46B7
:103FA00002F02CFA1C4A7A4402EBC603D3E9002340
:103FB00002F014FC22462B4602F010FC174A7A4409
:103FC00002EBC603D3E9002302F016FB009A002A95
:103FD000B8BF81F00041BDE8F88F00000000104438
:103FE0000000F07F182D4454FB21F93FFB21F9BF5D
:103FF0000000DC3F0000203E0000F33F0000F03FE7
:104000000000E63F008003400000F83F0000F0BFE2
:10401000E23E0000A03E00003E3E0000063E0000E2
:104020002DE9F04D9446CCF1000423F000464CEA13
:104030000404594F46EAD4749A46884621F0004257
:10404000BC4206D8454240EA050442EAD474BC4268
:1040500004D9BDE8F04D6246FFF741BDAAF14055D5
:10406000A5F17F6555EA0C040BD0022404EAAA747A
:104070004A4DDFF82CE144EAD87452EA000B04D030
:104080000CE0BDE8F04DFFF7BBBE002C14BF012CC7
:10409000BDE8F08D022C30D0032C32D056EA0C0B48
:1040A0000AD0BE4220D1BA4209D126F0804622F081
:1040B00080423346114617E000291ADB25E0DFF87D
:1040C000E4B0FB44002C04BFDBE90001BDE8F08D47
:1040D000012C02BFDBE9000181F00041BDE8F08D59
:1040E000022C0AD0032C0CD0BA4212D1B8F1000F26
:1040F0000BDA2A482C49BDE8F08D28462B49BDE84B
:10410000F08D28467146BDE8F08D24482849BDE869
:10411000F08D921B12153C2AC4BF204F244E10DC98
:10412000BAF1000FBEBF12F13C0F00273E4608DB7C
:10413000624601F0CFFF21F00041FFF761FE074624
:104140000E4694B1012C08BF86F000460DD0194AE6
:10415000194B022C3846314615D002F03FFB2A4657
:10416000BDE8F04D114B02F039BB00221346384632
:10417000314602F007F904BF0220FCF702FA384684
:104180003146BDE8F08D02F029FB2A46BDE8F04D2E
:10419000064B02F031BA00000000F07F182D4454A5
:1041A000FB2109C09A3D0000FB21F9BFFB2109401A
:1041B000FB21F93F075C143326A6A13C4FF0E02019
:1041C000016921F00401016103480921017042F2F3
:1041D00028314180704700002C0000200B4949889D
:1041E00048434FF0E021486100228A61086940F0AD
:1041F000010008610869C30701D0C003FAD5086946
:1042000020F0010008618A61704700002C00002046
:104210000B49097848434FF0E021486100228A6148
:10422000086940F0010008610869C30701D0C003B4
:10423000FAD5086920F0010008618A617047000022
:104240002C00002008B560B120208DF80000282047
:104250008DF8010030208DF8020038208DF8030021
:1042600004E0A32204216846FCF7DDF86A46042135
:1042700040F69E2001F070FD01F036FA08BD000006
:104280003EB5044602208DF80000CA208DF80100DA
:10429000E3208DF8020009208DF803006A4604210E
:1042A000682001F059FDA3208DF80000610609D5B2
:1042B000C0218DF80110C8218DF80210C2218DF89F
:1042C000031005E08DF801008DF802008DF8030061
:1042D00014F4C07F09D0C4218DF80410CC218DF8CE
:1042E0000510C6218DF8061005E08DF804008DF844
:1042F00005008DF806008DF808008DF807008DF890
:1043000009006A460A2140F6A72001F025FDA00712
:104310004FF0D80503D020208DF8000001E08DF883
:1043200000506A46012140F6B62001F015FDA006B6
:1043300001D5012000E0002000F08EF814F4C07FC9
:104340001ED0E0050AD5B2208DF800008B208DF834
:104350000100B6208DF802009B2009E0B0208DF806
:10436000000080208DF80100B4208DF8020090201C
:104370008DF803006A46042140F6A22001F0ECFC0F
:10438000E1074FF40B6022D0F8218DF800106A4647
:10439000012101F0E1FCFA21072000F049FB072090
:1043A00000F014FB012000F031FB642000F0D4FB8E
:1043B0004FF4FA7000F0E0FBC821254800F0CEFA77
:1043C000282000F0E3FA0A2000F0F0FA05E08DF86A
:1043D00000506A46012101F0BFFCA00703D5D92097
:1043E0008DF8000001E08DF800506A46012140F28E
:1043F0003D7001F0B1FC600701D5012000E0002014
:1044000000F048F8E00601D5012000E00020FFF7A9
:1044100019FF104D44F00800688101F065F9002093
:10442000A873600601D50620A87314F4C07F02D0DB
:10443000A87B801DA87314F0140F02D0A87B103045
:10444000A873A00702D0A87B001DA87300203EBD62
:1044500009E3CA02500600200EB54FF4976310B16D
:1044600006A107C901E008A207CA8DE807006A464D
:104470000921184601F070FC0EBD0000B8AAB38DEA
:10448000B4980D355D000000B8AAAAAAB088C3C5CB
:10449000C700000008B560B1C0208DF80000C22040
:1044A0008DF80100C4208DF80200C6208DF80300AD
:1044B00004E08B2204216846FBF7B5FF6A4604211D
:1044C00040F6982001F048FC01F00EF908BD00000C
:1044D000C8234FF48062024940F6F63000F0E6BF90
:1044E0007C7100082DE9FF4F89B01746DDE91652AF
:1044F0000024544E884681462C80A246B07B6946F3
:1045000001F080F84FF0FF3B18B158460DB0BDE800
:10451000F08F708910F0140F4CD0BDF800109DF88A
:10452000022049BA090441EA02239DF803100B4313
:104530003B60BDF804109DF8062049BA090441EA21
:1045400002229DF807101B140A437A60BDF8081078
:104550009DF80A4049BA090441EA04219DF80B403C
:1045600012142143B960BDF80C409DF80EC064BA26
:10457000240444EA0C2C9DF80F4009144CEA040C66
:10458000C7F80CC04FEA2C475B43494302FB023299
:1045900007FB071111441024A1F17061B1F1007FF4
:1045A00004D901F0A1F8A5F800A0AEE7298841F4EC
:1045B000807129804206694611D50A19A41D138805
:1045C0005BBAA8F8003053885BBAA8F8023092882A
:1045D00052BAA8F804202A8842F008022A8010F46F
:1045E000C07F11D00A19A41D13885BBAA9F8003046
:1045F00053885BBAA9F80230928852BAA9F804200D
:104600002A8842F070022A80800716D00C44E07895
:1046100000F0C00500F03F016078C00706D0C80870
:1046200001F007013268491C02B190476078000729
:1046300003D5716809B1A80988470C9801F0B6FB49
:10464000002063E7500600202DE9FF41044603A83F
:1046500000F0E2FDBDF80C00410CC3032F480089B7
:1046600000F0030254F82250420700D56D42C0F317
:10467000C102860654F8222000D55242C0F38116AA
:10468000C00554F8264000D56442A5FB0367E8172F
:1046900000FB037005FB0100850045EA9670A2FB54
:1046A0000367D51705FB037502FB0152950045EA28
:1046B0009672A4FB0367E51705FB037304FB013146
:1046C0008B0043EA9671030E8DF80030030C8DF8D1
:1046D0000130030A8DF802308DF80300100E8DF8BA
:1046E0000400100C8DF80500100A8DF80600080E65
:1046F0008DF80800080C8DF80900080A8DF80A00EA
:104700008DF807208DF80B106A460C214FF42570A8
:1047100001F022FB04B0BDE8F0810000500600204B
:1047200030B5044613A285B007CA8DE807004FF0E4
:10473000FF35C82C16D8C820B0FBF4F1491E080A72
:104740008DF80C008DF80D1003AA022140F21620FE
:1047500001F002FB30B96A460C2140F6C12001F09D
:10476000FBFA10B1284605B030BD05488481002011
:10477000F9E70000FEF2ABC4AAF1DFDFBBAFDFDF79
:1047800050060020F8B53049098901F0030250F8BD
:1047900022404A0700D56442C1F3C1028B0650F89B
:1047A000222000D55242C1F3811350F82330C805AE
:1047B00000D55B42254984FB0140850045EA9470A1
:1047C00082FB0142A40F44EA820483FB0121950F7E
:1047D00045EA8105010E8DF80010010C8DF80110DD
:1047E000010A8DF802108DF803006A4604214FF487
:1047F000747001F0B1FA4FF0FF3688B9200E8DF8D1
:104800000000200C8DF80100200A8DF802008DF8C0
:1048100003406A4604214FF4757001F09DFA08B117
:104820003046F8BD280E8DF80000280C8DF80100E8
:10483000280A8DF802008DF803506A4604214FF4CF
:10484000767001F089FAF8BD5006002009E3CA022B
:104850002DE9FF4104463CA004F0030300680290E8
:104860003AA0006803903AA006683AA0056802A83A
:10487000C15C8DF80010C4F3C101425C8DF80120C9
:10488000C4F38112805C8DF8020003A8C35C8DF82C
:104890000430415C8DF80510805C8DF806006A4696
:1048A000032140F2264001F057FA4FF0FF37E0BBFA
:1048B00001AA032140F22A4001F04EFAA8BBCDE93B
:1048C000006560070BD59DF8000040F001008DF8F1
:1048D00000009DF8040040F001008DF80400A006DF
:1048E0000BD59DF8010040F001008DF801009DF806
:1048F000050040F001008DF80500E0050BD59DF89E
:10490000020040F001008DF802009DF8060040F022
:1049100001008DF806006A4603214FF4886001F01B
:104920001BFA10B901AA032100E004E040F2314073
:1049300001F012FA18B1384604B0BDE8F08106481B
:1049400004810020F8E700004CCD6C000CC92C005D
:104950003656760026466600500600204FF47A72DE
:1049600090FBF2F008B54843010E8DF80010010CE1
:104970008DF80110010A8DF802108DF803006A46C7
:1049800004214FF4AE7001F0E7F908BD0521B0FB3A
:10499000F1F008B5010A8DF800108DF801006A46A3
:1049A00002214FF4AD7001F0D7F908BD0521B0FB2D
:1049B000F1F008B5010A8DF800108DF801006A4683
:1049C00002214FF4AC7001F0C7F908BD08B5002111
:1049D0008DF80010C10702D030218DF8001081073A
:1049E00005D59DF8001041F00C018DF8001040072E
:1049F00005D59DF8000040F003008DF800006A46E0
:104A000001214FF4A47001F0A7F908BD08B560B109
:104A1000042800D90420401E8DF800006A460121B8
:104A200040F24F1001F098F908BD0120F3E70000B3
:104A30002DE9FC41054640074FF0FF367CD0B1F52B
:104A4000C86F79D8084602F05DF93E4902F044F893
:104A5000074601A800F0C2FB9DF80400022806D01A
:104A600004280DD008282ED0102865D134E00E215E
:104A7000384602F008FB02F00DF984B2324907E033
:104A80000D21384602F0FFFA02F004F92F4984B2F2
:104A9000384602F04BF902F0FDF8210A8DF80010BB
:104AA00080B28DF80140010A8DF802108DF80300E4
:104AB000E8076C4620D0224602214FF4EA7001F04C
:104AC0004BF9C8BB11E00C21384602F0DCFA02F0C9
:104AD000E1F884B21E49DBE70B21384602F0D3FA35
:104AE00002F0D8F884B21B49D2E7A21C02214FF48D
:104AF000927001F031F9F8B9A8070DD56A46022184
:104B00004FF4EC7001F028F9B0B9A21C02214FF467
:104B1000947001F021F978B9680710D56A4602212E
:104B20004FF4EE7001F018F930B9A21C02214FF4D5
:104B3000967001F011F910B13046BDE8FC810020FB
:104B4000FBE7000000004843000040460000C0456D
:104B5000000040450000C0440521B0FBF1F008B55D
:104B6000010A8DF800108DF801006A4602214FF409
:104B7000EF7001F0F1F808BD0521B0FBF1F008B5C8
:104B8000010A8DF800108DF801006A4602214FF4E9
:104B9000ED7001F0E1F808BD13B54FF6FF73012287
:104BA00069460248FDF729FF00981CBD68010020F6
:104BB0002DE9FE430646264801AB042240680D213C
:104BC000007800F03FFA10B10720BDE8FE839DF8A1
:104BD00004101C2000EAD1029DF80710DFF8749041
:104BE000C1F301131A438DF800209DF80520C1F38D
:104BF000810300EAD2021A438DF801209DF80620B5
:104C000001F0030100EAD20008430024124F8DF89E
:104C10000200A0466D46285D10B146F824900AE0D7
:104C200046F824800DE000BF56F82400394602F013
:104C30007DF846F82400285D401E10F0FF0028553E
:104C4000F2D1641CE4B2032CE5D30020BDE70000E0
:104C5000AC0000207B14AE3E1D5A843F2DE9FE4F70
:104C600005460120C14E8DF800004FF000088DF878
:104C7000018030680C461746817C70686B460222C2
:104C8000007800F017FA4FF0FF3A00287AD1C820D8
:104C9000FFF7A4FA8DF8008030686B460122C17BD3
:104CA0007068007800F006FA0028EFD130686B4693
:104CB000012241797068007800F0FCF90028E5D104
:104CC00030686B460122817C7068007800F0F2F950
:104CD0000028DBD130686B460122C17D7068007806
:104CE00000F0E8F90028D1D130686B460122017943
:104CF0007068007800F0DEF90028C7D14FF00C0989
:104D00008DF8009030686B46012201797068007858
:104D100000F0D0F9002835D10F20FFF75FFAB06A14
:104D20006B460122407A8DF8000030688178706807
:104D3000007800F0BFF9002824D1B06A6B46012248
:104D4000007A8DF80000306841787068007800F0D3
:104D5000B1F9002873D1B06A807A0FB140F0E00059
:104D60008DF8000030686B46012281797068007808
:104D700000F0A0F9002862D12FB1B06AC07A40F0EB
:104D8000E00001E04AE018208DF8000030686B4632
:104D90000122C1797068007800F08CF9F0BB17B17E
:104DA000C820FFF71BFA40208DF8000030686B46E2
:104DB000012201797068007800F07CF970BB7820DE
:104DC0008DF8000030686B460122417970680078E8
:104DD00000F070F910BB3220FFF700FA8DF8008068
:104DE000306847466B46417970680122007800F0D0
:104DF00061F998B931687068B046897A00786B4675
:104E0000022200F01FF948B9BDF80000AF6040BAB7
:104E1000B0FBF9F06F60C6B22F6000E00FE0A76052
:104E200067602760002739E0D8F80010D8F8040040
:104E30006B46C97A00780C2200F004F910B1504694
:104E4000BDE8FE8FBDF80000236840BA00B2BDF88F
:104E50000210BDF804201844206049BA606809B205
:104E60000844606052BAA06812B21044A060BDF855
:104E700006002B6840BA01B2BDF80800BDF80A2050
:104E80001944296040BA696800B20844686052BA9F
:104E9000A86812B210447F1CFFB2A860B742C3D307
:104EA00028688322C117090441EA10410004002345
:104EB000FBF79AF932460023FBF796F928606868F9
:104EC0008322C117090441EA104100040023FBF7C3
:104ED0008BF932460023FBF787F96860A8688322C4
:104EE000C117090441EA104100040023FBF77CF9D3
:104EF00032460023FBF778F9A86020684FF400657C
:104F0000C117090441EA104100042A460023FBF7B7
:104F10006BF932460023FBF767F9206060682A4688
:104F2000C117090441EA104100040023FBF75CF9B2
:104F300032460023FBF758F96060A0682A46C11783
:104F4000090441EA104100040023FBF74DF9324601
:104F50000023FBF749F9A060002802DDA0F58030AE
:104F600001E000F58030A060002069E7AC0000207F
:104F70002DE9F84F81462E488846002540686B464B
:104F8000032200780D2100F05DF810B10720BDE884
:104F9000F88F9DF80000002400F01F008DF800003D
:104FA0009DF801006FF00F0B00F01F008DF801005D
:104FB0009DF802006E4600F01F008DF802004FF0D1
:104FC000010A00BF59F8241058F82400081A00D527
:104FD000404201F07FFE594602F055F80746305D29
:104FE000C0B1144802E0144901F0A0FE315D491E31
:104FF00011F0FF013155F6D10146384601F06CFD44
:105000004FF07E5101F068FF0C4920F000408842CB
:1050100005DC07E00A483844B0F1D97F02D90AFA22
:1050200004F00543641C032CCCDB2846AFE70000EA
:10503000AC0000200000C84154E3853F295C0F3ECE
:105040000000E0BE2DE9F0411D4614460F4606461D
:10505000FDF7EAFDB0B17006000EFDF7B5FDFDF7F6
:105060002BFE90B13846FDF7AFFDFDF725FEFDF7AD
:10507000DBFD012000EB4600C0B2FDF7A5FDFDF70A
:105080001BFE0FE00120BDE8F081FDF7F5FDF9E71B
:10509000012C0DD05FF00100FDF760FD641E05F8E6
:1050A000010BE4B2002CF3D1FDF7E6FD0020EAE7A6
:1050B0000020F1E72DE9F0411E4615460F46044653
:1050C000FDF7B2FD68B16006000EFDF77DFDFDF74E
:1050D000F3FD48B13846FDF777FDFDF7EDFD0024FF
:1050E0000CE00120BDE8F081FDF7C6FDF9E7305D79
:1050F000FDF76AFDFDF7E0FD10B1641CAC42F6DB84
:10510000FDF7BAFD0020EDE790F90010002902DD5F
:105110004FF00000704702DA4FF00400704790F93A
:105120000110002902DD4FF00100704702DA4FF054
:105130000500704790F90200002802DD4FF00200E0
:10514000704702DA4FF0060070474FF007007047D3
:10515000FCF75CFEFEF7E9FAFDF7EAFFFEF740F820
:10516000FEF764F8FEF796F8FEF77EF8FFF726F8EC
:10517000FDF79CFFFCF744FA024C2078FCF75CFB3F
:10518000FBE70000000000202DE9F041124C20F068
:105190000101002594F8240010B10020BDE8F08141
:1051A000A07A4FF0FF3668B10840277C207488420F
:1051B00000D0354641B1012000F036FE00F094FAEF
:1051C00038B127743046E9E7207D00B1012000F0B6
:1051D0002BFE2846E2E70000AC0000200D494A7A89
:1051E00042B1012A08D0022A0FD0032A0FD04FF073
:1051F000FF307047022200E004220270C97C11B126
:105200001106C90D0170002070470822F5E7102231
:10521000F3E70000AC0000200F494A7A42B1012AAE
:1052200009D0022A11D0032A12D04FF0FF30704764
:105230004FF4804201E041F69C720280C97C11B1BA
:10524000C2F34E010180002070474FF48052F4E712
:105250004FF40062F1E70000AC0000200B49097A2E
:1052600039B1012907D002290AD003290BD0002126
:1052700003E0FA2101E04FF4FA7101800020704749
:105280004FF47A71F9E74FF4FA61F6E7AC000020C9
:105290000A49097A41B1012908D002290AD0032913
:1052A0000AD04FF0FF307047054900E00549016022
:1052B000002070470449FAE70449F8E7AC000020F1
:1052C00000000343000083423333034233338341FE
:1052D0000C49C97A072913D2DFE801F01204060A43
:1052E0000C0E1000BC2100E06221018000207047FC
:1052F0002A21FAE71421F8E70A21F6E70521F4E765
:105300000021F2E7AC000020054991F8242012B1F9
:105310004FF0FF307047C9890180002070470000BE
:10532000AC0000202DE9FC414C4C80208DF80000A1
:1053300020686B460122817C60680078FFF7BAFE26
:105340004FF0FF37002832D16420FEF747FF0025D9
:105350008DF8005020686B460122817C60680078DF
:10536000FFF7A8FE002870D120686B460622817DD9
:1053700060680078FFF766FE002866D19DF805009A
:105380009DF80310C007400F01F0010140EA410100
:105390009DF801004FF0010600F00100014309D023
:1053A000012905D0022915D02DA0FAF741FF4CE0C4
:1053B000E67410E020686B460122C17860680078CE
:1053C000FFF740FE40BB9DF8000010F00F0020D01A
:1053D000042822D0E574FF2004F80A0F4FF6FF716D
:1053E00004F8020C04F8010C6070A180A071207216
:1053F000A67026766576E572A572E5602561656121
:10540000A576E576A5834FF4FA6000F06BFB18B93A
:1054100007E01D48FAF70CFF17E01CA0FAF708FF99
:10542000C6E7022000F080FA78B92A2000F0C2FB1B
:1054300058B9322000F0F4FB38B90020FFF7A4FE81
:1054400018B9002000F0A4FA10B13846BDE8FC817C
:10545000002000F025FC0020F8E70000AC00002050
:10546000556E737570706F7274656420736F6674B7
:10547000776172652070726F6475637420726576EF
:105480002025642E0A000000FC7E000848616C663E
:105490002073656E736974697669747920706172BE
:1054A0007420666F756E642E0D0A00002DE9FF4FA3
:1054B000DFF89480064685B098F8250015460F461B
:1054C0004FF0FF39B0BBAFB3002420E0301B1028F1
:1054D00000DD102080B283463A19014692462046EC
:1054E00000F03AFC30BB6A465946204600F0D2F83C
:1054F00000BB50465A466946FAF769FF20B16FF083
:10550000010009B0BDE8F08F04EB0B0084B2B44297
:10551000DCD3280A8DF810008DF81150D8F800005F
:10552000444604AB817ED8F8040002220078FFF7DD
:10553000C1FD08B14846E4E7012084F82500089839
:10554000E0840020DDE70000AC0000202DE9F843F6
:1055500005464FF0FF39282844D80727284C002655
:105560007DB1012000F0F4FA20208DF800004FF00A
:105570000108012D17D0052D18D88DF801800520C0
:105580001FE0002000F0E4FA8DF800608DF8017053
:1055900020686B460222817C60680078FFF78AFDF4
:1055A00000BB267529E08DF80160E8E7142D04D8CA
:1055B00002208DF801000A2003E003208DF801008D
:1055C000142000F0F7FA9DF801006B4607EB8010FD
:1055D0008DF8010020680222817C60680078FFF766
:1055E00069FD10B14846BDE8F8830820A072267313
:1055F00084F814800020FFF7C7FD0020F3E70000C7
:10560000AC0000202DE9F843214C0646174694F8DB
:10561000240089464FF0FF3890B3A07A80B3206809
:105620006B460222817A60680078FFF70BFD38BB79
:10563000BDF8000045BAB54202D2002038701FE024
:1056400060684188B5EB510F11D9216800786B462D
:10565000497C0122FFF7F6FC90B99DF80000C006D6
:1056600005D500F041F86FF00100BDE8F88320682F
:10567000F2B24B46C17A60680078FFF7E3FC08B1EC
:105680004046F2E7B5FBF6F0401E38700020ECE72C
:10569000AC000020F8B516000D464FF0FF371FD0C4
:1056A000104CA17AE1B1010A8DF80010C0B28DF85A
:1056B0000100411960684289914211D8216800783F
:1056C0006B46097E0222FFF7F5FC48B92068EAB272
:1056D0003346417D60680078FFF7B4FC002800D0B5
:1056E0003846F8BDAC000020F8B5524C4FF0FF36FC
:1056F000A07A00287CD000258DF8005020686B46E9
:105700000122C17B60680078FFF7D4FC00286FD1CC
:1057100020686B460122417960680078FFF7CAFC77
:10572000002865D120686B46012201796068007805
:10573000FFF7C0FC00287AD194F82400C8B30C20ED
:105740008DF8000020686B460122017960680078BE
:10575000FFF7B0FC00286AD1C0208DF80000A07AC5
:10576000C00702D0E0208DF8000020686B460122BF
:10577000017960680078FFF79DFC002857D1607CB4
:1057800018B102208DF8000001E08DF8005020686B
:105790006B460122C17B60680078FFF78BFC38BB49
:1057A0008DF8005020686B460122417960680078CE
:1057B00039E0FFE704208DF8000020686B460122E5
:1057C000017960680078FFF775FC88B9A07C80B922
:1057D000A07AC0070DD060208DF8000020686B46CD
:1057E0000122017960680078FFF764FC00B902E0EB
:1057F0001DE04020F0E7607C18B101208DF800002A
:1058000001E08DF8005020686B460122C17B606882
:105810000078FFF74FFC50B92068064B0122417910
:10582000606810330078FFF745FC002800D0304650
:10583000F8BD0000AC0000202DE9F047394C82464D
:105840008AB094F824000F4620B1002000F00EF931
:10585000012600E0002607A8FFF700FD06A8FFF7D5
:10586000BDFC09A8FFF734FD08A8FFF74DFD94F82B
:105870000A9094F810800025002239465046FFF720
:10588000EDF910B16D1C022DF6DB022D1AD00025AA
:10589000012203A96846FFF7E1F910B16D1C022D42
:1058A000F6DB022D0ED003A93846FEF731F9C7B258
:1058B00069465046FFF75CFB10F0FF0F4FF0000504
:1058C00002D002E0002503E001250FB945F00205F2
:1058D000FF2020726072E0724FF6FF71E181A072CA
:1058E000207401202073BDF81C0000F0FBF89DF827
:1058F000180000F019F8BDF8240000F05BF9BDF8BD
:10590000200000F08DF9484600F0CAF94046FFF744
:105910003BFC16B1012000F0A9F80AB02846BDE80A
:10592000F0870000AC00002038B5184C4FF0FF3570
:10593000A17A19B3022806D0042806D008280ED070
:1059400010281BD10DE0002000E008208DF8000099
:10595000607A9DF80010B0EBD10F04D005E0102064
:10596000F4E71820F2E7002038BD20686B460122DA
:10597000C17960680078FFF79DFB08B1284638BD03
:105980009DF80000C0086072EDE70000AC00002048
:10599000F8B5354C0546A07CA84201D10020F8BDE1
:1059A00031484FF0FF366B46D0E900104FF001024E
:1059B0000979007835B3FFF745FB70BB9DF800000F
:1059C0006B4620F020008DF800002068012201794C
:1059D00060680078FFF76EFBF8B90320FEF7FEFB66
:1059E00002208DF8000094F8220078B382202BE08A
:1059F00020686B460122017D60680078FFF75AFB42
:105A000058B92EE0FFF71EFB38B9A07AC0079DF801
:105A1000000003D040F0200002E00CE020F0200065
:105A20008DF8000020686B460122017960680078DB
:105A3000FFF740FB08B13046F8BD0320FEF7CEFB70
:105A400094F8220000B180208DF8000094F8230023
:105A50000028CDD09DF8000040F030008DF8000007
:105A6000C6E7A5749AE70000AC00002038B51C4CCE
:105A700094F8241081421DD0002500B394F825002D
:105A8000D0B1002000F0D0F90020FFF781FFE08CBA
:105A900000F0C6F88DF8005060686B46012200786F
:105AA0002321FFF707FB012084F8240000F0BCF954
:105AB000FFF71AFE002038BD4FF0FF3038BD002040
:105AC00000F0B2F9207C8DF8000060686B4601227E
:105AD00000782321FFF7EEFA84F82450E8E700006D
