:020000040800F2
:10000000D00E0020D1010008EB3300082F2B000890
:10001000E933000891060008A53F00080000000031
:10002000000000000000000000000000D9380008B7
:100030001D07000800000000C7350008313900081E
:10004000EB010008EB010008EB010008EB010008E0
:10005000EB010008EB010008EB010008EB010008D0
:10006000EB010008EB010008EB010008EB010008C0
:10007000EB010008EB010008EB010008EB010008B0
:10008000EB010008EB010008EB010008EB010008A0
:10009000EB010008EB010008EB010008EB01000890
:1000A000EB010008EB010008EB010008EB01000880
:1000B000EB010008B1390008BD390008EB01000868
:1000C000EB010008EB010008EB010008EB01000860
:1000D000EB0100088D3F0008EB010008993F000884
:1000E0001F070008EB010008EB01000800F002F810
:1000F00000F05FF80AA090E8000C82448344AAF163
:100100000107DA4501D100F054F8AFF2090EBAE860
:100110000F0013F0010F18BFFB1A43F0010318473B
:10012000B06C0000D06C00000A444FF0000C10F8D6
:10013000013B13F0070408BF10F8014B1D1108BF65
:1001400010F8015B641E05D010F8016B641E01F805
:10015000016BF9D113F0080F1EBF10F8014BAD1C55
:100160000C1B09D16D1E58BF01F801CBFAD505E073
:1001700014F8016B01F8016B6D1EF9D59142D6D3CD
:10018000704700000023002400250026103A28BFF5
:1001900078C1FBD8520728BF30C148BF0B607047F9
:1001A000642900F07D80002070471FB51FBD10B589
:1001B00010BD00F0A7F91146FFF7F7FF04F0F0FCBF
:1001C00000F0C5F903B4FFF7F2FF03BC04F078F8C0
:1001D0000948804709480047FEE7FEE7FEE7FEE7DB
:1001E000FEE7FEE7FEE7FEE7FEE7FEE70448054917
:1001F000054A064B70470000AD390008ED000008C5
:10020000D0080020D00E0020D00A0020D00A002004
:100210000FB41CB5074B06AA7B44694600900598AD
:1002200000F04FF90020694600F05EF91CBC5DF853
:1002300014FB0000CD0200002DE9F0410E460446FB
:10024000002020622046E168884730B3252805D089
:10025000D4E901219047206A401CF2E7E16820467A
:1002600000278847050018D0A5F14100192802D8B9
:1002700020354FF400673246294620462760FFF7B5
:100280008FFF40B1012804D0F61D26F0070608367E
:10029000D8E7361DD6E72846DAE7206ABDE8F081C0
:1002A0002DE9F0410646002410687529314616A54F
:1002B00010D0AFF30080002802DA404213A507E017
:1002C00031688A0701D512A502E0490704D511A5B6
:1002D000012401E0AFF3008000210A2206F1240787
:1002E00009E0B0FBF2FCB0FBF2F302FB1C00303083
:1002F00078541846491C0028F3D123462A46304634
:10030000BDE8F04100F07EB8000000002D000000C4
:100310002B0000002000000010B5431C02E010F884
:10032000011B71B18107FAD14FF0013202C88C1A5A
:100330008C4314EAC211F9D0C01A0A0603D0C01EB9
:1003400010BDC01A10BD0A0401D0801E10BD0902E4
:10035000FCD0401E10BD4FF000020429C0F01280F6
:1003600010F0030C00F01B80CCF1040CBCF1020F68
:1003700018BF00F8012BA8BF20F8022BA1EB0C013D
:1003800000F00DB85FEAC17C24BF00F8012B00F833
:10039000012B48BF00F8012B70474FF0000200B559
:1003A000134694469646203922BFA0E80C50A0E898
:1003B0000C50B1F12001BFF4F7AF090728BFA0E846
:1003C0000C5048BF0CC05DF804EB890028BF40F812
:1003D000042B08BF704748BF20F8022B11F0804F54
:1003E00018BF00F8012B704770477047704710B571
:1003F00000F080F8006810BD10B5044600F07AF8EF
:10040000046010BD2DE9F0470D469946924604461A
:1004100000F124080168880604D5E06921F0100184
:10042000216000E00120A84201DD471B00E0002719
:10043000A1697A1902EB0900081AA0612078C006A8
:1004400002D42046AFF30080002608E0D4E9012161
:100450001AF806009047206A401C761C20624E4520
:10046000F4DB2078C0060AD52046AFF3008006E012
:10047000D4E9012130209047206A401C2062381EB8
:10048000A7F10107F4DC07E0D4E9012118F8050021
:100490009047206A401C2062281EA5F10105F3DC6C
:1004A0002046AFF300802078000602D50220BDE888
:1004B000F0870120FBE7000001694A1C026108780F
:1004C000704700B58FB0CDE9013100210591054994
:1004D0007944CDE9031011466846FFF7ADFE0FB031
:1004E00000BD0000E5FFFFFF0A6802F8010B0A608B
:1004F00070470000004870476C08002000487047B3
:100500006C0800207546FFF7F9FFAE460500694606
:10051000534620F00700854618B020B5FFF766FE69
:10052000BDE820404FF000064FF000074FF00008F4
:100530004FF0000B21F00701AC46ACE8C009ACE875
:10054000C009ACE8C009ACE8C0098D46704710B5D9
:100550000446AFF300802046BDE81040FFF732BEEE
:1005600070B5044600688168C943C90717D181681E
:1005700021F00101816000F013FF05460AE000BF91
:1005800000F00EFF401B022804D920688068C04399
:10059000C00706D020688068C043C007F0D00020A4
:1005A00070BDA06A40F01000A062E06A40F0010057
:1005B000E062012070BD0000F8B5002604460096F8
:1005C00000688168C943C9072DD0816841F00101E5
:1005D0008160164816490068B0FBF1F000E0401E4B
:1005E00000900028FBD100F0DBFE054616E000BFBE
:1005F00000F0D6FE401B022810D920688068C04356
:10060000C0070BD0A06A40F01000A062E06A40F082
:100610000100E06284F824600120F8BD2068806851
:10062000C043C007E4D10020F8BD000064000020F2
:1006300040420F0070B5044610480D46006806F0B1
:10064000AFF8214606F0AEF90D49044685F00040AA
:10065000096806F0D1F80B4905F0C4FF05460B48C0
:100660000949006805F0BEFF214606F0C5F8294695
:1006700006F098F9BDE8704006F076B83400002026
:100680000C0000200000C8420000C8C20800002082
:10069000FEE700002DE9F0410D4C0A4607460B4EDF
:1006A0001046216806F0A8F8E16A05F033FF01461C
:1006B000084806F0A1F805463146384606F09CF891
:1006C000294605F027FFE062BDE8F0810AD7A33C88
:1006D0007C00002048E17A3F2DE9F0410D4C0A46AC
:1006E00007460B4E1046216806F086F8A16D05F00E
:1006F00011FF0146084806F07FF8054631463846A6
:1007000006F07AF8294605F005FFA065BDE8F081FE
:100710000AD7A33C7C00002048E17A3F70474FF4A1
:10072000805000F03BBD72B6FEE7000010B50948EE
:1007300000F0F8FB1E21074800F056FB054800F0CA
:1007400093FA800503D5034800F090FA84B220465E
:1007500010BD0000980100202DE9FC5F044603F065
:100760001DF88E49DFF838828E4F0860012C7DD04D
:100770004421D02002F0DCF904464321D02002F0CD
:10078000D7F904EB002006F023F806464621D020D6
:1007900002F0CEF904464521D02002F0C9F904EB5D
:1007A000002006F015F800904821D02002F0C0F992
:1007B00004464721D02002F0BBF904EB002006F0EC
:1007C00007F805463C21D02002F0B2F904463B214F
:1007D000D02002F0ADF904EB002005F0F9FF8346CC
:1007E0003E21D02002F0A4F904463D21D02002F0A1
:1007F0009FF904EB002005F0EBFF82464021D0205A
:1008000002F096F904463F21D02002F091F904EB62
:10081000002005F0DDFF4FF08E4904464E4505DD12
:100820004FF08F41304606F0BDF806460098484527
:1008300004DD4FF08F4106F0B5F800904D4505DD21
:100840004FF08F41284606F0ADF805465846CB4597
:1008500004DD4FF08F4106F0A5F883465046CA45A7
:1008600006DD4FF08F4106F09DF800E058E082462B
:100870004C4505DD4FF08F41204606F093F80446C5
:1008800086F000412046C8F8001005F017FE8046AB
:100890008946504605F012FE42464B4603F05AFF89
:1008A000DFF804A10022534605F0F8FA3F4A404B16
:1008B00005F0CAF804F0DAFF0190584605F0FEFD95
:1008C00042464B4603F046FF0022534605F0E6FA47
:1008D000364A374B05F0B8F804F0C8FF8246304678
:1008E00005F0ECFDDFF8CC804FF06636324643462B
:1008F00005F0AAF804F0BAFF8146009805F0DEFD85
:100900003246434605F0A0F804F0B0FF06462A48F8
:10091000DFF8A880007802281DD0032827D035E012
:1009200002F052FE2648274C39680160B4F90000F5
:1009300005F036FFC8F80000B4F9040005F030FFF8
:10094000214908602148B0F9040005F029FF204939
:100950000860BDE8FC9F4946019802F023FA80F048
:10096000004038603146504602F0CAFA0AE0494673
:100970000198FFF78FFE80F0004038603146504606
:10098000FFF7AAFE80F00041C8F800100C48396853
:1009900001600D4805600E480460DAE72C00002075
:1009A0003C0000203C01002000806640F1D4C85388
:1009B000FB2109406666304000000020380100201D
:1009C0003800002044010020400000204A0100209F
:1009D000540000202DE9F35F05F0F9F9264D0022BF
:1009E0002B4605F05BFA6FF00106324606F081F8FF
:1009F000224F00223B4605F027F8DFF884800022D2
:100A0000434605F021F804F031FF05F057FDDFF80B
:100A10007490DFF874B04A465B4605F03FFADFF8A1
:100A20006CA00022534605F039FA04F01FFF184C61
:100A30006063019805F0CBF900222B4605F02EFAF1
:100A4000324606F056F800223B4604F0FDFF002235
:100A5000434604F0F9FF04F009FF05F02FFD4A4674
:100A60005B4605F01BFA0022534605F017FA04F026
:100A7000FDFEA063BDE8FC9F0000694000003E4011
:100A800000407F40F1D4C853FB21094000C05040D2
:100A90005C010020F8B500250446009590F824007C
:100AA00001280BD0012084F824002046FFF758FDD0
:100AB0002046FFF781FD060002D050E00220F8BD7D
:100AC000A06A20F4885040F00200A062022000F0EA
:100AD00009FD25490968B1FBF0F0400000E0401E27
:100AE00000900028FBD12068816841F008018160F6
:100AF00000F056FC074608E000F052FCC01B0A2834
:100B000003D920688068000715D420688068000732
:100B1000F2D42068816841F00401816000F040FC5B
:100B2000074612E000F03CFCC01B0A280DD92068E3
:100B30008068400709D5A06A20F0020040F010004C
:100B4000A06284F824500120F8BD20688068400726
:100B5000E8D4A06A20F0020040F00100A06284F80E
:100B600024503046F8BD000064000020F8B5002491
:100B7000009490F824202546012A12D0012280F802
:100B800024204A681F23072A0DD20668776B521E5D
:100B900002EB820293409F430B6893401F437763AD
:100BA00019E00220F8BD06680D2A0AD2376BD21F61
:100BB00002EB820293409F430B6893401F433763CD
:100BC00009E0F76A0D3A02EB820293409F430B68FB
:100BD00093401F43F7620A68072306680A2A0AD36C
:100BE000F7680A3A02EB420293409F438B689340B6
:100BF0001F43F76008E0376902EB420293409F43CE
:100C00008B6893401F4337610A68102A01D0112A6C
:100C100020D1124B02689A4217D193681B0219D453
:100C2000936843F4000393600968102912D10C49BA
:100C30000C4A0968B1FBF2F101EB8101490000E0C7
:100C4000491E00910029FBD104E0816A41F0200196
:100C50008162012480F824502046F8BD0024014020
:100C60006400002040420F00806A70470068C06C3A
:100C7000704700002DE9F0414FF0000704003D46A9
:100C80007ED0A06A002628B9E66284F82460204657
:100C900000F07EF82046FFF763FCA16AC90600D485
:100CA00020B1A06A40F01000A06269E0A16A21F4BE
:100CB000885141F00201A1626268E169237B0A4325
:100CC00047EA43010A43A1684FF48077B94209D04B
:100CD000012907D05FF0000194F814C0BCF1010FA6
:100CE00002D00AE03946F7E7F3B1A36A43F02003E4
:100CF000A362E36A43F00103E3622368D3F804C00C
:100D00002CF4694C4CEA010CC3F804C021688B68D0
:100D1000DFF870C003EA0C0313438B60A168B9428B
:100D20000BD0012909D00CE0DFF85CC0A3690CEB03
:100D300043330B4343F40061DFE7218A0D05A5F53A
:100D400080152168CB6A23F470032B43CB622168A2
:100D500089680E4B1940914208D1E662A16A21F0E0
:100D6000020141F00101A162BDE8F081A06A20F01A
:100D7000020040F01000A062E06A40F00100E06272
:100D80000120F1E7FDF7E1FF00E0FFFFFE0E1FFF8E
:100D900000B585B000210091019102910391006896
:100DA0000E49884218D10E48816941F40071816171
:100DB000816901F400710491816941F00801816148
:100DC0008069694600F0080004900120009003202B
:100DD0000190044800F0EEF905B000BD0024014088
:100DE00000100240000C01402DE9F84300270D4699
:100DF0000446009700F0D4FA804620688168C9054F
:100E000008D5A06A40F02000A06284F82470012078
:100E1000BDE8F8834168C90503D4C06A10F4700FB7
:100E20002AD0022000F05EFB3B490968B1FBF0F6D6
:100E30002068036939490B424FEA61014FEAA11268
:100E40001FD1C3684FEA611C13EA0C0F19D1036963
:100E50000B4225D1C068104222D1142023E0681C27
:100E60000AD02DB100F09CFAA0EB0800A84203D9EB
:100E700020680068800725D5206800688007EED5C7
:100E80002DE003690B4202D1C168114206D002690C
:100E900023490A4206D1C068084203D1542002E027
:100EA000292000E0FC204643009816E0681C11D081
:100EB0002DB100F075FAA0EB0800A8420AD90098FD
:100EC000B04207D2A06A40F00400A06284F8247007
:100ED00003209DE70098401C0090B042E6D32168B3
:100EE0006FF012000860A06A40F40070A0622068F1
:100EF0008068C0F3424007280CD1207B50B9A06A1B
:100F000020F48070A062A06AC00403D4A06A40F0FC
:100F10000100A06200207BE76400002024499224A5
:100F20004992240070B5044690F8240001280DD0A1
:100F3000012084F824002046FFF73EFB02004FF01A
:100F4000000005D084F82400104670BD022070BD5A
:100F5000A16A40F20123994341F48071A1621F4DBF
:100F600023681F49AB4218D10E6816F4702F14D0B5
:100F7000A66A46F48016A6620E68760505D5A66AAE
:100F800026F4005646F48056A662A66AF6040AD5F0
:100F9000E66A26F00606E66206E0A66A26F48016F1
:100FA000A6625E68E9E7E06284F824006FF0020060
:100FB000186020688368C3F34243072B05D1A84219
:100FC00008D1096811F4702F04D0816841F48011B0
:100FD0008160B9E7816841F4A001F9E70028014088
:100FE0000424014010B590F821100022022905D0F8
:100FF0000421816380F82020012010BD01680B6866
:1010000023F00E030B6001680B6823F001030B60F3
:1010100090F84030C46B012101FA03F3636080F85B
:10102000211080F82020104610BD000010B590F867
:1010300021100024022903D00421816301243DE012
:1010400001680A6822F00E020A6001680A6822F04C
:1010500001020A601A4A0168914201D1012121E08E
:10106000174A1432914201D110211BE0144A283250
:10107000914201D1891515E0114A3C32914201D1CA
:1010800089140FE00E4A5032914202D14FF4803160
:1010900008E00B4A6432914202D14FF4801101E022
:1010A0004FF08071064A083A5160012180F8211002
:1010B000002180F82010416B01B18847204610BD07
:1010C0000800024070B5044600F06AF90546601C4D
:1010D00002D004480078044400F062F9401BA042AA
:1010E000FAD370BD580000202DE9F041B0F5805FC3
:1010F00041D122480178E1B30021017020480078F5
:10110000FFF72AFB032002F037FB4642042002F0DF
:1011100033FB444221463046FFF75CFC1948016826
:1011200019480068FFF786FA05462146304602F066
:101130003BFF04461548006802F068FD29190D18A8
:10114000134B144C144E081A1D607742206032462F
:101150003946284602F030FA18603246394620688F
:1011600002F02AFA014620601868BDE8F04102F05A
:10117000B5BB0121C1E7BDE8F08100005C010020A2
:10118000000000203C00002038000020400000202B
:1011900024000020280000200CE5FFFF044910B5C2
:1011A0000A68024202D00860FFF79EFF10BD0000EF
:1011B000140401402DE9F84FDFF8B8910024A9F19B
:1011C000040B23460F2709F1040AABF1040EC9E012
:1011D0000125A5402A40AA427DD1674ED1F804C01E
:1011E000ACEB0608B44532D014DCBCF1030F3AD0A6
:1011F00009DCBCF1000F2AD0BCF1010F1CD0BCF1FE
:10120000020F31D11DE0BCF1110F17D0BCF1120F4C
:101210002AD119E0B8F5881F19D006DCB8F5803F4F
:1012200015D0B8F5801F1FD111E0B8F5001F0ED002
:10123000B8F5041F18D10AE0CB6815E0CB681B1D78
:1012400012E0CB6808330FE0CB680C330CE08B68FE
:101250002BB1012B4FF0080303D0456104E00423B8
:1012600002E0056100E00023FF2A01D8064601E004
:1012700000F104064FEA840501D9A5F12005D6F84E
:10128000008007FA05FC28EA0C0803FA05F548EA8D
:101290000508C6F800804D68ED0062D5374DAE698F
:1012A00046F00106AE61AD6924F0030605F00105C4
:1012B0000095334D06EB050CDCF80850A607360FF9
:1012C00007FA06F825EA0805DFF8B880404503D19B
:1012D0004FF0000817E044E0DFF8AC80404502D151
:1012E0004FF001080FE0DFF8A480404502D14FF035
:1012F000020808E0DFF89880404502D14FF003086B
:1013000001E04FF0040808FA06F848EA0508CCF8AE
:1013100008804D68D9F80060ED024D4601D51643AE
:1013200000E096432E604D68DAF80060AD02554645
:1013300001D5164300E096432E604D68DBF800604F
:10134000AD035D4601D5164300E096432E604D681F
:10135000DEF80060ED03754601D5164300E09643C4
:101360002E60641C0D682A46E5407FF431AFBDE86D
:10137000F88F000008040140000011100010024026
:101380000000014000080140000C01400010014035
:10139000001401400AB1016170470904FBE7000035
:1013A00001488068704700005800002002488168AA
:1013B000027811448160704758000020074810B53A
:1013C000016841F010010160032000F079F800206D
:1013D00000F006F800F024F8002010BD00200240C4
:1013E00070B50D4D04464FF47A712878B1FBF0F0DA
:1013F0000A490968B1FBF0F000F0E3FC48B9102C91
:1014000007D200222146501E00F03AF800206C60FE
:1014100070BD012070BD0000580000206400002055
:101420000E4808B5816941F001018161816901F0CF
:1014300001010091C16941F08051C161C06900F0B2
:1014400080500090052000F03BF80548416821F0ED
:10145000E06141F00071416008BD000000100240F1
:1014600000000140002809DB00F01F02012191402B
:101470004009800000F1E020C0F800117047000032
:10148000F0B40E4B1B680C46C3F30223C3F10705EF
:10149000042D00D90425191D072901D2002300E0DD
:1014A000DB1E012606FA05F1491E214099409E40A7
:1014B000761E16403143F0BC02F07ABE0CED00E01F
:1014C000064900F0070208684FF6FF03184040EA9B
:1014D0000220034A10430860704700000CED00E052
:1014E0000000FA0510B501460020234C012922D046
:1014F000022939D010291DD161682268D20119D57D
:101500001E48C1F38342C903805C0AD561681B4A47
:10151000C1F34041921E515C194AB2FBF1F14843BC
:1015200001E0184948436168490203D4400003219F
:10153000B0FBF1F010BD226AC2F30121012903D1F1
:10154000920701D5C80310BD022905D1626A92072E
:1015500002D549F6404010BD0329FCD1216889031A
:10156000F9D54FF2244010BD00F02AF96168C1F3AB
:101570008131491C4900DBE700100240DE6B0008A6
:1015800000127A0000093D002DE9F8430546007875
:10159000354CC00754D0E0690026C00008D4E0698B
:1015A00040F08050E061E069012600F0805000903A
:1015B0002E480168C90512D40168804641F4807143
:1015C0000160FFF7EDFE074605E000BFFFF7E8FE0C
:1015D000C01B642823D8D8F80000C005F6D5206ABF
:1015E00010F4407021D0A98801F4407181421CD0D0
:1015F000206A1F49012220F440700A6000220A601C
:101600002062C00711D0FFF7CBFE074641F28838B1
:1016100008E000BFFFF7C4FEC11B414502D903200B
:10162000BDE8F883206A8007F4D5206A696820F451
:101630004070084320621EB1E06920F08050E061F4
:101640002878800705D56068A96820F440400843E1
:1016500060602878C00605D56068E96820F48000DD
:10166000084360600020DBE700100240007000408B
:10167000400442422DE9F0470F46050061D0434E39
:10168000306800F00700B84209D2306820F0070047
:1016900038433060306800F00700B84251D1286804
:1016A0003B4C810712D5400703D5606840F4E060E9
:1016B00060602878000703D5606840F4605060607F
:1016C0006068A96820F0F000084360602878C007CF
:1016D00028D06868012810D02168022810D0890716
:1016E00000292EDA616821F0030101436160FFF7F0
:1016F00057FE804641F288390DE021688903EFE703
:101700008901EDE7FFF74CFEA0EB0801494502D93E
:101710000320BDE8F0876068696800F00C00B0EB5A
:10172000810FEFD1306800F00700B8420BD9306864
:1017300020F0070038433060306800F00700B842FE
:1017400001D00120E5E72878400705D56068E96801
:1017500020F4E060084360602878000706D56068E0
:10176000296920F4605040EAC100606000F038F858
:101770006168084AC1F30311515CC840064908601A
:1017800006480068FFF72CFE0020C2E70020024058
:1017900000100240EE6B0008640000205C00002096
:1017A0000448054900684968044AC1F30221515CB4
:1017B000C84070476400002000100240FE6B000823
:1017C0000448054900684968044AC1F3C221515CD4
:1017D000C84070476400002000100240FE6B000803
:1017E0000E4A51680E4801F00C03042B11D0082B4F
:1017F0000FD10C48C1F38343C903C05C0AD55168BB
:10180000084AC1F34041921E515C054A5043B0FB67
:10181000F1F070470449484370470000001002404F
:1018200000127A00CC6B000800093D002DE9F84F4A
:10183000040070D02078C04DC00749D06868C0F35C
:101840008100012807D06868C0F38100022809D10F
:101850006868C00306D52868800339D56068002809
:10186000E7D035E06068B0F5803F0BD010B1B0F53F
:10187000A02F11D0286820F480302860286820F438
:10188000802002E0286840F480302860606890B1D1
:10189000FFF786FD06460AE0286840F480202860AD
:1018A000F0E700BFFFF77CFD801B642873D8286831
:1018B0008003F7D50CE0FFF773FD064605E000BF97
:1018C000FFF76EFD801B6428F0D828688003F7D4EA
:1018D00020789A4E80074FF001094FF0000839D563
:1018E000686810F00C0F07D06868C0F38100022808
:1018F00009D16868C00306D42868800714D5206918
:10190000012808D110E02069B0B1C6F80090FFF7B7
:1019100047FD074605E00AE1FFF742FDC01B02282C
:10192000C4D828688007F7D52868616920F0F800D6
:1019300040EAC10028600DE0C6F80080FFF730FDE6
:10194000074604E0FFF72CFDC01B022823D82868B7
:101950008007F7D4207800072CD57948A169D9B140
:10196000C0F80090FFF71CFD074604E0FFF718FDE4
:10197000C01B02280FD8686A8007F7D571484FF45A
:10198000FA510068B0FBF1F0009000BF0098411ED2
:101990000091FAD20EE080E0C0F80080FFF700FD71
:1019A000074604E0FFF7FCFCC01B022875D8686AF4
:1019B0008007F7D42078400760D5E8690027C00089
:1019C00008D4E86940F08050E861E869012700F038
:1019D000805000905C480168C90513D401688346B3
:1019E00041F480710160FFF7DBFC824606E000BF36
:1019F000FFF7D6FCA0EB0A0064284ED8DBF8000005
:101A0000C005F5D5E06801280AD008B1052813D033
:101A1000286A20F001002862286A20F0040002E011
:101A2000286A40F001002862E06841F2883B98B1E2
:101A3000FFF7B6FC82460BE0286A40F004002862FB
:101A4000EEE700BFFFF7ACFCA0EB0A0159455AD8FE
:101A5000286A8007F6D50CE0FFF7A2FC824605E075
:101A6000FFF79EFCA0EB0A0159454CD8286A800775
:101A7000F6D41FB1E86920F08050E861E06988B3CE
:101A80006968C1F38101022944D00228C6F8608048
:101A900004D0FFF785FC044638E034E0FFF780FC13
:101AA000074604E0FFF77CFCC01B02282BD82868FF
:101AB0008001F7D4206AB0F5803F05D16868A1683D
:101AC00020F4003008436860D4E9080108436968DD
:101AD00021F4741108436860C6F86090FFF760FC59
:101AE000044606E025E000BFFFF75AFC001B022871
:101AF00009D828688001F7D51BE000BFFFF750FC2C
:101B0000001B022802D90320BDE8F88F2868800155
:101B1000F4D40EE00128F7D06868226A00F480311E
:101B2000914204D1616A00F47010884201D0012012
:101B3000EAE70020E8E7000000100240000042420F
:101B400080044242640000200070004070B5040030
:101B500009D0606A002540B125616561A56294F8ED
:101B6000510040B10CE0012070BD6068B0F5827F8B
:101B7000F4D0E561F2E784F85050204600F040F8D8
:101B8000022084F851002068016821F040010160C2
:101B9000A088218900F4827001F404410843A189DE
:101BA00001F400610843217C01F002010843217D1A
:101BB00001F001010843218B01F400710843217FEA
:101BC00001F03801084394F8201001F08001084327
:101BD000218D01F40051084321680860A0690421A7
:101BE00001EA1040216848602068C16921F4006161
:101BF000C1616565012084F85100002070BD0000BE
:101C000000B585B000210091019102910391006817
:101C10000F4988421AD10F48816941F4805181618E
:101C2000816901F480510491816941F0040181616D
:101C30008069694600F004000490A0200090022012
:101C40000190032003900448FFF7B4FA05B000BDEB
:101C50000030014000100240000801402DE9F84F1B
:101C6000984616468A460446FFF79AFB814694F842
:101C7000510001281ED1BAF1000F73D0002E71D08F
:101C800094F85000012815D0012784F850700320E3
:101C900084F8510000256565C4F830A0A686E68664
:101CA000A563A587E58765642564A068B0F5004F46
:101CB00003D00CE00220BDE8F88F2068016821F015
:101CC000400101602068016841F4804101602068A2
:101CD0000168490603D4016841F040010160E068F1
:101CE000B0F5006F606803D048B3012E27D047E0FD
:101CF00008B1012E1FD1206B21680088C86006E062
:101D000020688168890709D5216B0988C160206B2B
:101D1000801C2063E08E401EE0860CE0FFF740FB55
:101D2000A0EB0901414503D3B8F1FF3F03D035E0F3
:101D3000B8F1000F32D0E08E0028E1D123E0206B13
:101D400021680078087306E02068816889070AD551
:101D5000216B09780173206B401C2063E08E401ECC
:101D6000E0860DE02BE0FFF71BFBA0EB09014145EE
:101D700003D3B8F1FF3F03D010E0B8F1000F0DD04E
:101D8000E08E0028E0D14A464146204601F02EFD73
:101D900008B120206065A06830B109E084F8517076
:101DA00084F85050032086E72068C168806800905E
:101DB00084F8517004F8505F60680028F3D0012067
:101DC00079E710B5401EB0F1807F01D3012010BD2E
:101DD0004FF0E02460610F21601702F0E9F9002064
:101DE000A06107202061002010BD7047704710B52A
:101DF00090F83C20012A22D0012280F83C20CA68B9
:101E00008C6822F4407222434C6822F480622243A0
:101E10000C6822F4006222430C6922F480522243AF
:101E20004C6922F400522243C969002322F4804203
:101E30000A4301684A6480F83C30002010BD02204B
:101E400010BD000070B590F83C20012A26D0012476
:101E500080F83C40022280F83D2003685A689D6863
:101E600022F070060A6832435A600D4B02689A42AB
:101E700008D0B2F1804F05D00A4B9A4202D00A4BEB
:101E80009A4204D1496825F080031943916080F893
:101E90003D40002180F83C10084670BD022070BD16
:101EA000002C0140000400400008004010B5040070
:101EB00003D094F83D0010B107E0012010BD0020D0
:101EC00084F83C00204600F01FF8022084F83D0012
:101ED000211D206801F078FD012084F8460084F877
:101EE0003E0084F83F0084F8400084F8410084F804
:101EF000420084F8430084F8440084F8450084F8E4
:101F00003D00002010BD000008B500680649884269
:101F100008D10648816941F400618161806900F45B
:101F20000060009008BD0000002C0140001002403D
:101F300070B5044690F83C000025012817D0012612
:101F400084F83C60022084F83D002068826822F01A
:101F5000770222F47F4282600868502838D00DDC76
:101F600020284FD005DC90B3102811D14AE0022080
:101F700070BD302846D040280AD13BE060282FD0E1
:101F800070280DD0B0F5805F03D0B0F5005F12D09F
:101F9000012584F83D60002084F83C00284670BD8F
:101FA000CB68D1E90121206801F057FD20688168E4
:101FB00041F0770109E0CB68D1E90121206801F007
:101FC0004CFD2068816841F480418160E1E719E0BF
:101FD000CA684968206801F0F5FD5021206806E0D4
:101FE000CA684968206801F0FEFD6021206801F0A0
:101FF0003EFDCEE7CA684968206801F0E3FD402154
:102000002068F4E7226801461046F0E72DE9F04128
:102010000D46040003D094F83D0018B108E00120FB
:10202000BDE8F081002084F83C00204600F040F834
:10203000022084F83D002068816844F20702914341
:102040008160211D206801F0BFFC226890689169C1
:10205000166A2B68AF69034340F20330814341EABB
:102060000721A868EF6908434FF6FC418843E968F7
:1020700040EA0720014328692F6A000140EA07303F
:10208000084369686D6926F0220646EA051529436A
:1020900093602268906154F8460B0162012004F8B5
:1020A0001F09E0752076E0762077A0750020B7E75D
:1020B00000B585B000210091019102910391264B5A
:1020C0000268264926489A4224D1CA6942F002028F
:1020D000CA61CA6902F0020204928A6942F00802E7
:1020E0008A61896901F008010491302100916946F3
:1020F000FFF760F81B48416821F4406141F0E0615E
:1021000041F400614160002201211D20FFF7B8F970
:102110001D201DE0144B9A421CD1CA6942F00402F2
:10212000CA61CA6902F0040204928A6942F0080294
:102130008A61896901F008010491C0210091694612
:10214000FFF738F8002201211E20FFF799F91E2021
:10215000FFF788F905B000BD000400400010024000
:10216000000C0140000001400008004070472DE9CC
:10217000F04104460068C66805694FF00007A907EA
:1021800013D5B10711D5F91E016101202077206810
:1021900080698007204602D0FFF7E8FF04E000F0E6
:1021A000A5F8204600F037F92777680716D570079D
:1021B00014D521686FF004000861022020772068A0
:1021C000806910F4407F204602D0FFF7CFFF04E083
:1021D00000F08CF8204600F01EF92777280715D567
:1021E000300713D521686FF00800086104202077BC
:1021F0002068C0698007204602D0FFF7B7FF04E0DF
:1022000000F074F8204600F006F92777E80616D5A6
:10221000F00614D521686FF01000086108202077BF
:102220002068C06910F4407F204602D0FFF79EFF6F
:1022300004E000F05BF8204600F0EDF82777E807AF
:1022400008D0F00706D021686FF001000861204631
:1022500000F030F9280608D5300606D521686FF061
:10226000800008612046FFF7C0FD680608D57006AB
:1022700006D521686FF040000861204600F01BF988
:10228000A8060AD5B00608D521686FF020000861BD
:102290002046BDE8F041FFF7A9BDBDE8F081000090
:1022A00000B585B000210091019102910391006871
:1022B0000B49884212D10B48816941F004018161C8
:1022C0008069694600F0040004904FF410600090AB
:1022D0000220019003900448FEF76CFF05B000BD9A
:1022E000002C01400010024000080140704770B50A
:1022F000044690F83C0000260D4601280FD001202E
:1023000084F83C006AB1042A1DD0082A2FD00C2A78
:102310003FD00126002084F83C00304670BD0220EA
:1023200070BD206801F0ACFB2068816941F00801B4
:1023300081612068816921F00401816120688169DF
:102340002A69114311E0206801F0C2FB206881690D
:1023500041F4006181612068816921F480618161BB
:10236000206881692A6941EA02218161D2E72068F7
:1023700001F0DAFB2068C16941F00801C161206801
:10238000C16921F00401C1612068C1692A69114352
:1023900011E0206801F0F4FB2068C16941F400619C
:1023A000C1612068C16921F48061C1612068C1698F
:1023B0002A6941EA0221C161ACE710B5040003D0EB
:1023C00094F83D0010B107E0012010BD002084F812
:1023D0003C00204600F01EF8022084F83D00211D3C
:1023E000206801F0F1FA012084F8460084F83E00EC
:1023F00084F83F0084F8400084F8410084F84200EB
:1024000084F8430084F8440084F8450084F83D00D3
:10241000002010BD7047704710B50446022249B134
:1024200004290ED0082913D094F84100012816D0B1
:10243000012010BD94F83E000128F9D184F83E2017
:102440000FE094F83F000128F2D184F83F2008E023
:1024500094F840000128EBD184F8402001E084F892
:1024600041200122206801F0EBFA0F4920688842E0
:1024700003D1426C42F4004242642068884208D092
:10248000B0F1804F05D00949884202D008498842FE
:1024900004D1816801F00701062903D0016841F0E9
:1024A00001010160002010BD002C0140000400402B
:1024B000000800407047704770477047F8B50168E2
:1024C00004460868CA684B6910F00F0F4FF000050A
:1024D00059D003F0010602F49077374365D0C10765
:1024E00005D0D10503D5616C41F00101616441075C
:1024F00005D5D90703D0616C41F002016164810701
:1025000005D5D90703D0616C41F00401616401076E
:1025100007D502F02001314303D0616C41F008017E
:102520006164616C00293AD0800604D5900602D51A
:10253000204601F01AFC20684069616CC0F38010ED
:10254000090700D460B3204601F0E8FB2068406929
:10255000400621D52068143050E8001F21F04001CA
:1025600040E80012002AF5D1E06BA8B16D49416343
:10257000E06BFEF75BFD002811D0E06B416B01B012
:10258000BDE8F040084783060FD593060DD52046D9
:10259000BDE8F84001F0E9BB2046FFF78EFFF8BD2B
:1025A0002046FFF78AFF6564F8BD266B2023012EC5
:1025B0007CD1C6067AD5D60678D5086848680090DA
:1025C00048694FF00206400640D5E16B0868406854
:1025D0000004000CE8D0A28D8242E5D9E08588692C
:1025E00020282DD020680C3050E8001F21F4807185
:1025F00040E80012002AF5D12068143050E8001F8E
:1026000021F0010140E80012002AF5D120681430C1
:1026100050E8001F21F0400140E80012002AF5D1E7
:1026200084F84230256320680C3050E8001F21F008
:10263000100140E80012002AF5D1E06BFEF7D2FC51
:102640006663A08DE18D401A81B22AE0A08DE18DF4
:10265000401A81B2E08D0028A6D00029A4D02268BB
:102660000C3252E8000F20F4907042E80007002F6F
:10267000F5D12068143050E8002F22F0010240E824
:102680000027002FF5D184F84230256320680C30F4
:1026900050E8002F22F0100240E80023002BF5D173
:1026A00066632046FFF708FFF8BDFFE705062BD558
:1026B000150629D594F841002128F5D1A068B0F578
:1026C000805F01D12069B0B1206A411C216221687C
:1026D00000784860E08C401E0004000CE084E3D1E8
:1026E0002068C16821F08001C1602068C16841F0A4
:1026F0004001C160D8E7206A0088C0F30800486044
:10270000206A801C2062E5E74006CDD55006CBD577
:10271000CA68204622F04002CA6084F8413000F0C6
:1027200005FAC1E70D3D000870B5040004D094F827
:102730004100002510B106E0012070BD84F8405032
:10274000204600F023F8242084F841002068C16866
:1027500021F40051C160204601F068FB2068016946
:1027600021F4904101612068416921F02A01416111
:102770002068C16841F40051C1606564202084F87C
:10278000410084F842006563002070BD70B586B0DA
:102790000024009401940294039403682E482D4E63
:1027A000022103220515B34226D1836943F48043F5
:1027B0008361836903F480430493836943F00403D2
:1027C00083618069254E00F0040004900802CDE981
:1027D0000001039269463046FEF7ECFCCDE9005457
:1027E000694630460294FEF7E5FC002201212520CF
:1027F000FEF746FE252028E0194EB34227D1C369D3
:1028000043F48023C361C36903F480230493836981
:1028100043F0080383618069CDE9005100F00800AE
:10282000CDE903200F4D69462846FEF7C3FCE814A6
:10283000CDE90004694628460294FEF7BBFC00225D
:1028400001212720FEF71CFE2720FEF70BFE06B015
:1028500070BD000000380140001002400008014037
:1028600000480040000C014090F84230202B01D07D
:102870000220704721B11AB10023036301F032BB7B
:10288000012070472DE9F04700686F49884270D1F8
:102890006E486E4DDFF8B8C10078ED1E6D49A86036
:1028A0006D4A6E4B6E4E0127002428714FF00209CD
:1028B000592816D0582817D00A281BDD5A282ED0A0
:1028C00041283ED045282FD0422831D043282FD050
:1028D00044282DD0462830D047282ED048282CD048
:1028E00004E08CF8009001E08CF800700C7014701B
:1028F0001C7034700A282ADA5FEA000C0FD0012815
:102900001FD0052810D002281DD003281BD0042872
:1029100019D0062829D0072827D0082825D00C70E0
:10292000147003E0347012E00C7017701C70F9E73B
:102930000C7014701C703770DCE70C7014701F7012
:10294000D7E70F70ECE70C7014701C7037703F49BC
:10295000444AC91E7B2849780CD07D280FD02B789B
:10296000012B08D0022B0CD065E00C7014701F7086
:10297000D8E767E02F705054491C69705BE085F818
:102980000090D078502805D0507823284BD0A970DB
:10299000914629E03448077045E06978081A03F049
:1029A00016FA02460B460020304902F04DFA064660
:1029B000A8780F468046484410F8010C303803F0E0
:1029C00006FA32463B4603F069FA06460F46E868C7
:1029D00003F074FD32463B4602F07AFF02F046FFF8
:1029E000E860A8F10100A870A8780428D5D299F869
:1029F00001003038062816D2DFE800F00306090C83
:102A00000F121B49E8680DE01A49E8680AE01A4904
:102A1000E86807E01949E86804E01949E86801E056
:102A20001849E86808602C706C70AC7032210D4851
:102A3000EC60FDF790FCBDE8F04701220349124825
:102A4000FFF712BFBDE8F087004800406B00002090
:102A50000100002020000020210000202200002092
:102A6000230000200808002050000020000024401F
:102A7000080000200C00002010000020140000209E
:102A8000180000201C000020400300202DE9F8431E
:102A9000044690F84100984616460D46202802D07C
:102AA0000220BDE8F88385B17EB10020606421205A
:102AB00084F84100FEF774FCA6848146E684A06891
:102AC0002027B0F5805F02D003E00120E9E720690C
:102AD00010B12E4600250EE000260CE08021204695
:102AE00001F01BFAA8B9C6B116F8010B21684860BD
:102AF000E08C401EE084E08C4B464FF00002CDF8A5
:102B000000800028EAD14FF04001204601F005FA8C
:102B100040B184F841700320C3E735F8020BC0F3DD
:102B20000800E3E784F841700020BAE77047FEE749
:102B300070B50D46044600F0C1F8204600F08EF84E
:102B400000F004F9284600F089F800F0FFF800F0E2
:102B5000B5F8641CE0B200F081F800F0F7F800204E
:102B600000F046F8044600F0D1F8204670BD0000A1
:102B700070B50D4C0025C4F8A0510C48016821F037
:102B8000F0010160016841F030010160C4F8A45116
:102B9000012004F5D07401F0D5FE0120206001F081
:102BA000D1FE256070BD000000802142040C014070
:102BB00070B50D4C0025C4F8A0510C48016821F0F7
:102BC000F0010160016841F0300101600126C4F8A4
:102BD000A461304604F5D07401F0B4FE26600120F3
:102BE00001F0B0FE256070BD00802142040C014060
:102BF0002DE9F047814617480024016821F0F001D3
:102C00000160016841F080010160134E25462746AE
:102C10004FF00108C6F8A071022001F093FEC6F83B
:102C2000A0816006040ED6F8240108B1641CE4B249
:102C3000022001F087FE6D1CEDB2082DEAD3B9F138
:102C4000000F02D0FFF794FF01E0FFF7B1FF20462D
:102C5000BDE8F087040C0140008021422DE9F041DD
:102C600006461448016821F0F0010160016841F056
:102C700030010160104C0027C4F8A0713D464FF0B0
:102C80000108F009C4F8A4017006060E012001F045
:102C900059FEC4F8A081012001F054FEC4F8A071CF
:102CA000012001F04FFE6D1CEDB2082DE9D3BDE807
:102CB000F0810000040C01400080214270B51148F1
:102CC000016821F0F0010160016841F0300101600C
:102CD0000D4C0120C4F8A401D4F8241149B1C4F862
:102CE000A00101F02FFE0025C4F8A451D4F824015E
:102CF00008B1002070BD012001F024FEC4F8A051ED
:102D0000012070BD040C0140008021420D4810B527
:102D1000016821F0F0010160016841F030010160BB
:102D2000094C0020C4F8A001C4F8A401012004F556
:102D3000D07401F007FE012020606060BDE8104003
:102D400001F000BE040C01400080214270B5134820
:102D50000024016821F0F0010160016841F0800168
:102D600001600F4D0126C5F8A461304601F0EAFD6F
:102D7000C5F8A06107E0641CE4B2322C03D9FFF768
:102D8000C5FF002070BD012001F0DCFDD5F8240155
:102D90000028F0D1C5F8A001012070BD040C01404D
:102DA000008021422DE9F34F524D8DB00846A968AD
:102DB0004F4E089103F0F6FD2968009103F01CFDC9
:102DC000696803F0A7FB05F15C040690676830466C
:102DD000394603F0E7FDD4F80890494603F0E2FDD8
:102DE00045490860E268904682F00046434A4E60DA
:102DF000C1E90262009903F0FFFC216803F08AFB3D
:102E000083463046009903F0F7FC0646394603F046
:102E100081FB82463046494603F07CFB81463748B9
:102E2000009903F0E9FC414603F074FB80460699E3
:102E30000D9803F0B7FD039059464FF07E5003F014
:102E4000DBFC064649464FF07E5003F0D5FC04906B
:102E500031464FF07E5003F0CFFC4FF07C5103F031
:102E600059FB07460146304603F0BCFB019039464A
:102E7000049803F0B7FB009051464FF07E5003F0EA
:102E8000BBFC07463146019803F0B6FC594603F0F7
:102E90007FFD20603946019803F0AEFC514603F0F7
:102EA00077FD60603146009803F0A6FC494603F0C8
:102EB0006FFDA0603946009803F09EFC414603F088
:102EC00067FDE0600399019803F096FC069903F012
:102ED00021FB686004460399009803F08DFC089973
:102EE00003F018FBA8600FB02046BDE8F08F00008B
:102EF0006F12833A7C0000203C080020A69B443BD4
:102F00002DE9F34F524D8DB00846696B4F4E089135
:102F100003F048FD2968009103F06EFC296B03F073
:102F2000F9FA05F16C04069067683046394603F0FB
:102F300039FDD4F80890494603F034FD454908604E
:102F4000E268904682F00046434A4E60C1E9026260
:102F5000009903F051FC216803F0DCFA8346304607
:102F6000009903F049FC0646394603F0D3FA82463D
:102F70003046494603F0CEFA81463748009903F0BF
:102F80003BFC414603F0C6FA804606990D9803F0D3
:102F900009FD039059464FF07E5003F02DFC064684
:102FA00049464FF07E5003F027FC049031464FF025
:102FB0007E5003F021FC4FF07C5103F0ABFA074642
:102FC0000146304603F00EFB01903946049803F0A9
:102FD00009FB009051464FF07E5003F00DFC074670
:102FE0003146019803F008FC594603F0D1FC2060FB
:102FF0003946019803F000FC514603F0C9FC6060BB
:103000003146009803F0F8FB494603F0C1FCA0608C
:103010003946009803F0F0FB414603F0B9FCE0604C
:103020000399019803F0E8FB069903F073FA28630B
:1030300004460399009803F0DFFB089903F06AFA4D
:1030400068630FB02046BDE8F08F00006F12833A2E
:103050007C0000204C080020A69B443B3EB5002489
:1030600012480094019402940F4984600160047333
:103070000475012505614FF460214460C161FDF7CD
:10308000F9FD08B1FDF74FFB0820CDE900056946C1
:1030900002940648FDF76AFD08B1FDF744FB0348BA
:1030A000FDF7F8FC3EBD000000240140980100201F
:1030B0002DE9F04385B0002429480094019402943E
:1030C0000394816941F020018161816901F020014F
:1030D0000491816941F004018161816901F0040179
:1030E0000491816941F0080181618069DFF8749081
:1030F00000F00800049000221C214846FEF74AF91F
:10310000DFF864804FF47347002239464046FEF7EB
:1031100041F91C2001250226CDE90005CDE9024632
:1031200069464846FEF746F800970396CDE90154F4
:1031300069464046FEF73EF8280300900B48CDE96B
:10314000010469464846FEF735F80022022128208E
:10315000FEF796F92820FEF785F905B0BDE8F08363
:103160000010024000080140000C01400000211046
:10317000114810B50F4901604FF4827141604FF45E
:103180000041816000210222C0E903120122426154
:10319000520282610822C0E90721416281620A214C
:1031A000C162FEF7D3FC002803D0BDE81040FDF754
:1031B000BABA10BD00300140C801002010B596B069
:1031C00000240F9410941194129413941C216846B7
:1031D0001494FDF7E2F8202107A8FDF7DEF82C484B
:1031E0002A49C0E9001441F61F41C0E9024180218B
:1031F0000461C0E90541FEF759FE08B1FDF793FAF5
:103200004FF480500F900FA92148FEF791FE08B1AE
:10321000FDF789FA1E48FFF7D0F808B1FDF783FAE9
:10322000139413A91A481494FEF70CFE08B1FDF785
:103230007AFA6020CDE90004029403940494059482
:103240000022694612480694FFF751F808B1FDF7CD
:103250006AFA0C2269460E48FFF749F808B1FDF7F3
:1032600062FA0794089409944FF400500A94CDE947
:103270000B4007A906480E94FEF7B9FD08B1FDF70B
:1032800052FA0348FFF70CF816B010BD002C0140AD
:103290002002002010B58CB024216846FDF77DF88F
:1032A00000241648099414490A94C0E900144FF602
:1032B000FF71C0E90241046184610320CDE900048B
:1032C0000120CDE902040494CDE905400794694644
:1032D0000A480894FEF79AFE08B1FDF724FA09940B
:1032E00009A906480A94FEF7ADFD002801D0FDF7B4
:1032F0001AFA0CB010BD0000000400406802002063
:1033000010B58CB024216846FDF747F80024164814
:10331000099414490A94C0E900144FF6FF71C0E9FA
:103320000241046184610320CDE900040120CDE95C
:1033300002040494CDE90540079469460A480894BC
:10334000FEF764FE08B1FDF7EEF9099409A90648F5
:103350000A94FEF777FD002801D0FDF7E4F90CB0E0
:1033600010BD000000080040B00200200C4810B55D
:103370000A4901604FF4E1314160002181600C2273
:10338000C160C0E904128161C161FFF7CDF9002875
:1033900003D0BDE81040FDF7C6B910BD00380140AC
:1033A000F80200200E4810B50C4901604FF4165188
:1033B0004160002181600C22C160C0E9041281617A
:1033C000C161FFF7B1F908B1FDF7ADF9BDE81040F3
:1033D000012204490248FFF747BA000000480040B4
:1033E000400300206B000020FEE7FEE730B4002120
:1033F000084B0A465FF0000003EBC004401CC0B25B
:1034000062548028F8D3491CC9B20829F2D330BCD1
:1034100000F088B88803002010B5414C0022082134
:103420002046FDF7B7FFC820FDF74CFE012208211A
:103430002046FDF7AFFF0021AE2000F099F80021F3
:10344000084600F095F80021102000F091F80021C6
:10345000402000F08DF80021812000F089F8002143
:10346000CF2000F085F80021A12000F081F8002194
:10347000C82000F07DF80021A62000F079F8002196
:10348000A82000F075F800213F2000F071F800211D
:10349000D32000F06DF80021084600F069F8002103
:1034A000D52000F065F80021802000F061F80021AF
:1034B000D92000F05DF80021F12000F059F800213A
:1034C000DA2000F055F80021122000F051F8002118
:1034D000DB2000F04DF80021402000F049F80021E9
:1034E000202000F045F80021022000F041F80021E2
:1034F0008D2000F03DF80021142000F039F8002163
:10350000A42000F035F80021A62000F031F8FFF7E4
:103510006DFF0021BDE81040AF2000F029B8000089
:103520000008014070B5114E002400BF04F1B00046
:10353000C0B2002100F01CF80021084600F018F885
:103540000021102000F014F85FF0000506EBC50024
:103550000121005D00F00CF86D1CEDB2802DF5D35B
:10356000641CE4B2082CE1D370BD00008803002085
:1035700013B50F4C09B1012200E0002204212046BE
:10358000FDF708FF002210212046FDF703FF64230A
:10359000012269460748FEF761FB012210212046FF
:1035A000FDF7F8FE012204212046FDF7F3FE1CBDC5
:1035B00000080140C8010020884200DD0846904212
:1035C00000DA1046704770472DE9F04F89B0684C1B
:1035D00007A8CDE9004004F1260106AB02AA881F26
:1035E00001F0CAF92088C0057ED5029803F0D8F80A
:1035F0006FF01D06314603F0AAFA8046606003981A
:1036000003F0CEF8314603F0A2FA0746A060049812
:1036100003F0C6F8314603F09AFA0546E0600598D3
:1036200003F0BEF8314603F092FA0646206101210C
:10363000404603F08CFA294603F0DEF805464FF0C9
:1036400040484146384603F0D7F8314603F0D4F8F5
:10365000294602F05FFF02F031FF00F033FEDFF891
:1036600014A14FF066394A46534602F017FC02F0A7
:10367000FDF86061E0680121054603F068FA8346C1
:10368000294603F0B9F80546A0684146064603F00E
:10369000B3F8314603F0B0F8294603F083F94FF050
:1036A0007E5102F037FF02F009FF07460D46012167
:1036B000606803F04CFA314603F09EF8064658461F
:1036C000216903F099F8314602F024FF02F0F6FE7A
:1036D0003A462B4601F03EF84A46534602F0DEFBDE
:1036E00002F0C4F8A06100E03FE0216901910846C2
:1036F00003F082F8E16807460846009103F07CF881
:10370000A16806468B46584603F076F86168054680
:103710008846404603F070F8294602F0FBFE314629
:1037200003F040F9394603F03DF902F0C7FE0646C2
:103730000D464046019903F05FF807465846009948
:1037400003F05AF8394602F0E5FE012103F0FFF9D3
:1037500002F0B4FE32462B4600F0FCFF4A465346C8
:1037600002F09CFB02F082F8E06109B0BDE8F08F46
:103770002401002066A64C400021032803D0042821
:1037800003D000207047034A00E0034A106811602C
:1037900000B27047240400402408004010B54221C4
:1037A000D020FFF7C5F904464121D020FFF7C0F92A
:1037B00004EB002003F00CF8B0F18E4F03DD4FF066
:1037C0008F4103F0EFF8064902F00CFF02F076FE9D
:1037D000044A054B02F07CF8BDE8104002F046B800
:1037E0000000AA43A4703D0AD7434240F8B51546ED
:1037F0000E460B46009204460122022100F010F80A
:1038000040B93346002280212046009500F008F898
:10381000002804D0606D40F0200060650320F8BDF2
:103820002DE9F8431E46914688460446089DFDF75B
:10383000B7FD401B351AFDF7B3FD07462548006864
:10384000C0F3CB30684338E0701C37D0FDF7A8FDDB
:10385000C01BA84203D215B1009860B32CE02068C9
:10386000416821F0E00141606068B0F5827F0BD1D2
:10387000A068B0F5004F02D0B0F5806F04D1206889
:10388000016821F040010160A06AB0F5005F09D134
:103890002068016821F4005101602068016841F44A
:1038A00000510160012084F85100002084F850008C
:1038B0000320BDE8F8830025401E00902068816841
:1038C00038EA010004D000214945BDD10020F0E7CD
:1038D0000121F9E7640000207047000030B50023A3
:1038E0000124114A002804DDC2F8B841C2F8BC31F5
:1038F00003E0C2F8B831C2F8BC4101F09FFA0B4DA9
:103900002860002904DDC2F8B441C2F8B03103E0F8
:10391000C2F8B431C2F8B041084601F08FFA034949
:103920000C31086030BD000000802142342C014081
:10393000FDF73CBD30B593B028216846FCF72DFD5E
:1039400014210AA8FCF729FD002501200F951095E8
:103950001195010412958DE8230004904FF4E010B6
:10396000CDE90810022407946846FDF75FFF08B10F
:1039700072B6FEE70AA90F2081E831004FF480609B
:10398000CDE90D0502210AA8FDF774FE08B172B653
:10399000FEE74FF4004011900F940FA8FDF7F4FDDF
:1039A000002801D072B6FEE713B030BD70470000AA
:1039B0000148FEF7DCBB0000680200200148FEF76A
:1039C000D6BB0000B0020020F0B50268194B1A4CBB
:1039D0001A4D4FF08047984205D0B84203D0A0421C
:1039E00001D0A84203D122F070064A6832439842BF
:1039F00005D0B84203D0A04201D0A84203D122F49E
:103A00004074CA6822434C6922F08002224302605B
:103A10008A68C2620A688262984201D109690163B8
:103A2000012141610169C90703D0016921F0010148
:103A30000161F0BD002C014000040040000800407E
:103A400010B501F01F030121046A99408C43046200
:103A5000016A9A401143016210BD10B5846842EAC0
:103A6000032224F47F440A432243826010BD82680B
:103A700022F070020A4342F00701816070470000A3
:103A800030B5036A026A22F0010202624268846968
:103A900024F073050C682C4323F002058B682B433C
:103AA0000A4DA8420BD123F00805CB6822F44072DE
:103AB0002B434D6923F0040315438A692A4342606E
:103AC000846149684163036230BD0000002C0140FD
:103AD00030B5026A036A23F0100303624368846905
:103AE0000D6824F4E64444EA05248D6822F020029F
:103AF00042EA05120B4DA8420ED1CD6822F0800299
:103B000042EA05124D6923F4406343EA85038D6957
:103B100022F0400243EA850343608461496881637F
:103B2000026230BD002C014030B5036A026A22F403
:103B3000807202624268C46923F4007324F0730542
:103B40000C682C438D6843EA05230C4DA8420ED126
:103B5000CD6823F4006343EA05234D6922F4405203
:103B600042EA05128D6923F4806342EA051242603D
:103B7000C4614968C163036230BD0000002C01408C
:103B800030B5046A026A22F4805202624268C36954
:103B90000D6823F4E64343EA05238D6824F40054BA
:103BA00044EA0534064DA84204D14D6922F480420E
:103BB00042EA85124260C36149680164046230BD13
:103BC000002C014010B5036A046A24F00104046269
:103BD000846924F0F00444EA021423F00A020A4340
:103BE0008461026210BD10B5036A046A24F01004F7
:103BF0000462846923F0A00324F4704444EA02328E
:103C000043EA01118261016210BD00002DE9F0411B
:103C100007462248244C06682148256B0178214834
:103C20000129007829D02149097801292BD00020C9
:103C3000A0621F48007801282CD01E480078012877
:103C400028D00021384602F0D7FD1B4F394602F03C
:103C5000C9FC05463146A06A02F0CEFD394602F0A5
:103C6000C1FC294602F056FC1449096802F052FCD6
:103C7000E062BDE8F04102F077BD02F0A9FD014627
:103C800085F0004003E002F0A3FD0146284602F063
:103C9000A9FCCDE70A480168D4E70000180000201D
:103CA00022000020010000205C01002023000020F1
:103CB00020000020210000200000C8424800002011
:103CC0001C0000200D4A904209D80D4A904206DCA3
:103CD0000C480078012802D0B1F57A7F0BDA0A4A45
:103CE00001200021C2F8B811C2F8BC11C2F8B41109
:103CF000C2F8B0117047002070470000000020C2D9
:103D000000002042020000200080214210B5406ADD
:103D10000021C185C184FEF7D0FB10BD01680C31C4
:103D200051E8002F22F4907241E80023002BF5D1D6
:103D30000168143151E8002F22F0010241E800230C
:103D4000002BF5D1016B012909D101680C3151E833
:103D5000002F22F0100241E80023002BF5D1202192
:103D600080F8421000210163704708B590F84210B6
:103D7000222901D0022008BD82684FF480539A4264
:103D800001D1016921B1816A9A421BD04AB10AE08E
:103D90000268816A5268C2F308020A80816A891C3B
:103DA00008E0026972B10268526802F07F020A708C
:103DB000816A491C8162C18D491E0904090CC185B3
:103DC00003D01BE002685268F1E70168CA6822F07C
:103DD0002002CA600168CA6822F48072CA60016861
:103DE0004A6922F001024A61202180F84210002134
:103DF0004163026B012A03D0FEF744FD002008BD99
:103E0000016301680C3151E8002F22F0100241E8F3
:103E10000023002BF5D101680A68D20602D50A6892
:103E200049680091818DFEF747FBE7E770B50446CE
:103E300000680169E26821F4405111430161216980
:103E4000A0680843616908432168CA6841F20C63AD
:103E50009A430243CA6020684169A26921F4407113
:103E6000114341611E492068884202D1FDF7A8FC38
:103E700001E0FDF795FC00EBC00101EB001260686A
:103E800064218000B2FBF0F3B3FBF1F36FF018068E
:103E90007343B2FBF0F5B2FBF0F605EB830532237A
:103EA00003EB0515B5FBF1F5B6FBF1F605F0F005F2
:103EB00005EB0615B2FBF0F6B2FBF0F0B0FBF1F04B
:103EC0006FF01802504306EB800003EB0010B0FBCC
:103ED000F1F0216800F00F002844886070BD0000F8
:103EE0000038014081628285C2850021416422211F
:103EF00080F84210016921B10168CA6842F48072F9
:103F0000CA6001684A6942F001024A610068C168FA
:103F100041F02001C160002070472DE9F843984628
:103F200017460D460446089E24E0701C22D0FDF77B
:103F300037FAA0EB0800B0421AD8CEB12068C168A9
:103F4000490717D5802D15D0402D13D00168C943DE
:103F500009070FD401680025406800902046FFF74C
:103F6000DDFE0820606484F840500120BDE8F8833D
:103F70000320FBE72068006835EA000004D0002039
:103F8000B842D2D00020F1E70120F9E70148FEF75E
:103F900095BA0000F80200200148FEF78FBA000031
:103FA00040030020FEE700002DE9F04781465C4811
:103FB0005C4C8A460078012820D05B4800780128B4
:103FC0001CD05A4860625A4801785A480129007842
:103FD000804615D058480078012816D05748006808
:103FE0005849E06156480D68574900780F7857499D
:103FF00002280E7813D0012833D035E05448E1E789
:1040000002F0E6FB0146606A06E0404602F0E0FB93
:104010000146606A80F0004002F0E4FAE0E7A5F1B2
:10402000C900B0F5957F0BD8012F09D0012E07D01C
:10403000404602F0CDFB0146606A02F0D3FAE0612F
:10404000C82D11D2012F0FD0012E0DD0404602F005
:10405000BFFB0146606A80F0004002F0C3FAE061F5
:1040600002E0B5F5E17FEDD309EB0A00404202F032
:1040700097FB05466061A06902F020FA354A364B8D
:1040800001F00CFF01F0F2FB0746284602F016FA99
:10409000324A334B01F002FF05460E46384602F025
:1040A0000DFA2A46334601F013FC01F0DFFB05460A
:1040B0000146A061206A02F02DFAE16902F02AFAB5
:1040C00028492062884202DC2749884200D92162BF
:1040D00026480168206A02F08FFB254902F082FA27
:1040E000064624480168284602F086FB224902F071
:1040F00079FA314602F056FC2061204801682048D8
:104100000068FFF7DFFD012803D01E480078012872
:1041100001D1002020622069BDE8F04702F024BBF5
:10412000040000205C01002005000020000048423F
:104130002000002001000020210000204400002079
:10414000030000204C00002022000020230000205B
:104150000000F04185EB51B81E85EB3FEC51B81ED5
:1041600085EBC13F00401C4600401CC614000020E7
:104170000000C842100000200000C8C2300000202B
:104180003800002002000020490050EAC12018BF7A
:1041900004204A0D18BF40F0010040F2FF72B2EB5C
:1041A000515F08BF40F00200012808BF052070479A
:1041B0000907090E002804DB00F1E02080F8001454
:1041C000704700F00F0000F1E02080F8141D7047E8
:1041D0002DE9F0414F1E00EBC7010446D1E9000173
:1041E00015461E4637F006020DD02A46334601F02A
:1041F00055FE7F1E04EBC703D3E9002301F068FBE3
:1042000037F00602F1D1022F25D0042F13D0062F4C
:1042100018BFBDE8F0812A46334601F03FFED4E9DD
:104220000A2301F055FB2A46334601F037FED4E954
:10423000082301F04DFB2A46334601F02FFED4E956
:10424000062301F045FB2A46334601F027FED4E958
:10425000042301F03DFB2A46334601F01FFED4E95A
:10426000022301F035FB2A46334601F017FED4E95C
:104270000023BDE8F04101F02BBB000000221346F3
:104280001046014901F0E0BB0000F03F012202F0BE
:1042900030BC01F01DBB002213461046114601F050
:1042A000D3BB40F2013200204FF0E04102F021BCCC
:1042B000024A0020110702F01CBC000001FDFFFFB4
:1042C000704700002DE9F04D8D4F21F0004A86B077
:1042D00005460C46BA452ADBAAEB070028430AD05C
:1042E0008848824501DC1AD1CDB106B02846BDE828
:1042F000F04DFFF7CBBF844A844B284601F0CEFD3A
:1043000007460E46824A834B2846214601F0C6FDE9
:1043100006B03A463346BDE8F04D01F0D9BA012067
:10432000FCF76AF806B0BDE8F04DFFF7B4BF7A4875
:10433000824542DABAF1795F0BDA2846FFF724FFAB
:10434000042808BFFFF7B4FF284606B02146BDE8A1
:10435000F08D2A460B46104601F0A0FD834602462A
:104360006E480E460B4606217844FFF731FF5A4649
:10437000334601F093FD804669488A465A463346E3
:1043800004217844FFF724FF5A46334601F086FDA6
:1043900000223B4601F09CFA02460B46404651463D
:1043A00001F052FB2A46234601F078FD06B02A466A
:1043B0002346BDE8F04D01F08BBA284624F00041B9
:1043C00000223D463B4601F09DFE4FF0FF3202F0D9
:1043D00090FB0646024653480F460B46062178449A
:1043E000FFF7F6FE32463B4601F058FDCDE90001ED
:1043F0004D4832463B4604217844FFF7E9FE3246F9
:104400003B4601F04BFD00222B4601F061FA83464A
:1044100002913046394601F003FA804643480D4682
:10442000504517DCDDE900015A46029B01F00CFB08
:1044300042462B4601F032FD42462B4601F048FA37
:10444000012202F056FB304A304B01F04DFF304A5A
:10445000304B4CE04FF0000A52460B46404601F00C
:1044600037FACDE9031052462B461046194601F0A3
:1044700015FD32463B4601F045FEDDE9033201F011
:10448000E3FA06460F46DDE900015A46029B01F0B9
:10449000DBFA8346009101223046394602F029FBBF
:1044A000194A1A4B01F02EFE06460F4601224046DD
:1044B000294602F01EFB5A46009B01F0EFFC3246F3
:1044C0003B4601F011FF06460F46012250462946A1
:1044D00002F00FFB0E4DDFF858802A46434601F0EC
:1044E00011FE32463B4601F00DFE2A46434601F0DE
:1044F00009FE002CD8BF81F0004106B0BDE8F08D68
:104500000000F03F0000F07F075C143326A6913CCA
:10451000182D4454FB21F93F0000E03FEC28000037
:1045200002290000762800008C2800003333EF3F7A
:10453000FB21E93F2DE9F84F04460D4621F00040EC
:1045400000917349814211DC7249884201DC06D135
:104550002CB120462946BDE8F84FFFF797BE6E48BC
:10456000002DCCBF6D496E49BDE8F88F6D49814281
:1045700011DD6D498142D8BF4FF0FF366DDD204619
:104580002946FFF701FE042808BFFFF791FE2046E9
:104590002946BDE8F88F6549654F25F00045814201
:1045A00033DD6449814219DD002632464FF08043F5
:1045B0002046294601F08CF980468A460122204691
:1045C000294602F096FA00223B4601F08DFE424653
:1045D000534601F039FA04460D463EE0012600221A
:1045E000BA463B462046294601F072F980460F46FE
:1045F000002253462046294601F076FE42463B46BD
:1046000001F022FA04460D4627E04B4981421BDDAA
:10461000DFF828A10226002253462046294601F051
:104620003DFC00223B4601F053F980460F46002234
:1046300053462046294601F057FE42463B4601F0CC
:1046400003FA04460D4608E0032622462B460020C6
:104650003B4901F0F9F904460D4622462B46104627
:10466000194601F01BFC8B46824602460B4601F0C0
:1046700015FC07460246334888460B460621784417
:10468000FFF7A6FD52465B4601F008FC82462E4825
:104690008B463A46434605217844FFF799FD3A4652
:1046A000434601F0FBFB02460B46002E504659469E
:1046B0000CDA01F00DF922462B4601F0EFFB01B0B8
:1046C00022462B46BDE8F04F01F01CBD01F000F979
:1046D00022462B4601F0E2FB1C4A7A4402EBC60359
:1046E000D3E9002301F000FE22462B4601F0FCFD39
:1046F000174A7A4402EBC603D3E9002301F002FD16
:10470000009A002AB8BF81F00041BDE8F88F000090
:10471000000010440000F07F182D4454FB21F93FA5
:10472000FB21F9BF0000DC3F0000203E0000F33F0A
:104730000000F03F0000E63F008003400000F83F2B
:104740000000F0BF16270000D426000072260000EB
:104750003A2600002DE9F04D9446CCF1000423F0F8
:1047600000464CEA0404594F46EAD4749A468846F7
:1047700021F00042BC4206D8454240EA050442EA24
:10478000D474BC4204D9BDE8F04D6246FFF781BD48
:10479000AAF14055A5F17F6555EA0C040BD002241F
:1047A00004EAAA744A4DDFF82CE144EAD87452EACC
:1047B000000B04D00CE0BDE8F04DFFF7BBBE002CB1
:1047C00014BF012CBDE8F08D022C30D0032C32D068
:1047D00056EA0C0B0AD0BE4220D1BA4209D126F0CB
:1047E000804622F080423346114617E000291ADB4A
:1047F00025E0DFF8E4B0FB44002C04BFDBE9000156
:10480000BDE8F08D012C02BFDBE9000181F0004121
:10481000BDE8F08D022C0AD0032C0CD0BA4212D184
:10482000B8F1000F0BDA2A482C49BDE8F08D284674
:104830002B49BDE8F08D28467146BDE8F08D24482F
:104840002849BDE8F08D921B12153C2AC4BF204FA9
:10485000244E10DCBAF1000FBEBF12F13C0F00274E
:104860003E4608DB624601F0EFF821F00041FFF719
:1048700061FE07460E4694B1012C08BF86F0004643
:104880000DD0194A194B022C3846314615D001F08B
:104890002BFD2A46BDE8F04D114B01F025BD00224D
:1048A00013463846314601F027FA04BF0220FBF7D1
:1048B000A3FD38463146BDE8F08D01F015FD2A46CE
:1048C000BDE8F04D064B01F01DBC00000000F07F7C
:1048D000182D4454FB2109C0CE250000FB21F9BF4F
:1048E000FB210940FB21F93F075C143326A6A13CBC
:1048F0004FF0E020016921F0040101610348092122
:10490000017042F228314180704700007800002099
:104910000B49498848434FF0E021486100228A61F1
:10492000086940F0010008610869C30701D0C003AD
:10493000FAD5086920F0010008618A61704700001B
:10494000780000200B49097848434FF0E021486186
:1049500000228A61086940F0010008610869C30704
:1049600001D0C003FAD5086920F0010008618A610E
:1049700070470000780000202DE9FF4F89B01746EE
:10498000DDE916520024544E884681462C80A2460A
:10499000B07B694600F062F94FF0FF3B18B1584612
:1049A0000DB0BDE8F08F708910F0140F4CD0BDF839
:1049B00000109DF8022049BA090441EA02239DF83B
:1049C00003100B433B60BDF804109DF8062049BA64
:1049D000090441EA02229DF807101B140A437A6079
:1049E000BDF808109DF80A4049BA090441EA0421BB
:1049F0009DF80B4012142143B960BDF80C409DF89E
:104A00000EC064BA240444EA0C2C9DF80F4009142B
:104A10004CEA040CC7F80CC04FEA2C475B434943EF
:104A200002FB023207FB071111441024A1F170614F
:104A3000B1F1007F04D900F059F9A5F800A0AEE764
:104A4000298841F4807129804206694611D50A19E6
:104A5000A41D13885BBAA8F8003053885BBAA8F885
:104A60000230928852BAA8F804202A8842F008023C
:104A70002A8010F4C07F11D00A19A41D13885BBAD4
:104A8000A9F8003053885BBAA9F80230928852BA6C
:104A9000A9F804202A8842F070022A80800716D0E4
:104AA0000C44E07800F0C00500F03F016078C007DA
:104AB00006D0C80801F007013268491C02B19047CE
:104AC0006078000703D5716809B1A80988470C9878
:104AD00000F0B8F9002063E75C0800202DE9F04100
:104AE0001D4614460F460646FEF7E8F8B0B17006BC
:104AF000000EFEF7B3F8FEF729F990B13846FEF73D
:104B0000ADF8FEF723F9FEF7D9F8012000EB4600D7
:104B1000C0B2FEF7A3F8FEF719F90FE00120BDE8D7
:104B2000F081FEF7F3F8F9E7012C0DD05FF00100FA
:104B3000FEF75EF8641E05F8010BE4B2002CF3D119
:104B4000FEF7E4F80020EAE70020F1E72DE9F04164
:104B50001E4615460F460446FEF7B0F868B16006DB
:104B6000000EFEF77BF8FEF7F1F848B13846FEF785
:104B700075F8FEF7EBF800240CE00120BDE8F081A9
:104B8000FEF7C4F8F9E7305DFEF768F8FEF7DEF8E7
:104B900010B1641CAC42F6DBFEF7B8F80020EDE77C
:104BA00086B0FCF70BFCFEF7C5FEFEF781FAFEF7B8
:104BB000DFFAFEF7DBFBFEF701FBFEF76BFBFEF710
:104BC0009FFBFEF7EFFBFEF749FAFEF725FCFEF729
:104BD0000DFCFFF78DFE00211948FDF71DFC0C218F
:104BE0001748FDF719FC174D174E6FF00B07174CC0
:104BF0004FF47A784FF4FA79FBF798FD4FF4A571EA
:104C0000484301F0FBF82A46334601F047F93A469B
:104C100001F06FFF01F0ACF8024620600CA168467D
:104C2000FBF7F6FA6846FBF777FB82B24346694624
:104C30000948FDF72BFF4846FFF76AFEDCE7000056
:104C400020020020713D0AD7A3F02540300000204B
:104C500025640D0A00000000400300202DE9F84300
:104C6000214C0646174694F8240089464FF0FF3839
:104C700090B3A07A80B320686B460222817A606884
:104C80000078FFF72BFF38BBBDF8000045BAB542EE
:104C900002D2002038701FE060684188B5EB510FE8
:104CA00011D9216800786B46497C0122FFF716FF75
:104CB00090B99DF80000C00605D500F017F86FF018
:104CC0000100BDE8F8832068F2B24B46C17A606803
:104CD0000078FFF703FF08B14046F2E7B5FBF6F0B6
:104CE000401E38700020ECE7F8000020F8B5524C68
:104CF0004FF0FF36A07A00287CD000258DF80050B8
:104D000020686B460122C17B60680078FFF71EFFB8
:104D100000286FD120686B460122417960680078D5
:104D2000FFF714FF002865D120686B460122017946
:104D300060680078FFF70AFF00287AD194F8240011
:104D4000C8B30C208DF8000020686B460122017961
:104D500060680078FFF7FAFE00286AD1C0208DF85D
:104D60000000A07AC00702D0E0208DF80000206883
:104D70006B460122017960680078FFF7E7FE0028A2
:104D800057D1607C18B102208DF8000001E08DF849
:104D9000005020686B460122C17B60680078FFF7F5
:104DA000D5FE38BB8DF8005020686B460122417952
:104DB0006068007839E0FFE704208DF80000206883
:104DC0006B460122017960680078FFF7BFFE88B961
:104DD000A07C80B9A07AC0070DD060208DF80000BB
:104DE00020686B460122017960680078FFF7AEFE0B
:104DF00000B902E01DE04020F0E7607C18B101201E
:104E00008DF8000001E08DF8005020686B4601220B
:104E1000C17B60680078FFF799FE50B92068064BA7
:104E200001224179606810330078FFF78FFE002877
:104E300000D03046F8BD0000F8000020002800DA5D
:104E400040427047704700002DE9F04D1D460C466A
:104E500098B0174621F0004123F00043002814BF0A
:104E60004FF0010C4FF0000C0CEB440CFE4A0CEB25
:104E700002064FEA620C66452BD33E0018BF01269E
:104E800006EB45061644F94A964222D3F84A53EAFD
:104E9000070C02D0944205D148B918B00020114641
:104EA000BDE8F08D002808BF4FF0000C01D04FF096
:104EB000010C0CEB440212F5001F0AD8002F14BF9E
:104EC0004FF0010C4FF0000C0CEB450212F5001FE7
:104ED00007D918B03A462B462146BDE8F04DFFF7FA
:104EE000D8B90022DFF88CA3002CB8BF534526DACE
:104EF000DFF884C36345A8BF022220DADFF870C35D
:104F00009C451CDCDFF874C30CEB235CBCF1140F74
:104F100008DDCCF1340627FA06FC0CFA06F6BE4290
:104F20000DD108E05FB9CCF1140623FA06FC0CFAA7
:104F300006F69E4203D10CF00102C2F1020251EAD0
:104F4000000C19D1002D17DA002C18BF022A01D04D
:104F5000012A07D00220FBF74FFA18B0BDE8F04D48
:104F6000FFF78CB90220FBF747FAFFF787F918B073
:104F700081F00041BDE8F08DB7F1000C6CD15345D4
:104F800025D104F1804212F5801201BF00280020D3
:104F9000B74918B008BFBDE8F08DB548884207DCB6
:104FA000002DA1BF6046294618B0BDE8F08D07E08E
:104FB000281E05DA80F0004118B06046BDE8F08D8B
:104FC000AF497944D1E9000118B0BDE8F08DDFF8B0
:104FD000A0C2634525D1002D1FDA19B1514512D168
:104FE000D8B909E0002840F0EC82A24A214618B066
:104FF00062F31E01BDE8F08D0020214618B060F379
:105000001E01BDE8F08D08DA18B02346BDE8F04D6A
:1050100002460020614600F017BD18B02146BDE8E9
:10502000F08D514518DAB5F1804F0DD0A5F1005C37
:10503000BCF1FF5C10D1B4F1000C0DDB18B061467F
:10504000BDE8F04D00F0ECBB234618B00246BDE8C9
:10505000F04D194600F022BF060024F0004C3BD171
:10506000D9B1514533D1002C06DD002DA1BF002060
:10507000514618B0BDE8F08D002C01DD002D1BDB82
:10508000002C13DA002D11DB012A4FF0000014BFB1
:1050900078497C4918B0BDE8F08D022A18BF002C71
:1050A0000AD0012A08D1002C06DA0AE0002CB8BF89
:1050B000002D11DA012A04D0002018B00146BDE805
:1050C000F08D18B000204FF00041BDE8F08DA1F147
:1050D0004050B0F17F601AD0012000EBE47050EA3C
:1050E000020421D0624C521E4FF0000B104304BF4B
:1050F0004FF0000B644C654883427CDD644A654890
:1051000093421FDD884217DB002D25DB37E0002CA2
:1051100000DA4AB1022A0CBF01204FF0FF3018B06C
:10512000BDE8F04D00F053BE0120FBF765F918B063
:10513000BDE8F04DFFF7AFB84D4A8A4202DC002DC2
:105140000ADC1CE0814202DA002D18DA04E0484B48
:10515000994220DD002D12DD0220FBF74DF9FFF70B
:10516000A0F805460E46002253465846214600F058
:1051700095FE18B066F31E012846BDE8F08D0220AA
:10518000FBF73AF9FFF794F80A46214618B062F3A4
:105190001E01BDE8F08D00223046614601F0A4F802
:1051A00080460E466FF0010201F0A3FC4FF055322D
:1051B000394B00F0A7FF4246334600F06FFE002255
:1051C000364B00F09FFF824642463346049110461C
:1051D000194600F063FE5246049B00F05FFE8A46CB
:1051E00000904FF0C0422E4B4046314600F056FE34
:1051F0002C4A2B4B00E027E0CDE9060151460098F0
:1052000000F04CFE82460191274A284B4046314629
:1052100000F044FE5246019B01F066F882460B46C0
:1052200002460591DDE9060100F052FBDDE90623A7
:1052300000268846304601F057F85246059B00F09C
:1052400061FF024600F07EB90020B1F5801F07DA49
:1052500035223046614601F04CFC06466FF03400C2
:1052600000EB215024E00000FFFF1F00FFFF0F00B4
:105270000000F03F0000F07F0000404301FCFFFF12
:10528000021E00000000F0FF0000F0BF0000E0413F
:105290000000F043FFFFEF3F5555D53F0000E03FD2
:1052A0004715F73FFE822B6544DF5DF80BAE543E99
:1052B000A0F2FF300190C1F3130040F07F6141F094
:1052C00040510291FE498842D8BF002004DDFD49CB
:1052D0008142C8BF012001DD0D9008E000200D9043
:1052E0000198401C01900298A0F58010029002994C
:1052F000F54878440B910D9900EBC100D0E90023EB
:105300000F9330460A920B9900F0EEFFCDE90601AB
:10531000DDE90A2130460F9B00F0DAFA02460B461F
:105320000020EA4900F090FB059102460B460090F0
:10533000DDE9060100F0B2FD1490E5488A464FF021
:10534000000878440299006812904FF0005040EA3B
:1053500061010D980F9B01EB804000F50021099140
:105360000A9A129800F0C0FF32460B9B00F0CAFE6A
:105370004246534600F092FD064602914046514691
:10538000099B129A00F08AFDDDE9062300F0BAFEBF
:105390003246029B00F0A8FF059B009A00F07EFDBC
:1053A0000091149A049053461046194600F076FD79
:1053B00006460246C7480B46029106217844FEF78E
:1053C00007FFCDE90510029B32461046194600F052
:1053D00065FDDDE9053200F061FD059106465346A5
:1053E00040461946149A00F073FA009B049A00F0A4
:1053F00055FD3246059B00F06BFACDE9051042469B
:1054000053461046194600F049FD0022B24B029166
:105410000A9000F05DFADDE9053200F059FA0E4617
:105420004246AD4B404600F05FFF029B0A9A00F0F7
:105430005BFFDDE9053200F065FE424602910A900D
:1054400033461046514600F029FDCDE9060153468A
:10545000149A02990A9800F021FD8A460290334678
:1054600042460099049800F019FD5346029A00F054
:105470002FFA82460B4602460591DDE9060100F04F
:1054800027FADDE9062300208846064600F02CFFB7
:105490005246059B00F036FE824609914FF060426D
:1054A0008E4B3046414600F0F9FC049006918C4A40
:1054B0008A4B5046099900F0F1FC82460291894AD4
:1054C000894B3046414600F0E9FC5246029B00F011
:1054D000FFF9864B7B440D9A03EBC203D3E900230B
:1054E00000F0F6F90E900791019800F070FC05911C
:1054F000DDE9061382460E9A049800F0E9F97C4A29
:105500007A440D9B02EBC303D3E90023009302927C
:1055100000F0DEF95246059B00F0DAF900268846D5
:1055200052463046059B00F0DFFE009B029A00F0D9
:10553000DBFE069B049A00F0D7FE079B0E9A00F054
:10554000E1FD024600200B4602903846294600F055
:10555000A5FC824601912B4638461946029A00F076
:10556000C3FE3246434600F099FC5246019B00F0D0
:10557000AFF907468A46324643462946029800F06C
:105580008DFC05460E463A46534600F0A1F9594AAD
:105590008846914221DBA8EB020353EA000210D1B6
:1055A0002A46334600F0A0FECDE90401524A534B8F
:1055B0003846514600F08CF9DDE9042300F06CFD1B
:1055C00021D20220FAF718FFFEF76BFE0A462146A9
:1055D00018B062F31E01BDE8F08D494B28F000427F
:1055E0009A4210D3474A08EB020353EA00027FF4C1
:1055F000C6AD2A46334600F077FE3A46534600F0E1
:105600004BFD7FF6BCAD0022019228F000403E49E0
:105610003E4A01EB2051824223DA481C4FF48011AC
:1056200021FA00F040443A4AC0F30A517A44394B17
:10563000A1F2FF31CB4020EA0303C0F3130040F492
:105640008010C1F11401C84012680190B8F1000F38
:10565000BCBF404201902846314600F045FE054659
:105660000E462A4633463846514600F031F94FF08F
:1056700000084246284B4046059100F00FFCCDE95A
:105680000601264A264B4046059900F007FC00918A
:1056900002902A4633464046059900F025FE3A46D8
:1056A000534600F02FFD1F4A1F4B00F0F7FB009BF5
:1056B000029A00F00DF90746884602460B4635E08F
:1056C0008E9803007AB60B00B21900000000F03F7C
:1056D000821A0000181900000000084009C7EE3FB8
:1056E000FD033ADCF5015B14E02F3EBEF01700002D
:1056F000B417000000009040FE822B654715973CD0
:1057000000CC904000346F3F01FCFFFF0000E03F01
:1057100098170000FFFF0F00432EE63F396CA80CDE
:10572000615C20BEEF39FAFE422EE63FDDE906015C
:1057300000F0CEF8DDE9062305460E4600F0D4FD64
:105740003A46434600F0DEFC0F462A4633460090B8
:105750001046194600F0A2FB824602462E488846B3
:105760000B4605217844FEF733FD5246434600F0D0
:1057700095FB2A46334600F0C5FC80468A463B46E8
:1057800028463146009A00F089FB3B46009A00F01B
:105790009FF80691009000224FF08043404651460A
:1057A00000F0A2FD0F460C90424653462846314673
:1057B00000F074FB3B460C9A00F046F9069B009AF9
:1057C00000F092FD2A46334600F08EFD0022134B76
:1057D00000F098FC054601980E4601EB00510815B3
:1057E000002810DC28463146019A01F082F9FEF7C4
:1057F000CBFC042808BFFEF75BFD28463146019A22
:1058000001F077F905460B4618B02A46584621465E
:10581000BDE8F04D00F042BBA01500000000F03FD5
:105820002DE9F04106460F4600F078FC041E0D46B7
:1058300018BF0120284320F00040C0F17F6000F134
:10584000E040C00F0ED0301C18BF0120384320F0BC
:105850000040C0F17F6000F1E040C00F04BF0120B4
:10586000FAF7CAFD20462946BDE8F08121F0004242
:10587000A2F16052B2F5801F01F0004328BFD2F1BF
:105880007F6C0BD95FEA001C43EAC20242EB507006
:1058900018BF704728BF20F001007047B2F5801F85
:1058A000BCBF184670474FEA410C1CF5001F02D2DE
:1058B000084601F068B870B500F09AFB0000008956
:1058C000FFF7F6BF4FF00040A0F5800070470000E2
:1058D00010B591EA030F48BF83F0004300F10C8537
:1058E000841A71EB030C05D2121943EB0C03001B55
:1058F00061EB0C01DFF824E14FEA1154A4EB135CD7
:105900001EEA430F18BF9EEA445F73D023EA0E03DA
:10591000DCF1200E21EA045143F4801332D322FA41
:105920000CFE10EB0E0023FA0CFE41EB0E01CCF145
:10593000200E03FA0EFE10EB0E0051F10001B1F53E
:10594000801FCCF1200E32D201EB045112FA0EF27C
:10595000BDE8104058BF7047401C38BF5FEA4202A4
:1059600018BF7047002814BF20F0010041F100016A
:105970004FEA410313F5001F38BF7047A1F1C04142
:1059800000F084BB012A43EB0302ACF1200CDCF1F4
:105990001F0E32BF4FF0000E23FA0CF310EB030082
:1059A00041EB0451B4EB115FD0D0A1EB045101F5F0
:1059B000801149085FEA300001EB04510ED350F129
:1059C000000038BF12FA0EFE08D1BDE81040C9E74A
:1059D000401C38BF5FEA4202CAD1C3E7BDE81040AD
:1059E0004FEA410313F5001F38BF7047A1F1C041D2
:1059F00000F04CBB9EEA445F08D011EA5E0FBDE8A0
:105A0000104004BF01F0004100207047BDE8104085
:105A100070B500F0EDFA00BF64FBBE3E0000E0FF91
:105A200002494FF0000001F032B800BF0000F87FDB
:105A3000491058BFC1F140415B1058BFC3F140430A
:105A40008B42EFF3008070472DE9C04130B4DFF89E
:105A5000A0C23CEA111418BF3CEA131400F0EC8019
:105A600081EA03051CEA111444EAD57418BF1CEA44
:105A7000131500F0C780A4EB05044FF0004545EA7C
:105A8000C12145EAC32341EA505143EA525304F18C
:105A90007F74994204F500344FEAC0204FEAC222D5
:105AA00008BF904200F09C804FEA13650FF2401649
:105AB000765D4FEA134506FB05F7C7F1807706FBD5
:105AC00007F74FEAD737A7FB03687642C8F5803857
:105AD000A7FB06CE38BFA8F1010807FB08E64FF088
